:020000040800F2
:1000000080B10020CD0100089904000843040008D5
:100010009504000875020008FF08000800000000B1
:10002000000000000000000000000000D5040008EF
:10003000D902000800000000B104000819060008F9
:10004000E7010008E7010008E7010008E7010008F0
:10005000E7010008E7010008E7010008E7010008E0
:10006000E7010008E7010008E7010008E7010008D0
:10007000E7010008E7010008E7010008E7010008C0
:10008000E7010008E7010008E7010008E7010008B0
:10009000E7010008E7010008E7010008E7010008A0
:1000A000E7010008E7010008E7010008E701000890
:1000B000E7010008E7010008E7010008E701000880
:1000C000E7010008E7010008E7010008E701000870
:1000D000E701000819080008E7010008E701000827
:1000E000E7010008E7010008E7010008E701000850
:1000F000E7010008E7010008E7010008E701000840
:10010000E7010008E7010008E7010008E70100082F
:10011000E7010008E7010008E7010008E70100081F
:10012000E7010008E7010008E7010008E70100080F
:1001300000F002F800F03AF80AA090E8000C8244BF
:100140008344AAF10107DA4501D100F02FF8AFF29C
:10015000090EBAE80F0013F0010F18BFFB1A43F0A5
:1001600001031847040A0000240A0000103A24BFC3
:1001700078C878C1FAD8520724BF30C830C144BF0C
:1001800004680C607047000000230024002500264E
:10019000103A28BF78C1FBD8520728BF30C148BFEA
:1001A0000B6070471FB51FBD10B510BD00F033F8D0
:1001B0001146FFF7F7FF00F0A7FB00F051F803B47A
:1001C000FFF7F2FF03BC00F09CFB000009488047EA
:1001D00009480047FEE7FEE7FEE7FEE7FEE7FEE729
:1001E000FEE7FEE7FEE7FEE704480549054A064B41
:1001F00070470000550600083101000880AB002060
:1002000080B1002080AD002080AD00207047704795
:10021000704770477047754600F028F8AE460500F5
:100220006946534620F00700854618B020B5FFF711
:10023000DBFFBDE820404FF000064FF000074FF015
:1002400000084FF0000B21F00701AC46ACE8C009F4
:10025000ACE8C009ACE8C009ACE8C0098D467047FD
:100260000446AFF300802046FFF7A9FF004870471F
:1002700020AB002000BFFEE710B50421002000F0F5
:1002800049FC04460CB9002010BD00202060024843
:1002900004602046F8E700002C0000202DE9F04122
:1002A00005460E4617461021002000F033FC044698
:1002B00014B90020BDE8F081666027810020A0729B
:1002C0002560044800680068E06002480068046037
:1002D0000120EFE72C0000207047000070B50546B4
:1002E0001048006806680F480068046800BF20686E
:1002F000A84210D1E068F0600A4800680068A04297
:1003000003D10849E068096808602146002000F030
:10031000EFFB012070BD2646E468002CE7D10020E9
:10032000F8E700002C0000202DE9F04102460025EE
:100330000026002000230024002791F803C00CF0C1
:100340000F0591F803C00CF0100CBCF1000F03D0A6
:1003500091F802C04CEA050591F800C0BCF1000F0D
:1003600031D0146800202BE04FF0010C0CFA00F3A0
:10037000B1F800C00CEA03069E4220D183004FF082
:100380000F0C0CFA03F7BC4305FA03FC4CEA040417
:1003900091F803C0BCF1280F06D14FF0010C0CFA04
:1003A00000FCC2F814C00AE091F803C0BCF1480F89
:1003B00005D14FF0010C0CFA00FCC2F810C0401C33
:1003C0000828D1D31460B1F800C0BCF1FF0F34DDB0
:1003D000546800202EE000F1080C4FF0010808FAE4
:1003E0000CF3B1F800C00CEA03069E4221D1830051
:1003F0004FF00F0C0CFA03F7BC4305FA03FC4CEA70
:10040000040491F803C0BCF1280F05D100F1080CD9
:1004100008FA0CF8C2F8148091F803C0BCF1480F38
:1004200007D100F1080C4FF0010808FA0CF8C2F8E7
:100430001080401C0828CED35460BDE8F0810161D3
:10044000704700BFFEE7000008B50121482000F01A
:1004500031F82020ADF8000010208DF803000320B3
:100460008DF8020069460948FFF75EFF2021074822
:10047000FFF7E5FF2020ADF8000069460448FFF7CC
:1004800053FF20210248FFF7DAFF08BD000C0140AE
:100490000018014000BFFEE7704700000249014319
:1004A000024A1160704700000000FA050CED00E000
:1004B0007047000029B1064A92690243044B9A61D1
:1004C00004E0034A92698243014B9A61704700003D
:1004D000001002407047000010B50A480068046828
:1004E00000BFA07A50B12068804710B9A07A401EA2
:1004F000A072208910B92068FFF7F0FEE468002C94
:10050000EFD110BD2C00002010B500F001F810BD97
:100510000CB50020019000903348006840F4803012
:100520003149086000BF3048006800F40030009096
:100530000198401C0190009818B90198B0F5A06F7F
:10054000F1D12948006800F4003010B1012000907A
:1005500001E0002000900098012843D12348006862
:1005600040F01000214908600846006820F00300B0
:1005700008600846006840F0020008601A484068B9
:10058000194948600846406848600846406840F499
:10059000806048600846406820F47C104860084647
:1005A000406840F4E81048600846006840F08070F9
:1005B000086000BF0C48006800F000700028F9D007
:1005C0000948406820F00300074948600846406831
:1005D00040F00200486000BF0348406800F00C0093
:1005E0000828F9D10CBD0000001002400020024094
:1005F000042808D14FF0E021096941F004014FF0CF
:10060000E022116107E04FF0E021096921F00401C7
:100610004FF0E022116170470C49096808680C49E5
:1006200009680A310A4A116000BF416839B9817A04
:10063000491C8172018929B10189416002E0416848
:100640000A394160C0680028EFD170472C000020B3
:100650003000002010B51348006840F00100114937
:10066000086008464068104908400E49486008463E
:1006700000680E4908400B4908600846006820F4ED
:10068000802008600846406820F4FE0048604FF46F
:100690001F008860FFF738FF4FF0006004490860D2
:1006A00010BD0000001002400000FFF8FFFFF6FE42
:1006B00008ED00E010B56FF00400FFF799FF0B485C
:1006C00000680B49B0FBF1F442F2107044434FF064
:1006D000E020006940F002004FF0E0210861084688
:1006E0004461006940F00100086110BD1000002065
:1006F00000127A001448007810B10D2820D10FE0C4
:100700001248006808B9012000E000200F49086085
:100710000F4800680F4908600D200B49087000BFA2
:1007200000BF0B4801680B4800686430814203D366
:1007300000200549087001E00120704700BF00BF9C
:1007400000BF0020F9E7000004000020948121424E
:1007500030000020000000201F48007820B116283B
:100760000DD0182835D124E000201C4908601C4811
:1007700000681C49086016201749087000BF00BFB8
:1007800017480168174800686430814203D300208D
:100790001149087001E00120704700BF01200F4996
:1007A00008600F4800680F49086018200A4908705F
:1007B00000BF00BF0A4801680A48006896308142BD
:1007C00003D300200449087001E00120E4E700BFE2
:1007D00000BF00BF0020DFE70C000020940123428F
:1007E000300000200800002010B509480078401CA7
:1007F00007490870084600780C2806D10548FFF71D
:100800006DFDAFF21B00FFF769FD002010BD000079
:100810000D0000205907000810B540F225511D4871
:1008200000F03EF810B31B4800F064F8C4B21A4858
:10083000008800F40040C8B91748008800F48040E0
:1008400060B10A2C03D000201349088020E0124830
:10085000008840F400401049088019E00D2C06D1B2
:100860000D48008840F480400B49088010E00A4899
:100870000088C0F30D0009490C5407480088401C4B
:100880000549088008460088C72801DD0020088047
:1008900010BD00000038014028000020500000205A
:1008A00070B50246002400230025002040F66A1699
:1008B000B14200D100BFC1F3421501F01F03012670
:1008C00006FA03F3012D02D19689334006E0022D8A
:1008D00002D1168A334001E0968A33400C12012679
:1008E00006FA04F41688344013B10CB1012000E07C
:1008F000002070BD01468888C0F30800704700BF23
:10090000FEE7014600BF7047002000F05BF8FFF7EC
:10091000B3FCFFF7CFFE4FF4A060FFF7BFFDFFF77A
:1009200093FD782200210948FFF7B8FCFA22002144
:100930000748FFF7B3FC4FF47A7200210548FFF730
:10094000ADFC01E0FFF7C8FDFCE70000F50600087C
:1009500059070008E90700082DE9F04104460E4652
:100960001548005D38B91448183801682046884792
:100970000120BDE8F081114850F82400B04219D997
:100980000F4850F82400B6FBF0F10B48083850F837
:10099000240030F81120002508E00023064808381C
:1009A00050F824004F1920F817306D1C9542F4DBE5
:1009B0000020DEE70220DCE74C000020600B00088E
:1009C000580B000810B504460C4951F824104A0091
:1009D0000B4951F82400002100F0B0F8094951F802
:1009E00024200749083951F82400002100F0A6F816
:1009F000012103480830015510BD0000500B0008CC
:100A000044000020600B00082DE9F04704460F4623
:100A10000025A9462348005D20B9224818380168FE
:100A2000204688471FB94FF0FF30BDE8F0871E48C9
:100A300050F82400B7FBF0F61B4850F82400B7FB31
:100A4000F0F100FB117000B1761C184850F824003A
:100A5000451E22E01348083850F8240030F81500ED
:100A600010B909F1010901E04FF00009B14513D1B6
:100A70004FF0000809E00B48083850F8240005EB57
:100A8000080220F8126008F10108B045F3D30648C7
:100A900050F824006843C8E76D1E002DDADA4FF0E5
:100AA000FF30C2E74C000020580B0008500B000834
:100AB00010B501460023002207E00B4850F8210042
:100AC00030F8120000B15B1C521C084850F821009D
:100AD0009042F2D864205843044C54F82140B0FBB3
:100AE000F4F0C0B210BD000044000020500B00081C
:100AF00070B505460C4604B970BD054850F8250090
:100B0000261A31462846FFF727FF00BFF4E700000A
:100B10003C00002070B504460E4631462046FFF7E3
:100B200073FF0546681C08B9002070BD024850F8E4
:100B300024002844F9E700003C00002030B50346BB
:100B400001E003F8011B1400A2F10102F9D130BD4C
:100B500000050000007800002000000020000000D8
:100B600000A0000000000F00880B0008000000201B
:100B7000500000006C010008D80B00085000002055
:100B800030B10000880100080000000000000000F3
:100B9000000000000000000000A24A040000000065
:100BA000000000000102030406070809000000001D
:100BB000000000000000000000000000C50900085F
:100BC000B10A0008200100200000006820A10020D8
:080BD00000000F6800000000A6
:0400000508000131BD
:00000001FF
