:0300000002061ADB
:0C061A00787FE4F6D8FD75813B02066194
:10088B003031323334353637383900636C6F636B44
:03089B000040001A
:100776000135000136000131000137000138000162
:1007860032000B08323031362D30392D3137000921
:100796001A31392D34302D3536000C2430392D31AF
:1007A600377C32302D3439000117380119280130D1
:1007B60013013411013309021507E0011331011445
:0707C60014011809012311C1
:1007CE00758901D2AF758C3C758AB0D2A9D28C7561
:1007DE008DFB758B90D2AB12087712071412056D34
:1007EE0012048D7B007A007908E4FD7F0312081055
:0807FE0012080612001E80E241
:10001E0030A00302048C12083830A00302048C05B1
:10002E0037053630A0FDC28CE5366401600302044C
:10003E008C20A0067F0AFE12083C20A00505373052
:10004E00A0FDE53714B4080040030200DE900069FD
:10005E0075F003A4C58325F0C583730200810200E9
:10006E008F02009302009902009F0200A50200AECB
:10007E000200CF7D017F091208B07F0F1208C280E7
:10008E004F7D0180147D017F038010E4FD7F0C8085
:10009E000AE4FD7F098004E4FD7F061208B080307B
:1000AE00D28C7535011208777BFF7A087996E4FDBC
:1000BE007F0B1208107A00792412080A753709800E
:1000CE000FE4F537F536D28C7F0C1208C212087782
:1000DE00E5376409600302029B20A0167F0AFE1218
:1000EE00083C20A00DE535B4040375370830A0FD9B
:1000FE000535E53524FE601814601B14601E2403BC
:10010E0070217D017F0C1208B07F0F1208C2801380
:10011E007D017F09800A7D017F0680047D017F03BA
:10012E001208B030A1030201E812083830A1030210
:10013E0001E830A1FDE53524FE60321460541460F0
:10014E0076240360030201E80513E513C3943C40D3
:10015E0003E4F513E51375F00A84E5F090088B932C
:10016E00F52EE51375F00A8493F52D806D0514E5D3
:10017E0014C394184003E4F514E51475F00A84E5ED
:10018E00F090088B93F52BE51475F00A8493F52AFD
:10019E0080480523E523C394204003E4F523E5239B
:1001AE0075F00A84E5F090088B93F528E52375F039
:1001BE000A8493F52780230518E518C3940D400390
:1001CE00E4F518E51875F00A84E5F090088B93F5C0
:1001DE0025E51875F00A8493F52430A20302028FE8
:1001EE0012083830A20302028F30A2FDE53524FE3C
:1001FE00603014605014606C2403600302028F158B
:10020E0013E513B4FF0375133BE51375F00A84E58C
:10021E00F090088B93F52EE51375F00A8493F52D67
:10022E00805F1514E514B4FF03751417E51475F00B
:10023E000A84E5F090088B93F52BE51475F00A848B
:10024E0093F52A803CD5230375231FE52375F00A09
:10025E0084E5F090088B93F528E52375F00A8493D6
:10026E00F527801DD5180375180CE51875F00A844E
:10027E00E5F090088B93F525E51875F00A8493F553
:10028E00247B007A00792412080C0200DEE5377018
:10029E000302047920A17412083830A103020479F4
:1002AE0030A1FDE53724FE602014602A146034145A
:1002BE00603E146048240560030204790517E517B3
:1002CE00B43C03E4F5170203570519E519B43C03D2
:1002DE00E4F51902037B0530E530B41803E4F5307C
:1002EE0002039F0534E534B42003E4F5340203BF62
:1002FE000533E533B40C03E4F5330203DF0516E5ED
:10030E001670020515AE15FF02040530A203020495
:10031E007912083830A20302047930A2FDE53724A1
:10032E00FE60401460611470030203B9147003027E
:10033E0003D91470030203F924056003020479152E
:10034E0017E517B4FF0375173BE51775F00A84E53B
:10035E00F090088B93F521E51775F00A8493F5203C
:10036E000204791519E519B4FF0375193BE51975E2
:10037E00F00A84E5F090088B93F51EE51975F00AE6
:10038E008493F51D0204791530E530B4FF03753002
:10039E0017E53075F00A84E5F090088B93F51BE5B0
:1003AE003075F00A8493F51A020479D53403753446
:1003BE001FE53475F00A84E5F090088B93F511E58E
:1003CE003475F00A8493F510020479D5330375332E
:1003DE000CE53375F00A84E5F090088B93F50EE585
:1003EE003375F00A8493F50D020479E5161516702F
:1003FE00021515AE15AF167C007D0A1206BF748B62
:10040E002DF58274083CF583E493F50BAE15AF160B
:10041E007C007D641206BF7E007F0ACFCDCFCECC8E
:10042E00CE1206BF748B2FF58274083EF583E493CB
:10043E00F50AAE15AF167C007D641206BF7C007DFA
:10044E000A1206BF748B2DF58274083CF583E49373
:10045E00F509AE15AF167C037DE81206BF748B2F1F
:10046E00F58274083EF583E493F5087B007A0079F3
:0F047E0008E4FD7F031208101208060200362260
:1007140020A32D12083820A3276338FF0532E532C1
:10072400B4010F7BFF7A08799CE4FD7F0F12081057
:10073400800BE532B40206E4F53212087730A3FDEB
:10074400E5196513702BE53065147025E534B52380
:100754001EE533B51819E538C394014014D28E7FD1
:10076400647E0012083CC28E7F647E0002083CC294
:020774008E22D3
:040838007F0A7E00B5
:10083C00D3EF9400EE940040147D6E7C00ED1D709F
:0D084C00011CED4C70F7EF1F70E61E80E3FD
:01085900227C
:10056D00E517C3943C50030206190519E4F517E588
:10057D0019943C50030206190530E4F519E5309441
:10058D001850030206190534E4F530E534941D4086
:10059D007BAE15AF167C017D901206BFED4C601C35
:1005AD00AE15AF167C007D641206BFED4C6006E5FE
:1005BD001654036007E533B40202800CE534C3948E
:1005CD001E400BE533B40206753401053322E534C4
:1005DD00C3941F4037E5336404601AE53364066045
:1005ED0014E5336409600EE533B40B028007E5347E
:1005FD00C3942040050533753401E533C3940D4094
:0D060D000B0516E516700205157533012268
:10048D00E51775F00A84E5F090088B93F521E517D3
:10049D0075F00A8493F520E51975F00A84E5F0935B
:1004AD00F51EE51975F00A8493F51DE53075F00A12
:1004BD0084E5F093F51BE53075F00A8493F51AE5A4
:1004CD003475F00A84E5F093F511E53475F00A847E
:1004DD0093F510E53375F00A84E5F093F50EE533E9
:1004ED0075F00A8493F50DAE15AF167C007D0A12DA
:1004FD0006BF748B2DF58274083CF583E493F50BE0
:10050D00AE15AF167C007D641206BF7E007F0ACF4C
:10051D00CDCFCECCCE1206BF748B2FF58274083E94
:10052D00F583E493F50AAE15AF167C007D641206D3
:10053D00BF7C007D0A1206BF748B2DF58274083CBA
:10054D00F583E493F509AE15AF167C037DE812062D
:10055D00BF748B2FF58274083EF583E493F5082262
:10089E007580FFC291D292D293AF80C293EF20E7C0
:0108AE00F653
:0108AF002226
:1008C200AE0712089EC291C2928E80D293C2932228
:1008D200AE0712089ED291C2928E80D293C2932208
:1008B000ED7004AC078004EF2440FCEC4480FF02A0
:0208C00008C26C
:0A0806007A00791A7B007D017F0261
:100810008B398A3A893B1208B0AB39AA3AA93B1204
:1008200006A66013053BE53B7002053A14F9120673
:08083000A6FF1208D280E222AB
:100877007F381208C27F0C1208C27F061208C27F97
:04088700010208C2A0
:03000B0002085A8E
:10085A00C0E0C0D00531758C3C758AB0E531D394BF
:0D086A001440050517753100D0D0D0E032E4
:03001B0002000ED2
:09000E00758DFB758B90B2B732C1
:100626000207CEE493A3F8E493A34003F68001F215
:1006360008DFF48029E493A3F85407240CC8C333D5
:10064600C4540F4420C8834004F456800146F6DFA4
:10065600E4800B0102040810204080900776E47EB7
:10066600019360BCA3FF543F30E509541FFEE49399
:10067600A360010ECF54C025E060A840B8E493A360
:10068600FAE493A3F8E493A3C8C582C8CAC583CA8B
:10069600F0A3C8C582C8CAC583CADFE9DEE780BE43
:0107CD00002B
:1006A600BB010689828A83E0225002E722BBFE0252
:0906B600E32289828A83E4932285
:1006BF00BC000BBE0029EF8DF084FFADF022E4CC1F
:1006CF00F875F008EF2FFFEE33FEEC33FCEE9DECE8
:1006DF00984005FCEE9DFE0FD5F0E9E4CEFD22ED2E
:1006EF00F8F5F0EE8420D21CFEADF075F008EF2F78
:1006FF00FFED33FD4007985006D5F0F222C398FD69
:05070F000FD5F0EA2205
:00000001FF
