:030000000206B73E
:0C06B700787FE4F6D8FD75817D0206FE18
:100743003031323334353637383900636C6F636B8D
:100753000040000000F88BF8F2F95BF9B7FA14FADD
:1007630066FAB9FB03FB4AFB8FFBCFFC0BFC43FC94
:1007730078FCABFCDBFD08FD33FD5BFD81FDA5FDD6
:10078300C7FDE7FE05FE21FE3CFE55FE6DFE84FE21
:1007930099FEADFEC0FE02FEE3FEF3FF02FF10FF73
:1007A3001DFF2AFF36FF42FF4CFF56FF60FF69FF24
:0507B30071FF79FF81D8
:10061A00017700017800017300017900017A000175
:10062A0074000B08323031362D30322D3238000941
:10063A005C32332D35382D3536000C6630322D328A
:10064A00387C32332D353900015938015B3A017251
:10065A001701761C017502025707E001133B015688
:10066A0017015A0201651C20421400040000000010
:10067A000000000000000000000000000000000070
:10068A000000000000000000000000000000000060
:10069A000000000000000000000000000000000050
:0C06AA0000000000000000000000000044
:10088800758901D2AF758C3C758AB0D2A9D28C75A6
:100898008DFB758B90D2AB12093112082612056DAB
:1008A80012048D7B007A007908E4FD7F031208CAE0
:0808B8001208C012001E80E2CC
:10001E0030B10302048C1208F230B10302048C05D5
:10002E0079057830B1FDC28CE57864016003020475
:10003E008C20B1067F0AFE1208F620B10505793034
:10004E00B1FDE57914B4080040030200DE900069AA
:10005E0075F003A4C58325F0C583730200810200E9
:10006E008F02009302009902009F0200A50200AECB
:10007E000200CF7D017F091209577F0F1209698097
:10008E004F7D0180147D017F038010E4FD7F0C8085
:10009E000AE4FD7F098004E4FD7F061209578030D3
:1000AE00D28C7577011209317BFF7A07794EE4FD08
:1000BE007F0B1208CA7A0079661208C47579098016
:1000CE000FE4F579F578D28C7F0C1209691209319B
:1000DE00E5796409600302029B20B1167F0AFE12C5
:1000EE0008F620B10DE577B4040375790830B1FD3B
:1000FE000577E57724FE601814601B14601E240338
:10010E0070217D017F0C1209577F0F120969801330
:10011E007D017F09800A7D017F0680047D017F03BA
:10012E0012095730B0030201E81208F230B0030290
:10013E0001E830B0FDE57724FE603214605414609F
:10014E0076240360030201E80513E513C3943C40D3
:10015E0003E4F513E51375F00A84E5F09007439375
:10016E00F570E51375F00A8493F56F806D0556E50D
:10017E0056C394184003E4F556E55675F00A84E527
:10018E00F090074393F56DE55675F00A8493F56C80
:10019E0080480565E565C394204003E4F565E56593
:1001AE0075F00A84E5F090074393F56AE56575F0FE
:1001BE000A8493F5698023055AE55AC3940D4003CA
:1001CE00E4F55AE55A75F00A84E5F090074393F585
:1001DE0067E55A75F00A8493F56630B20302028F12
:1001EE001208F230B20302028F30B2FDE57724FE20
:1001FE00603014605014606C2403600302028F158B
:10020E0013E513B4FF0375133BE51375F00A84E58C
:10021E00F090074393F570E51375F00A8493F56F2C
:10022E00805F1556E556B4FF03755617E55675F003
:10023E000A84E5F090074393F56DE55675F00A8450
:10024E0093F56C803CD5650375651FE56575F00A01
:10025E0084E5F090074393F56AE56575F00A84939B
:10026E00F569801DD55A03755A0CE55A75F00A8446
:10027E00E5F090074393F567E55A75F00A8493F518
:10028E00667B007A0079661208C60200DEE5797098
:10029E000302047920B0741208F230B0030204791C
:1002AE0030B0FDE57924FE602014602A1460341409
:1002BE00603E146048240560030204790559E5592F
:1002CE00B43C03E4F559020357055BE55BB43C030C
:1002DE00E4F55B02037B0572E572B41803E4F57274
:1002EE0002039F0576E576B42003E4F5760203BF9C
:1002FE000575E575B40C03E4F5750203DF0558E5E5
:10030E005870020557AE57FF02040530B2030204BF
:10031E00791208F230B20302047930B2FDE5792485
:10032E00FE60401460611470030203B9147003027E
:10033E0003D91470030203F924056003020479152E
:10034E0059E559B4FF0375593BE55975F00A84E533
:10035E00F090074393F563E55975F00A8493F562BF
:10036E00020479155BE55BB4FF03755B3BE55B75DA
:10037E00F00A84E5F090074393F560E55B75F00AAB
:10038E008493F55F0204791572E572B4FF037572FA
:10039E0017E57275F00A84E5F090074393F55DE575
:1003AE007275F00A8493F55C020479D5760375763E
:1003BE001FE57675F00A84E5F090074393F511E595
:1003CE007675F00A8493F510020479D57503757568
:1003DE000CE57575F00A84E5F090074393F50EE58C
:1003EE007575F00A8493F50D020479E55815587069
:1003FE00021557AE57AF587C007D0A1207D17443D1
:10040E002DF58274073CF583E493F50BAE57AF5888
:10041E007C007D641207D17E007F0ACFCDCFCECC7B
:10042E00CE1207D174432FF58274073EF583E49301
:10043E00F50AAE57AF587C007D641207D17C007D63
:10044E000A1207D174432DF58274073CF583E493A9
:10045E00F509AE57AF587C037DE81207D174432FD0
:10046E00F58274073EF583E493F5087B007A0079F4
:0F047E0008E4FD7F031208CA1208C002003622EC
:1008260020B32D1208F220B327637AFF0574E5740E
:10083600B4010F7BFF7A077954E4FD7F0F1208CAD3
:10084600800BE574B40206E4F57412093130B3FD89
:10085600E55B6513702BE57265567025E576B56523
:100866001EE575B55A19E57AC394014014D28E7FF8
:10087600647E001208F6C28E7F647E000208F6C20D
:020886008E22C0
:0408F2007F0A7E00FB
:1008F600D3EF9400EE940040147D6E7C00ED1D70E5
:0D090600011CED4C70F7EF1F70E61E80E342
:0109130022C1
:10056D00E559C3943C5003020619055BE4F559E5C2
:10057D005B943C50030206190572E4F55BE5729439
:10058D001850030206190576E4F572E576941D40C0
:10059D007BAE57AF587C017D901207D1ED4C601C9E
:1005AD00AE57AF587C007D641207D1ED4C6006E567
:1005BD005854036007E575B40202800CE576C394C8
:1005CD001E400BE575B40206757601057522E576BC
:1005DD00C3941F4037E5756404601AE575640660C1
:1005ED0014E5756409600EE575B40B028007E576B8
:1005FD00C3942040050575757601E575C3940D40CE
:0D060D000B0558E558700205577575012260
:10048D00E55975F00A84E5F090074393F563E55956
:10049D0075F00A8493F562E55B75F00A84E5F093D7
:1004AD00F560E55B75F00A8493F55FE57275F00A0A
:1004BD0084E5F093F55DE57275F00A8493F55CE5DE
:1004CD007675F00A84E5F093F511E57675F00A84FA
:1004DD0093F510E57575F00A84E5F093F50EE57565
:1004ED0075F00A8493F50DAE57AF587C007D0A1256
:1004FD0007D174432DF58274073CF583E493F50B16
:10050D00AE57AF587C007D641207D17E007F0ACFB5
:10051D00CDCFCECCCE1207D174432FF58274073ECA
:10052D00F583E493F50AAE57AF587C007D6412074E
:10053D00D17C007D0A1207D174432DF58274073CDE
:10054D00F583E493F509AE57AF587C037DE81207A8
:10055D00D174432FF58274073EF583E493F5082299
:100945007580FFC2A6D2A5D2A7AF80C2A7EF20E7C8
:01095500F6AB
:01095600227E
:10096900AE07120945C2A6C2A58E80D2A7C2A72288
:10097900AE07120945D2A6C2A58E80D2A7C2A72268
:10095700ED7004AC078004EF2440FCEC4480FF02F8
:0209670009691C
:0A08C0007A00795C7B007D017F0265
:1008CA008B7B8A7C897D120957AB7BAA7CA97D1216
:1008DA0007B86013057DE57D7002057C14F91207DF
:0808EA00B8FF12097980E22237
:100931007F381209697F0C1209697F061209697FE4
:04094100010209693D
:03000B00020914D3
:10091400C0E0C0D00573758C3C758AB0E573D39480
:0D0924001440050559757300D0D0D0E032A5
:03001B0002000ED2
:09000E00758DFB758B90B29532E3
:1006C300020888E493A3F8E493A34003F68001F2BD
:1006D30008DFF48029E493A3F85407240CC8C33338
:1006E300C4540F4420C8834004F456800146F6DF07
:1006F300E4800B010204081020408090061AE47E77
:10070300019360BCA3FF543F30E509541FFEE493FB
:10071300A360010ECF54C025E060A840B8E493A3C2
:10072300FAE493A3F8E493A3C8C582C8CAC583CAED
:10073300F0A3C8C582C8CAC583CADFE9DEE780BEA5
:0106B6000043
:1007B800BB010689828A83E0225002E722BBFE023F
:0907C800E32289828A83E4932272
:1007D100BC000BBE0029EF8DF084FFADF022E4CC0C
:1007E100F875F008EF2FFFEE33FEEC33FCEE9DECD5
:1007F100984005FCEE9DFE0FD5F0E9E4CEFD22ED1B
:10080100F8F5F0EE8420D21CFEADF075F008EF2F64
:10081100FFED33FD4007985006D5F0F222C398FD55
:050821000FD5F0EA22F2
:00000001FF
