:020000040800F2
:10000000383A0020D90100080D0D0008B10B000896
:10001000090D000849080008E92200080000000056
:100020000000000000000000000000005F18000851
:100030004D080008000000009D0500087119000827
:10004000F3010008F3010008F3010008F3010008C0
:10005000F3010008F3010008F3010008F3010008B0
:10006000F3010008F3010008F3010008F3010008A0
:10007000F3010008F3010008F3010008F301000890
:10008000F3010008F3010008F3010008F301000880
:10009000F3010008F3010008F3010008F301000870
:1000A000F3010008F3010008F3010008F301000860
:1000B000F3010008F3010008011B0008F301000828
:1000C000F3010008F3010008F3010008F301000840
:1000D000F30100088D200008F3010008F301000877
:1000E000F3010008F3010008F301000800F002F832
:1000F00000F062F80AA090E8000C82448344AAF160
:100100000107DA4501D100F057F8AFF2090EBAE85D
:100110000F0013F0010F18BFFB1A43F0010318473B
:10012000D4280000F42800000A444FF0000C10F816
:10013000013B13F0070408BF10F8014B1D1108BF65
:1001400010F8015B641E05D010F8016B641E01F805
:10015000016BF9D113F0080F1EBF10F8014BAD1C55
:100160000C1B09D16D1E58BF01F801CBFAD505E073
:1001700014F8016B01F8016B6D1EF9D59142D6D3CD
:10018000704700000023002400250026103A28BFF5
:1001900078C1FBD8520728BF30C148BF0B607047F9
:1001A000642900F0B980732900F091810020704724
:1001B0001FB51FBD10B510BD00F0A4F91146FFF723
:1001C000F7FF02F045F900F0C2F903B4FFF7F2FFC0
:1001D00003BC02F0D5F800000948804709480047F1
:1001E000FEE7FEE7FEE7FEE7FEE7FEE7FEE7FEE7E7
:1001F000FEE7FEE704480549054A064B7047000044
:10020000DD190008ED00000838340020383A0020DD
:100210003836002038360020704700000FB40449FB
:1002200010B503AA029800F057F910BC5DF814FB52
:100230003C0000200FB41CB5074B06AA7B4469465E
:100240000090059800F019F90020694600F028F99F
:100250001CBC5DF814FB0000610200002DE9F041B8
:100260000E460446002020622046E168884730B3ED
:10027000252805D0D4E901219047206A401CF2E7E7
:10028000E168204600278847050018D0A5F1410005
:10029000192802D820354FF40067324629462046F7
:1002A0002760FFF77DFF40B1012804D0F61D26F03E
:1002B00007060836D8E7361DD6E72846DAE7206A6B
:1002C000BDE8F08170B50C460546012A05D02878B6
:1002D000800600D5EA69002302E0012305E05B1CEB
:1002E000934202D2E05C0028F9D1A869E618C01A4E
:1002F000A861286A184428622846AFF3008004E009
:10030000D5E9012114F8010B9047B442F8D32846EF
:10031000AFF3008070BD00002DE9F04106460024D7
:1003200010687529314616A510D0AFF3008000285B
:1003300002DA404213A507E031688A0701D512A509
:1003400002E0490704D511A5012401E0AFF30080C4
:1003500000210A2206F1240709E0B0FBF2FCB0FB01
:10036000F2F302FB1C00303078541846491C002878
:10037000F3D123462A463046BDE8F04100F01EB8CE
:10038000000000002D0000002B00000020000000F5
:1003900030B505460B462A4613F8014B12F8010BFF
:1003A00008B1A042F8D01CB1002802D06D1CF1E7C2
:1003B000284630BD70477047704770472DE9F047B9
:1003C0000D4699469246044600F1240801688806C5
:1003D00004D5E06921F01001216000E00120A8426D
:1003E00001DD471B00E00027A1697A1902EB090033
:1003F000081AA0612078C00602D42046AFF300801E
:10040000002608E0D4E901211AF806009047206A86
:10041000401C761C20624E45F4DB2078C0060AD5CD
:100420002046AFF3008006E0D4E901213020904758
:10043000206A401C2062381EA7F10107F4DC07E0A7
:10044000D4E9012118F805009047206A401C206279
:10045000281EA5F10105F3DC2046AFF300802078CB
:10046000000602D50220BDE8F0870120FBE700006E
:1004700001694A1C02610878704700B58FB0CDE968
:1004800001310021059105497944CDE90310114658
:100490006846FFF7E3FE0FB000BD0000E5FFFFFF79
:1004A0000A6802F8010B0A60704710B5436913B17E
:1004B000AFF3008001E0FFF705FF012010BD1278C7
:1004C00000F124010A7000224A700122EDE7116850
:1004D0004FF0FF32E9E70000074B70B50D467B4453
:1004E000FFF7CBFF0446284600F008F810B14FF0A4
:1004F000FF3070BD204670BD371F0000007B00F04C
:1005000080007047754600F029F8AE460500694640
:10051000534620F00700854618B020B5FFF76AFE65
:10052000BDE820404FF000064FF000074FF00008F4
:100530004FF0000B21F00701AC46ACE8C009ACE875
:10054000C009ACE8C009ACE8C0098D467047044654
:10055000AFF300802046FFF738FE000000487047E8
:10056000D8330020EFF3108072B6704780F3108804
:10057000704716484FF080510160704714484FF0A3
:10058000FF010170002080F309881248016881F39F
:1005900008880E484FF08051016062B672B6EFF3E2
:1005A000098028B1203880E8F00F0B4909680860FD
:1005B00009480A490A680260106890E8F00F203084
:1005C00080F309884EF0040E62B6704704ED00E037
:1005D00022ED00E0500000205400002058000020D0
:1005E00021B1826842F00102826003E0826822F059
:1005F000010282607047000010B504461248844230
:1006000008D10121401500F0E9FF0021601500F03C
:10061000E5FF17E00D48844208D10121001500F0E4
:10062000DDFF0021201500F0D9FF0BE008488442CF
:1006300008D10121C80300F0D1FF00214FF4004090
:1006400000F0CCFF10BD0000002401400028014054
:10065000003C0140014600208A6802F004020AB111
:10066000012000E0002070470146C86C80B270474E
:100670000246002013680B400BB1012000E000206F
:100680007047014600208A6802F008020AB1012082
:1006900000E000207047000030B502460020002333
:1006A00050680F4C20400D790C6844EA0524204323
:1006B000506090680B4C2040D1E902542C434D7996
:1006C00044EA450420439060D06A20F470000C7C1A
:1006D000641EE4B2234340EA0350D06230BD000000
:1006E000FFFEF0FFFDF7F1FFF0B504460D460020D8
:1006F0000021092D11DDE068A5F10A0606EB460789
:10070000072606FA07F18843A5F10A0606EB460616
:1007100003FA06F10843E0600CE0206905EB4507A9
:10072000072606FA07F1884305EB450603FA06F1AA
:1007300008432061072A0FDA606B561E06EB860716
:100740001F2606FA07F18843561E06EB860605FAB1
:1007500006F10843606322E00D2A0FDA206BD61FF2
:1007600006EB86071F2606FA07F18843D61F06EB1D
:10077000860605FA06F10843206310E0E06AA2F15C
:100780000D0606EB86071F2606FA07F18843A2F13D
:100790000D0606EB860605FA06F10843E062F0BD99
:1007A000816841F008018160704721B1826842F49C
:1007B000A002826003E0826822F4A0028260704797
:1007C000816841F0040181607047000000B585B088
:1007D0000121480200F0F2FE0121480200F0FEFE75
:1007E00000214FF4007000F0F9FE1648FFF704FFF7
:1007F000002000908DF804008DF805004FF4602073
:1008000002900020039001208DF8100069460D48E9
:10081000FFF742FF01210B48FFF7E2FE0948FFF70F
:10082000BFFF00BF0748FFF72CFF0028FAD105489B
:10083000FFF7C6FF00BF0348FFF70CFF0028FAD1FF
:1008400005B000BD0024014000BFFEE77047000076
:1008500010B5C82001F0BAFD07A001F031FD01F08C
:1008600009FC09A001F02CFD01F004FC0EA001F030
:1008700027FD01F0FFFB10BD41542B43574D4F4462
:10088000453D330D0A00000041542B43574A415067
:100890003D2251694B55222C2231383239303031CA
:1008A00039353537220D0A0041542B4349505354F2
:1008B0004152543D22544350222C223131392E32A0
:1008C000332E32382E3434222C383839360D0A0083
:1008D00030B5044604254FF4302000F06FF805468B
:1008E000042D17D10C48006940F002000A49086144
:1008F00008464461006940F0400008614FF4302030
:1009000000F05CF805460448006941F6FD710840B6
:1009100001490861284630BD0020024004200B49EF
:10092000C96801F0010109B101200EE00749C96859
:1009300001F0040109B1022007E00449C96801F08F
:10094000100109B1032000E004207047002002409C
:100950000348006940F080000149086170470000C9
:100960000020024070B504460D460426F00200F057
:1009700025F80646042E11D10948006940F001000F
:10098000074908612580F00200F018F8064604487F
:10099000006941F6FE71084001490861304670BDAA
:1009A00000200240024803494860034848607047FD
:1009B0002301674500200240AB89EFCD00B5024618
:1009C0000423FFF7ABFF034603E0FFF7A7FF03464F
:1009D000521E012B01D1002AF7D102B90523184676
:1009E00000BD2DE9F041024600250026002000232D
:1009F0000024002791F803C00CF00F0591F803C004
:100A00000CF0100CBCF1000F03D091F802C04CEABE
:100A1000050591F800C0BCF1000F31D0146800202A
:100A20002BE04FF0010C0CFA00F3B1F800C00CEA17
:100A300003069E4220D183004FF00F0C0CFA03F7FF
:100A4000BC4305FA03FC4CEA040491F803C0BCF172
:100A5000280F06D14FF0010C0CFA00FCC2F814C0AC
:100A60000AE091F803C0BCF1480F05D14FF0010C2A
:100A70000CFA00FCC2F810C0401C0828D1D3146046
:100A8000B1F800C0BCF1FF0F34DD546800202EE047
:100A900000F1080C4FF0010808FA0CF3B1F800C09F
:100AA0000CEA03069E4221D183004FF00F0C0CFA92
:100AB00003F7BC4305FA03FC4CEA040491F803C0B5
:100AC000BCF1280F05D100F1080C08FA0CF8C2F8A7
:100AD000148091F803C0BCF1480F07D100F1080C55
:100AE0004FF0010808FA0CF8C2F81080401C0828E2
:100AF000CED35460BDE8F0810246002093680B40DD
:100B00000BB1012000E00020704701617047000038
:100B100010B5072000F06EF91249087008460078F9
:100B200000F04000E0B100200F49086005220F49A5
:100B3000612000F075F9FF21272000F0EBF900207B
:100B40000B49C1F8B801E22000F088F901200949F9
:100B5000086000200349087001200749C1F890018E
:100B600010BD00006510002090012142601000209F
:100B700000002242B80122420000214210B5044682
:100B80000723012221460948FFF7AEFD012107484E
:100B9000FFF70BFE00BF02210448FFF769FD0028A4
:100BA000F9D00248FFF760FD10BD000000240140AD
:100BB00000BFFEE708B50121082000F0FFFC4FF45C
:100BC0004050ADF8000010208DF8030003208DF890
:100BD000020069460448FFF704FF4FF44051024801
:100BE000FFF793FF08BD0000000C014010B5012085
:100BF000094908600949C1F8B401042001F0C0FCAA
:100C000000200549091D0860042001F0B9FC0020FE
:100C10000249C1F8B00110BDB081214200802142DB
:100C200010B50020084908600849C1F8B401042043
:100C300001F0A6FC0120044908600449C1F8B40190
:100C4000042001F09DFC10BDB081214200802142B2
:100C500008B50121242000F0B1FC4FF48070ADF8FC
:100C6000000010208DF8030003208DF80200694673
:100C70000B48FFF7B6FE4FF480710948FFF745FFB8
:100C80000420ADF8000014208DF8030069460548E3
:100C9000FFF7A7FE04210348FFF737FF08BD000058
:100CA000000801400014014070B50024002505E053
:100CB0000120FFF763FF0444681CC5B20A2DF7DB6F
:100CC0000A20B4FBF0F4B4F57A6F01D94FF47A64DA
:100CD0002820B4FBF0F0C0F16400C0B270BD000089
:100CE00008B50121042000F069FC0220ADF80000E5
:100CF00000208DF8030069460248FFF772FEFFF7F7
:100D000065FD08BD0008014000BFFEE77047000018
:100D100010B5022001F05AFB0020074908600120AD
:100D20000649C1F8B80100200349091D08600120E7
:100D30000249C1F8BC0110BD9001214200002242CD
:100D400008B50121142000F039FC4020ADF8000066
:100D500014208DF8030003208DF802006946234813
:100D6000FFF73FFE40212148FFF7CFFE10208DF80E
:100D700003002020ADF8000069461C48FFF731FE53
:100D800020211A48FFF7C1FE1020ADF80000694687
:100D90001648FFF726FE10211448FFF7B6FE802004
:100DA000ADF8000069461148FFF71BFE80210F488F
:100DB000FFF7ABFE4FF40040ADF8000069460C4869
:100DC000FFF70FFE4FF400410948FFF79EFE4FF476
:100DD0008040ADF8000069460548FFF702FE4FF479
:100DE00080410348FFF791FE08BD00000008014064
:100DF0000010014070B504460020074908602046F5
:100E000000F02CF8002000F029F8054601200349E5
:100E1000C1F8B801284670BDB80122420000224244
:100E20002DE9F04107460D46164600200A490860A4
:100E3000384600F013F88046002405E0002000F05A
:100E40000DF82855601CC4B2B442F7DB01200249FA
:100E500008604046BDE8F081B801224270B5044602
:100E600000251CE004F0800018B101200E49086044
:100E700002E000200C4908606006040E01200A49C7
:100E80000839086040210948FFF736FE08B144F0F0
:100E900001040020044908390860681CC5B2082D07
:100EA000E0DB204670BD00009C01214200080140AB
:100EB00010B50446002015490860A521302000F037
:100EC00029F8052221462A2000F03CF83F21212064
:100ED00000F020F83F21222000F01CF840212520BE
:100EE00000F018F80521312000F014F80F21262019
:100EF00000F010F80F21202000F00CF80120044928
:100F0000C1F89001052001F061FA10BD9001214265
:100F10000000214270B505460C46002007490860D4
:100F20002846FFF79BFF06462046FFF797FF012064
:100F30000349C1F8B801304670BD0000B801224233
:100F4000000022422DE9F04107460C4615460020DC
:100F50000A4908603846FFF781FF8046002605E011
:100F600014F8010BFFF77AFF701CC6B2AE42F7DB34
:100F70000120024908604046BDE8F081B8012242E4
:100F800070B5002100230F22C47804B3154C2468E7
:100F900004F4E064C4F5E064210AC1F10403CA402A
:100FA000447804FA03F184781440214309010E4C7B
:100FB0000678A155047804F01F050124AC4005789B
:100FC0006D11AD0005F1E025C5F8004109E0047898
:100FD00004F01F050124AC40044D0678761145F855
:100FE000264070BD0CED00E000E400E080E100E090
:100FF00002490143024A1160704700000000FA05EF
:101000000CED00E010B5002000F001F810BD70B547
:101010000646002415E004F1B001C8B201F066F9FB
:10102000002001F063F9102001F060F9002504E0D0
:10103000304601F06BF9681CC5B2802DF8DB601CEE
:10104000C4B2082CE7DB70BD10B54FF4FA7001F0A4
:10105000BDF9AE2001F04AF9202001F047F9102037
:1010600001F044F9B02001F041F9C82001F03EF947
:10107000002001F03BF9102001F038F9402001F088
:1010800035F9812001F032F9FF2001F02FF9A1207C
:1010900001F02CF9A62001F029F9A82001F026F989
:1010A0003F2001F023F9A42001F020F9D32001F022
:1010B0001DF9002001F01AF9D52001F017F9F020F0
:1010C00001F014F9D92001F011F9222001F00EF9F4
:1010D000DA2001F00BF9122001F008F9DB2001F011
:1010E00005F9202001F002F98D2001F0FFF814200D
:1010F00001F0FCF8AF2001F0F9F810BD70B504461E
:101100000D4605F1B001C8B201F0F0F8102141EA36
:10111000141001F0EBF804F00F0141F0010001F0B0
:10112000E5F870BD2DE9F04180460E4617460024D3
:101130007D0131464046FFF7E1FF00BF06E00D4963
:10114000485D01F0E3F86D1C601CC4B2102CF6DBA6
:10115000701CC1B24046FFF7D1FF002406E00549EC
:10116000485D01F0D3F86D1C601CC4B2102CF6DB96
:10117000BDE8F0816C0000202DE9F0470646894665
:1011800017469A464FF0000800240025BAF1010FD7
:1011900003D0BAF1020F5ED125E020E0785D20385F
:1011A00000F0FF087E2E04DD002609F1010000F0AA
:1011B000FF0949463046FFF7A1FF002409E008EB8C
:1011C0004801264A02EB4101085D01F09FF8601CCE
:1011D000C4B2062CF3DBB01DC6B2681CC5B2785D84
:1011E0000028DBD137E032E0785D203800F0FF08DE
:1011F000782E04DD002609F1010000F0FF094946C0
:101200003046FFF77BFF002407E004EB0811144A87
:10121000505C01F07BF8601CC4B2082CF5DB09F1CE
:101220000100C1B23046FFF769FF002408E004EB7B
:10123000081108310A4A505C01F068F8601CC4B219
:10124000082CF4DB06F10800C6B2681CC5B2785D54
:101250000028C9D100BF00BFBDE8F0870C04002002
:10126000340600202DE9FF470646884692469946F7
:10127000002700240025524636A16846FEF7DAFF13
:10128000B9F1010F03D0B9F1020F60D126E020E0DF
:101290001DF805002038C7B27E2E04DD002608F1B7
:1012A000010000F0FF0841463046FFF727FF002409
:1012B00009E007EB4701284A02EB4101085D01F014
:1012C00025F8601CC4B2062CF3DBB01DC6B2681C46
:1012D000C5B21DF805000028DAD138E032E01DF86B
:1012E00005002038C7B2782E04DD002608F1010081
:1012F00000F0FF0841463046FFF700FF002407E0FA
:1013000004EB0711154A505C01F000F8601CC4B2F0
:10131000082CF5DB08F10100C1B23046FFF7EEFE04
:10132000002408E004EB071108310C4A505C00F07F
:10133000EDFF601CC4B2082CF4DB06F10800C6B255
:10134000681CC5B21DF805000028C8D100BF00BF49
:10135000BDE8FF87256400000C040020340600204F
:1013600001218140024A12688A4301490A6070479C
:1013700060000020002001E0411CC8B2202806D2F5
:1013800001218140034A126811400029F4D002492A
:1013900008707047600000205D000020012181403E
:1013A000024A12681143014A116070476000002030
:1013B00070B504467CB3FFF7D5F8054617480078AA
:1013C00000EB4000164901EB8000007A022810D1A2
:1013D0001448006844601148007800EB400001EBBD
:1013E0008000104908602846FFF7C0F8FFF7C1F8F1
:1013F00070BD0A480078FFF7B3FF0848007800EB9B
:101400004000074901EB800044602846FFF7AEF832
:1014100000F00EF8ECE7FFE700BFE9E75C00002012
:101420005827002058000020002000E0401CFDE765
:1014300010B5FFF797F804460E480068B0B9FFF7FB
:1014400099FF0D4800780D49097888420ED00A4866
:10145000007800EB40000A4901EB80000949086070
:101460000548007805490870FFF783F82046FFF724
:101470007DF810BD680000205D0000205C000020A9
:10148000582700205800002010B5FFF76BF80446DD
:101490000120034908602046FFF768F810BD0000EE
:1014A0006800002010B5FFF75DF8044600200449ED
:1014B00008602046FFF75AF8FFF7BAFF10BD00009A
:1014C0006800002010B500F0B9FA0D480D49086019
:1014D0001F220D490D4800F063FDFFF74BFF0C483C
:1014E00000780C4908700A48007800EB40000A496F
:1014F00001EB800009490860FFF740F810BD0000CB
:101500005427002050000020D4290020291400086E
:101510005D0000205C0000205827002058000020BB
:101520002DE9F047054615480168284601F0E2F923
:101530000446124A116A906901F010F980460F4A78
:10154000D169506901F00AF981460C4908692146C0
:1015500001F004F98246494601F0D6F907464146B2
:1015600001F066F806460548C06904490862084665
:10157000C461304601F0BEF8BDE8F087302100209C
:10158000014908607047000030210020024B1861BB
:1015900059619A61704700003021002029B1064A44
:1015A000D2690243044BDA6104E0034AD269824300
:1015B000014BDA61704700000010024029B1064A71
:1015C00092690243044B9A6104E0034A92698243A0
:1015D000014B9A61704700000010024029B1064A91
:1015E000D2680243044BDA6004E0034AD2688243C3
:1015F000014BDA60704700000010024030B5002156
:101600000022002400232D4D6D6805F00C0121B14E
:10161000042905D0082923D105E0294D056022E0E1
:10162000274D05601FE0254D6D6805F47012234DB0
:101630006D6805F48034022505EB92421CB9214DFA
:10164000554305600BE01D4D6D6805F400351DB177
:101650001C4D5543056002E0194D5543056002E0FD
:10166000174D056000BF00BF144D6D6805F0F00117
:101670000909154D6B5C0568DD4045600F4D6D68CF
:1016800005F4E061090A104D6B5C4568DD4085603A
:101690000A4D6D6805F46051C90A0B4D6B5C4568D5
:1016A000DD40C560054D6D6805F44041890B074D6F
:1016B0006B5CC568B5FBF3F5056130BD00100240F9
:1016C00000127A0000093D002400002034000020B0
:1016D0002DE9F04106460D461446304601F026F845
:1016E0000746FFF74DFF4FF07D5211461002FFF7FE
:1016F0004DFF284601F01AF80746FFF711FF044492
:1017000007480068844201DD054804680548006810
:10171000844201DA034804682046BDE8F0810000F5
:10172000440000204800002030B503460C46154612
:10173000002207E0184600F008F824F812009B1C6D
:10174000501C82B2AA42F5DB30BD014608887047C2
:101750002DE9F05F80468A461746B8F1006F02D344
:101760003348804501D3BDE8F09FFFF71BF9A8F18E
:10177000006B4FEA9B25CBF34809C9F50074A742DB
:1017800000DC3C464DE04FF0006101EB85208A14FF
:101790002849FFF7C9FF00260BE009EB06002549A1
:1017A00031F810004FF6FF71884200D003E0701C42
:1017B00086B2A642F1DB00BFA6421BDA4FF0006101
:1017C00001EB8520FFF784F8002608E03AF81600C0
:1017D00006EB0901174A22F81100701C86B2A642D6
:1017E000F4DB4FF0006101EB85208A14114900F011
:1017F00023F804E022465146404600F01DF8A74277
:1018000000D10FE06D1C4FF000090AEB440AA04420
:10181000381B87B2B7F5007F02DD4FF4007400E09B
:101820003C46B0E700BFFFF793F800BF9BE700001E
:1018300000000108582100202DE9F04105460E4620
:101840001746002407E036F814102846FFF78AF8F8
:10185000AD1C601C84B2BC42F5DBBDE8F081704772
:1018600010B500F001F810BD0CB5002001900090FB
:101870003348006840F480303149086000BF304888
:10188000006800F4003000900198401C019000981E
:1018900018B90198B0F5A06FF1D12948006800F49B
:1018A000003010B10120009001E00020009000986D
:1018B000012843D12348006840F010002149086006
:1018C0000846006820F0030008600846006840F001
:1018D000020008601A484068194948600846406894
:1018E00048600846406840F48060486008464068A8
:1018F00020F47C1048600846406840F4E8104860D6
:101900000846006840F08070086000BF0C4800681E
:1019100000F000700028F9D00948406820F003006A
:10192000074948600846406840F00200486000BF30
:101930000348406800F00C000828F9D10CBD0000F5
:101940000010024000200240042808D14FF0E0219E
:10195000096941F004014FF0E022116107E04FF006
:10196000E021096921F004014FF0E0221161704784
:1019700070B5002417480068401C1649086024E030
:10198000FEF7F0FD054604EB4400134901EB80002F
:101990004068A8B104EB440001EB800040680A38BD
:1019A00004EB44010C4A02EB8101486004EB440063
:1019B000114601EB8000406810B92046FFF7EEFCAD
:1019C0002846FEF7D3FD601CC4B2202CD8D3FFF705
:1019D0002FFD70BD640000205827002010B513486B
:1019E000006840F00100114908600846406810494D
:1019F00008400E494860084600680E4908400B49F7
:101A000008600846006820F48020086008464068A6
:101A100020F4FE0048604FF41F008860FFF720FFAD
:101A20004FF000600449086010BD00000010024043
:101A30000000FFF8FFFFF6FE08ED00E010B56FF0C4
:101A40000400FFF781FF0B4800680B49B0FBF1F47D
:101A500042F2107044434FF0E020006940F0020071
:101A60004FF0E021086108464461006940F0010040
:101A7000086110BD1000002000127A0030B589B056
:101A800005460C4601210220FFF788FD01210820B0
:101A9000FFF794FD0120ADF8200018208DF82300F9
:101AA00003208DF8220008A91348FEF79AFFADF82D
:101AB0001850ADF814400020ADF81A00ADF816002B
:101AC00005A90E4800F0B0F87020ADF80400012020
:101AD000ADF806000220ADF80C0001A9074800F09F
:101AE00047F80821054800F093F80121034800F069
:101AF00022F809B030BD0000000C01400004004095
:101B000010B50121084800F022F858B1012106481B
:101B100000F00EF80548006808B9012000E0002038
:101B20000249086010BD0000000800408881224280
:101B3000CA430282704721B1028842F0010202804A
:101B400004E002884FF6FE731A400280704730B5F9
:101B50000246002000230024158A05EA0103958926
:101B600005EA010413B10CB1012000E0002030BDF2
:101B700070B5002400220023058C4FF6FF66354027
:101B80000584028C8388848B4FF68F752C404FF62A
:101B9000FC752C400D882C434FF6FF552A400D89CB
:101BA0004FF6FF7606EA05252A434D8806EA052505
:101BB0002A43154DA84202D0144DA8421DD14FF220
:101BC000FF752A404D894FF6FF7606EA05252A4320
:101BD0004FF6FF352A408D8806EA05252A434EF642
:101BE000FF752B404DF6FF752B408D8906EA0515D4
:101BF0002B43CD8906EA05152B4383808483CD884A
:101C00008587028470BD0000002C01400034014033
:101C10000A460021818B4FF6F773194011438183E7
:101C20007047818770470000002202881D4B984250
:101C30000ED01D4B98420BD0B0F1804F08D01B4BFB
:101C4000984205D01A4B984202D01A4B984204D1C0
:101C50004FF68F731A404B881A43174B984207D0A0
:101C6000164B984204D04FF6FF431A40CB881A43D4
:101C700002808B8883850B8803850A4B98420BD0A2
:101C8000094B984208D00E4B984205D00D4B984214
:101C900002D00D4B984201D10B7A03860123838237
:101CA00070470000002C0140003401400004004057
:101CB00000080040000C00400010004000140040EC
:101CC00000400140004401400048014020E0022360
:101CD0001048028806213220FFF7C4FAFEF7E4FF1D
:101CE0000D4908600D4800787A2809D10948028812
:101CF000084601680A480068FFF7EAFC05490880C1
:101D0000044801880748FFF78CFF3220FFF750FB9B
:101D1000DDE700000C00002004000020601000201F
:101D2000080000200004004008B52E4800788DF817
:101D300000002C4840788DF801002A4880788DF802
:101D400002004EE0FFF7A0FBFEF7E2FE2548007818
:101D50007A280CD1234880783038224949783039A4
:101D600001EB810100EB41001F49086011E01D48B3
:101D7000007873280DD11B484078303864214843DF
:101D800018498978303901EB810100EB410017498E
:101D900008809DF800001349097888420BD19DF80E
:101DA000010010494978884205D19DF802000D498B
:101DB0008978884210D003220A490D48FFF7C8FCF1
:101DC000084800788DF80000064840788DF801003A
:101DD000044880788DF80200FFF764FB1420FFF7B9
:101DE000E7FAAFE760100020080000200C00002098
:101DF000409F000800244EE0274800782B2803D09D
:101E0000254880782B2843D12348005D3A283DD1CE
:101E10002149601C085C214908701F49A01C085C0E
:101E20001E4948701C49E01C085C1C49887002234C
:101E30001BA206215520FFF79FF920201649887024
:101E400008700024154800787A280CD1134880784F
:101E5000303812494978303901EB810100EB4100FB
:101E60001149086014E00D480078732810D10B4820
:101E7000407830386421484308498978303901EB8B
:101E8000810100EB41000949088001E0601CC4B2F7
:101E90006420FFF78DFAAFE7682000206010002073
:101EA0007265636569766500080000200C000020FB
:101EB000FFF7EAFA002409E0C4EB04111431C8B2B8
:101EC00022460021FFF72EF9601CC4B2052CF3DD79
:101ED00000240AE0A11DCAB2C4EB0411891CC8B2D7
:101EE0000221FFF71FF9601CC4B2022CF2DD0223AD
:101EF00025A204210520FFF73FF9022324A2062191
:101F00000520FFF739F9FFF7CDFA3BE0FFF7BCFA00
:101F100002232148042102683220FFF7A3F9FFF7CA
:101F2000C1FAFFF7B1FA1D4800787A2810D10324CE
:101F30000BE004F10801CAB2C4EB0411891CC8B259
:101F40000221FFF7EFF8601CC4B2042CF1DD0EE0B3
:101F500003240AE0A11DCAB2C4EB0411891CC8B253
:101F60000221FFF7DFF8601CC4B2042CF2DD02236B
:101F70000A4A04214E20FFF7FFF8FFF793FA962054
:101F8000FFF716FAC2E700006164633A0000000040
:101F900070776D3A000000000400002060100020FF
:101FA0002DE9F04107460E461546344624F0070455
:101FB0004FF08071201F04460160201F0446076017
:101FC0002949201F044601604FF01231201F0446AA
:101FD00001604FF00331201F044601604FF00231D1
:101FE000201F044601604910201F044601600021A3
:101FF000201F044601604FF01131201F044601608C
:102000004FF01031201F044601604FF00931201FAE
:10201000044601604FF00831201F044601604FF074
:102020000731201F044601604FF00631201F04468F
:1020300001604FF00531201F044601604FF004316C
:10204000201F0446016005EB4500084941F8204087
:10205000002005EB4501054A02EB81014860284656
:10206000FFF79CF9BDE8F081712000085827002097
:1020700000BFFEE7002004E07A21034A1154411C0E
:10208000C8B2C828F8DB70476820002010B50024CB
:1020900040F22551194800F052F870B328E040F2A0
:1020A0002551164800F04BF8C8B1144800F002F969
:1020B00013490988C1F30D01124A50541048008891
:1020C000401C0F49088040F225510C4800F01CF8D4
:1020D0000B480088C72802DD00200949088041F22A
:1020E0009410844204DD002400200549088003E0A8
:1020F000601C80B20400D2D100BF10BD0038014086
:10210000400000206820002010B50022002340F687
:102110006A14A14200D100BF0A1201249440A3B264
:10212000DC43048010BD21B1828942F400528281D7
:1021300004E082894DF6FF731A408281704770B5C2
:102140000246002400230025002040F66A16B14212
:1021500000D100BFC1F3421501F01F03012606FAAA
:1021600003F3012D02D19689334006E0022D02D1FE
:10217000168A334001E0968A33400C12012606FA93
:1021800004F41688344013B10CB1012000E00020A3
:1021900070BDF0B50346002400260025002040F65F
:1021A0006A17B94200D100BF1846C1F3421401F0CA
:1021B0001F06012707FA06F5012C01D10C3004E0B7
:1021C000022C01D1103000E014301AB107682F43FF
:1021D000076002E00768AF430760F0BD2DE9F047F4
:1021E00086B005460E460024A24600BFA146002741
:1021F000B08900B100BF2F462C8A4CF6FF70044016
:10220000F08804432C82AC894EF6F3100440B08869
:1022100031890843718908430443AC81AC8A4FF685
:10222000FF400440B0890443AC8201A8FFF7E6F9FF
:102230001F48874202D1DDF810A001E0DDF80CA0B4
:10224000A88900F4004040B10AEBCA0000EB0A1074
:1022500031684900B0FBF1F807E00AEBCA0000EB77
:102260000A1031688900B0FBF1F86420B8FBF0F087
:1022700004012009642101FB1089A88900F40040B1
:1022800040B1322000EBC900B0FBF1F000F00700D4
:10229000044308E0322000EB09106421B0FBF1F0A8
:1022A00000F00F0004432C8106B0BDE8F087000069
:1022B0000038014001468888C0F3080070470000DC
:1022C00010B5044600BF214605A0FDF7A7FF322048
:1022D00000F07CF8034800F0ADF80028F3D010BD02
:1022E000257300006820002000BFFEE710B50446FB
:1022F000FEF77CFC782000F019F8002000F016F8BA
:10230000204600F013F8FEF78BFC10BD10B5044614
:10231000FEF76CFC782000F009F8402000F006F889
:10232000204600F003F8FEF77BFC10BD002115E00D
:1023300000F080021AB101220F4B1A6002E0002265
:102340000D4B1A6001220C4B1B1F1A6000220B4B15
:10235000C3F8B0214206100E4A1CD1B20829E7DBAF
:102360000122054B1A60054BC3F8B0210022024B35
:102370001B1F1A6070470000B48121420080214277
:10238000014600BF7047000010B56FF00400FFF772
:10239000DBFA0A4800680A49B0FBF1F00949087005
:1023A0000846007800EB4001C1EBC0104FF6FF710A
:1023B00001EAC0000449088010BD000010000020A0
:1023C00000127A00380000203A0000200146114A2D
:1023D00012884A434FF0E0235A6100229A611A465C
:1023E000126942F001021A6100BF4FF0E022106949
:1023F00000F001021AB100F48032002AF5D04FF04B
:10240000E022126922F001024FF0E0231A6100225B
:102410009A6170473A00002000BF054A128802F016
:102420004002002AF9D0C2B2014B1B1D1A8070472E
:102430000038014010B5044604492046FDF7A8FFC6
:1024400008B1012010BD0020FCE700004C00002076
:1024500010B500F087F8FFF797FF4FF4A060FEF784
:10246000C7FDFEF7F5FBFEF7A5FBFEF7EDFDFEF75A
:10247000C9FD4FF4E13000F08BF802232AA219467F
:102480000520FEF779FEFEF7E3F9FEF759FCFEF7AB
:102490003FFC2748FEF70CFDFEF722FC002140F22E
:1024A000E730FFF7EBFA002222492348FFF778FDD7
:1024B000012222492248FFF773FD022221492248C6
:1024C000FFF76EFD032221492148FFF769FD032232
:1024D00020492148FFF728F91E4800787A280CD1B6
:1024E0001C48807830381B494978303901EB81012C
:1024F00000EB41001949086011E016480078732884
:102500000DD1144840783038642148431149897806
:10251000303901EB810100EB410011490880FEF7E1
:10252000D1FF002010BD00006E65742E2E2E00001D
:102530004210002064140020CD1C00086418002004
:10254000291D0008641C0020F51D000864200020DF
:10255000B11E000860100020409F00080800002005
:102560000C000020002000BF04E00021034A22F8F4
:102570001010401CFF28F8D970470000D831002007
:1025800000BF0100A0F10102D0B2FAD170470000F3
:1025900010B586B00446012144F20400FFF70EF89E
:1025A0004FF40070ADF8140003208DF816001820C9
:1025B0008DF8170005A91C48FEF713FA4FF4806048
:1025C000ADF8140004208DF8170005A91648FEF791
:1025D00008FA25208DF8000003208DF801008DF801
:1025E000020001208DF803006846FEF7C9FC019443
:1025F0000020ADF80800ADF80A00ADF80C00ADF809
:1026000010000C20ADF80E0001A90848FFF7E6FD08
:10261000012240F225510548FFF7BBFD0121034887
:10262000FFF781FD06B010BD0008014000380140F1
:1026300090EA010F48BF81F0004100F16C81421A1D
:102640003CBF801A89184FEAD0524FF07F4C1CEAE9
:10265000410FA2EBD15318BF9CEA026F00F03B8000
:102660004FF0004C4CEA00204CEA012121FA03FC17
:1026700010EB0C0C1ED202F1FF325FEA1C2040EB83
:10268000C25038BF70471CF07F0F4FEA400C18BF94
:10269000BCF17F4F38BF7047C3F12003994008BF9A
:1026A00020F00100BCF17F4F38BF7047A0F1C0405F
:1026B00000F01BB94FEA3C00000A40EBC25028BFB3
:1026C0001CF0FF0F4FEA400CE6D018BFBCF17F4F63
:1026D00038BF7047EAE79CEA026F05D010EA5C0F4A
:1026E00008BF00F00040704710B500F0B8F800BF18
:1026F00064FBBE3E41000B0ED3F19E0208D950F49C
:1027000000034FEA032323FA02F048BF4042704718
:1027100010B500F0A4F800BF499224800020704753
:102720006FF0004282EA20007047000010F0004184
:1027300048BF4042B0FA80F310FA03F2C3F19D03A0
:102740000BD051EAC35101EB1220530638BF70473A
:1027500000F1010008BF20F0010070474FF47F0C2A
:102760001CEAD0121EBF1CEAD11392EA0C0F93EAA6
:102770000C0F00F0478090EA010F48BF42F48072CE
:102780004FF0004C4CEA00204CEA012102EB03021E
:10279000A0FB0113A2F50002002918BF43F00103BA
:1027A0005B0028BF4FEA330342EB22425FEA132C5F
:1027B0004CEBC2502EBFBCEB436FB2F57C0F7047A1
:1027C0004FEA036CBCF1004F08BF20F00100B2F5E6
:1027D0007C0F38BF70470BD582F0FF0212F5803FA7
:1027E000C8BF704700F1C040D8BF00F0004070473C
:1027F00000F5000C5FEA4C0C48BF7047B0F1C040D8
:1028000000F073B890EA010F0CEAD11348BF42F40C
:102810008072624538BF634504D280EA010000F04F
:102820000040704710B500F01AF800BF8900013E63
:1028300000F007B800F009B85FEA410C5FEA1C6CD1
:1028400008D080EA010000F050B85FEA400C5FEA6F
:102850001C6CF6D14FF00040A0F5800070470EF1DF
:10286000020E2EF0030E5EF8044B244204D44FEA0D
:102870004102B2F17F4F11D84FEA4003B3F17F4FCD
:102880000CD80ED14FEAD07CB2F17F4F0CEB4C0C40
:102890000CF1020C08BF4CEBD17C04E04FF0080CAB
:1028A00001E04FEAD17C0CEB4C0324FA03F404F072
:1028B0000704B4F1040C06D20EEB840CBDE8104002
:1028C0004CF0010C6047DFE80CF0070802024FF003
:1028D0000040A0F5800010BD0846420018BFD2F1AC
:1028E000807288BF00F0004010BDFF2141EAD05047
:1028F000C005704780F0004090EA010F7FF59FAE61
:1029000081F0004100F007B890EA010F48BF81F064
:1029100000413FF594AE421A04D882F00042A0EB89
:10292000020011444FEAD0524FF07F4C1CEA410F95
:10293000A2EBD15318BF9CEA026F4AD04FF0004C73
:102940004CEA00204CEA012121FA03FCB0EB0C0C0C
:102950000FD412F0FE0F36D05FEA4C001DD50012E6
:1029600040EBC25038BF70471CF03F0F18BF704794
:102970000BE0A2F101025FEA1C2040EBC25038BF1D
:1029800070471CF07F0F18BF7047C3F120039940B8
:1029900014BF401E20F00100704780084FEA122348
:1029A00008BF7047B0FA80FCA2EB0C02CCF1280CF7
:1029B00060FA0CF093EA122F04BF00EBC25070478C
:1029C0004FEAC3707047130A5FEADC1008BF704714
:1029D000F6E79CEA026F04D010EA5C0F08BF002003
:1029E000704710B5FFF73BFF40DFF63E81F0004037
:1029F00070470000142A0008000000206810000042
:102A000028010008F033000868100020D0290000D9
:102A100084010008813255423684A24A04680901C3
:102A2000020304060708090C6910C5020406084BD6
:102A3000F4013C031E4F4B1009109453321E3252C6
:102A400010567E4242427E4BFF490142FF10090868
:102A5000CC4A49484ACC181F7F88888482E01E26C9
:102A6000121252927F4A7E10244042CC400AFE82CB
:102A70009292FE929282FE153F10887F1F1E1212C4
:102A8000125E802710104040424458C0407F40C032
:102A900050484640402F808040201807271A4001A8
:102AA0003278180B22322AA6A26221110981B321A1
:102AB000200E4222130B42827E02020A1223461685
:102AC0002030AC6330100A88C8A8998E88A8C888BE
:102AD000380A22672212128040300F421271200FF2
:102AE0001010D0FF9014E4AFA4A4A4AFE404130426
:102AF0000312FF180B894B2A1A0E1A2A4B888020C2
:102B00002A900118091010FF1010111610511760AB
:102B1000203F10101037030C102040F8E36060E9EC
:102B2000102A240137FC22222223222A02013C42BD
:102B3000827F0813020238084044C4444444406081
:102B40002310F0500F103C131014B840300E014009
:102B500080403F2809F8888C8A898888886D411AC6
:102B6000FF31290142FF092040AA840119C0C9018F
:102B7000111010FCFCC4FC3C1C3C242426262424FC
:102B80003C1C18107F7F101F4F61311F0F013F3F0A
:102B900021393D522B10F87A1BF8F8832B08084195
:102BA0001B3F3F38181419392020311F0E6C7C1040
:102BB000FFFF103034DEFA38F80129E1180C7F7F6E
:102BC0000B0D27331C0F43407F81201004FCFC2495
:102BD000FCFC14121EFCF81C161210180F1F1F11FB
:102BE0007F7F4161391F0F1D31614180180B1474C3
:102BF000E4E47434E4C4F4342C1980380C0C0E036F
:102C000003060C0F43474C484139014BFCFC086953
:102C1000C029844901195E1E26A2BCBCA401180A61
:102C2000BCBC800C0F037F7F23CB1C243F3F051AC5
:102C300020B81A48012BFEFE0629A02B1F1F472A89
:102C40001F1D15242F3F3C3B8084015009E4E4B450
:102C5000949C8C84803960711010E0E0ACBCF4E48A
:102C6000A4B4B4A4B4BCACE4E0101020305C4F4772
:102C70004E7A3232327A4E4640402F90FE7E1070AD
:102C8000F0461BE4F441112743673C1E1F113A40F4
:102C9000FE294C180C282828A8BEFE683838282C95
:102CA00090113E02027F7F2501437F7FE36060E950
:102CB00010180DFCFC1434E4C4C4643414FCFC1E71
:102CC0001010781F17180C0603030E1C103F7F709E
:102CD000701E90D8CEFEBC9C1811ECE4ACBC948461
:102CE00004020A0A0A4A4A4A7F3F08950A1F1F023D
:102CF000422F1A0702111B147F021116242A7F2A61
:102D000012166264081323263649552250430503E0
:102D1000341C22411C41221C2A15083E08141A08A2
:102D20000632081AA0992A080159A416201008048E
:102D300002263E5149453E1C427F400515615149DE
:102D400046162141454B31161814127F101627459F
:102D5000454539163C4A4949301C0171096216360D
:102D60004949493626064949291E4336362A560618
:102D70002B0814782A1401297E1314081602015115
:102D8000090616324959513E167C1211127C3A7FBF
:102D90003C163E414141221A7F053A1C1212411E47
:102DA0007F09090901181449497A1A7FA11A7F423B
:102DB0001A7F4E1E2040413F0112295B1B7F4001BC
:102DC00011167F020C027F3E7F0408107F483A3EB6
:102DD0003C1A060C1C51215E0C141929461A465443
:102DE00012311601017F01011A3F35123F1E1F20CB
:102DF00040201F0C1A380C166314081463160708B9
:102E000070080719EF234543198B211B552A021916
:102E1000781A417D16040201020429712240290B0F
:102E200011162054545478167F484444382E3844A0
:102E30004444200613487F1A3818121816087E09D1
:102E400001021D18A4A4A4E425080404781B447DF1
:102E50003B1D4080847D5F341028441B417F121C41
:102E60007C04181E3A7C242948123816FC24242499
:102E7000181A18053AFC1812081A48541220160499
:102E80003F444020163C4040207C1A1CC01A1C0CB9
:102E90001430403C2B44284F161CA0A0A07C3F447B
:102EA00064544C441401011372F84333301C100C69
:102EB0000603912C40C0780319672A0403212D7062
:102EC00088FC0829261820FF211E14F008F033E0A2
:102ED000184D211C031E11338870000C101E212375
:102EE000241927211010160E45E01804021C07189B
:102EF00020EA3D020418E0692C20180707174080DB
:102F0000F08040403F0202010F01022842F01D0103
:102F100001011F04912B80B066B1191D2901913A5E
:102F200030CE492C146018043C6018061D1EE010B9
:102F3000080810721F0F102020100FF05310F836E1
:102F400020203F20203C700808C21E302824222167
:102F5000441E3008888848082E1820202011CC3BB9
:102F6000C0203227070424243F241AF8202308080D
:102F70004B19212036E0108888184B0F11101E388D
:102F80000808C8382021523F1A702E29608F1C2251
:102F90002121221C90111D31222211901961CAC0D9
:102FA000C26A80C659081C4020105017010204084C
:102FB00010204A4001114A04012119152A403219F2
:102FC000251B0402F21B7048D13AF0501A360F1E2E
:102FD000C030C828E87028080718272423140B6F6E
:102FE0002A387E280D203C23020227382008F88842
:102FF000889F4B203FF01BC0303F1B083830191012
:1030000019781B08F80F194039201B100F103E8843
:1030100088E8081010AC23201810112A035E2940FC
:10302000223829402C221E024019A41809F8082031
:103030003F21010121252A085229812942414911B4
:103040002EC08080807F0E2FF888C0281808501C62
:103050000126382F2940292F29801B20301012F8F3
:103060001AF81413203F190229204B30C0601A208F
:1030700074123F4BE010B06B0F10B029D01AF03033
:103080001980220179203F18242438504FC04C88E1
:103090008870C0140C30204B7088C1173820212153
:1030A000221C3A189F4A188239A049D0112A1F9031
:1030B000121F240878881BC838151C07380E6019A1
:1030C0001A1AF8201114033C0714073C034814088B
:1030D0001868808068180820302C03032C302008E2
:1030E00038C82F5950298F29102F20382621202009
:1030F000681145FE020202257F4040401A0CE06143
:103100001C0106380B191D42FE191D527F1A0412AC
:103110000211045A80011930D91D391621180819D5
:10312000242222223F20AB390F115F3F11202011B2
:103130000E21311A0E104B2011104B88F8102A1056
:10314000B359401A1F3F2B22130F16F08888881896
:103150001A20D029D1497A21176B9494949360391D
:1031600060190F4C203F21F3548098987930591200
:103170001AC02719D1193039311F203F24022D30B0
:10318000212A0812893069D7294B2903190BC960F4
:1031900079A019BF2B201FDD390F9C80FFA1E019FA
:1031A0001229D03BA0FF0C3950194112208A01C0CE
:1031B0001B3324012A190F3AE0413952290F3923D0
:1031C00049603C103F202C29053F010E30080601C4
:1031D00070291038080F300C030C300F2C49A14E09
:1031E000312E0E31200C29621D818E70183059D17C
:1031F000215721302C22213055807C0202443F404F
:103200004072FF39083C02027C8F5440403FA008C6
:10321000060101020204040A2BFC01A1031780C06D
:10322000399F01110515081C3C388AFF011AEF016E
:103230001E01EFEF07EF0C980CBB03BBBBD7B777B2
:103240000177B1D72269DB0913784EC0F8FCFEFE86
:10325000270D12FEFCF0C086091C801DF7F7FBFC51
:1032600007081122F0F7F7F1FFFBF8FDFEFDF6F776
:10327000F0FFFEFD804BF0FC7A180AFBFBFB7B7332
:10328000777767E7C43808FEFCF8F0E0C0800109F2
:1032900023801808DFDDDDDD5D815D061ADF0E3C71
:1032A00003EB6D01194A09208069202EFCFCFCFE0D
:1032B000F80159101F037FFBFFF1E0010B20F0F034
:1032C000801EF7F7FBFDFEF1180AFBF7F7FFF7F991
:1032D000FEFFF0CEABFBF07F198039D12905AAC0E3
:1032E000D58A0F23100F7F1FCFE7F3FFFFEFFFEF0C
:1032F0008F9F8F8F700A01031F3F3F7F3F1F011A6F
:10330000F00139902907199539346824B76FFFB750
:103310002797079727B7BFFF0F6F6F0FDFDF076F85
:10332000AFCF6FFFDF1FC71FEF2FAFA7AF2FEF800C
:103330006C07070301D14D0F1F3F7F242BFBF3B810
:103340002008FDFD3959591918B6E0F83C3F0C7DAD
:10335000010103010159806824F7C1FDFEC1D5C0F8
:10336000D5D5C0FDFFF0F7F7D0DAE2FBE3DADACE2D
:10337000FFDBE8F7E8FCDADAC2FAFAFC8011000BAE
:10338000101C1C1C08103838303030280A80C081CE
:103390000103030F0F1FF2680A7F7E7E7E3E3E1EF2
:1033A0000F03F901170A2B3F0121CE06040C3C7CC8
:1033B00077812A7FA2380BFEFEFEFCF8F8F0E0C011
:1033C000801804108010101F181818989898052855
:1033D0000FF8C0C8344211130235431010013605EE
:1033E0002A37052A38052A3905091C1E81000000E4
:04000005080000ED02
:00000001FF
