:020000040800F2
:1000000000080020CD010008D31600089107000861
:10001000CF16000871060008631C000800000000ED
:10002000000000000000000000000000511800085F
:10003000750600080000000059170008651900083F
:10004000E7010008E7010008E7010008E7010008F0
:10005000E7010008E7010008E7010008E7010008E0
:10006000E7010008E7010008E7010008E7010008D0
:10007000E7010008E7010008E7010008E7010008C0
:10008000E7010008E7010008E7010008E7010008B0
:10009000E7010008E7010008E7010008E7010008A0
:1000A000E7010008E7010008E7010008E701000890
:1000B000E7010008E7010008C9190008E701000886
:1000C000E7010008E7010008E7010008E701000870
:1000D000E7010008211A0008E7010008E70100080D
:1000E000E7010008E7010008E7010008E701000850
:1000F000E7010008E7010008E7010008E701000840
:10010000E7010008E7010008E7010008E70100082F
:10011000E7010008E7010008E7010008E70100081F
:10012000E7010008E7010008E7010008E70100080F
:1001300000F002F800F03AF80AA090E8000C8244BF
:100140008344AAF10107DA4501D100F02FF8AFF29C
:10015000090EBAE80F0013F0010F18BFFB1A43F0A5
:10016000010318477C3400009C340000103A24BF7F
:1001700078C878C1FAD8520724BF30C830C144BF0C
:1001800004680C607047000000230024002500264E
:10019000103A28BF78C1FBD8520728BF30C148BFEA
:1001A0000B6070471FB51FBD10B510BD00F038F8CB
:1001B0001146FFF7F7FF02F00FF800F056F803B40E
:1001C000FFF7F2FF03BC01F0C5FD000009488047BE
:1001D00009480047FEE7FEE7FEE7FEE7FEE7FEE729
:1001E000FEE7FEE7FEE7FEE704480549054A064B41
:1001F0007047000069190008310100080002002062
:100200000008002000040020000400207047704710
:100210007047704770470000004870479C010020FD
:100220007546FFF7F9FFAE4605006946534620F0D4
:100230000700854618B020B5FFF7D6FFBDE820407F
:100240004FF000064FF000074FF000084FF0000B92
:1002500021F00701AC46ACE8C009ACE8C009ACE845
:10026000C009ACE8C0098D4670470446AFF3008072
:100270002046FFF7A4FF00002DE9F04F85B00020D5
:10028000049003900290E548B0F9000002F000FFEE
:10029000E3490860E348B0F9000002F0F9FEE249E2
:1002A0000860E248B0F9000002F0F2FEE0490860A0
:1002B000E048B0F9000002F0EBFEDF490860DF48DB
:1002C000B0F9000002F0E4FEDD490860DD48B0F955
:1002D000000002F0DDFEDC4908604FF08E41D0489E
:1002E000006802F001FF07D24FF08D41CC48006852
:1002F00002F0F0FD04900FE0D449C948006803F013
:100300002FF805464FF08D4102F0E4FD04464FF012
:100310007E5103F01AF804904FF08E41C2480068F5
:1003200002F0E2FE07D24FF08D41BF48006802F0B4
:10033000D1FD03900FE0C549BB48006803F010F8F9
:1003400005464FF08D4102F0C5FD04464FF07E5149
:1003500002F0FBFF03904FF08E41B548006802F0B9
:10036000C3FE07D24FF08D41B148006802F0B2FDE4
:1003700002900AE0B549AE48006802F0F1FF044679
:100380004FF08D4102F0A6FD0290039802F008FDA7
:1003900082468B46029802F003FD52465B46CDE949
:1003A000000101F0EBFD80460022A94B02F004FBA6
:1003B0000646A84AA84B02F0A7F9044602F0C2F884
:1003C000A6490860029802F0EBFCCDE90001049810
:1003D00002F0E6FC0646DDE9002301F0CFFD804691
:1003E00000229B4B02F0E8FA04469A4A9A4B02F02C
:1003F0008BF9824602F0A6F899490860049802F049
:10040000CFFC04460D46039802F0CAFC064622467D
:100410002B4601F0B3FD804600228D4B02F0CCFA52
:1004200082468C4A8C4B02F06FF9CDE9000102F054
:1004300089F88C4908604FF08E417B48006802F0D3
:1004400053FE05D28648006880F000408449086069
:100450004FF08E417448006802F046FF03D2804896
:1004600000687F4908604FF08E416D48006802F0D7
:100470003BFE03D279480068784908604FF08E410E
:100480006748006802F030FF05D27448006880F0C9
:100490000040724908604FF08E416548006802F0E4
:1004A00023FE03D26F4800686E4908604FF08E410A
:1004B0005F48006802F018FF05D26A48006880F0C3
:1004C0000040684908604FF08E415B48006802F0C8
:1004D0000BFE10D25848006802F062FC06464FF04E
:1004E0006632614B02F010F981F00041044602F0DF
:1004F00029F8514908604FF08E414F48006802F0DA
:10050000F3FE12D24C480168584802F029FF804699
:1005100002F046FC06464FF06632534B02F0F4F808
:10052000044602F00FF8444908604FF08E414448F9
:10053000006802F0D9FD10D24148006802F030FC9A
:1005400006464FF06632484B02F0DEF881F000417B
:10055000044601F0F7FF3A4908604FF08E413848F1
:10056000006802F0C1FE12D2354801683F4802F02F
:10057000F7FE804602F014FC06464FF066323A4B16
:1005800002F0C2F8044601F0DDFF2D4908604FF08B
:100590008E412D48006802F0A7FD10D22A4800685D
:1005A00002F0FEFB06464FF066322F4B02F0ACF82D
:1005B00081F00041044601F0C5FF234908604FF077
:1005C0008E412148006802F08FFE12D21E48016859
:1005D000264802F0C5FE804602F0E2FB06464FF0D8
:1005E0006632214B02F090F8044601F0ABFF164949
:1005F0000860114801681948006800F0CBF81048FD
:1006000001681748006800F07FFA0F480168154834
:10061000006800F02BFC05B0BDE8F08F0000002062
:1006200040000020020000204400002004000020C0
:1006300048000020060000204C0000200800002098
:10064000500000200A000020540000200000404715
:10065000008066404AD8124DFB2109405800002016
:100660005C000020600000206666304000FF7F478D
:1006700000BFFEE770472DE9F04102460025002645
:10068000002000230024002791F803C00CF00F0580
:1006900091F803C00CF0100CBCF1000F03D091F8DE
:1006A00002C04CEA050591F800C0BCF1000F31D042
:1006B000146800202BE04FF0010C0CFA00F3B1F8A5
:1006C00000C00CEA03069E4220D183004FF00F0CBD
:1006D0000CFA03F7BC4305FA03FC4CEA040491F856
:1006E00003C0BCF1280F06D14FF0010C0CFA00FC3E
:1006F000C2F814C00AE091F803C0BCF1480F05D15C
:100700004FF0010C0CFA00FCC2F810C0401C082885
:10071000D1D31460B1F800C0BCF1FF0F34DD5468D0
:1007200000202EE000F1080C4FF0010808FA0CF34D
:10073000B1F800C00CEA03069E4221D183004FF0BD
:100740000F0C0CFA03F7BC4305FA03FC4CEA040453
:1007500091F803C0BCF1280F05D100F1080C08FA8C
:100760000CF8C2F8148091F803C0BCF1480F07D10F
:1007700000F1080C4FF0010808FA0CF8C2F81080DC
:10078000401C0828CED35460BDE8F0810161704759
:1007900000BFFEE72DE9FF5F83468A46C248016835
:1007A000504602F0DDFD019002F0FAFABF4AC04B5C
:1007B000CDE9020102F000F906460F46BD48006887
:1007C00002F0EEFA804632463B4601F0EDFE04466A
:1007D00001F0B8FEB7490860B749886802F0E0FA4E
:1007E00004460D46B449486802F0DAFA8046B34A36
:1007F000B34B02F0DFF9064622462B4602F0E6F93B
:10080000CDE9020101F09EFEAE490860AA48C06829
:1008100080F000404860A848C06880F000408860D0
:10082000A948C860086802F0BBFA80469F4AA04BFE
:1008300002F0C2F8CDE902019F49086802F0B0FA5F
:100840000646DDE9022301F0AFFE044601F07AFE20
:10085000994908609B49486802F0A2FA0646934A03
:10086000934B02F0A9F804460D469349486802F0FC
:1008700097FA804622462B4601F096FECDE902010A
:1008800001F060FE8C4948608E49886802F088FA61
:100890008046864A864B02F08FF804460D4686490C
:1008A000886802F07DFA064622462B4601F07CFE5F
:1008B000CDE9020101F046FE7F4988608149C868A0
:1008C00002F06EFA794A7A4BCDE9020102F074F82F
:1008D000804689467849C86802F062FA0646424670
:1008E0004B4601F061FE044601F02CFE7249C860DF
:1008F00070480168584602F033FD74490860744836
:10090000007802F0DDFB04466B480168204602F0E7
:100910001FFC704908606E48007802F0D1FB044665
:1009200065488168204602F013FC6B4908606848FE
:10093000007802F0C5FB814666480168484602F02F
:1009400007FC804602F02CFA06460022634B01F0B9
:100950002BFE044601F0F6FD614908600846016877
:100960005C48006802F0B6FA5E4908605C480168BD
:100970005948006802F0AEFA5B49086055480068C3
:100980005A4908605248007802F09AFB04464A48E7
:100990004168204602F0DCFB554908605348016875
:1009A0005048006802F0D4FB0446434801682046E2
:1009B00002F0CBFC404908604D4801684948006896
:1009C00002F0C6FB04463C484168204602F0BDFCEC
:1009D00039494860454801684348006802F0B8FB5F
:1009E000044635488168204602F0AFFC32498860F1
:1009F0003F4801683C48006802F0AAFB04462E48C4
:100A0000C168204602F0A1FC2B49C8602F4801684C
:100A10003448006802F09CFB0446264801682046E2
:100A200002F0EAF923490860284801682E48006866
:100A300002F08EFB04461C480168204602F0DCF9F7
:100A40001949086008460168504602F089FC2949A6
:100A50000860184800682849086028492648006846
:100A600002F042FB1ED22448006880F00040224978
:100A700008600846006802F093F906460022204B01
:100A800002F0A4F800221F4BCDE9020102F092F817
:100A9000044600221A4B01F087FD804601F052FD0A
:100AA00015490860BDE8FF9F80000020FA7E6ABCFF
:100AB0007493883F64000020B4000020FCA9F1D2A8
:100AC0004D62503F8C010020A69B443B8C000020CF
:100AD0007C000020980000209C0000200000E03FE7
:100AE000A0000020A4000020A8000020AC000020EE
:100AF000B00000204C000020740000200000B4C2B0
:100B000000805640008066402DE9FF5F83468A469C
:100B1000BD480168504602F023FC019002F040F904
:100B20008046BA4ABA4B01F047FF04460D46B94821
:100B3000006802F035F9064622462B4601F034FDE6
:100B4000CDE9020101F0FEFCB2490860B2498868B3
:100B500002F026F906460F46AF49486802F020F930
:100B6000AE4AAF4BCDE9020102F024F8804632468E
:100B70003B4602F02BF8044601F0E4FCA94908606A
:100B8000A548C06880F000404860A348C06880F075
:100B900000408860A448C860086802F001F99B4AD8
:100BA0009B4BCDE9020101F007FF06460F469A492B
:100BB000086802F0F5F8804632463B4601F0F4FC46
:100BC000044601F0BFFC944908609649486802F069
:100BD000E7F88E4A8E4BCDE9020101F0EDFE0446A6
:100BE0000D468D49486802F0DBF8064622462B4642
:100BF00001F0DAFC804601F0A5FC8749486089498C
:100C0000886802F0CDF88046804A814B01F0D4FE1E
:100C100004460D468049886802F0C2F8064622461E
:100C20002B4601F0C1FCCDE9020101F08BFC7A49B1
:100C300088607C49C86802F0B3F8744A744BCDE907
:100C4000020101F0B9FE04460D467349C86802F07E
:100C5000A7F8064622462B4601F0A6FC804601F086
:100C600071FC6D49C8606B480168584602F078FB1A
:100C70006E4908606E48007802F022FA0446664821
:100C80000168204602F064FA6A4908606848007802
:100C900002F016FA044660488168204602F058FACD
:100CA000654908606248007802F00AFA81466148A6
:100CB0000168484602F04CFA804602F071F8064698
:100CC00000225E4B01F070FC044601F03BFC5C49E5
:100CD0000860084601685748006802F0FBF8594967
:100CE0000860574801685448006802F0F3F8564914
:100CF000086050480068554908604D48007802F087
:100D0000DFF9044644484168204602F021FA504980
:100D100008604E4801684B48006802F019FA044622
:100D20003D480168204602F010FB3B4908604848F6
:100D300001684448006802F00BFA044636484168EE
:100D4000204602F002FB34494860404801683E48B2
:100D5000006802F0FDF904462F488168204602F041
:100D6000F4FA2D4988603A4801683748006802F073
:100D7000EFF904462848C168204602F0E6FA264901
:100D8000C8602A4801682F48006802F0E1F904466B
:100D900020480168204602F02FF81E4908602348C9
:100DA00001682948006802F0D3F904461648016832
:100DB000204602F021F814490860084601685046B0
:100DC00002F0CEFA23490860124800682249086000
:100DD00022492148006802F087FA06D21E480168BD
:100DE0001F4802F0BDFA1C4908601E491A480068F5
:100DF00002F07AF906D2184801681B4802F0B0FAEE
:100E000015490860BDE8FF9F84000020FA7E6ABC97
:100E10007493883F68000020B4000020FCA9F1D240
:100E20004D62503F8C010020A69B443B9000002067
:100E30007C000020980000209C0000200000E03F83
:100E4000A0000020A4000020A8000020AC0000208A
:100E5000B000002050000020700000200000B442CC
:100E6000000034430000B4C2000034C32DE9FF5F2A
:100E700083468A46B0480168504602F071FA0190F4
:100E800001F08EFF8046AD4AAD4B01F095FD044662
:100E90000D46AC48006801F083FF064622462B460B
:100EA00001F082FBCDE9020101F04CFBA54908608D
:100EB000A549886801F074FF06460F46A2494868B4
:100EC00001F06EFFA14AA24BCDE9020101F072FED2
:100ED000804632463B4601F079FE044601F032FB83
:100EE0009C4908609848C06880F000404860964877
:100EF000C06880F0004088609748C860086801F0CA
:100F00004FFF8E4A8E4BCDE9020101F055FD06469A
:100F10000F468D49086801F043FF804632463B4644
:100F200001F042FB044601F00DFB87490860894946
:100F3000486801F035FF814A814BCDE9020101F09B
:100F40003BFD04460D468049486801F029FF0646EE
:100F500022462B4601F028FB804601F0F3FA7A493D
:100F600048607C49886801F01BFF8046734A744BD7
:100F700001F022FD04460D467349886801F010FF18
:100F8000064622462B4601F00FFBCDE9020101F097
:100F9000D9FA6D4988606F49C86801F001FF674A56
:100FA000674BCDE9020101F007FD04460D46664995
:100FB000C86801F0F5FE064622462B4601F0F4FA19
:100FC000804601F0BFFA6049C8605E480168584633
:100FD00002F0C6F9614908606148007802F070F8D3
:100FE000044659480168204602F0B2F85D4908609D
:100FF0005B48007802F064F8044653488168204654
:1010000002F0A6F8584908605548007802F058F8F0
:10101000814654480168484602F09AF8804601F03B
:10102000BFFE06460022514B01F0BEFA044601F015
:1010300089FA4F490860084601684A48006801F08B
:1010400049FF4C4908604A4801684748006801F078
:1010500041FF4949086043480068484908604048E2
:10106000007802F02DF8044637484168204602F027
:101070006FF843490860414801683E48006802F043
:1010800067F8044630480168204602F05EF92E49B0
:1010900008603B4801683748006802F059F8044688
:1010A00029484168204602F050F9274948603348F2
:1010B00001683148006802F04BF804462248816814
:1010C000204602F042F9204988602D4801682A48EC
:1010D000006802F03DF804461B48C168204602F053
:1010E00034F91949C8601D4801682248006802F0B7
:1010F0002FF8044613480168204601F07DFE11498F
:101100000860164801681C48006802F021F804468F
:1011100009480168204601F06FFE0749086008464B
:101120000168504602F01CF916490860054800683D
:1011300015490860BDE8FF9F88000020FA7E6ABC60
:101140007493883F6C000020B4000020FCA9F1D209
:101150004D62503F8C010020A69B443B9400002030
:101160007C000020980000209C0000200000E03F50
:10117000A0000020A4000020A8000020AC00002057
:10118000B0000020540000207800002010B500F0CE
:10119000BBF880216B2000F078FA642000F0D0FFCB
:1011A00000216B2000F071FA032000F02CFA0020DF
:1011B00000F021FA322000F04BFA0021382000F034
:1011C00064FA00216A2000F060FA0021232000F078
:1011D0005CFA8021372000F058FA752000F0B4F94D
:1011E0000446322000F017FA682C0CD15DB90121B9
:1011F0006B2000F04AFA00216C2000F046FA322001
:1012000000F026FA01E0012010BD0020FCE72DE9E6
:10121000FC4104460D4616466B4606223B216820DB
:1012200000F0AFF90746BFB99DF801009DF8001026
:1012300040EA012000B220809DF803009DF80210D2
:1012400040EA012000B228809DF805009DF80410B6
:1012500040EA012000B230803846BDE8FC812DE92B
:10126000FC4104460D4616466B4606224321682083
:1012700000F087F90746BFB99DF801009DF80010FE
:1012800040EA012000B220809DF803009DF8021082
:1012900040EA012000B228809DF805009DF8041066
:1012A00040EA012000B230803846BDE8FC810000F1
:1012B00010B500200E4908600E48006820F4704008
:1012C0000C4908600846006840F44050086000205F
:1012D0000949C1F8AC0100F011F801200449086087
:1012E00000F00CF800200449C1F8A80110BD00006E
:1012F000A8812142040C01400080214210B5022047
:1013000000F044FF10BD000008B50121082000F0E6
:1013100025FA4FF44060ADF8000010208DF803006E
:1013200003208DF8020069460448FFF7A4F94FF442
:1013300040610248FFF72AFA08BD0000000C014096
:1013400010B500200E4908600E48006820F4704077
:101350000C4908600846006840F4405008600120CD
:101360000949C1F8AC01FFF7C9FF01200449086031
:10137000FFF7C4FF00200449C1F8A80110BD000018
:10138000A8812142040C01400080214270B505462D
:1013900000241648006820F470401449086008468C
:1013A000006840F400400860002614E00020104966
:1013B0000860FFF7A3FF01200E49C1F8A8016006ED
:1013C000040E0B487C38006808B1601CC4B2FFF7FB
:1013D00095FF701CC6B2082EE8DB15B9FFF7B0FF09
:1013E00001E0FFF765FF204670BD0000040C0140DE
:1013F000A88121420080214270B50446124800684D
:1014000020F47040104908600846006840F44050DD
:10141000086000200D490860002512E0E0090B4932
:10142000091D08606006040E01200949C1F8A801E1
:10143000FFF764FF002005490860FFF75FFF681CA5
:10144000C5B2082DEADB70BD040C0140A881214221
:101450000080214210B50E48006820F470400C490D
:1014600008600846006840F44050086001200949BF
:1014700008600949C1F8A801FFF740FF00200549AD
:101480000860FFF73BFF00200349C1F8A80110BD29
:10149000040C0140AC8121420080214210B50E486D
:1014A000006820F470400C4908600846006840F469
:1014B000405008600020094908600949C1F8AC01A2
:1014C000FFF71CFF0120054908600549C1F8AC0180
:1014D000FFF714FF10BD0000040C0140A881214259
:1014E0000080214210B500241448006820F47040A8
:1014F000124908600846006840F400400860012076
:101500000F490860FFF7FAFE01200E49C1F8A80153
:10151000FFF7F4FE07E0601CC4B2FA2C03DDFFF70E
:10152000BDFF012010BD0648803800680028F2D1B8
:101530000349091F086000BFF4E70000040C0140E4
:10154000AC8121420080214270B50446FFF782FF42
:10155000D020FFF751FFFFF7C5FF2046FFF74CFFF4
:10156000FFF7C0FFFFF776FFD120FFF745FFFFF73A
:10157000B9FF0020FFF70AFF0546FFF78FFF284657
:1015800070BD2DE9F04106460F4614461D46FFF793
:1015900061FF002141EA4601C8B2FFF72DFFFFF7C6
:1015A000A1FF20B1FFF77AFF0120BDE8F0813846A6
:1015B000FFF722FFFFF796FFFFF74CFF012101EB3A
:1015C0004601C8B2FFF718FFFFF78CFF0DE0012CB2
:1015D00004D10020FFF7DAFE287003E00120FFF7B6
:1015E000D5FE2870601EC4B26D1C002CEFD1FFF731
:1015F00055FF0020D9E710B50446E006010E1C2077
:1016000000F043F810BD10B50446E006010E1B20A3
:1016100000F03BF810BD70B504460025BC2C01DB82
:10162000012510E0622C01DB02250CE02A2C01DBF5
:10163000032508E0142C01DB042504E00A2C01DB5F
:10164000052500E0062529461A2000F01EF870BD89
:1016500070B50446B4F57A7F01DD4FF47A74042C3A
:1016600000DA04244FF47A7090FBF4F0401EC5B207
:101670002946192000F009F80546264604EBD671E4
:10168000C1F34F00FFF7C7FF70BD70B505460C46AC
:10169000FFF7E0FED020FFF7AFFEFFF723FF18B102
:1016A000FFF7FCFE012070BD2846FFF7A5FEFFF7FF
:1016B00019FF2046FFF7A0FEFFF714FF18B1FFF750
:1016C000EDFE0120EFE7FFF7E9FE0020EBE700BFAA
:1016D000FEE7704770B5002100230F22C47804B3E1
:1016E000154C246804F4E064C4F5E064210AC1F1F7
:1016F0000403CA40447804FA03F184781440214377
:1017000009010E4C0678A155047804F01F05012448
:10171000AC4005786D11AD0005F1E025C5F800413C
:1017200009E0047804F01F050124AC40044D06785C
:10173000761145F8264070BD0CED00E000E400E0B5
:1017400080E100E002490143024A11607047000055
:101750000000FA050CED00E07047000029B1064AD0
:1017600092690243044B9A6104E0034A92698243FE
:10177000014B9A61704700000010024030B5002113
:101780000022002400232D4D6D6805F00C0121B1CD
:10179000042905D0082923D105E0294D056022E060
:1017A000274D05601FE0254D6D6805F47012234D2F
:1017B0006D6805F48034022505EB92421CB9214D79
:1017C000554305600BE01D4D6D6805F400351DB1F6
:1017D0001C4D5543056002E0194D5543056002E07C
:1017E000174D056000BF00BF144D6D6805F0F00196
:1017F0000909154D6B5C0568DD4045600F4D6D684E
:1018000005F4E061090A104D6B5C4568DD408560B8
:101810000A4D6D6805F46051C90A0B4D6B5C456853
:10182000DD40C560054D6D6805F44041890B074DED
:101830006B5CC568B5FBF3F5056130BD0010024077
:1018400000127A0000093D00200000203000002036
:10185000704710B500F002F810BD00000CB5002074
:10186000019000903348006840F4803031490860AE
:1018700000BF3048006800F4003000900198401C20
:101880000190009818B90198B0F5A06FF1D12948DE
:10189000006800F4003010B10120009001E0002049
:1018A00000900098012843D12348006840F01000C0
:1018B000214908600846006820F0030008600846D7
:1018C000006840F0020008601A4840681949486002
:1018D0000846406848600846406840F480604860B8
:1018E0000846406820F47C1048600846406840F490
:1018F000E81048600846006840F08070086000BF4B
:101900000C48006800F000700028F9D009484068D1
:1019100020F00300074948600846406840F0020094
:10192000486000BF0348406800F00C000828F9D167
:101930000CBD00000010024000200240042808D125
:101940004FF0E021096941F004014FF0E0221161FC
:1019500007E04FF0E021096921F004014FF0E02297
:10196000116170477047000010B51348006840F0DF
:1019700001001149086008464068104908400E49B6
:101980004860084600680E4908400B490860084650
:10199000006820F4802008600846406820F4FE00BB
:1019A00048604FF41F008860FFF753FF4FF000605E
:1019B0000449086010BD0000001002400000FFF85C
:1019C000FFFFF6FE08ED00E010B50121084800F029
:1019D00016F858B10121064800F00EF805480068D5
:1019E00008B9012000E000200249086010BD000095
:1019F0000008004094012342CA430282704730B578
:101A00000246002000230024158A05EA0103958977
:101A100005EA010413B10CB1012000E0002030BD43
:101A200010B540F225511D4800F057F810B31B487F
:101A300000F00EF9C4B21A48008800F40040C8B99A
:101A40001748008800F4804060B10A2C03D00020C1
:101A50001349088020E01248008840F400401049F3
:101A6000088019E00D2C06D10D48008840F4804014
:101A70000B49088010E00A480088C0F30D000949AE
:101A80000C5407480088401C054908800846008817
:101A9000C72801DD0020088010BD0000003801408B
:101AA0003C000020C400002021B1828942F4005291
:101AB000828104E082894DF6FF731A40828170476B
:101AC00002460020B1F5007F00D100BF13880B4013
:101AD0000BB1012000E00020704770B502460024E1
:101AE00000230025002040F66A16B14200D100BF55
:101AF000C1F3421501F01F03012606FA03F3012D7D
:101B000002D19689334006E0022D02D1168A334075
:101B100001E0968A33400C12012606FA04F4168876
:101B2000344013B10CB1012000E0002070BDF0B5CD
:101B30000346002400260025002040F66A17B9421B
:101B400000D100BF1846C1F3421401F01F0601275F
:101B500007FA06F5012C01D10C3004E0022C01D16A
:101B6000103000E014301AB107682F43076002E01C
:101B70000768AF430760F0BD2DE9F04786B0054622
:101B80000E460024A24600BFA1460027B08900B13E
:101B900000BF2F462C8A4CF6FF700440F0880443A7
:101BA0002C82AC894EF6F3100440B088318908438A
:101BB000718908430443AC81AC8A4FF6FF4004406E
:101BC000B0890443AC8201A8FFF7D8FD1F488742C3
:101BD00002D1DDF810A001E0DDF80CA0A88900F426
:101BE000004040B10AEBCA0000EB0A10316849001E
:101BF000B0FBF1F807E00AEBCA0000EB0A1031680D
:101C00008900B0FBF1F86420B8FBF0F00401200972
:101C1000642101FB1089A88900F4004040B1322002
:101C200000EBC900B0FBF1F000F00700044308E04E
:101C3000322000EB09106421B0FBF1F000F00F003E
:101C400004432C8106B0BDE8F08700000038014055
:101C500001468888C0F308007047C1F308028280FB
:101C6000704700BFFEE7490050EAC12018BF0420BA
:101C70004A0D18BF40F0010040F2FF72B2EB515F15
:101C800008BF40F00200012808BF052070472DE979
:101C9000F0414F1E00EBC7010446D1E90001154693
:101CA0001E4637F006020DD02A46334600F084FE69
:101CB0007F1E04EBC703D3E9002300F075FC37F067
:101CC0000602F1D1022F25D0042F13D0062F18BF02
:101CD000BDE8F0812A46334600F06EFED4E90A23BF
:101CE00000F062FC2A46334600F066FED4E9082381
:101CF00000F05AFC2A46334600F05EFED4E9062383
:101D000000F052FC2A46334600F056FED4E9042384
:101D100000F04AFC2A46334600F04EFED4E9022386
:101D200000F042FC2A46334600F046FED4E9002388
:101D3000BDE8F04100F038BC012201F0B8BB00F072
:101D400033BC0000024A0020110701F0B0BB0000C4
:101D500001FDFFFF014600BF704700002DE9F84F6D
:101D600004460D4621F0004000917349814211DC88
:101D70007249884201DC06D12CB120462946BDE8D3
:101D8000F84FFFF7D9BF6E48002DCCBF6D496E49A3
:101D9000BDE8F88F6D49814211DD6D498142D8BFA0
:101DA0004FF0FF366DDD20462946FFF75CFF042823
:101DB00008BFFFF7C7FF20462946BDE8F88F6549F1
:101DC000654F25F00045814233DD6449814219DDCC
:101DD000002632464FF080432046294600F0E4FBBF
:101DE00080468A4601222046294601F060FB0022F7
:101DF0003B4600F0EBFE4246534600F085FC0446AD
:101E00000D463EE001260022BA463B4620462946C2
:101E100000F0CAFB80460F46002253462046294662
:101E200000F0D4FE42463B4600F06EFC04460D46F0
:101E300027E04B4981421BDDDFF828A10226002262
:101E400053462046294600F0B7FD00223B4600F0ED
:101E5000ABFB80460F46002253462046294600F041
:101E6000B5FE42463B4600F04FFC04460D4608E0F6
:101E7000032622462B4600203B4900F045FC044641
:101E80000D4622462B461046194600F095FD8B461E
:101E9000824602460B4600F08FFD07460246334855
:101EA00088460B4606217844FFF7F1FE52465B4612
:101EB00000F082FD82462E488B463A464346052175
:101EC0007844FFF7E4FE3A46434600F075FD0246CB
:101ED0000B46002E504659460CDA00F065FB2246B0
:101EE0002B4600F069FD01B022462B46BDE8F04FBD
:101EF00000F060BE00F058FB22462B4600F05CFD6F
:101F00001C4A7A4402EBC603D3E9002300F05EFECC
:101F100022462B4600F05AFE174A7A4402EBC603CB
:101F2000D3E9002300F046FE009A002AB8BF81F0F2
:101F30000041BDE8F88F0000000010440000F07F71
:101F4000182D4454FB21F93FFB21F9BF0000DC3F71
:101F50000000203E0000F33F0000F03F0000E63F9D
:101F6000008003400000F83F0000F0BFFE160000B4
:101F7000BC1600005A160000221600002DE9F04D94
:101F80009446CCF1000423F000464CEA0404524F7E
:101F900046EAD4749A46884621F00042BC4206D8EC
:101FA000454240EA050442EAD474BC4204D9BDE883
:101FB000F04D6246FFF7C3BEAAF14055A5F17F651B
:101FC00055EA0C040BD0022404EAAA74434DDFF84E
:101FD00010E144EAD87452EA000B04D00CE0BDE8EA
:101FE000F04DFFF7BBBE002C14BF012CBDE8F08DF7
:101FF000022C30D0032C32D056EA0C0B0AD0BE4251
:1020000020D1BA4209D126F0804622F080423346E0
:10201000114617E000291ADB25E0DFF8C8B0FB44C1
:10202000002C04BFDBE90001BDE8F08D012C02BFEC
:10203000DBE9000181F00041BDE8F08D022C0AD0FF
:10204000032C0CD0BA4212D1B8F1000F0BDA23489E
:102050002549BDE8F08D28462449BDE8F08D284685
:102060007146BDE8F08D1D482149BDE8F08D921BF9
:1020700012153C2AC4BF19481D490EDCBAF1000FE5
:10208000BEBF12F13C0F0020014606DB624600F0A5
:102090003BFB21F00041FFF761FE002C08BFBDE8CB
:1020A000F08D012C04BF81F00041BDE8F08D114A94
:1020B000114B022C07D000F089FD2A46BDE8F04DF7
:1020C0000A4B00F083BD00F081FD2A46BDE8F04DCB
:1020D000064B00F06FBD00000000F07F182D445447
:1020E000FB2109C0B6150000FB21F9BFFB21094007
:1020F000FB21F93F075C143326A6A13C10B56FF015
:102100000400FFF71BFC0A4800680A49B0FBF1F025
:10211000094908700846007800EB4001C1EBC01087
:102120004FF6FF7101EAC0000449088010BD0000AD
:102130000C00002000127A0034000020360000203D
:102140000146114A12884A434FF0E0235A610022A7
:102150009A611A46126942F001021A6100BF4FF0FB
:10216000E022106900F001021AB100F48032002A66
:10217000F5D04FF0E022126922F001024FF0E02387
:102180001A6100229A617047360000200146114A08
:1021900012784A434FF0E0235A6100229A611A46AE
:1021A000126942F001021A6100BF4FF0E02210698B
:1021B00000F001021AB100F48032002AF5D04FF08D
:1021C000E022126922F001024FF0E0231A6100229E
:1021D0009A6170473400002086B0FFF78FFF4FF4FC
:1021E000A060FFF7AFFA304800F0B0F8FEF7CEFF7E
:1021F00059E02E4A2E492F48FFF709F82E4A2F4959
:102200002F48FFF72CF8FEF737F82B48B0F90000FD
:102210002A49B1F90010CDE900102948B0F9003081
:102220002248B0F900202248B0F900102148B0F946
:10223000000000F053F823492348006800F088FFAD
:10224000074600F009FF04B220492148006800F069
:102250007FFF074600F000FF05B21E491E480068D8
:1022600001F07EF88046194900F072FF074600F041
:10227000F3FE06B21048B0F90000CDE902650494FF
:1022800001900E48B0F9000000900D48B0F9003000
:102290000648B0F900200648B0F900100548B0F92A
:1022A000000000F0DEF8A4E720A1070004000020F1
:1022B00002000020000000200A000020080000208A
:1022C0000600002000002041780000200000C842E5
:1022D000700000200000B442740000202DE9FE438D
:1022E00004460D4617461E46DDE90A89200A8DF888
:1022F0000000E0B28DF80100280A8DF80200E8B273
:102300008DF80300380A8DF80400F8B28DF8050046
:10231000300A8DF80600F0B28DF807004FEA182059
:102320008DF8080008F0FF008DF809004FEA192029
:102330008DF80A0009F0FF008DF80B000C226946A9
:10234000A12000F053F8BDE8FE83000010B586B070
:102350000446012144F20400FFF700FA4FF4007034
:10236000ADF8140003208DF8160018208DF8170022
:1023700005A91C48FEF77FF94FF48060ADF8140002
:1023800004208DF8170005A91648FEF774F92520DA
:102390008DF8000003208DF801008DF80200012067
:1023A0008DF803006846FFF795F901940020ADF819
:1023B0000800ADF80A00ADF80C00ADF810000C20D4
:1023C000ADF80E0001A90848FFF7D6FB012240F244
:1023D00025510548FFF7ABFB01210348FFF764FBDC
:1023E00006B010BD0008014000380140F0B589B0CA
:1023F00006460F4615461C2D01DD09B0F0BD002133
:1024000001AAE81C115488208DF804008DF805609D
:102410008DF80650002405E0395DE01C01AA115436
:10242000601CC4B2AC42F7DB00240AE001A9E81C3E
:10243000085C095D0844C1B201AAE81C1154601C83
:10244000C4B2E81C8442F1DB002405E001A9085D68
:1024500000F068F8601CC4B2281D8442F6DB00BF9F
:10246000CBE72DE9F04F87B004460D4616461F46D0
:10247000DDE911ABDDF840904FF0000806E00020E8
:102480000DF8080008F1010000F0FF08B8F11C0F7A
:10249000F5DB200A8DF80000E0B28DF80100280A73
:1024A0008DF80200E8B28DF80300300A8DF80400C0
:1024B000F0B28DF80500380A8DF80600F8B28DF8F4
:1024C00007004FEA19208DF8080009F0FF008DF889
:1024D00009004FEA1A208DF80A000AF0FF008DF873
:1024E0000B004FEA1B208DF812000BF0FF008DF857
:1024F00013001398000A8DF814001398C0B28DF8D9
:1025000015001498000A8DF816001498C0B28DF8C2
:1025100017001C226946AF20FFF768FF07B0BDE82F
:10252000F08F000010B5044600BF40210448FFF7BB
:10253000C7FA0028F9D021460148FFF78EFB10BDED
:102540000038014021F00042A2F16052B2F5801F34
:1025500001F0004328BFD2F17F6C0BD95FEA001C69
:1025600043EAC20242EB507018BF704728BF20F008
:1025700001007047B2F5801FBCBF184670474FEA94
:10258000410C1CF5001F02D2084600F0A8BE70B531
:1025900000F0BCFA00000089FFF7F6BF4FF00040E2
:1025A000A0F580007047000010B591EA030F48BF06
:1025B00083F0004300F11283841A71EB030C05D2FF
:1025C000121943EB0C03001B61EB0C01DFF824E153
:1025D0004FEA1154A4EB135C1EEA430F18BF9EEAA6
:1025E000445F73D023EA0E03DCF1200E21EA04518C
:1025F00043F4801332D322FA0CFE10EB0E0023FAC0
:102600000CFE41EB0E01CCF1200E03FA0EFE10EB96
:102610000E0051F10001B1F5801FCCF1200E32D235
:1026200001EB045112FA0EF2BDE8104058BF70479A
:10263000401C38BF5FEA420218BF7047002814BF31
:1026400020F0010041F100014FEA410313F5001FA2
:1026500038BF7047A1F1C04100F0A6BA012A43EB90
:102660000302ACF1200CDCF11F0E32BF4FF0000E64
:1026700023FA0CF310EB030041EB0451B4EB115FB0
:10268000D0D0A1EB045101F5801149085FEA300078
:1026900001EB04510ED350F1000038BF12FA0EFEC8
:1026A00008D1BDE81040C9E7401C38BF5FEA4202CC
:1026B000CAD1C3E7BDE810404FEA410313F5001F3C
:1026C00038BF7047A1F1C04100F06EBA9EEA445F86
:1026D00008D011EA5E0FBDE8104004BF01F00041D0
:1026E00000207047BDE8104070B500F00FFA00BF41
:1026F00064FBBE3E0000E0FF02494FF0000000F026
:10270000A4BE00BF0000F87F2DE9C04130B4DFF85F
:10271000A0C23CEA111418BF3CEA131400F0EC808C
:1027200081EA03051CEA111444EAD57418BF1CEAB7
:10273000131500F0C780A4EB05044FF0004545EAEF
:10274000C12145EAC32341EA505143EA525304F1FF
:102750007F74994204F500344FEAC0204FEAC22248
:1027600008BF904200F09C804FEA13650FF24016BC
:10277000765D4FEA134506FB05F7C7F1807706FB48
:1027800007F74FEAD737A7FB03687642C8F58038CA
:10279000A7FB06CE38BFA8F1010807FB08E64FF0FB
:1027A000000EA6FB028CE6FB03CEDCF1000CCEF1A2
:1027B000004E38BFAEF1010EA6FB0C584FF00007DB
:1027C0004FF00005E6FB0E87A1FB08C6A0FB07CE75
:1027D00016EB0E0645F10005E1FB076515F1E04E2D
:1027E0007EBFA4F580345FEA46066D4116F180078E
:1027F00045F100054FEA17274FEA066647EA0567E5
:10280000A6F1DE46B6F1805F4FEA15251FD938469E
:1028100024F0010C05EBC471BCF1FE6F01EB0C114F
:1028200002D8F0BCBDE8008124425CBF01F5801EE7
:102830009EEAC47F02D4F0BCBDE80081244238D4B3
:10284000F0BCA1F1C041BDE8004100F0ADB94FEAD4
:10285000D22242EA43524FEAD323A7FB02864FEA31
:10286000D02040EA415007FB03661EEA0E0F4FEAF4
:10287000D12105FB026658BFA6EB0056B6EB005609
:102880004FEA520E4EEAC37E18EB0E0E56EB530E75
:10289000BDD518EB02085E417F1C55F10005B6E777
:1028A0004FF480154FF000074FF000064FF000087E
:1028B000ADE7F0BC4FF0000001F1C04101F0004174
:1028C000BDE8008111EA0C1F0CEA131500D00CE0E2
:1028D00013EA0C1F00F025804FF00000F0BC81EAE5
:1028E000030101F00041BDE80081F0BCBDE80041FA
:1028F00081EA030100F058B9F0BCBDE8004170B5B1
:1029000000F004F9097EFC3E00F007B881EA0301FB
:102910004FF0000001F00041704781EA030100F030
:1029200043B9F0BCBDE800414FF0000021497047B9
:10293000FFFDFBF9F7F5F4F2F0EEEDEBE9E8E6E484
:10294000E3E1E0DEDDDBDAD8D7D5D4D3D1D0CFCD0B
:10295000CCCBCAC8C7C6C5C4C2C1C0BFBEBDBCBB44
:10296000BAB9B8B7B6B5B4B3B2B1B0AFAEADACAB3F
:10297000AAA9A8A8A7A6A5A4A3A3A2A1A09F9F9E19
:102980009D9C9C9B9A9999989797969595949393CB
:10299000929191908F8F8E8E8D8C8C8B8B8A898962
:1029A00088888787868585848483838282818180E5
:1029B0000000FF070000F87FDFF848C170B51CEA8F
:1029C000111E1EBF1CEA13159EEA0C0F95EA0C0F90
:1029D00000F06F8081EA030423EA4C134EEAD47EB0
:1029E00021EA4C1141F4801143F48013AE44A1FB61
:1029F000024CA0FB0365AEF17F7E361955EB0C054A
:102A0000A1FB034C4CF10003A0FB021C16EB0C06CF
:102A1000654153F10003094218BF46F0010613F463
:102A2000007F0BD14FEA03314FEA0530340341EA0E
:102A3000155140EA16506FF003020AE04FEAC32135
:102A40004FEAC520F40241EA555140EA56506FF072
:102A5000020202EB2E4201EB025585EACE710AD04A
:102A60005FEA440C18BF24F0004450F1000041F12B
:102A7000000120EAD47040F2FE7C624500D270BDB5
:102A8000A84214BF4FF080444FF04044002E08BFCE
:102A90000024BEF1806FA8BFA1F1C041BDE8704025
:102AA00080F282804FF0000001F1C04101F000414E
:102AB00070479EEA0C0F0CEA131518BF95EA0C0F2D
:102AC00006D04FF0000081EA030E0EF0004170BD09
:102AD00000F01CF88900013E00F007B800F009B8CA
:102AE0004FEA430C5FEA5C5C08D081EA030100F026
:102AF0005BB84FEA410C5FEA5C5CF6D14FF0000036
:102B0000014970470000FF070000F87F0EF1020E38
:102B10002EF0030E5EF8046B364205D4012A43EB17
:102B2000030515F5001F12D8012841EB010C1CF517
:102B3000001F0CD80ED14FEAD17C15F5001F0CEB0D
:102B40004C0C0CF1020C08BF4CEBD37C04E04FF0B2
:102B5000080C01E04FEAD37C0CEB4C0526FA05F695
:102B600006F00706B6F1040C06D20EEB860CBDE8A3
:102B700070404CF0010C6047DFE80CF0090B0202DA
:102B80004FF000414FF00000A1F5002170BD194643
:102B90001046012851EB010418BFD4F5001484BF7E
:102BA000002001F0004170BD0808A0F500114FEAB7
:102BB0003101704791EA030F10B581F000413FF5F4
:102BC000FBAC83F0004300F009B8000010B591EAB7
:102BD000030F48BF83F000433FF5EEAC841A71EB5E
:102BE000030C07D212198CF0004C43EB0C03001BB2
:102BF00061EB0C01DFF8A4E14FEA1154A4EB135C84
:102C00001EEA430F18BF9EEA445F00F0B08023EA3B
:102C10006E03524221EA0451C3EB6E0338BF5B1EC0
:102C2000DCF1200E25D322FA0CFE10EB0E0043FA45
:102C30000CFE41EB0E01CCF1200E03FA0EFE10EB60
:102C40000E0051F10001CCF1200E29D412FA0EF23F
:102C500001EB0451BDE8104058BF7047401C1CBF39
:102C6000B2F1004F704700280CBF491C20F0010052
:102C7000704712EB020E43EB030218BF4FF0010E38
:102C80004EEA4202ACF1200CDCF11E0E54D943FA9C
:102C90000CFE10EB0E0051F1FF31CCF11E0ED5D51C
:102CA0000EF1010E12FA0EFE404141EB010101EB63
:102CB000445C5FEA5C5C10D910EBDE7001EB045100
:102CC00038BFBEF1004FBDE8104018BF7047002864
:102CD0000CBF491C20F00100704730D24FEAD42CC1
:102CE00011F5001124F400641BD0B1FA81F20B3A03
:102CF000A41AA41ED2F12003914030FA03F3194321
:102D0000904001EBCC71002C01EB0451BDE8104068
:102D1000A8BF704701F1C0414FF0000001F0004131
:102D20007047B0FA80F310FA03F100D110BDE41A35
:102D3000173C4805C90AE4E701EB045110BD4910EE
:102D400001EB0451BDE810404FEA300002E04FF0C3
:102D5000000170474A0008BF0042F8D0B2F5001FDA
:102D600028BF704701F000414FF0000070479EEA15
:102D7000445F07D011EA5E0FBDE8104004BF002198
:102D800000207047BDE8104070B5FFF7BFFE00BFE0
:102D900040DFF63E83F00041104670470000E0FF40
:102DA00043004FEAD30C4FEA3C0C43401FBF40079F
:102DB0000CF1605113F0FE4F70471CF0006F03D10F
:102DC00000200CF0004170470CF0004343EA5070C3
:102DD00010B540EACC0000F03CFA00BF00000092C1
:102DE0004FEA0001FFF7E0BE4FF000414FF0000056
:102DF000A1F500217047000090EA010F48BF81F063
:102E0000004100F1B482421A3CBF801A89184FEA8F
:102E1000D0524FF07F4C1CEA410FA2EBD15318BFA8
:102E20009CEA026F00F03B804FF0004C4CEA00201F
:102E30004CEA012121FA03FC10EB0C0C1ED202F12A
:102E4000FF325FEA1C2040EBC25038BF70471CF0D5
:102E50007F0F4FEA400C18BFBCF17F4F38BF70475F
:102E6000C3F12003994008BF20F00100BCF17F4F5F
:102E700038BF7047A0F1C04000F031BA4FEA3C00C3
:102E8000000A40EBC25028BF1CF0FF0F4FEA400C75
:102E9000E6D018BFBCF17F4F38BF7047EAE79CEA25
:102EA000026F05D010EA5C0F08BF00F000407047C9
:102EB00010B500F0CEF900BF64FBBE3E401058BF15
:102EC000C0F14040491058BFC1F140418142EFF389
:102ED000008070474FF47F0C1CEAD0121EBF1CEA22
:102EE000D11392EA0C0F93EA0C0F00F0858090EA60
:102EF000010F48BF42F4807240F4000C41F400001E
:102F00002CF07F4120F07F4000B58142A2EB03020C
:102F10000FF2081CACEB504EC0F100009EF800E030
:102F20004FEA4E0E00FB0EFC38BF49004FEA2C1C46
:102F300002F5FA020CFB0EF34FEACE1E4FEA112CFB
:102F40004FEAC1210EEB635E42EB22420EFB0CFC0A
:102F50004FEA1C5300FB03114FEA112C4FEA0131D9
:102F60000EFB0CFC4FEADC4C00FB0C11C14228BFED
:102F700009184CEB03335DF804EB10EB410143EB14
:102F8000C250B2F57C0F38BF704729D512F0F00F50
:102F90001CBF00F1C04000F00040704700818283F8
:102FA0008485868788898B8C8D8E8F919293959658
:102FB00097999A9C9D9FA0A2A3A5A7A8AAACAEB0E2
:102FC000B2B3B5B7B9BCBEC0C2C5C7C9CCCED1D4E7
:102FD000D7D9DCDFE2E6E9ECF0F3F7FAFE00000017
:102FE0004FEA400C0CF1807CBCF17E4F28BF70474B
:102FF000B0F1C04000F073B990EA010F0CEAD113B0
:1030000048BF42F48072624538BF634507D213F46B
:103010007F0F16D080EA010000F00040704710B525
:1030200000F017F9097EFC3E00F005B880EA0100C7
:1030300000F00040704780EA010000F0004000F01E
:103040004EB912F47F0F04BF0248704780EA0100B6
:1030500000F045B90000C07F41000B0ED3F19E0285
:1030600008D950F400034FEA032323FA02F048BFC3
:103070004042704710B500F0ECF800BF4992248040
:10308000002070476FF0004282EA20007047000085
:1030900010F0004148BF4042B0FA80F310FA03F24A
:1030A000C3F19D030BD051EAC35101EB122053062B
:1030B00038BF704700F1010008BF20F001007047E1
:1030C000B0FA80F310FA03F2C3F19D030AD0D905D8
:1030D00001EB1220530638BF704700F1010008BF12
:1030E00020F001007047000050EA010C00F113804D
:1030F0001CF5000F58BFBCF5000F01D48842704783
:1031000007D710F5000F58BF11F5000F15D48842EE
:103110007047894270471CF5000F04D5BCF5000FBD
:10312000F7D5814270474FF0807C1CEB400F38BFD1
:103130001CEB410F01D28142704710B500F089F8B5
:10314000922449004FF000504FF08051FFF7B6BE77
:103150004FF47F0C1CEAD0121EBF1CEAD11392EA76
:103160000C0F93EA0C0F00F0478090EA010F48BF64
:1031700042F480724FF0004C4CEA00204CEA0121EE
:1031800002EB0302A0FB0113A2F50002002918BF05
:1031900043F001035B0028BF4FEA330342EB2242B6
:1031A0005FEA132C4CEBC2502EBFBCEB436FB2F561
:1031B0007C0F70474FEA036CBCF1004F08BF20F052
:1031C0000100B2F57C0F38BF70470BD582F0FF02CB
:1031D00012F5803FC8BF704700F1C040D8BF00F073
:1031E0000040704700F5000C5FEA4C0C48BF704788
:1031F000B0F1C04000F073B890EA010F0CEAD113AF
:1032000048BF42F48072624538BF634504D280EA09
:10321000010000F00040704710B500F01AF800BF40
:103220008900013E00F007B800F009B85FEA410CE0
:103230005FEA1C6C08D080EA010000F050B85FEA39
:10324000400C5FEA1C6CF6D14FF00040A0F5800006
:1032500070470EF1020E2EF0030E5EF8044B24426E
:1032600004D44FEA4102B2F17F4F11D84FEA400334
:10327000B3F17F4F0CD80ED14FEAD07CB2F17F4F23
:103280000CEB4C0C0CF1020C08BF4CEBD17C04E0B5
:103290004FF0080C01E04FEAD17C0CEB4C0324FA10
:1032A00003F404F00704B4F1040C06D20EEB840C12
:1032B000BDE810404CF0010C6047DFE80CF0070857
:1032C00002024FF00040A0F5800010BD0846420009
:1032D00018BFD2F1807288BF00F0004010BDFF21FE
:1032E00041EAD050C005704751EA000C00F113804C
:1032F0001CF5000F58BFBCF5000F01D48142704788
:1033000007D711F5000F58BF10F5000F15D48142F3
:103310007047894270471CF5000F04D5BCF5000FBB
:10332000F7D5884270474FF0807C1CEB410F38BFC7
:103330001CEB400F01D28842704780EA010081EA0D
:10334000000180EA0100FFF7F8BE80F0004090EA3B
:10335000010F7FF558AD81F0004100F008B8000082
:1033600090EA010F48BF81F000413FF54CAD421A91
:1033700004D882F00042A0EB020011444FEAD05280
:103380004FF07F4C1CEA410FA2EBD15318BF9CEACF
:10339000026F4AD04FF0004C4CEA00204CEA012169
:1033A00021FA03FCB0EB0C0C0FD412F0FE0F36D058
:1033B0005FEA4C001DD5001240EBC25038BF704789
:1033C0001CF03F0F18BF70470BE0A2F101025FEA4B
:1033D0001C2040EBC25038BF70471CF07F0F18BF55
:1033E0007047C3F12003994014BF401E20F0010034
:1033F000704780084FEA122308BF7047B0FA80FC7C
:10340000A2EB0C02CCF1280C60FA0CF093EA122F1C
:1034100004BF00EBC25070474FEAC3707047130AF5
:103420005FEADC1008BF7047F6E79CEA026F04D041
:1034300010EA5C0F08BF0020704710B5FFF709FFC6
:1034400040DFF63E81F0004070470CF00F03092B7F
:1034500008BF082000F059800A2B0BD0082B18BF9A
:10346000704708BF1CF0400F0AD04FF000004FF02B
:10347000000170471CF0400F18BF4FF0004070472C
:103480001CF0100F08D020F0704300F07F4242EA99
:10349000D3014FEA4370704700F0604021F07F4253
:1034A00042EA000201F07F4040EA727070474FF03C
:1034B000FF0C4CF4E06C1CEA11531CBF9CEA030C9B
:1034C0009445C2BFDA4201EB02517047002B0DD088
:1034D000BCF1000F0FD0002A01F00041A4BF41F061
:1034E000E04141F07F614FF00000704701F0004182
:1034F0004FF00000704750EA01334FF09B0C18BFAB
:103500004CF0806C7FF4F8A870471CF4801F11D039
:103510001CF4E02F03D06FEACC31490070474FF024
:103520004050EFF3008222F0704242EA000282F340
:10353000008870474FF00000704700000000000056
:103540004FBB610567ACDD3F182D4454FB21E93FBB
:103550009BF681D20B73EF3F182D4454FB21F93FAA
:10356000E2652F227F2B7A3C075C143326A6813C30
:10357000BDCBF07A8807703C075C143326A6913CDB
:10358000C4EB98999999C9BF711623FEC671BCBF47
:103590006D9A74AFF2B0B3BF9AFDDE522DDEADBFAF
:1035A0002F6C6A2C44B4A2BF0D5555555555D53FC7
:1035B000FF8300922449C23F6E204CC5CD45B73FE2
:1035C000513DD0A0660DB13FEB0D76244B7BA93F5A
:1035D00011DA22E33AAD903F000000000000000045
:1035E0000036000800000020C40000006C01000844
:1035F000C4360008C40000203C0700008801000811
:1036000000000000000000000000000000A24A04CA
:103610000000000000000000010203040607080982
:103620000000000001020304010203040607080968
:103630000204060800000000000000000000000076
:10364000000000000000000000000000000000007A
:10365000000000000000000000000000000000006A
:10366000000000000000000000000000000000005A
:103670000000000000000000000000000100000049
:10368000000000000000000000000000000000003A
:10369000000000000000000000000000000000002A
:1036A000000000000000000000000000000000001A
:1036B000000000000000803F00000000000000004B
:0436C0000000803F47
:0400000508000131BD
:00000001FF
