:020000040800F2
:10000000E01600201502000879060008D505000852
:1000100075060008B5040008530D00080000000034
:100020000000000000000000000000009D0A000821
:10003000B904000800000000790A0008B10B0008AC
:100040002F0200082F0200082F0200082F020008CC
:100050002F0200082F0200082F0200082F020008BC
:100060002F0200082F0200082F0200082F020008AC
:100070002F0200082F0200082F0200082F0200089C
:100080002F0200082F0200082F0200082F0200088C
:100090002F0200082F0200082F0200082F0200087C
:1000A0002F0200082F0200082F0200082F0200086C
:1000B0002F0200082F020008150C00082F0200086C
:1000C0002F0200082F0200082F0200082F0200084C
:1000D0002F0200086D0C00082F0200082F020008F4
:1000E0002F0200082F0200082F0200082F0200082C
:1000F0002F0200082F0200082F0200082F0200081C
:100100002F0200082F0200082F0200082F0200080B
:100110002F0200082F0200082F0200082F020008FB
:100120002F0200082F0200082F0200082F020008EB
:1001300000F002F800F05FF80AA090E8000C82449A
:100140008344AAF10107DA4501D100F054F8AFF277
:10015000090EBAE80F0013F0010F18BFFB1A43F0A5
:1001600001031847CC0E0000EC0E00000A444FF0CB
:10017000000C10F8013B13F0070408BF10F8014B06
:100180001D1108BF10F8015B641E05D010F8016B4B
:10019000641E01F8016BF9D113F0080F1EBF10F8AF
:1001A000014BAD1C0C1B09D16D1E58BF01F801CBD2
:1001B000FAD505E014F8016B01F8016B6D1EF9D555
:1001C0009142D6D37047000000230024002500266A
:1001D000103A28BF78C1FBD8520728BF30C148BFAA
:1001E0000B607047642900F07F80002070471FB5C6
:1001F0001FBD10B510BD00F02EF91146FFF7F7FF37
:1002000000F074FE00F04CF903B4FFF7F2FF03BCFA
:1002100000F0ECFD0948804709480047FEE7FEE78B
:10022000FEE7FEE7FEE7FEE7FEE7FEE7FEE7FEE7A6
:1002300004480549054A064B70470000B50B000805
:1002400031010008E0100020E0160020E01200203C
:10025000E0120020704700000FB41CB5074B06AA3F
:100260007B4469460090059800F0DDF8002069465F
:1002700000F0ECF81CBC5DF814FB0000E901000084
:100280002DE9F0410E460446002020622046E16838
:10029000884730B3252805D0D4E901219047206A4A
:1002A000401CF2E7E168204600278847050018D087
:1002B000A5F14100192802D820354FF400673246D5
:1002C000294620462760FFF78DFF40B1012804D062
:1002D000F61D26F007060836D8E7361DD6E728466D
:1002E000DAE7206ABDE8F0812DE9F04106460024F6
:1002F00010687529314616A510D0AFF3008000288C
:1003000002DA404213A507E031688A0701D512A539
:1003100002E0490704D511A5012401E0AFF30080F4
:1003200000210A2206F1240709E0B0FBF2FCB0FB31
:10033000F2F302FB1C00303078541846491C0028A8
:10034000F3D123462A463046BDE8F04100F00CB810
:10035000000000002D0000002B0000002000000025
:1003600070477047704770472DE9F0470D46994632
:100370009246044600F124080168880604D5E06925
:1003800021F01001216000E00120A84201DD471B9F
:1003900000E00027A1697A1902EB0900081AA061A0
:1003A0002078C00602D42046AFF30080002608E083
:1003B000D4E901211AF806009047206A401C761CF7
:1003C00020624E45F4DB2078C0060AD52046AFF304
:1003D000008006E0D4E9012130209047206A401CCB
:1003E0002062381EA7F10107F4DC07E0D4E90121FF
:1003F00018F805009047206A401C2062281EA5F1CD
:100400000105F3DC2046AFF300802078000602D51A
:100410000220BDE8F0870120FBE7000001694A1CCB
:1004200002610878704700B58FB0CDE90131002135
:10043000059105497944CDE9031011466846FFF757
:100440001FFF0FB000BD0000E5FFFFFF0A6802F8C4
:10045000010B0A607047754600F028F8AE460500AB
:100460006946534620F00700854618B020B5FFF7CF
:10047000DFFEBDE820404FF000064FF000074FF0D0
:1004800000084FF0000B21F00701AC46ACE8C009B2
:10049000ACE8C009ACE8C009ACE8C0098D467047BB
:1004A0000446AFF300802046FFF7AEFE00487047D9
:1004B0008010002000BFFEE770472DE9F0410246A2
:1004C00000250026002000230024002791F803C007
:1004D0000CF00F0591F803C00CF0100CBCF1000FEC
:1004E00003D091F802C04CEA050591F800C0BCF1B8
:1004F000000F31D0146800202BE04FF0010C0CFAF3
:1005000000F3B1F800C00CEA03069E4220D183003C
:100510004FF00F0C0CFA03F7BC4305FA03FC4CEA4E
:10052000040491F803C0BCF1280F06D14FF0010C70
:100530000CFA00FCC2F814C00AE091F803C0BCF148
:10054000480F05D14FF0010C0CFA00FCC2F810C0A6
:10055000401C0828D1D31460B1F800C0BCF1FF0FD3
:1005600034DD546800202EE000F1080C4FF0010843
:1005700008FA0CF3B1F800C00CEA03069E4221D140
:1005800083004FF00F0C0CFA03F7BC4305FA03FC91
:100590004CEA040491F803C0BCF1280F05D100F126
:1005A000080C08FA0CF8C2F8148091F803C0BCF1EA
:1005B000480F07D100F1080C4FF0010808FA0CF8B9
:1005C000C2F81080401C0828CED35460BDE8F081EA
:1005D0000161704700BFFEE708B50121082000F067
:1005E0004DFA4FF42040ADF8000010208DF80300C4
:1005F00003208DF8020069460448FFF75EFF4FF4C0
:1006000020410248FFF7E4FF08BD0000000C014054
:1006100010B50120094908600949C1F8B401042056
:1006200000F03EFC0020054908390860042000F075
:1006300037FC00200249C1F8BC0110BDBC81214239
:100640000080214210B50020084908600849C1F81F
:10065000B401042000F024FC01200449086004498E
:10066000C1F8B401042000F01BFC10BDBC81214284
:100670000080214200BFFEE7704710B5002000F067
:100680003BF810BD2DE9F05F06460F4690461C462C
:10069000DDF828A04FF0000BE11704EB5171C910F1
:1006A000A4EBC10131B92046E11704EB5171C1F34C
:1006B000C70506E02046E11704EB5171C910491C3B
:1006C000CDB23D4614E02946304600F0A2F8B146CE
:1006D0000AE059460BF1010B1AF8010000F04BFB40
:1006E00009F1010000F0FF09C145F2DB681CC5B249
:1006F000A542E8DBBDE8F09F70B50646002415E092
:1007000004F1B001C8B200F026FB002000F023FB8A
:10071000102000F020FB002504E0304600F02BFB09
:10072000681CC5B2802DF8DB601CC4B2082CE7DB66
:1007300070BD10B54FF4FA7000F07EFBAE2000F0F3
:100740000AFB202000F007FB102000F004FBB02083
:1007500000F001FBC82000F0FEFA002000F0FBFAD8
:10076000102000F0F8FA402000F0F5FA812000F0A7
:10077000F2FAFF2000F0EFFAA12000F0ECFAA62038
:1007800000F0E9FAA82000F0E6FA3F2000F0E3FAD2
:10079000A42000F0E0FAD32000F0DDFA002000F001
:1007A000DAFAD52000F0D7FAF02000F0D4FAD920F8
:1007B00000F0D1FA222000F0CEFADA2000F0CBFAD5
:1007C000122000F0C8FADB2000F0C5FA202000F06B
:1007D000C2FA8D2000F0BFFA142000F0BCFAAF205E
:1007E00000F0B9FA10BD10B58D2000F0B4FA102059
:1007F00000F0B1FAAE2000F0AEFA10BD10B58D20B9
:1008000000F0A9FA142000F0A6FAAF2000F0A3FA35
:1008100010BD70B504460D4605F1B001C8B200F038
:100820009AFA102141EA141000F095FA04F00F0131
:1008300041F0010000F08FFA70BD00002DE9F04199
:1008400080460E46174600247D0131464046FFF79C
:10085000E0FF00BF06E00D49485D00F08CFA6D1C1A
:10086000601CC4B2102CF6DB701CC1B24046FFF70E
:10087000D0FF002406E00549485D00F07CFA6D1CBD
:10088000601CC4B2102CF6DBBDE8F0811E00002015
:100890002DE9F0470646894617469A464FF000086C
:1008A00000240025BAF1010F03D0BAF1020F5ED186
:1008B00025E020E0785D203800F0FF087E2E04DD82
:1008C000002609F1010000F0FF0949463046FFF714
:1008D000A0FF002409E008EB4801264A02EB410191
:1008E000085D00F048FA601CC4B2062CF3DBB01DB2
:1008F000C6B2681CC5B2785D0028DBD137E032E0B3
:10090000785D203800F0FF08782E04DD002609F11C
:10091000010000F0FF0949463046FFF77AFF002446
:1009200007E004EB0811144A505C00F024FA601C44
:10093000C4B2082CF5DB09F10100C1B23046FFF763
:1009400068FF002408E004EB081108310A4A505CF3
:1009500000F011FA601CC4B2082CF4DB06F10800A8
:10096000C6B2681CC5B2785D0028C9D100BF00BFFF
:10097000BDE8F0879E030020C60500202DE9FF4753
:10098000064688469246994600270024002552468E
:1009900036A16846FFF760FCB9F1010F03D0B9F149
:1009A000020F60D126E020E01DF805002038C7B214
:1009B0007E2E04DD002608F1010000F0FF0841460C
:1009C0003046FFF726FF002409E007EB4701284ADD
:1009D00002EB4101085D00F0CEF9601CC4B2062CA8
:1009E000F3DBB01DC6B2681CC5B21DF805000028B7
:1009F000DAD138E032E01DF805002038C7B2782E91
:100A000004DD002608F1010000F0FF0841463046F1
:100A1000FFF7FFFE002407E004EB0711154A505CC6
:100A200000F0A9F9601CC4B2082CF5DB08F1010044
:100A3000C1B23046FFF7EDFE002408E004EB0711D9
:100A400008310C4A505C00F096F9601CC4B2082CC6
:100A5000F4DB06F10800C6B2681CC5B21DF805003B
:100A60000028C8D100BF00BFBDE8FF872564000093
:100A70009E030020C60500207047000029B1064AE9
:100A800092690243044B9A6104E0034A92698243EB
:100A9000014B9A617047000000100240704710B58A
:100AA00000F002F810BD00000CB50020019000908D
:100AB0003348006840F480303149086000BF304856
:100AC000006800F4003000900198401C01900098EC
:100AD00018B90198B0F5A06FF1D12948006800F469
:100AE000003010B10120009001E00020009000983B
:100AF000012843D12348006840F0100021490860D4
:100B00000846006820F0030008600846006840F0CE
:100B1000020008601A484068194948600846406861
:100B200048600846406840F4806048600846406875
:100B300020F47C1048600846406840F4E8104860A3
:100B40000846006840F08070086000BF0C480068EC
:100B500000F000700028F9D00948406820F0030038
:100B6000074948600846406840F00200486000BFFE
:100B70000348406800F00C000828F9D10CBD0000C3
:100B80000010024000200240042808D14FF0E0216C
:100B9000096941F004014FF0E022116107E04FF0D4
:100BA000E021096921F004014FF0E0221161704752
:100BB0007047000010B51348006840F0010011496B
:100BC000086008464068104908400E4948600846D9
:100BD00000680E4908400B4908600846006820F488
:100BE000802008600846406820F4FE0048604FF40A
:100BF0001F008860FFF753FF4FF000600449086052
:100C000010BD0000001002400000FFF8FFFFF6FEDC
:100C100008ED00E010B50121084800F016F858B1C1
:100C20000121064800F00EF80548006808B90120C7
:100C300000E000200249086010BD000000080040EC
:100C400094012342CA430282704730B50246002015
:100C500000230024158A05EA0103958905EA0104A9
:100C600013B10CB1012000E0002030BD10B540F2FE
:100C700025511D4800F03EF810B31B4800F064F801
:100C8000C4B21A48008800F40040C8B91748008868
:100C900000F4804060B10A2C03D000201349088082
:100CA00020E01248008840F400401049088019E014
:100CB0000D2C06D10D48008840F480400B49088077
:100CC00010E00A480088C0F30D0009490C54074899
:100CD0000088401C0549088008460088C72801DDB7
:100CE0000020088010BD0000003801401C000020DA
:100CF000B80F002070B50246002400230025002014
:100D000040F66A16B14200D100BFC1F3421501F0AE
:100D10001F03012606FA03F3012D02D19689334001
:100D200006E0022D02D1168A334001E0968A334054
:100D30000C12012606FA04F41688344013B10CB1E3
:100D4000012000E0002070BD01468888C0F3080043
:100D5000704700BFFEE710B50446FFF759FC782046
:100D600000F01AF8002000F017F8204600F014F800
:100D7000FFF768FC10BD10B50446FFF749FC78206A
:100D800000F00AF8402000F007F8204600F004F8D0
:100D9000FFF758FC10BD0000002115E000F08002B4
:100DA0001AB101220F4B1A6002E000220D4B1A60AB
:100DB00001220C4B08331A6000220B4BC3F8BC21F4
:100DC0004206100E4A1CD1B20829E7DB0122054B6E
:100DD0001A60054BC3F8BC210022024B08331A608D
:100DE00070470000B481214200802142014600BFCB
:100DF0007047000010B56FF00400FFF7C5FE0A4809
:100E000000680A49B0FBF1F009490870084600780B
:100E100000EB4001C1EBC0104FF6FF7101EAC000CA
:100E20000449088010BD00000000002000127A0074
:100E300014000020160000200146114A12884A437F
:100E40004FF0E0235A6100229A611A46126942F07B
:100E500001021A6100BF4FF0E022106900F00102A8
:100E60001AB100F48032002AF5D04FF0E022126966
:100E700022F001024FF0E0231A6100229A617047CC
:100E80001600002030B50446002505E04FF47A70C6
:100E9000FFF7D2FF681CC5B2A542F7D330BD0000F2
:100EA0000146114A12784A434FF0E0235A6100226A
:100EB0009A611A46126942F001021A6100BF4FF0AE
:100EC000E022106900F001021AB100F48032002A19
:100ED000F5D04FF0E022126922F001024FF0E0233A
:100EE0001A6100229A6170471400002008B5FFF7CC
:100EF00081FFFFF771FBFFF71CFC71E0FFF7BDFB03
:100F000000241DE0C4EB0411891CC8B22246002154
:100F1000FFF794FC04F10C01CAB2C4EB0411891C64
:100F2000C8B20421FFF78AFC04F11401CAB2C4EB71
:100F30000411891CC8B20621FFF780FC601CC4B2F2
:100F4000072CDFDD08240DE0A4F1080101EB81018D
:100F5000142202EB8101C8B222460221FFF76EFC87
:100F6000601CC4B20B2CEFDD0320FFF78BFFFFF7F3
:100F700084FB01231BA219460020FFF789FC0223F2
:100F80001DA219460020FFF783FC01231DA20621A4
:100F90000020FFF77DFC01231FA207210020FFF79F
:100FA00077FC02230F2204210020FFF7E7FC032037
:100FB000FFF768FFFFF761FBFFF715FC0220FFF763
:100FC00061FFFFF71BFC19480823802200210090D5
:100FD0000846FFF757FB0220FFF754FFFFF74DFBD2
:100FE0008CE7000048656C546563204175746F6D33
:100FF0006174696F6E00000048656C6C6F20546509
:1010000063680000456D61696C3A313231363130C8
:1010100034323435407171004E756D6265723A310B
:10102000353030333630313038000000B60B002018
:101030005010000800000020B80F00006C010008EC
:10104000001A0008B80F002028070000C801000897
:101050001184A24A04A00901020304060708091822
:101060000D1010D0FFFF90504444447F7F05780955
:1010700040040703FFFF03431049203A10071AD02A
:101080000739203C11190C2724070C081808F8F818
:10109000888888FFFF0543F8F82F1F1F0808087F7E
:1010A000103F9F9FF0F0808201500AE2E2B29A8ED8
:1010B000868280807540C0FF7F100B2424A4FEFF31
:1010C000A32222EECC33FFFF1809080E07FFFF0111
:1010D0000504011EFFFF0202027319806A9863482B
:1010E00013080444C6FF7F8180C0436F3C386EC73D
:1010F000818020015BFFFF0918188080C060301CD0
:101100000F03030F1C3060C08080407031979690B1
:1011100091042F989C17537030593F0444C4FE7EAD
:1011200007643204300DC0E03C9CB02020E0E004B5
:10113000FCFC200E010F3F312F2F39380707607F4D
:101140003F2010808080F0F2FE7C48F0F098CC4484
:101150004040180B1E1E123F3F051D1F033F1E2956
:101160003F200EC060ACACA4E4F8BE267270202014
:1011700039611C457F3EBD3302021AF8014009C89F
:10118000E0A4BCDC5010101937180B21331A0E1EC6
:101190003F2121303030AA84012159C86901111042
:1011A00010FCFCC4FC3C1C3C2424262624243C1CAF
:1011B00020107F7F101F4F61311F0F013F3F2139EA
:1011C0003D3D1010F8F8672E8888880808411B3FBD
:1011D0003F38281319392020311F0E6C7C10FFFF77
:1011E000103034DEFA388921280D02027F7F0B0D82
:1011F00027331C0F4340E019F5180C24FCFC141293
:101200001EFCF81C1612A2180F1F1F117F7F4161D0
:10121000391F0F1D31614180180B1474E4E47434DC
:10122000E4C4F4342C1980380C0C0E0303060C0FA4
:1012300043474C484139014BFCFC0869C0298449AB
:1012400001195E1E26A2BCBCA401180ABCBC800CFD
:101250000F037F7F23CB1C243F3F051A20B81A4879
:10126000012BFEFE0629A02B1F1F472A1F1D152438
:101270002F3F3C3B8084015009E4E4B4949C8C846F
:10128000803960711010E0E0ACBCF4E4A4B4B4A404
:10129000B4BCACE4E0101020305C4F474E7A3232E0
:1012A000327A4E4640402F90FE7E1070F0461BE48E
:1012B000F441112743673C1E1F113A40FE294C1888
:1012C0000C282828A8BEFE683838282C90113E0229
:1012D000027F7F2501437F7FE36060E910180DFCEA
:1012E000FC1434E4C4C4643414FCFC1E1010781FD5
:1012F00017180C0603030E1C103F7F70701E90D849
:10130000CEFEBC9C1811ECE4ACBC948404020A0A26
:101310000A4A4A4A7F3F08950A1F1F02422F1A07AE
:1013200002111B147F021116242A7F2A12166264EE
:10133000081323263649552250430503341C224105
:101340001C41221C2A15083E08141A080632081AE5
:10135000A0992A080159A4162010080402263E511B
:1013600049453E1C427F40051561514946162141C1
:10137000454B31161814127F10162745454539166E
:101380003C4A4949301C01710962163649494936BF
:1013900026064949291E4336362A56062B08147854
:1013A0002A1401297E131408160201510906163267
:1013B0004959513E167C1211127C3A7F3C163E412F
:1013C0004141221A7F053A1C1212411E7F09090968
:1013D00001181449497A1A7FA11A7F421A7F4E1EBA
:1013E0002040413F0112295B1B7F400111167F0203
:1013F0000C027F3E7F0408107F483A3E3C1A060CE0
:101400001C51215E0C141929461A4654123116013A
:10141000017F01011A3F35123F1E1F2040201F0C83
:101420001A380C1663140814631607087008071995
:10143000EF234543198B211B552A0219781A417D48
:1014400016040201020429712240290B11162054AE
:10145000545478167F484444382E38444444200677
:1014600013487F1A3818121816087E0901021D1831
:10147000A4A4A4E425080404781B447D3B1D4080FB
:10148000847D5F341028441B417F121C7C04181E8D
:101490003A7C242948123816FC242424181A1805EA
:1014A0003AFC1812081A4854122016043F444020EF
:1014B000163C4040207C1A1CC01A1C0C1430403CC6
:1014C0002B44284F161CA0A0A07C3F4464544C44DD
:1014D0001401011372F84333301C100C0603912CD5
:1014E00040C0780319672A0403212D7088FC08295D
:1014F000261820FF211E14F008F033E0184D211C9F
:10150000031E11338870000C101E2123241927217B
:101510001010160E45E01804021C071820EA3D02C0
:101520000418E0692C20180707174080F08040401D
:101530003F0202010F01022842F01D0101011F04B8
:10154000912B80B066B1191D2901913A30CE492CFA
:10155000146018043C6018061D1EE0100808107284
:101560001F0F102020100FF05310F83620203F20BE
:10157000203C700808C21E3028242221441E300856
:10158000888848082E1820202011CC3BC020322704
:10159000070424243F241AF8202308084B1921208B
:1015A00036E0108888184B0F11101E380808C8380C
:1015B0002021523F1A702E29608F1C222121221CCB
:1015C00090111D31222211901961CAC0C26A80C6D1
:1015D00059081C40201050170102040810204A40EE
:1015E00001114A04012119152A403219251B040250
:1015F000F21B7048D13AF0501A360F1EC030C8287E
:10160000E87028080718272423140B6F2A387E282F
:101610000D203C23020227382008F888889F4B20A1
:101620003FF01BC0303F1B083830191019781B08D9
:10163000F80F194039201B100F103E8888E8081059
:1016400010AC23201810112A035E294022382940AB
:101650002C221E024019A41809F808203F2101017C
:1016600021252A0852298129424149112EC0808012
:10167000807F0E2FF888C0281808501C0126382FAC
:101680002940292F29801B20301012F81AF8141332
:10169000203F190229204B30C0601A2074123F4BA2
:1016A000E010B06B0F10B029D01AF0301980220171
:1016B00079203F18242438504FC04C888870C014BB
:1016C0000C30204B7088C11738202121221C3A1879
:1016D0009F4A188239A049D0112A1F90121F24084E
:1016E00078881BC838151C07380E60191A1AF8209C
:1016F0001114033C0714073C034814081868808041
:1017000068180820302C03032C30200838C82F59C3
:1017100050298F29102F203826212020681145FEBE
:10172000020202257F4040401A0CE0611C0106388D
:101730000B191D42FE191D527F1A04120211045A80
:1017400080011930D91D39162118081924222222A6
:101750003F20AB390F115F3F112020110E21311AAC
:101760000E104B2011104B88F8102A10B359401A54
:101770001F3F2B22130F16F0888888181A20D029B3
:10178000D1497A21176B94949493603960190F4C66
:10179000203F21F354809898793059121AC02719A4
:1017A000D1193039311F203F24022D30212A08124F
:1017B000893069D7294B2903190BC96079A019BF52
:1017C0002B201FDD390F9C80FFA1E0191229D03B8F
:1017D000A0FF0C3950194112208A01C01B3324018B
:1017E0002A190F3AE0413952290F392349603C1038
:1017F0003F202C29053F010E3008060170291038C2
:10180000080F300C030C300F2C49A14E312E0E3135
:10181000200C29621D818E70183059D1215721303A
:101820002C22213055807C0202443F404072FF3917
:10183000083C02027C8F5440403FA0080601010290
:101840000204040A2BFC01A1031780C0399F011177
:101850000515081C3C388AFF011AEF011E01EFEF45
:1018600007EF0C980CBB03BBBBD7B7770177B1D799
:101870002269DB0913784EC0F8FCFEFE270D12FE2C
:10188000FCF0C086091C801DF7F7FBFC070811223D
:10189000F0F7F7F1FFFBF8FDFEFDF6F7F0FFFEFDB8
:1018A000804BF0FC7A180AFBFBFB7B73777767E7CA
:1018B000C43808FEFCF8F0E0C08001092380180855
:1018C000DFDDDDDD5D815D061ADF0E3C03EB6D01C2
:1018D000194A09208069202EFCFCFCFEF8015910F1
:1018E0001F037FFBFFF1E0010B20F0F0801EF7F7F4
:1018F000FBFDFEF1180AFBF7F7FFF7F9FEFFF0CE4C
:10190000ABFBF07F198039D12905AAC0D58A0F23F6
:10191000100F7F1FCFE7F3FFFFEFFFEF8F9F8F8F3A
:10192000700A01031F3F3F7F3F1F011AF0013990EA
:101930002907199539346824B76FFFB72797079798
:1019400027B7BFFF0F6F6F0FDFDF076FAFCF6FFFDF
:10195000DF1FC71FEF2FAFA7AF2FEF806C07070365
:1019600001D14D0F1F3F7F242BFBF3B82008FDFD55
:101970003959591918B6E0F83C3F0C7D01010301B3
:101980000159806824F7C1FDFEC1D5C0D5D5C0FD81
:10199000FFF0F7F7D0DAE2FBE3DADACEFFDBE8F7C5
:1019A000E8FCDADAC2FAFAFC8011000B101C1C1CED
:1019B00008103838303030280A80C0810103030F06
:1019C0000F1FF2680A7F7E7E7E3E3E1E0F03F901E6
:1019D000170A2B3F0121CE06040C3C7C77812A7F1D
:1019E000A2380BFEFEFEFCF8F8F0E0C080180410F0
:1019F0008010101F1818189898980524F8C0C8006F
:0400000508000131BD
:00000001FF
