:020000040800F2
:1000000088E500208543000885050008870500086D
:10001000890500088B0500088D0500080000000018
:100020000000000000000000000000008F05000834
:100030009105000800000000F7C000085D410008BD
:100040009F4300089F4300089F4300089F43000808
:100050009F4300089F4300089F4300089F430008F8
:100060009F4300089F4300089F4300089F430008E8
:100070009F4300089F4300089F4300089F430008D8
:100080009F4300089F4300089F4300089F430008C8
:100090009F4300089F4300089F4300089F430008B8
:1000A0009F4300089F4300089F4300089F430008A8
:1000B0009F4300089F4300089F4300089F43000898
:1000C0009F4300089F4300089F4300089F43000888
:1000D0009F430008054300089F4300089F43000812
:1000E0009F4300089F4300089F4300089F43000868
:1000F0009F4300089F4300089F4300089F43000858
:100100009F4300089F4300089F4300089F43000847
:100110009F4300089F4300089F4300089F43000837
:100120009F4300089F4300089F4300089F43000827
:1001300000F002F800F070F80AA090E8000C824489
:100140008344AAF10107DA4501D100F065F8AFF266
:10015000090EBAE80F0013F0010F18BFFB1A43F0A5
:10016000010318476CE506008CE506000A444FF0D1
:10017000000C10F8013B13F0070408BF10F8014B06
:100180001D1108BF10F8015B641E05D010F8016B4B
:10019000641E01F8016BF9D113F0080F1EBF10F8AF
:1001A000014BAD1C0C1B09D16D1E58BF01F801CBD2
:1001B000FAD505E014F8016B01F8016B6D1EF9D555
:1001C0009142D6D37047000000230024002500266A
:1001D000103A28BF78C1FBD8520728BF30C148BFAA
:1001E0000B607047662923F06C8664290AF05285FB
:1001F00078290AF08B8573290BF023820020704741
:100200001FB50BF073FA04000020002122F0D2FE8B
:10021000E0601FBD10B510BD0BF06CFB1146FFF781
:10022000EFFF00F024F90BF08AFB03B4FFF7F2FFB5
:1002300003BC04F00FF800008CB0B4A0D0E90010AB
:10024000CDE9061009A9B34808F0AEF9B24EDFF8BF
:10025000CC9202ACFF274FF000080AA9522003F00D
:1002600013FD002869D108A803F037FD002864D1E8
:1002700008A803F098FD08AB06AA0921602003F046
:10028000C4FD02A9092003F0E0FD002855D1A449CE
:10029000225C0A54401C0428FADB9DF80C009DF8EF
:1002A0000D109DF80F2008449DF80E1011444518BC
:1002B0009B482A469BA1801F0AF07AFC306823F0F5
:1002C00057FCA84231DC9DF80C109DF80D209DF8DC
:1002D0000F3011449DF80E2045461A441144081A67
:1002E00081B204202554401C0728FBDDB1FBF7F048
:1002F000B1FBF7F207FB121103E0C0F10702401E49
:10030000A7540028F9DC8DF80F1002A9092003F08A
:10031000C1FD306810F0FF4F03D0834983A00AF07D
:100320003BFC83483560C0F894518248006816F061
:1003300031F98148006816F02DF9D9F89401494641
:1003400070B10020C1F8940109A908200022CDE96C
:1003500000014FF4FA731146104608F0A2FB7CE747
:100360000120EFE70EB502AD082410F01BFB0022C0
:10037000052311461046CDE9004508F092FBF4E74D
:1003800009F09AFE05200EF053FCFBE72DE9F0433F
:100390008BB009F054FD09A807F0FFFA01214020B5
:1003A00004F0BAFD0FF0F6F909F01EFE634D29784E
:1003B000491C297009F01CFE002406AB09AF032676
:1003C000059483E8D0004FF40060CC21CDE9021001
:1003D0005B4A0620CDE9000204942346AFF25F0297
:1003E000574858A1983807F0CDFC06A8059480E836
:1003F000D00005204FF00C09564A8DE805024FF059
:1004000080080023AFF2A3025248CDE9038452A131
:10041000983807F0B7FC06A83E4ACDF80890059436
:1004200080E8D0009832CDE900620023AFF2F712E5
:10043000CDE903844BA1374807F0A4FC09A94C4837
:1004400008F0B2F809F0D0FD2978491E11F0FF013B
:10045000297009D14749098831B109F0C9FD06F071
:10046000CBFC0BB0BDE8F08309F0C2FDF9E78AB020
:1004700003F082FE00F03AF94FF4A06004F080F837
:100480004FF4E13003F0F0FE03F0D2FD03F04BFB3C
:1004900000F0A5FC03F0ABF809A806F09CF809F001
:1004A000A3FD264C2178491C217009F0A1FD0020F4
:1004B00009A9032205900690CDE907210C2280218D
:1004C0000292CDE903102A4B04209833CDE90003B2
:1004D0000023AFF2471228A1254807F053FC09F08A
:1004E00083FD2178491E11F0FF01217007D12149B8
:1004F000098821B109F07CFD06F07EFC01E009F0DD
:1005000077FD09A806F084F9FEE70000FFFFFFFF72
:10051000FFFF0000400F00207801002000802142F2
:10052000060000202564000040D8002025730A0042
:10053000000023428C01002090010020F1000020E7
:1005400070120020456D77696E64656D6F2074616F
:10055000736B0000400D0020546F75636820746158
:10056000736B00005243353232207461736B0000AC
:10057000100A0020DC000020737461727420746122
:10058000736B00007047FEE7FEE7FEE7FEE770478B
:10059000704700000CB500224C480092019201689F
:1005A00041F4803101604FF4A063016801F400312F
:1005B00001910099491C0091019911B90099994242
:1005C000F3D10168890333D50121019140490A68BB
:1005D00042F010020A600A6822F003020A600A6808
:1005E00042F002020A60416841604168416041682E
:1005F00041F480614160416821F47C1141604168AF
:1006000041F4E8114160016841F0807101600168C6
:100610008901FCD5416821F003014160416841F046
:10062000020141604168C1F381010229FAD10CBD88
:1006300001920CBD254810B5016841F0010101602F
:100640004168244A114041600168234A1140016019
:10065000016821F480210160416821F4FE014160BC
:100660004FF41F018160FFF795FF1C494FF00060B8
:10067000086010BD154A10B55068194B10F00C01F8
:10068000184803D0042901D0082901D0036012E0E2
:100690005168536801F470114FF0020413F4803F65
:1006A00004EB914102D053689B0301D50E4B00E04F
:1006B0000B4B5943016051680A4AC1F30311121DE3
:1006C000515C0268CA40026010BD00000010024088
:1006D000002002400000FFF8FFFFF6FE08ED00E0FA
:1006E00000127A001000002000093D0038B50121F9
:1006F000482004F01AFC2024ADF8004010208DF8AA
:10070000030003200B4D8DF802006946284604F0D3
:1007100024FA2021284604F08AFAADF80040064C5D
:100720006946204604F019FA2021204604F07FFA99
:1007300038BD0000000C014000180140FE4908804F
:100740007047FD49891C08807047FB4808B5801C2C
:100750000088ADF80000BDF8000008BDF64A108022
:10076000901C01807047F44910B50880052003F003
:1007700029FDBDE81040E8E7F048EF49008908800E
:100780007047ED49891C08807047C0F34511C20AC3
:10079000C00200EB4110104480B27047401EC0B24E
:1007A000FCD270472DE9F04FE44F0B463A46BD8826
:1007B0000C0ADFF884B391895289A5F513464FEAF4
:1007C000102C0BF1020A413E1DD0A5F5A646103EA5
:1007D00019D03E46BE4696F806903688A5F5D04715
:1007E000A6EB0008A8F10108043F17D0A5F5C857EB
:1007F000633F28D0A5F5AA477646103F51D0B9F1FE
:10080000010F63D064E0ABF800205246AAF800C0A4
:10081000C0B2AAF80000ABF800100FE0B9F1010F68
:1008200001D11FFA88F0ABF80020050A5246AAF859
:100830000050C0B2AAF80000ABF800101480D8B283
:100840001080BDE8F08FB9F1000F1BD0ABF800208D
:100850005246AAF800C0C0B2AAF80000761E300ABC
:10086000AAF80000F0B21080ABF800101146148016
:10087000D8B21080BEF80200401E020A0A80C0B240
:100880000880DEE71FFA88F0ABF800200026524609
:10089000AAF80060AAF80060060AAAF80060C0B2D0
:1008A000E1E7ABF80020AAF800C0521CABF800202A
:1008B000C0B2AAF80000ABF80010AAF80040491C2A
:1008C000ABF80010D8B2AAF80000BAE71FFA88F017
:1008D00001461046FFF742FFB089BDE8F04F1946C8
:1008E0003CE7F0B5954E002425463288824202D975
:1008F00072888A4201D80020F0BDFFF753FFB0880C
:1009000049F241378C4B41F6631C45F2103145F2F8
:100910001052B84208D0A0F5D04EBEF1040E03D05C
:10092000884201D0604502D14FF02E0E06E0904281
:1009300002D14FF4385E01E04FF0220EA3F800E040
:10094000A0F51343203B03D10220401EC0B2FCD2CD
:10095000FFF7FBFEB3886345CED00220401EC0B235
:10096000FCD2FFF7F2FE8446B088B84203D088423A
:1009700001D090420CD10220401EC0B2FCD2FFF741
:10098000E4FE05460CF0FF004FF6FF7303EA002477
:10099000B088A0F51343253B1CD0A0F58A43353B16
:1009A00018D01B1D16D0A0F53543053B12D0B3F56A
:1009B00080530FD0B84203D0884201D090420BD16F
:1009C0004FEADC204FEAC020A10A40EA411040EA89
:1009D000D520F0BD6046F0BDBDE8F0406046D4E6ED
:1009E000564855498088A0F51342413A13D0A0F5E6
:1009F000D042043A0FD0A0F5A642103A0BD0A0F591
:100A0000C852633A07D0A0F5AA42103A05D040F286
:100A100073110720A2E6292001E04FF4245008803A
:100A20007047464844498088A0F51342413A12D0A5
:100A3000A0F5D042043A0ED0A0F5A642103A0AD052
:100A4000A0F5C852633A06D0A0F5AA42103A04D0E5
:100A50000021072082E6282001E04FF42050088082
:100A60007047F0B5354D00232946AA79898846F6A6
:100A7000040741F66316012A01D02AB11DE0B942EC
:100A80001BD0B14202D118E0B14216D1082814D2CD
:100A9000DFE800F00406080A0C0E101206200CE035
:100AA00007200AE0042008E0052006E0012004E019
:100AB000002002E0032000E00220A1F5134C45F2E3
:100AC000103245F21054BCF1410C07D0B94205D0A8
:100AD000914203D0A14201D0B1427AD1082812D26A
:100AE000DFE800F0110406080A0C0E1080230AE06B
:100AF000402308E0C02306E0202304E0602302E056
:100B0000A02300E0E023A14202D14FF4585000E0BE
:100B10003620914205D0A14203D0B14201D043F02A
:100B20000803B94201D143F002031946FFF716FE4C
:100B3000AA88B2420FD003E0FE07006C703200209A
:100B400098062888698802D5884202D303E0884243
:100B500001D929806880FE48811CA2426A890280EE
:100B600021D100230B80531C038000230B80931C96
:100B700003802B885B1E1C0A0C80D21C0280DAB218
:100B80000A80AA89028000230B80531C0380002363
:100B90000B80931C03806B885B1E1C0A0C80D21C8C
:100BA0000280D8B212E000220A800A802A88521EEF
:100BB000130A0B80D2B20A80AA8902800020088022
:100BC00008806888401E020A0A80C0B20880F0BD12
:100BD000FFE7082812D2DFE800F0040608110A0C2B
:100BE0000E1030230AE0102308E0202306E038230B
:100BF00004E0282302E0182300E00823BDE8F040C9
:100C0000032043F48051A9E500B5FFF7CBFDFFF7C2
:100C1000B3FDD048CE49891C0088088000BDF0B5DE
:100C2000CD4DCB4EAB88B41CA3F51347413F03D049
:100C3000A3F5A647103F0BD16B893380030A2380AD
:100C4000C0B22080A8893080080A2080C8B22080E5
:100C5000288930802280BAE7BD4A10B5BE211180B4
:100C6000941C0521218022F0CEFA4FF06632BB4B56
:100C700022F018FB22F09AFA208001202080FF2029
:100C8000208000202080208010BD2DE9F007B24B8D
:100C90002C262A2799884FF02B094FF4F07A4FF031
:100CA000F00C49F2413846F604044FF4A07545F2C1
:100CB0001032B8B1012098711D80A3F802C04145DF
:100CC00001D0914203D11E815F81A3F80C90A14213
:100CD00001D0914202D1A3F800A05D80BDE8F007E9
:100CE0000020BEE600209871A3F800C05D80414559
:100CF00003D0A14201D09142F0D11E815F81A3F8BF
:100D00000C90A14201D09142E8D11D80A3F802A02D
:100D1000E4E7F0B50244521E94B2CA188E4D521E3A
:100D200093B2AA88A2F51346413E0ED0A2F5A6467C
:100D3000103E0AD0A2F5D046043E06D0AE79012E70
:100D400019D1A2F5C856633E15D1814F6A893A8000
:100D5000060ABA1C1680C0B21080200A1080E0B2C9
:100D60001080A8893880080A1080C8B21080180A3C
:100D70001080D8B210802AE72DE9F043764F06465E
:100D8000002438887D884543B888A0F5D0410439CF
:100D900002D1B879012808D000210846FFF702FDEA
:100DA000FFF7EAFC6A48801C15E00020B8714FF09C
:100DB0002A09A7F80A904FF02B08A7F80C800146E3
:100DC000FFF7F0FC0120B871A7F80A80A7F80C9093
:100DD000E6E70680641CAC42FBD3BDE8F083F0B5C7
:100DE00001219FB0080204F097F801214FF4B4707C
:100DF00004F09BF80126ADF83C6010258DF83F50BB
:100E000003248DF83E400FA9554803F0A6FE4CF28E
:100E10003370ADF83C0018278DF83F708DF83E40D8
:100E20000FA9504803F099FE4FF68070ADF83C00D2
:100E30008DF83F708DF83E400FA94B4803F08DFEB2
:100E400041F20100ADF83C008DF83F708DF83E4056
:100E50000FA9464803F081FE00200F21CDE91801BB
:100E60001A901B901C901D901090CDE91104CDE9B3
:100E70001606149006211590CDE90010CDE9020563
:100E8000139004902902CDE908010690059007907F
:100E90008900CDE90A010C9017A80D9010A80E90BA
:100EA000684603F0F9FB0121062003F02AFD3220F9
:100EB00003F0A7F90020FFF756FC2749244C45F220
:100EC000103788804FF6FF75FF2804D3A84202D060
:100ED000B0F5134F7ED1D3202080FFF736FC8880F9
:100EE000FFF733FC8880FFF730FC05EA002088809C
:100EF000FFF72BFC8A881043A0F513428880413A03
:100F00006FD0BF202080FFF720FC8880FFF71DFCFA
:100F10008880FFF71AFC8880FFF717FC05EA00209D
:100F20008880FFF712FC8A881043A0F5D0428880A1
:100F3000043A56D0D4202080FFF707FC8880FFF7C2
:100F400004FC8880FFF701FC05EA002088800FE0A0
:100F5000FE07006C2400002070320020666604400A
:100F6000000C014000140140001801400020014025
:100F7000FFF7EBFB8A8810438880B84231D04FF4EA
:100F80005A402080FFF7E1FB88804FF45B402080CF
:100F9000FFF7DBFB05EA002088804FF45C402080EF
:100FA000FFF7D3FB8A881043888045F21052B0F5D2
:100FB000004F7DD0904214D0A1202080FFF7C5FBC8
:100FC0008880FFF7C2FB05EA00208880FFF7BDFBA1
:100FD0008A8800E005E01043A0F5AE428880613ABF
:100FE00067D080B2B8427DD1ED202080FE4F012035
:100FF0003880FE203880EE202080DE2038802120BE
:101000003880F120208001203880DF2020801020CF
:101010003880C42020808F203880C6202080002087
:101020003880E220388038803880BF202080AA2095
:101030003880B02020800D203880002038800D209E
:101040003880002038801120388000203880192016
:1010500038800020388021203880002038802D20E2
:101060003880002038803D203880002038805D2086
:101070003880002038805D20388000203880B12002
:10108000208080203880002038808B20388000200D
:1010900038809620388000203880B22020800020C0
:1010A000388038800220388000203880032001E01A
:1010B000FEE3FEE3388000203880B320208000204B
:1010C0003880388038803880388038803880388060
:1010D0003880388038803880388038803880388050
:1010E000388000E0E6E33880388038803880388007
:1010F00038803880B42020808B20388000203880D1
:101100009620388000203880A12038800020388048
:10111000B5202080022038800020388003203880CD
:10112000002038800420388000203880B6202080BD
:10113000002038803880B720208000203880388018
:101140003F203880002038805E20388000203880A2
:1011500064203880002038808C203880002038803F
:10116000AC20388000203880DC2038800020388097
:10117000702038800020388090203880002038800F
:10118000EB20388000203880DC2038800020388038
:10119000B82020800020388038803880388038801F
:1011A000388038803880BA20208024203880002081
:1011B000388038803880C12020802020388000206E
:1011C00038805420388000203880FF20388000206C
:1011D0003880C22020800A203880002038800420F7
:1011E000388000203880C32020803C2038800020B8
:1011F00038803A203880002038803920388000201C
:10120000388037203880002038803C20388000200B
:101210003880362038800020388032203880002006
:1012200038802F203880002038802C203880002003
:1012300038802920388000203880262038800020FF
:1012400038802420388000203880242038800020F6
:10125000388023203880002038803C2038800020CF
:1012600038803620388000203880322038800020B6
:1012700038802F203880002038802C2038800020B3
:1012800038802920388000203880262038800020AF
:1012900038802420388000203880242038800020A6
:1012A00038802320388000203880C42020806220AD
:1012B0003880002038800520388000203880842045
:1012C000388000203880F0203880002038801820B6
:1012D000388000203880A4203880002038801820F2
:1012E00038800020388050203880002038800C2042
:1012F00038800020388017203880002038809520E2
:10130000388000203880F320388000203880E620A4
:10131000388000203880C52020803220388000208E
:1013200038804420388000203880652038800020B4
:10133000388076203880002038808820388000204F
:101340003880C62020802020388000203880172058
:101350003880002038800120388000203880C72065
:10136000208000203880388038803880C820208055
:1013700000203880388038803880C92020800020C4
:10138000388038803880388038803880388038809D
:10139000388038803880388038803880388038808D
:1013A000E020208016203880002038801C203880E3
:1013B0000020388021203880002038803620388076
:1013C0000020388046203880002038805220388025
:1013D0000020388064203880002038807A203880CF
:1013E000002038808B2001E00008006C388000204D
:1013F00038809920388000203880A820388000204C
:101400003880B920388000203880C42038800020FF
:101410003880CA20388000203880D22038800020D0
:101420003880D920388000203880E02038800020A3
:101430003880F320388000203880E120208016207A
:101440003880002038801C203880002038802220FE
:1014500038800020388036203880002038804520B1
:101460003880002038805220388000203880642066
:101470003880002038807A203880002038808B2007
:101480003880002038809920388000203880A820BB
:10149000388000203880B920388000203880C4206F
:1014A000388000203880CA20388000203880D22040
:1014B000388000203880D820388000203880E02014
:1014C000388000203880F320388000203880E220E7
:1014D000208005203880002038800B2038800020B4
:1014E00038801B203880002038803420388000204D
:1014F000388044203880002038804F2038800020F9
:1015000038806120388000203880792038800020A1
:10151000388088203880002038809720388000204C
:101520003880A620388000203880B72038800020FE
:101530003880C220388000203880C72038800020C2
:101540003880D120388000203880D6203880002094
:101550003880DD20388000203880F320388000205B
:101560003880E320208005203880002038800A2041
:101570003880002038801C203880002038803320BC
:101580003880002038804420388000203880502067
:101590003880002038806220388000203880782011
:1015A00038800020388088203880002038809720BC
:1015B000388000203880A620388000203880B7206E
:1015C000388000203880C220388000203880C72032
:1015D000388000203880D120388000203880D52005
:1015E000388000203880DD20388000203880F320CB
:1015F000388000203880E4202080012038800020BE
:101600003880012038800020388002203880002077
:1016100038802A203880002038803C203880002004
:1016200038804B203880002038805D2038800020B2
:101630003880742038800020388084203880002052
:1016400038809320388000203880A2203880002005
:101650003880B320388000203880BE2038800020B9
:101660003880C420388000203880CD203880002089
:101670003880D320388000203880DD20388000205A
:101680003880F320388000203880E520208000203A
:1016900038803880388038800220388000203880B8
:1016A00029203880002038803C2038800020388075
:1016B0004B203880002038805D2038800020388022
:1016C00074203880002038808420388000203880C2
:1016D0009320388000203880A22038800020388075
:1016E000B320388000203880BE2038800020388029
:1016F000C420388000203880CD20388000203880F9
:10170000D320388000203880DC20388000203880CA
:10171000F320388000203880E62020801120388097
:1017200000203880342038800020388056203880CF
:10173000002038807620388000203880772038805C
:10174000002038806620388000203880882038804B
:10175000002038809920388000203880BB203880D5
:10176000002038809920388000203880662038801A
:10177000002038805520388000203880552038805F
:101780000020388045203880002038804320388071
:10179000002038804420388000203880E7202080D6
:1017A0003220388000203880552038800020388052
:1017B00076203880002038806620388000203880ED
:1017C00067203880002038806720388000203880EB
:1017D0008720388000203880992038800020388089
:1017E000BB20388000203880992038800020388045
:1017F00077203880002038804420388000203880CE
:1018000056203880002038802320388000203880FF
:1018100033203880002038804520388000203880F0
:10182000E8202080002038803880992038800020EF
:101830003880872038800020388088203880002039
:10184000388077203880002038806620388000205B
:1018500038808820388000203880AA2038800020F6
:101860003880BB20388000203880992038800020C4
:10187000388066203880002038805520388000204D
:10188000388055203880002038804420388000205F
:10189000388044203880002038805520388000204F
:1018A0003880E9202080AA2038800020388002E09B
:1018B0005EE059E04DE0388038802080AA203880F2
:1018C000CF202080002038803880388038803880D1
:1018D0003880388038803880388038803880388048
:1018E0003880388038803880F02020800020388090
:1018F000502038800020388038803880F3202080C5
:1019000000203880F9202080062038801020388080
:1019100029203880002038803A20208055203880C7
:1019200011202080642002F06CFC292020803520CA
:1019300020800020388051202080FF2038805320D4
:1019400020802C20388055202080822038802C2038
:1019500020800020FFF799F9FE48C0F880612846F2
:10196000FFF70AFA1FB0F0BD41F663108880F0E778
:101970008A80EEE72DE9F843F74D1F468046AB8895
:10198000089EA3F5D040043802D1A879012807D0D9
:10199000A2EB0800401C85B20C46DFF8C09328E09B
:1019A0002B880846991A0024AC713A462A24A3EBE6
:1019B00008036C812B27491E5B1EAF8189B29BB245
:1019C0000096FFF7D7FF0120A8716F81AC81BDE8B9
:1019D000F88321464046FEF7E5FEFEF7CDFE0020E7
:1019E000494602E00E80401C80B2A842FAD3641C33
:1019F000A4B2BC42EDD9EAE72DE9F0478246A2EB5A
:101A00000A00401C0E4685B2981B401C87B2002479
:101A1000DFF84893DDF8208014E0301981B2504699
:101A2000FEF7C0FEFEF7A8FE0020494606E004FBD4
:101A3000050338F813200A80401C80B2A842F6D370
:101A4000641CA4B2BC42E8D3BDE8F0872DE9FE4F88
:101A50000026A2EB000882465F1A701E35468946B2
:101A6000B8F1000F02DD4FF0010102E003D14FF0A9
:101A70000001019102E0C8F100080190002F02DD91
:101A80004FF0010002E003D14FF00000009002E0AF
:101A9000C7F1000700904046B84501DD044600E06C
:101AA0003C46601C4FF0000B029015E01FFA89F1D4
:101AB0001FFA8AF0FFF7A8F846443D44A64202DD2B
:101AC0000199361B8A44A54202DD00992D1B8944E9
:101AD0000BF101001FFA80FB02998B45E6DDBDE8A2
:101AE000FE8FF0B51C4615460E4607460B46FFF71F
:101AF000ADFF3A46234631461046FFF7A7FF23467F
:101B00002A4619463846FFF7A1FF2A4623463146A2
:101B1000BDE8F040104699E72DE9FC4F80460024CF
:101B2000154603200F46A0EB450649E0781B81B21D
:101B300008EB040A01901FFA8AF0FFF765F8381BDA
:101B400081B208EB050900901FFA89F0FFF75CF8F5
:101B500007EB040B1FFA8BF11FFA89F0FFF754F81B
:101B600007EB05091FFA89F11FFA8AF0FFF74CF815
:101B7000A8EB040A1FFA89F11FFA8AF0FFF744F86C
:101B8000A8EB05091FFA8BF11FFA89F0FFF73CF863
:101B9000019881B21FFA8AF0FFF736F8009881B2F7
:101BA0001FFA89F0FFF730F8641C002E03DA06EB09
:101BB0008406B61D04E0601B06EB80066D1E0A3627
:101BC000AC42B3DDBDE8FC8F2DE9F84F81461F46DE
:101BD0000C468A46580700D0012000EBD700790850
:101BE0004843203AC0B202F0FF080026DFF870B187
:101BF000009041E00C2F10D0102F12D0182F3ED1A2
:101C0000584908EBC80001EB80004FF0000C855DDF
:101C100028060AD5BBF800200BE008EB4800524923
:101C2000F1E7524901EB0810EFE70A9828B9BBF831
:101C3000022021464846FEF7F2FF6806050E464898
:101C4000641CA4B24088A04219D9A4EB0A00B8428F
:101C500009D109F101001FFA80F93F485446018873
:101C600049450CD906E00CF1010C0CF0FF0CBCF15D
:101C7000080FCDD3761CF6B200988642BAD3BDE8E1
:101C8000F88F0346012000E05843491EC9B2FBD239
:101C900070472DE9FF4F81B00027DDF838B01D46B1
:101CA000924680463C46B9464FEA5B0627E0281B31
:101CB000401EC1B20A20FFF7E4FFBAFBF0F00A2190
:101CC000B0FBF1F201FB120027B9691E8C4201DA68
:101CD00048B101273030C2B206FB048080B25B46B7
:101CE000CDF8009006E006FB048080B25B4620221F
:101CF000CDF800900299FFF767FF641CE4B2AC4294
:101D0000D5D305B0BDE8F08F2DE9FF4F81B08046F7
:101D1000DDF83CA00E984FF000091F4693464C4654
:101D20000AF0010546083BE0381B401EC1B20A20FC
:101D3000FFF7A7FFBBFBF0F00A21B0FBF1F201FBBC
:101D40001200B9F1000F15D1791E8C4212DAC8B118
:101D50000EE0000000802142703200200008006C7C
:101D6000240000200A4A0208A63F02081A4402087A
:101D70004FF001093030C2B206FB048080B20095FA
:101D80000E9B08E05FEA0A6006FB04800E9B80B2AF
:101D9000009508D530220299FFF716FF641CE4B2C3
:101DA000BC42C1D3ADE72022F5E72DE9F84F044648
:101DB00000F0FF0810190D46DDE90A761FFA80FAD7
:101DC00058191FFA80F94FF0000B11E0544502D367
:101DD000E819444685B24D450FD23B462946204678
:101DE000CDF800B0FFF7F0FE04EB570084B2761C8C
:101DF0003278A2F120005E28E8D940E738B5012109
:101E0000082003F092F8C020ADF8000010208DF8F3
:101E100003000320824C8DF802006946204602F040
:101E20009CFEC021204602F002FF38BD70B57C4800
:101E3000016821F070410160016841F0405101608A
:101E4000784C0120C4F89C01C4F89801042004F5E2
:101E5000CC7402F0B7F900256560042002F0B2F9F5
:101E6000256070BD6E4810B5016821F070410160B9
:101E7000016841F0405101606A4C0020C4F89801AB
:101E8000C4F89C01042004F5CC7402F09BF90120F5
:101E900020606060BDE81040042002F093B970B586
:101EA0005F480024016821F070410160016841F041
:101EB000004101605B4D0126C5F89C61304602F08F
:101EC00081F9C5F89861012002F07CF907E0641CF3
:101ED000E4B2FA2C03D9FFF7C5FF012070BDD5F895
:101EE0001C010028F3D1C5F8980170BD70B54D4CA8
:101EF0000025C4F898514A48016821F070410160FA
:101F0000016841F040510160C4F89C51022004F581
:101F1000CC7402F057F901202060022002F052F93F
:101F2000256070BD70B53F4C0026C4F898613C48F0
:101F3000016821F070410160016841F04051016089
:101F40000125C4F89C51022004F5CC7402F03AF942
:101F50002560022002F036F9266070BD2DE9F041BF
:101F600005462F48016821F070410160016841F089
:101F7000405101602B4E0027C6F898713C464FF047
:101F80000108280602D5C6F89C8101E0C6F89C71BC
:101F90006806050E022002F015F9C6F898810220A5
:101FA00002F010F9C6F89871022002F00BF9641CD7
:101FB000E4B2082CE5D3BDE8F0812DE9F047814675
:101FC00017480024016821F070410160016841F068
:101FD00000410160134E254627464FF00108C6F820
:101FE0009871022002F0EEF8C6F898816006040E9F
:101FF000D6F81C0108B1641CE4B2012002F0E2F83A
:102000006D1CEDB2082DEAD3B9F1000F04D0FFF733
:102010006DFF2046BDE8F087FFF784FFF9E7000079
:10202000000C014000802142052002F0CBB838B5F9
:102030000121882002F079FF0220ADF80000102075
:102040008DF8030003208F4C8DF80200694620466E
:1020500002F083FD0221204602F0E9FD8A4D64155D
:10206000ADF800406946284602F077FD2146284633
:1020700002F0DDFD38BD70B58348001D016821F018
:10208000F0010160016841F0300101607F4E0120E4
:10209000C6F8A4017E4DC5F884011E2005F5C27561
:1020A00006F5D27602F08EF800243460052002F0A6
:1020B00089F82C6070BD70B57348001D016821F06F
:1020C000F0010160016841F03001016070480125B4
:1020D000C0F884511E2002F075F86C4C0020C4F842
:1020E000A401052004F5D27402F06CF8256070BDDF
:1020F00070B565480024001D016821F0F001016001
:10210000016841F080010160604D0120C5F8A40123
:102110005F4EC6F8840107E0641CE4B2FA2C03D9D0
:10212000FFF7C9FF012070BD052002F04BF8D5F87C
:1021300024010028F0D1C6F8840170BD70B5544C5C
:102140000025C4F884515048001D016821F0F001B9
:102150000160016841F030010160052004F5C2749E
:1021600002F030F84948C0F8A451052002F02AF8DE
:1021700001202060052002F025F8256070BD70B5B3
:10218000434C0026C4F884613F48001D016821F0DB
:10219000F0010160016841F030010160052004F5A3
:1021A000C27402F00FF839480125C0F8A451052087
:1021B00002F008F82560052002F004F8266070BDE2
:1021C0002DE9F04705463048001D016821F0F00177
:1021D0000160016841F0300101602D4E0027C6F812
:1021E0008471052001F0EEFFDFF8A08000244FF09D
:1021F0000109E909C8F8A4116806050EC6F884911A
:10220000052001F0DFFFC6F88471052001F0DAFF38
:10221000641CE4B2082CECD3BDE8F0872DE9F0474C
:10222000824619480024001D016821F0F001016078
:10223000016841F0800101601E2001F0C3FF00250C
:10224000134EDFF848902F464FF00108C6F884710E
:10225000052001F0B7FFC6F884816006040ED9F8A6
:10226000240108B1641CE4B26D1CEDB2082DEDD35D
:10227000BAF1000F03D0FFF761FF2046CCE7FFF76C
:102280007EFFFAE7000C0140001C01400080234261
:10229000008021422DE9F04115460E4604460027F4
:1022A000FFF7E9FE7020FFF78BFFFFF721FFE0B299
:1022B000FFF786FFFFF71CFF002408E0305DFFF703
:1022C0007FFFFFF715FF070003D1641CE4B2AC42A7
:1022D000F4D3FFF7F0FE3846BDE8F0812DE9F04178
:1022E00015460F460446FFF7C6FE7020FFF768FF4D
:1022F000FFF7FEFEE0B2FFF763FFFFF7F9FEFFF71F
:10230000BAFE7120FFF75CFFFFF7F2FE00246E1E9D
:1023100009E0B44201D0012000E00020FFF77EFF79
:102320003855641CE4B2AC42F3D3BDE8F041FFF78A
:10233000C2BE7CB50121802002F0F7FD4FF40060A1
:10234000ADF8040010208DF807000320764D8DF8BD
:10235000060001A9284602F000FC0221284602F0EE
:1023600066FC2C15ADF8044048228DF8072001A921
:10237000284602F0F2FB2146284602F058FCFFF7FF
:1023800056FE6A4D0024C5F8AC41142005F5D675FB
:1023900001F037FF01202860322001F032FF8DF874
:1023A0000040012269460020FFF774FF01226946C0
:1023B000A420FFF76FFF16208DF800000122694668
:1023C0008020FFF767FF0C208DF80000012269468E
:1023D0008820FFF75FFF02226946A120FFF77EFFFA
:1023E0009DF80000302803D19DF80100032801D09A
:1023F00001207CBD43F203014DA008F0CDFB00207D
:102400007CBD2DE9F1434D4F00244FF00A09387887
:1024100082B0401CC0B2B0FBF9F209FB1201484D7A
:10242000A046387009B10A2863D2012202A902200D
:10243000FFF754FF9DF8080001075AD000F00F0085
:10244000062856D2FF218140C84340F0C00085F8DD
:1024500020004FF00108002695F8201008FA04F03B
:10246000014239D037480422694630F81400FFF79A
:1024700035FF95F830009DF80010C0079DF8010069
:1024800001F00F010ED000EB012105EB4400C182E9
:102490009DF802209DF8031002F00F0201EB0221CB
:1024A00081810FE000EB0120C0F5F07105EB4400E5
:1024B00081819DF802209DF8031002F00F0201EBCC
:1024C0000221C1829DF800000821B1EB101F03D04A
:1024D00005EB4400C6828681641CE4B2052CBBD3A4
:1024E000A9894FF0010819B9E88A08B98DF8086080
:1024F0003E709DF80800C0060ED195F82000010638
:1025000002D520F0800005E04FF6FF71A981E98235
:1025100000F0E00085F820003878F02801D987F82D
:1025200000904046BDE8FE83001C0140008023422D
:102530004354502049443A25780D0A0028000020D1
:1025400030000020665702082DE9F04115460E467E
:1025500004460027FFF78FFD2820FFF731FEFFF725
:10256000C7FD200AFFF72CFEFFF7C2FDE0B2FFF720
:1025700027FEFFF7BDFD002408E0305DFFF720FED9
:10258000FFF7B6FD070003D1641CE4B2AC42F4D3FC
:10259000FFF791FD3846BDE8F08108B500218DF8C0
:1025A00000108DF80100C1489DF80020435C491CD3
:1025B0001A44C9B28DF80020B829F5D3D0B2C0436F
:1025C000401C8DF80000B822B84948F24700FFF7D8
:1025D000BBFF0222694648F2FF00FFF7B5FF00206B
:1025E00008BD2DE9F04115460F460446FFF743FDAF
:1025F0002820FFF7E5FDFFF77BFD200AFFF7E0FD50
:10260000FFF776FDE0B2FFF7DBFDFFF771FDFFF7A7
:1026100032FD2920FFF7D4FDFFF76AFD00246E1E6E
:1026200009E0B44201D0012000E00020FFF7F6FDF0
:102630003855641CE4B2AC42F3D3BDE8F041FFF777
:102640003ABDFEB50121802002F06FFC4FF400601E
:10265000ADF8080010208DF80B000320944F8DF882
:102660000A0002A9384602F078FA0221384602F040
:10267000DEFA3C15ADF8084048208DF80B0002A9A1
:10268000384602F06AFA2146384602F0D0FAFFF7DF
:10269000CEFC884E0025C6F8AC510A2006F5D67649
:1026A00001F0AFFD012030600A2001F0AAFDADF875
:1026B000084028208DF80B0002A9384602F04DFA98
:1026C0002146384602F0B5FA642001F09AFD042252
:1026D000694648F24010FFF784FF8DF804506946C0
:1026E00075A008F059FA77A1684608F0C7FC08B150
:1026F0000120FEBD02208DF8000048F240040122B6
:1027000069462046FFF720FF01226946E01DFFF7DA
:1027100068FF9DF80010602905D26CA008F03CFA13
:102720000120FFF73AFF0A2001F06BFD8DF8005001
:10273000012269462046FFF707FF0020FEBD2DE974
:10274000F147674D00244FF00A0A287883B0401CF7
:10275000C0B2B0FBFAF20AFB1201624EA04628702A
:1027600009B10A2878D248F24E19012203A9484635
:10277000FFF737FF9DF80C004FF0000701060AD560
:1027800000F00F00062806D28DF80470012201A97E
:102790004846FFF7D9FE9DF80C0001075CD000F019
:1027A0000F01062958D2FF2088408DF80400C0434D
:1027B00096F8209040F0C00086F82000B089B082E2
:1027C000F08AF0834FF0010896F8201008FA04F020
:1027D000014226D035480422B830694630F814004A
:1027E000FFF7FFFE96F830009DF80110C0079DF836
:1027F000000000EB012106EB44000AD0C1829DF8E5
:1028000002109DF8032001EB0221C1F5487181817E
:1028100007E081819DF802109DF8032001EB022161
:10282000C182641CE4B2052CCED32F49B2894FF08B
:1028300001080B8830469A4203D8C28A49888A42E6
:1028400009D99DF80C1001F00F0101290BD9C1899C
:102850008181018BF1822F709DF80C0000F08F00B8
:1028600080280AD018E0818A8181C18BC1828021B1
:102870008DF80C1086F82090EEE796F820000106FF
:1028800002D520F0800005E04FF6FF71B181F182A2
:1028900000F0E00086F820002878F02801D985F8BB
:1028A00000A004B04046BDE8F08700007057020861
:1028B000001C0140008023424354502049443A25E3
:1028C000730D0A0039313437000000004465666139
:1028D000756C74205665723A25640D0A000000007C
:1028E0002900002030000020703200202DE9F04146
:1028F00015460E4604460027FFF7BDFBB220FFF742
:102900005FFCFFF7F5FB200AFFF75AFCFFF7F0FB2F
:10291000E0B2FFF755FCFFF7EBFB002408E0305D69
:10292000FFF74EFCFFF7E4FB070003D1641CE4B2A1
:10293000AC42F4D3FFF7BFFB3846BDE8F0812DE988
:10294000F04115460F460446FFF795FBB220FFF70E
:1029500037FCFFF7CDFB200AFFF732FCFFF7C8FB7F
:10296000E0B2FFF72DFCFFF7C3FBFFF784FBB320BA
:10297000FFF726FCFFF7BCFB00246E1E09E0B44203
:1029800001D0012000E00020FFF748FC3855641C0E
:10299000E4B2AC42F3D3BDE8F041FFF78CBB08B51D
:1029A00000218DF8001010B180208DF80000012268
:1029B00069464FF45060FFF799FF08BD7CB50025CC
:1029C0008DF804500121802002F0AFFA4FF400602E
:1029D000ADF8000010208DF8030003206F4E8DF835
:1029E00002006946304602F0B8F80221304602F093
:1029F0001EF93415ADF8004048228DF803206946D1
:102A0000304602F0AAF82146304602F010F9FFF7EE
:102A10000EFB634CC4F8AC51642004F5D67401F08D
:102A2000F0FB01202060642001F0EBFB0120FFF7A8
:102A3000B6FF012201A94FF45060FFF780FF9DF817
:102A4000041058A008F0A8F89DF80400802801D0D0
:102A500001207CBD00207CBD2DE9F14F544F0024A6
:102A60004FF00A08387882B0401CC0B2B0FBF8F2D0
:102A700008FB12014F4E2546387009B10A2871D261
:102A8000012202A90020FFF75AFF9DF80800C106A5
:102A90006CD000F01F0040F0C000DFF81CA1DFF890
:102AA0001CB186F820004FF0010996F8201009FAB1
:102AB00004F0014249D042480422694630F814002B
:102AC000FFF73DFF96F830009DF80210C0079DF813
:102AD000030000EB01201ED020F095FB52465B4620
:102AE00020F0E0FB20F062FB06EB4405E8829DF855
:102AF00001009DF8001000EB012020F084FB314A1A
:102B0000314B20F0CFFB0022304B20F0FFFC20F0B7
:102B10004DFBA88119E020F076FB52465B4620F081
:102B2000C1FB20F043FB06EB4405A8819DF80100A2
:102B30009DF8001000EB012020F065FB214A224B9C
:102B400020F0B0FB20F032FBE882641CE4B2052CDC
:102B5000ABD30125B28900211AB9F08A08B98DF8E2
:102B6000081039709DF80800C0060ED196F82000B4
:102B7000010602D520F0800005E04FF6FF71B1811B
:102B8000F18200F0E00086F820003878F02801D9C2
:102B900087F800802846BDE8FE8F0000001C014039
:102BA000008023424354502049443A25780D0A00BE
:102BB0002A000020300000207B14AE47E17AD43F89
:102BC00032580208D881734694F6D23F00008940FB
:102BD0002DE9F0470024FF4EFF4F0546A0464FF079
:102BE0000109280601D5484600E04046C6F8A40180
:102BF0006806050EC7F88481012001F0E3FAC7F8E2
:102C00008491641CE4B2082CEBD3BDE8F0872DE975
:102C1000F0470025F04F2C462E46C7F88451DFF8C8
:102C2000B483C8F8A451C8F8AC5107F5C277FFF7D0
:102C3000CFFF062001F0C6FA3E60012001F0C2FA83
:102C40004FF00109C7F80090484601F0BBFA3E601A
:102C5000B2464E464FF6FF79A7F5C27709EA44041B
:102C6000C7F884A1012001F0ADFAC7F88461D7F854
:102C7000080108B1641CA4B26D1CEDB2102DEDD397
:102C80002009C8F8AC61C0E7FEB5064600246D46D1
:102C90003046FFF7BCFF25F81400641CA4B2052CD5
:102CA000F6D300214C1CA0B20BE035F8113035F8FA
:102CB0001020934203D925F8112025F81030401C2C
:102CC00080B20528F1D3A1B20429EBD30021012061
:102CD00035F81020401C114480B289B20428F7D383
:102CE0000320B1FBF0F0FEBD2DE9F041BB4F0646DD
:102CF0000D463878FFF7C8FF04467878FFF7C4FF21
:102D0000642C01D3642802D20020BDE8F081348015
:102D100028800120F9E770B586B00C460546694663
:102D200004A8FFF7E1FF00282FD001A903A8FFF7AF
:102D3000DBFF002829D0BDF80C30BDF810209342ED
:102D400003D803F13200824205D39A421FD802F120
:102D5000320083421BD2BDF80410BDF8000081424E
:102D600003D801F13206B04204D388420FD8323082
:102D700081420CD2D01840082880BDF80000BDF870
:102D80000410084440082080012006B070BD0020D7
:102D9000FBE72DE9F041044691480D460B460280C1
:102DA00004F10D0082B2193880B2FEF74FFE05F132
:102DB0000D0083B2193881B222461046FEF746FE56
:102DC0006E1C04F10108B1B21FFA88F0FDF71CFF78
:102DD000B1B2661EB0B2FDF717FF6F1EB9B21FFA8F
:102DE00088F0FDF711FFB9B2B0B2FDF70DFF29462B
:102DF0002046BDE8F0410622FEF78EBE70B50646BD
:102E000077480C4602803046FDF7FEFE751CA8B2DE
:102E10002146FDF7F9FE641CA1B23046FDF7F4FE31
:102E2000A1B2A8B2BDE87040FDF7EEBE70B5694929
:102E3000D1F82811694C241D41B194F820000106F5
:102E400041D520F0800084F8200043E00200634870
:102E500000F1040000F1160100F10C0002D0FFF7B0
:102E60005AFF24E0FFF757FF08B3B4F92C0020F015
:102E7000BBFE0546A08920F0CFFE616A20F0E0FE8F
:102E8000294620F04BFD20F08FFEA081B4F92E00E2
:102E900020F0AAFE0546E08A20F0BEFEA16A20F0DE
:102EA000CFFE294620F03AFD20F07EFEE08294F825
:102EB000200000060ED4C02084F82000A089A08243
:102EC000E08AE08306E00020A082E0834FF6FF70F6
:102ED000A081E08294F8200000F0800070BD3F499E
:102EE00010B50E222831282000F0BFFC0A21BDE8D1
:102EF0001040362000F04DBC10B5362000F028FC04
:102F00000A2801D0002010BD34490E222831282083
:102F100000F09AFC31489022001D90F83030001FDC
:102F2000D02113B10270417001E0017042700120A4
:102F300010BD2DE9FF4F83B00E46DDE910A92849E9
:102F400007464FF47840DDF85080088025A0102413
:102F5000CDE90040244D9346A0216B882A88282083
:102F6000FEF723FF21A0CDE900406B882A88A0212D
:102F70007820FEF71AFF1EA0CDE900406B882A8852
:102F8000B4212820FEF711FF1AA0CDE900406B887C
:102F90002A88B4217820FEF708FF17A0CDE9004069
:102FA0006B882A88C8212820FEF7FFFE13A0CDE9F0
:102FB00000406B882A88C8217820FEF7F6FE10A012
:102FC000CDE900406B882A88DC212820FEF7EDFE41
:102FD0000CA019E000802342008021422C00002038
:102FE0002400002078313A007032002079313A0014
:102FF00078323A0079323A0078333A0079333A003D
:1030000078343A0079343A00CDE900406B882A8858
:10301000DC217820FEF7C9FEFEA0CDE900406B88D8
:103020002A88F0212820FEF7C0FE04233A46A0217A
:1030300040200094FEF72DFE04233246A02190206C
:103040000094FEF726FE04235A46B4214020009443
:10305000FEF71FFE04230094B4219020069AFEF789
:1030600018FE04235246C82140200094FEF711FEAA
:1030700004234A46C82190200094FEF70AFE042348
:103080000094DC214020129AFEF703FE04230094F2
:10309000DC219020139AFEF7FCFD03234246F02129
:1030A00060200094FEF7F5FD07B0BDE8F08F2DE934
:1030B000F04FDA4E89B01F203080D9484FF6FF77A5
:1030C000002507802C463846FDF756FE4FF4784819
:1030D000A6F800803846FDF74FFED248002737801B
:1030E00001681020CDE9000128216423A0220846B0
:1030F000FEF75BFE142142460846FFF74AFECA4827
:10310000DFF8288380F820704762C74E012071687D
:10311000884796F820000121B1EB901F4AD120F09A
:10312000400086F8200005A8B28920F8252000EB91
:1031300085006D1C0024F18AEDB24180012D06D07E
:10314000022D12D0032D21D0042D33D13EE01421C5
:103150004FF6FF720846FFF71CFEB8F800004FF468
:103160007842143880B2142122E0B8F800004646B4
:10317000143880B24FF6FF721421FFF70AFE7088F0
:103180004FF47842143881B2142011E0B8F80200EC
:103190004646143881B24FF6FF721420FFF7F9FD4E
:1031A00070884FF47842143881B23088143880B275
:1031B000FFF7EFFD0A2001F024F8641CA4B2B4F577
:1031C0007A7FA2D9FFF798FE09B06EE7BDF8140028
:1031D000BDF81810411A00D54942BDF81600BDF8D7
:1031E0001A20801A00D5404249434043084420F049
:1031F0000AF81FF0B8FE1FF0D9FF85B2BDF81C0019
:10320000BDF82010411A00D54942BDF81E00BDF896
:103210002220801A00D540424943404308441FF011
:10322000F2FF1FF0A0FE1FF0C1FF80B2814620F028
:10323000F3FC0646284620F0EFFC314620F0D6FB92
:1032400020F040FB06460F464FF06632784B1FF0E9
:10325000EDFF4FD3774A784B3046394620F020F9BE
:1032600048D3E5B3B9F1000F44D0BDF81400BDF860
:103270001C10411A00D54942BDF81600BDF81E20A9
:10328000801A00D540424943404308441FF0BBFF29
:103290001FF069FE1FF08AFF85B2BDF81800BDF867
:1032A0002010411A00D54942BDF81A00BDF822206D
:1032B000801A00D540424943404308441FF0A3FF11
:1032C0001FF051FE1FF072FF80B220F0A5FC0646F1
:1032D000284620F0A1FC314620F088FB00E009E000
:1032E00020F0F0FA06460F464FF06632504B1FF0C2
:1032F0009DFF26D2B8F80210B8F80000143914382F
:10330000002589B280B24FF6FF72FFF742FD14210B
:103310004FF478420846FFF73CFD0022474B304609
:1033200039461FF0BFFF1FF041FF80B2BDF82220D9
:10333000BDF82030BDF81E10CDE90320CDE9011302
:1033400091E0DFF8F0B0DFF8F0905A464B46304697
:10335000394620F0A5F8CDD3BDF81800BDF81C10F3
:10336000411A00D54942BDF81A00BDF81E20801A46
:1033700000D540424943404308441FF044FF1FF03A
:10338000F2FD1FF013FF85B2BDF81400BDF8201048
:10339000411A00D54942BDF81600BDF82220801A16
:1033A00000D540424943404308441FF02CFF1FF022
:1033B000DAFD1FF0FBFE80B220F02EFC0646284608
:1033C00020F02AFC314620F011FB20F07BFA064663
:1033D0000F464FF06632164B1FF028FF06D35A46B1
:1033E0004B463046394620F05BF84AD2B8F8021016
:1033F000B8F8000014391438002589B280B24FF6AD
:10340000FF72FFF7C6FC14214FF478420846FFF71D
:10341000C0FC15E06661632069733A002400002057
:10342000260000203C5802083000002070320020A6
:103430006666EE3FCDCCCCCCCCCCF03F0000594002
:103440000022AE4B304639461FF02CFF1FF0AEFE77
:1034500080B2BDF82210BDF82030BDF81E20CDE9A5
:103460000310CDE90123BDF81C000090BDF81A300F
:10347000BDF81820BDF81610BDF81400FFF759FD6F
:1034800043E6BDF81800BDF814708146C01B20F05B
:10349000ABFBB8F800600546A6F1280020F0A4FBBD
:1034A000294620F0A3FA964D8246686209EB070090
:1034B00020F0B2FB514620F0C3FB0746304620F017
:1034C000ABFB394620F088FC4FF0FF3120F02DFD9A
:1034D00020F04EFBA885BDF81E00BDF816108346EF
:1034E000401A019120F080FBB8F802708146A7F1E4
:1034F000280020F079FB494620F078FAA86201996B
:10350000814600900BEB010020F086FB494620F03D
:1035100097FB8146384620F07FFB494620F05CFC53
:103520004FF0FF3120F001FD20F022FBE8855046EE
:1035300020F01EFB002800DA4042022807DC009839
:1035400020F016FB002800DA4042022831DD143F4B
:10355000143E0025B9B2B0B24FF6FF72FFF719FC66
:1035600014214FF478420846FFF713FC65A11020A0
:10357000CDE90001B8F80230B8F800201A2128205F
:10358000FEF713FC5E4991F8300048B1002081F845
:10359000300038B15A489021001F0170D02106E058
:1035A0000120F4E75648D021001F0170902141709E
:1035B000ABE559481F214FF6FF7401802046FDF707
:1035C000DBFB56A11020CDE90001B8F80230B8F8B5
:1035D00000206E212320FEF7E8FB4FF47A7000F004
:1035E00010FEFFF77CFC2046FDF7C6FBECE5F8B5C6
:1035F000504D434CA888A0F5AA41103952D0A0F5EF
:10360000C851633961D00121882001F08EFC02206D
:10361000ADF800001024484F8DF8034003268DF8C4
:1036200002606946384601F098FA0221384601F0F6
:10363000FEFA0420ADF8000048258DF803506946D5
:10364000384601F08AFA0421384601F0F0FA4FF4C6
:103650002067ADF800708DF803408DF80260374E9A
:103660006946304601F079FA3946304601F0DFFA12
:10367000A401ADF800408DF803506946304601F0D2
:103680006CFA2146304601F0D2FA1D491631A1F1FB
:103690000A00FFF729FB00F059F8FFF72DFC18B3DB
:1036A0000020F8BDFEF7CDFF68B1FFF787F9244889
:1036B000606014F8300FA97940F0800001F001013A
:1036C00008432070ECE71F48F2E7FEF732FE1E4881
:1036D000606094F83000A97940F0800001F00101A9
:1036E000084384F83000DBE74FF6FF70FDF744FB3A
:1036F000FFF7DDFCFFF700FC0120F8BD000059409A
:10370000300000205450204E65656420726561646D
:103710006A7573742100000024000020546F7563E3
:10372000682053637265656E2041646A7573742006
:103730004F4B210070320020000C0140001C014062
:10374000592A00083F27000803240008FEF756BB4B
:1037500010B50446FEF76AFB200AA02101EB4000E9
:10376000C0B2FEF7FBFBFEF79AFBE0B2FEF7F6FBFA
:10377000FEF795FBFEF75AFBA120FEF7EFFBFEF7E5
:103780008EFB0020FEF719FC0446FEF76BFB20467B
:1037900010BD70B50D460446FEF748FB200AA02177
:1037A00001EB4000C0B2FEF7D9FBFEF778FBE0B2B8
:1037B000FEF7D4FBFEF773FB2846FEF7CFFBFEF7C0
:1037C0006EFBFEF74FFBBDE870400A2000F019BD0C
:1037D0002DE9F04116460D460746002409E0E000B9
:1037E00025FA00F0C1B2381980B2FFF7D2FF641C8D
:1037F000E4B2B442F3D3BDE8F0812DE9F0410D46C7
:103800000146002004464E1908E00702301B401E06
:1038100080B2FFF79DFF641C3844E4B2AC42F4D39D
:10382000E9E710B5FF20FFF793FF55280AD055218F
:10383000FF20FFF7AEFFFF20FFF78AFF552801D0DA
:10384000012010BD002010BD70B515460E4604467F
:1038500008E02046641CA4B2FFF77AFF6D1E06F84C
:10386000010BADB2002DF4D170BD70B514460D46FC
:10387000064606E029783046FFF78BFF761CB6B285
:103880006D1C641EA4B2F5D270BD0000002103E0DF
:1038900000BF00BF00BF491C8142F9D37047F849FF
:1038A0000A889207FCD5F64A121D10800888C007C6
:1038B000FCD01088C0B2704770B5F14D00240646A8
:1038C000083D03E0641CE4B2C82C0FD8022128464E
:1038D00001F086FC0028F5D03146284601F03CFC7A
:1038E000002405E0641CE4B2C82C01D9002070BD9E
:1038F0000121284601F074FC0028F3D0284601F08D
:103900002DFCC0B270BD0146DD480838028822F0A7
:103910003802028002880A430280012101F0F4BBD0
:1039200070B586B00121882001F0FFFA01218803DB
:1039300001F004FB4FF44060ADF8140010208DF846
:103940001700D04E03258DF8165005A9304601F01A
:1039500004F9F114304601F06CF94FF46044ADF80D
:10396000144018208DF817008DF8165005A9304620
:1039700001F0F3F82146304601F059F90020ADF886
:1039800000004FF48271ADF80210ADF80800711517
:10399000ADF80A103821ADF80C10ADF80400ADF800
:1039A0000600ADF80E00B64C0720ADF81000083C3C
:1039B0006946204601F02CFB0121204601F0A4FBC2
:1039C00006B070BD10B50C46AE494FF4806314319B
:1039D0000B607E2101EA4000FFF761FF2046FFF700
:1039E0005EFFA8481030036010BDA64900B5143131
:1039F0004FF480630B607E2101EA400040F08000BC
:103A0000FFF74DFF0020FFF74AFF9E4910310B6082
:103A100000BD30B50D460446FFF7E7FF40EA05015B
:103A20002046BDE83040CDE700B51420FFF7DDFFAC
:103A3000800704D1032114205DF804EBE9E700BD01
:103A400030B50D460446FFF7D0FF20EA05012046B9
:103A5000BDE83040B6E700B5412801D0012000BDE7
:103A600008210846FFF7ECFF3D211120FFF7AAFFD0
:103A700086211720FFF7A6FF7F212620FFF7A2FF50
:103A80001E212D20FFF79EFF00212C20FFF79AFF1B
:103A90008D212A20FFF796FF3E212B20FFF792FF72
:103AA0004FF47A70FFF7F2FEFFF7BEFF002000BD73
:103AB00003211420C4E7734B00B510334FF40062A8
:103AC0001A600A20FFF7E2FE6E48143002600A20F6
:103AD000FFF7DCFE1A600A20FFF7D8FE0F21012055
:103AE000FFF770FF0F210120FFF76CFF0A20FFF79F
:103AF000CDFE3D211120FFF765FF1E212D20FFF790
:103B000061FF00212C20FFF75DFF8D212A20FFF7A8
:103B100059FF3E212B20FFF755FF40211520FFF7CD
:103B200051FF002000BD10B5FFF7FAFEFFF7C3FFFD
:103B3000FFF7BEFF022000F064FBFFF775FFBDE852
:103B40001040412087E710B5FFF7B5FFFFF7B0FF42
:103B5000022000F056FBBDE8104065E72DE9F05F5C
:103B60000025DDF828A09B4617468C4681464FF07D
:103B700002082E460C2805D0B9F10E0F04D11225EB
:103B8000102601E07725302645F080010220FFF75E
:103B900019FF80210420FFF753FF00210120FFF7C8
:103BA00011FF80210A20FFF734FF002406E01CF8F3
:103BB00004100920FFF706FF641CA4B2BC42F6D330
:103BC00049460120FFF7FEFEB9F10C0F03D1802119
:103BD0000D20FFF71EFF3C240420FFF706FF0746D9
:103BE000641EA4B20A2000F00CFB1CB1F80701D13E
:103BF0003742F1D080210D20FFF722FF3CB1062093
:103C0000FFF7F3FE10F01B0F0CD04FF002088021DD
:103C10000C20FFF7FEFE00210120FFF7D3FE4046F7
:103C2000BDE8F09F2F404FF00008F80701D04FF09B
:103C30000108B9F10C0FEAD10A20FFF7D6FE0546BC
:103C40000C20FFF7D2FE10F0070003D0E90008397E
:103C5000084400E0E8008AF8000025B1122D00D9E0
:103C60001225002408E00125FBE70920FFF7BDFE2F
:103C70000BF80400641CA4B2AC42F6D3C7E7000002
:103C800008380040000C014030B50C4605460821BC
:103C900087B00846FFF7D4FE07210D20FFF792FEFC
:103CA00003211420FFF7B5FE06A801AB00908DF8A4
:103CB0000450012219460C20FFF750FF18B99DF857
:103CC0001810102902D0022007B030BD9DF8041052
:103CD00021709DF805106170F6E770B50646082161
:103CE00088B000240846FFF7ABFE00210D20FFF747
:103CF00069FE80210E20FFF7A3FE93208DF80400BB
:103D000020208DF8050006A801AB0090022219467C
:103D10000C20FFF723FF05000DD1002101A8425C14
:103D20007254425C491C5440C9B20429F7D3405C28
:103D3000A04200D0022580210E20FFF76AFE28460F
:103D400008B070BDF0B50E460746154604210520A3
:103D5000FFF776FE00210120FFF734FE80210A20C4
:103D6000FFF757FE002405E0395D0920FFF72AFE22
:103D7000641CE4B2B442F7D303210120FFF722FE12
:103D8000FF240520FFF731FE641E14F0FF0401D06C
:103D90004007F6D52220FFF728FE28702120FFF7E4
:103DA00024FE6870F0BD10B588B093218DF8041022
:103DB00070218DF8051000218DF80A1001AA541801
:103DC000435CA370445C9DF80A30491C6340C9B24F
:103DD0008DF80A300429F2D3072101A8D21DFFF77C
:103DE000B1FF08210846FFF72BFE06A801AB0090A3
:103DF000092219460C20FFF7B1FE18B99DF81810DA
:103E0000182900D0022008B010BD10B588B08DF878
:103E100004008DF805101068CDF806009088ADF804
:103E20000A001868039006A801AB00900C221946FE
:103E30000E20FFF793FE040004D10820FFF7D5FD04
:103E4000000700D402242046DDE730B587B00C46D9
:103E500030218DF8041001AD8DF8050002212846AF
:103E6000AA1CFFF76FFF06A801AB009004221946B9
:103E70000C20FFF773FE18B99DF81810902901D097
:103E8000022021E70023E95CE1545B1CDBB2102B2C
:103E9000F9D319E770B588B00C46A0218DF804104D
:103EA00001AD8DF8050002212846AA1CFFF74AFF44
:103EB00006AE01AB042219460C200096FFF74EFE19
:103EC00038BB9DF81800042823D19DF8040000F0A9
:103ED0000F000A281DD10020215C2954401CC0B2CB
:103EE0001028F9D305AA102101A8FFF72BFF01AB79
:103EF000122219460C200096FFF730FE48B99DF8B3
:103F00001810042905D19DF8041001F00F010A29A9
:103F100000D0022014E700B587B050208DF80400CF
:103F200000208DF805000DF10602022101A8FFF71F
:103F300009FF06A801AB0090042219460C20FFF7E8
:103F40000DFE07B0002000BDF0B587B001AD8DF8C3
:103F5000040017460C468DF8051002212846AA1CBD
:103F6000FFF7F0FE06AE01AB042219460C200096C6
:103F7000FFF7F4FDC0BB9DF81800042834D19DF86C
:103F8000040000F00F000A282ED1386801902A1D85
:103F9000042101A8FFF7D6FE00208DF8180001AB20
:103FA000062219460C200096FFF7D8FD02281CD0E7
:103FB000B0208DF804008DF80540AA1C022101A84C
:103FC000FFF7C0FE01AB042219460C200096FFF754
:103FD000C5FD48B99DF81810042905D19DF80410B5
:103FE00001F00F010A2900D0022007B0F0BD000047
:103FF00010B5284906F0B6FE002800D0012010BDFB
:1040000010B50446214624A006F0C6FDC82000F0E5
:10401000F8F82248FFF7ECFF0028F3D010BD00208D
:104020001E4A7A211154401CC0B2C828FAD37047E6
:1040300070B54FF4FA7000F0E4F819A0FFF7E0FF54
:10404000FFF7EDFF1AA0FFF7DBFFFFF7E8FF234DB7
:104050000024C5F8944122A005F5CA75FFF7D0FFEA
:10406000FFF7DDFF22A0FFF7CBFFFFF7D8FF24A06B
:10407000FFF7C6FFFFF7D3FF2B4EC6F894412BA0E6
:1040800006F5CA76FFF7BCFFFFF7C9FF01202860DD
:10409000306070BD64000020257300007E32002077
:1040A00041542B43574D4F44453D330D0A0000000A
:1040B00041542B43575341503D224B4954455F4592
:1040C0005350222C2231383239303031393535379E
:1040D000222C31312C320D0A0000000000802142D8
:1040E00041542B4349504D4F44453D310D0A00008A
:1040F00041542B4349504D55583D300D0A000000A6
:1041000041542B43495053544152543D225443503F
:10411000222C223139322E3136382E342E32222CB6
:10412000313130300D0A00000000234241542B434E
:10413000495053454E440D0A0000000008B568463A
:1041400002F01DFB08BD08B5684602F038FB08BD4B
:1041500008B56A46082104F055FC08BD364810B57C
:104160000078012807D102F0A0FA04F0A8FDBDE80C
:10417000104002F0A5BA10BD10B56FF0040000F0B9
:1041800044FA2E482E492F4B0068304CB0FBF1F218
:10419000B0FBF1F01A702C4A1168B4FBF1F1414305
:1041A00010684FF47A72B2FBF0F058804FF0E020C4
:1041B000026942F0020202614161016941F00101BC
:1041C000016110BDF8B54FF0E02700247E691D495C
:1041D000097800FB01F5684602F0D1FAB969B869BF
:1041E0008842FCD002D2A1EB000102E0A6EB000263
:1041F00011440C440146AC42F1D3684602F0DFFAA8
:10420000F8BD70B504460C48007878B110480078C5
:1042100060B90C4D6888844203D3B4FBF0F0FFF71B
:1042200097FF6888B4FBF0F100FB11444FF47A70FB
:104230006043BDE87040C5E7D100002010000020B9
:1042400000127A00680000204459020840420F0022
:10425000D0000020704747490A885206FCD5454ADD
:10426000C1B2121D11807047F0B5064687B001211A
:1042700044F2040000F059FE3E4D284600F0DEFFF7
:104280006815ADF8100003248DF8124018203A4F3D
:104290008DF8130004A9384600F05FFC2815ADF82E
:1042A000100004208DF8130004A9384600F055FCD6
:1042B00025208DF814008DF815408DF8164001204A
:1042C0008DF8170005A800F060F90021ADF808107E
:1042D000ADF804100C20ADF80610ADF80C10ADF8D8
:1042E0000A0000966946284600F0D8FF012240F2F5
:1042F0002551284601F04FF80121284601F041F8E8
:1043000007B0F0BD2DE9F047002402F0CEF9194EB8
:1043100040F225552946304601F0F4F828B3A84666
:10432000DFF85890164D002741F2941A641C2404BB
:10433000240C1AD04146304601F0E4F890B13046E2
:1043400001F079F801462888C0F30D03401C09F8F4
:10435000031028804146304601F0F3F82888C7282A
:1043600000D92F805445E1D92F80BDE8F04702F0F5
:10437000A7B9000000380140000801407E3200204B
:104380006C0000200948804709480047FEE7FEE727
:10439000FEE7FEE7FEE7FEE7FEE7FEE7FEE7FEE7F5
:1043A00004480549054A064B7047000035060008D9
:1043B0003101000888DB002088E5002088DD00202E
:1043C00088DD002003E011F8013B00F8013B521E9C
:1043D000F9D2704701E000F8011B521EFBD2704772
:1043E00070B504466448654E002150F8240006EB81
:1043F000840542002869FFF7EDFF5F480021103077
:1044000050F82420A868FFF7E5FF0120311908764D
:1044100070BD10B5584B594C002253F8203011464E
:1044200004EB800005E0046934F8114004B1521C2B
:10443000491C8B42F7D864204243B2FBF3F0C0B270
:1044400010BD2DE9F0414D4E0546002470190F4670
:10445000007E10B93168284688474FF0FF327FB39D
:10446000454B083353F82510B7FBF1F0B7FBF1FCCF
:1044700001FB1C7101B1401C3F4951F82510491E38
:104480001ED406EB8506376937F811C0BCF1000F62
:1044900005D00024844211D1002284B207E0641CBC
:1044A000F8E7376901EB020C521C27F81C408242E6
:1044B000F7D353F825004843BDE8F081491EE3D502
:1044C0001046F9E770B52D4A13181B7E9BB12A4B95
:1044D000103353F820308B421AD9274B02EB80025D
:1044E000083353F820301069B1FBF3F130F8114074
:1044F0000020034608E011688847012070BD156957
:104500000E18401C25F81630A042F8DB002070BDC4
:10451000022070BD002905D0184A02EB8002926883
:10452000891ACFE7704710B50446FFF78AFF411C90
:1045300005D0124901EB84018968084410BD0020B0
:1045400010BD2DE9F0418846174606461146FFF793
:1045500078FF0446401CAFD008483A4600EB860579
:104560004146A8682044FFF72DFF41463046FFF73B
:10457000D1FFA86820449FE740580208740000203B
:104580002849084328490860704730B50F23C2788E
:1045900001780125F2B1244A126801F1E02102F408
:1045A000E062C2F5E062120AC2F10404D34042782C
:1045B000A24084781C401443220181F80024007832
:1045C00000F01F018D404009800000F1E020C0F89C
:1045D000005130BD01F01F0085404809800000F106
:1045E000E020C0F8805130BD104A114001430E4810
:1045F000001F016070470C4A121D0029116801D08C
:10460000014300E08143116070474FF0E02104282E
:10461000086903D020F004000861704740F00400EE
:10462000FAE700000000FA050CED00E080FFFF1F34
:104630008100A1F1C04140B143F2D20008606FF0A7
:1046400070404860C1F8040170474FF0204243F2C7
:10465000DB001060F3E710B5182340244FF0204131
:104660004FF0FC32102805D041F8803F4C608A6042
:10467000CA6010BD0B664C668A66CA6610BD4FF0F4
:104680002040182140F8A01F002141604FF0FC316C
:104690008160C1600161704710B5D0E9011211431A
:1046A000D0E903231A43114342691143826911433C
:1046B000C2691143026A1143426A1143826A11437B
:1046C000C26A1143026B114302689200A2F1C04218
:1046D00011608168082907D101688900A1F1C041F2
:1046E0000A6842F040020A60416BD1E9002342EAC5
:1046F00003128B688C891B0243EA04431A430B8A1A
:1047000042EA03520B7D896942EA03620A43016867
:104710008900A1F1C0414A60C16AB1F5804F08D05B
:1047200000686FF070418000A0F1C040C0F8041133
:1047300010BD816BD1E9002342EA03128B680C8A19
:104740001B0243EA04531A430B7D896942EA036260
:1047500000680A438000A0F1C040C0F8042110BDE9
:1047600030B5D0E901121143D0E903231A431143B4
:10477000426941EA4221826941EA423141F008043A
:10478000C169D1E9002342EA03220B89097B1B049A
:1047900043EA01610A43016AD1E9003543EA05238E
:1047A0000D89097B2D0445EA01610B4301684FF037
:1047B0002040102904D040F8804F8260C36030BD93
:1047C00004668266C36630BD10B5D0E9001241EAC6
:1047D00042218268102343EA423211434FF02042C3
:1047E00042F8A01FC168D1E9003443EA04230C89D0
:1047F000097B240444EA01610B4393600169D1E918
:10480000003443EA04230C89097B240444EA01614F
:104810000B43D3604069D0E9001341EA03210389C7
:10482000007B1B0443EA00600143116110BD10B519
:1048300000210222C0E900128160C1600161416172
:104840008161D202C161C0E908125200C0E90A21A7
:104850000163436B0F221A60436B5A60446BFF2362
:10486000A360446BE260446B2261446B6261446B01
:10487000A161846B2260846B6260846BA360836B34
:10488000DA60836B1A61836B5A61806B816110BD42
:1048900010210160002141608160C16001614161BE
:1048A0008161C269FC211160C2695160C269916075
:1048B000C269D160026A1160026A5160026A916045
:1048C000006AC16070470021016041608160C26878
:1048D000FC211160C2685160C2689160C268D160F9
:1048E0000269116002695160026991600269D160D8
:1048F0004269116042695160426991604069C160DA
:1049000070478000A0F1C0400029016802D041F04A
:10491000010101E0644A1140016070474FF02042FC
:1049200051B1102804D052F8800F40F004000AE082
:10493000106E40F004000AE05B49C91E102804D044
:1049400052F8800F084010607047106E08401066E3
:1049500070474FF02041002851F8A00F02D040F0DE
:10496000040002E0504AD21E1040086070474FF029
:10497000204251B1102804D052F8800F40F040007E
:104980000AE0106E40F040000AE047493F39102825
:1049900004D052F8800F084010607047106E084035
:1049A000106670474FF02041102802D0D1F89400D3
:1049B0007047486F704710B54FF480744FF0204334
:1049C00072B1102804D0A04205D153F8840F04E03E
:1049D000586E08430DE053F8A40F0843186010BD4B
:1049E000102804D0A04206D153F8840F05E0586E79
:1049F0008843586610BD53F8A40F8843EEE703467A
:104A000000204FF02042102B08D0B3F5807F07D054
:104A1000D2F8A4200A4200D001207047526EF9E774
:104A2000D2F88420F6E74FF02042102807D0B0F5E6
:104A3000807F08D052F8A40F884310607047506EF2
:104A400088435066704752F8840FF5E7034600200C
:104A50004FF02042102B0CD0B3F5807F0BD0D2F852
:104A6000A4200A4202EAD10102D0002900D001208C
:104A70007047526EF5E7D2F88420F2E74FF02042FB
:104A8000102808D0B0F5807F0AD052F8A40F20EA91
:104A9000D10010607047506E20EAD1005066704718
:104AA00052F8840FF3E70000FEFF0F008F4910B5A6
:104AB000884206D10121042000F049FA0021042097
:104AC0003BE08B49884206D10121082000F03FFAE3
:104AD0000021082031E08749884206D101211020B9
:104AE00000F035FA0021102027E08349884206D1E2
:104AF0000121202000F02BFA002120201DE07F4919
:104B0000884206D10121402000F021FA00214020F6
:104B100013E07B49884206D10121802000F017FA7A
:104B20000021802009E0774988420AD184150121BB
:104B3000204600F00CFA00212046BDE8104000F0AD
:104B400006BA10BD10B50121084600F000FA002198
:104B5000BDE81040012000F0FAB9F0B5CC78002291
:104B600004F00F03E40601D58C7823430C784FF052
:104B70000F0C14F0FF0F4FF0010E1BD005680E88CC
:104B80000EFA02F42640A64210D196000CFA06F75F
:104B900025EA070703FA06F5CE783D43282E02D012
:104BA000482E02D002E0446100E00461521C082A51
:104BB000E5D305600A88FF2A1CD94468002202F167
:104BC00008060EFA06F50E882E40AE420ED196006B
:104BD0000CFA06F7BC4303FA06F7CE783C43282EBE
:104BE00000D14561CE78482E00D10561521C082ABB
:104BF000E5D34460F0BD4FF6FF7101800221817062
:104C00000421C17070470246002092680A4200D019
:104C100001207047806880B2704702460020D26849
:104C20000A4200D001207047C06880B2704701611D
:104C30007047416170470AB1016170474161704737
:104C4000C160704741F48032826181618261816913
:104C5000806970472C4B10B51A684FF6807422405B
:104C600042EA00100843186010BD2849C861704727
:104C7000F0B5254C002801DAE36900E06368450DD2
:104C80002E0185B2C0F30157B540C0F30342032F94
:104C900005D0C6020AD503269640B34307E023F0A9
:104CA0007062636823F07063636002E0AB4343F0BB
:104CB000706201B12A43002801DAE261F0BD62604E
:104CC000F0BD10B58A0721F003040F49120F2144EB
:104CD0000F238C6893409C438C608B689040034307
:104CE0008B6010BD0949C1F8DC0070470008014025
:104CF000000C014000100140001401400018014068
:104D0000001C014000200140000001400000204242
:104D1000A548016841F0010101604168A34A1140C2
:104D200041600168A24A11400160016821F48021BC
:104D30000160416821F4FE0141604FF41F01816070
:104D4000704799490A6822F480320A600A6822F49E
:104D500080220A60B0F5803F07D0B0F5802F03D1E4
:104D6000086840F4A02008607047086840F480306C
:104D7000F9E70346002059098B4A01290AD0022984
:104D80000AD0516A03F01F02012393400B4200D066
:104D9000012070471168F5E7116AF3E718B50020A4
:104DA0004FF4A06400903120FFF7E3FF0099491C05
:104DB0000091A14201D00028F5D03120FFF7D9FFA2
:104DC000002800D0012018BD774A116821F0F801B1
:104DD00041EAC00010607047764908607047724B26
:104DE0005A68084322F47C12104358607047714996
:104DF000086670476C4A516821F003010143516015
:104E000070476948406800F00C007047664A516876
:104E100021F0F001014351607047634A516821F469
:104E2000E0610143516070475F4A516821F460516D
:104E300041EAC000506070475B4A0029517A01D0B6
:104E4000014300E08143517270475A49C1F8D800CC
:104E50007047554A516821F4404101435160704701
:104E60005149002281F8202081F82020012802D019
:104E7000042802D1052081F8200070474E490860BF
:104E8000704749490A6A02430A6270474A494439ED
:104E90000860704730B5444A5168484B11F00C0126
:104EA00003D0042901D0082901D0036012E0516821
:104EB000536801F470114FF0020413F4803F04EBC7
:104EC000914102D053689B0301D53D4B00E03B4B21
:104ED0005943016051680F2303EA1111394B5C5C9F
:104EE0000168E14041605468072505EA14241C5D0F
:104EF00021FA04F48460546805EAD4241B5DD94087
:104F0000C1605268032303EA92322E4B1B1F9A5C46
:104F1000B1FBF2F1016130BD234A0029516901D092
:104F2000014300E08143516170471F4A00299169A4
:104F300001D0014300E08143916170471A4A002982
:104F4000D16901D0014300E08143D1617047164A25
:104F50000029D16801D0014300E08143D16070474E
:104F6000114A0029116901D0014300E08143116118
:104F7000704711494039086070470E49C86470474E
:104F80000949C87170470848416A41F0807141621F
:104F90007047054A0146002092680A4200D001206D
:104FA0007047014988727047001002400000FFF806
:104FB000FFFFF6FE000042428004424200127A00E7
:104FC00000093D0094000020994910B588420AD19B
:104FD000841401212046FFF7BAFF2046BDE81040A7
:104FE0000021FFF7B4BF9349884202D10121041484
:104FF00004E0914988420AD10121C4132046FFF7F9
:10500000AFFF2046BDE810400021FFF7A9BF10BD4B
:1050100030B502884C8802F441530A88CD88224377
:105020008C882C4322430C8922434C8922438C894F
:105030002243CC8922431A430280828B22F40062ED
:105040008283098A018230BDF0B505460C460220F4
:105050000021AA8B85B001264FF240031A40AA8393
:105060002884AF8BA268022A21D0A08800B1022632
:105070006846FFF70FFFE1880098B1F5007F2CD05C
:105080007101B0FBF1F000EB8000A1684000B0FBC3
:10509000F1F0401D80B20A21B0FBF1F000F00101F7
:1050A000401A4FF6FF72C0F34F0002EA0121821E40
:1050B000FE2A01D302200021E288084302432A8409
:1050C00020886188A2890843A18811430843384396
:1050D00040F40060A88305B0F0BD000AD3E70021CA
:1050E000018041808180C180018141818181C181B4
:1050F0000721018270470021018041808180C180A9
:1051000002228260818170470029018802D041F02B
:10511000400101E021F04001018070470029818BAE
:1051200002D041F4806101E021F480618183704705
:10513000090901238B40002A828899B201D00A43D1
:1051400000E08A4382807047002A828801D00A43A7
:1051500000E08A4382807047818170478089704770
:10516000A1F57E420188FF3A02D041F4807101E04E
:1051700021F48071018070470029818802D041F0BC
:10518000040101E021F0040181807047028822F4CB
:105190000062028002880A4302807047018841F45D
:1051A0008051018070470029018802D041F40051EC
:1051B00001E021F4005101807047012901D0008BEA
:1051C0007047808A7047008A7047B1F5804F018828
:1051D00003D021F480410180704741F48041FAE717
:1051E0000246002012890A4200D001207047C943BC
:1051F0000181704730B501F00F030125024605FA21
:1052000003F40020A3B2090905FA01F49188A4B2BD
:10521000128921401A4202D0002900D0012030BD5D
:1052200001F00F0201219140C94301817047000044
:105230000030014000380040003C0040C44910B537
:1052400088420AD101218C032046FFF780FE2046C8
:10525000BDE810400021FFF77ABEBE49884202D166
:1052600001214C0410E0BC49884202D101218C0488
:105270000AE0BA49884202D10121CC0404E0B849CD
:1052800088420AD101210C052046FFF769FE20461D
:10529000BDE810400021FFF763BE10BD30B50446E5
:1052A000008A85B00D464CF6FF710840E98801433D
:1052B0002182A0894EF6F3110840A9882A8911435A
:1052C0006A8902431143A181A08A4FF6FF41084039
:1052D000A9890143A1826846FFF7DCFD9C4884420E
:1052E00001D1039800E00298A189090400EBC001F4
:1052F00001EB0010296801D5490000E08900B0FBEE
:10530000F1F06422B0FBF2F109010B096FF018050E
:105310006B4300EB8300A3891D044FF0320306D5D5
:1053200003EBC000B0FBF2F000F0070005E003EB78
:105330000010B0FBF2F000F00F000843208105B030
:1053400030BD4FF41651016000218180C180018180
:105350000C2242818181704710B5028A4FF2FF030F
:105360001A400B884C8823438C88C9880C432343FC
:105370001343038210BD0021018041808180C180E0
:1053800070470029818902D041F4005101E021F4E5
:1053900000518181704710B5C1F3421301F01F0421
:1053A0000121A140012B07D0022B07D01430002A85
:1053B000026805D00A4304E00C30F8E71030F6E745
:1053C0008A43026010BD002A828A01D00A4300E0AD
:1053D0008A4382827047028A22F00F020282028A86
:1053E0000A4302827047828922F4006282818289A4
:1053F0000A43828170470029818902D041F002016D
:1054000001E021F0020181817047028A22F020022E
:105410000282028A0A43028270470029018A02D06E
:1054200041F4804101E021F4804101827047C1F3E1
:105430000801818070478088C0F308007047818927
:1054400041F0010181817047028BD2B20283028B4D
:1054500042EA012101837047028B02F47F420283FA
:10546000028B0A43028370470029818A02D041F0EF
:10547000200101E021F02001818270470029818A0A
:1054800002D041F0100101E021F01001818270474B
:105490000029818A02D041F0080101E021F00801D1
:1054A000818270470029818902D041F4004101E0E6
:1054B000C1F30E01818170470029818A02D041F435
:1054C000006101E021F4006181827047828A22F04C
:1054D00004028282828A0A43828270470029818A7A
:1054E00002D041F0020101E021F002018182704707
:1054F0000246002012880A4200D001207047C943AA
:105500000180704770B501F01F0501260024C1F32A
:10551000421306FA05F2012B0FD0022B0FD0838A1B
:105520004FEA11210088134206FA01F600EA06004C
:1055300001D000B10124204670BD8389F0E7038AC1
:10554000EEE70A0A01219140C9430180704700003B
:10555000003801400044004000480040004C00403A
:105560000050004000B585B06846FFF793FC0198F5
:1055700005B000BD10B5FFF7F5FF11490A6842F00C
:1055800080720A600F4900224A600A6842F00102F4
:105590000A60BDE8104004F0A1BC0A4840687047AA
:1055A00010B50446FFF7DEFF0021074A0B4605F061
:1055B0007BFA02460B462046002105F075FA10BD25
:1055C000FCED00E0001000E040420F00A0F14101BE
:1055D000192902D96138192801D801207047002003
:1055E0007047A0F14101192905D92039192902D99B
:1055F0003038092801D801207047002070476138F1
:10560000192801D801207047002070474138192817
:1056100001D801207047002070473038092801D890
:1056200001207047002070473038072801D801203A
:10563000704700207047A0F13001092905D91139C0
:10564000052902D96138052801D8012070470020BA
:105650007047202803D0092801D00020704701207E
:10566000704720280BD00D2809D00A2807D00C2815
:1056700005D0092803D00B2801D000207047012055
:10568000704720385E2801D80120704700207047FD
:1056900021385D2801D80120704700207047A0F113
:1056A00020015E2916D8202814D00D2812D00A28EF
:1056B00010D00C280ED009280CD00B280AD0213984
:1056C0001A2907D320391A2904D330380A2801D3DC
:1056D000012070470020704741B2002901DB1F28DC
:1056E00003D97F2801D00020704701207047A0F126
:1056F0004101192900D82030C0B27047A0F16101E2
:10570000192900D82038C0B2704700B50B46FFF702
:10571000F5FF02461846FFF7F1FF824201D1012052
:1057200000BD002000BD0000FD48FE490246C0E962
:10573000001200218160C160016141618161C1612C
:1057400001620163C162416200F148018163C1638A
:105750004FF4806101644164F3480260704710B502
:1057600000231C46641C41EA0323042CFAD310F0E6
:10577000030404D109E0521E00F8011B641C22B18D
:10578000042CF8D301E008C0121F042AFBD202E067
:1057900000F8011B521E002AFAD110BD0A46002152
:1057A000DDE730B4814202D930BC00F0C5BD104401
:1057B0001144401E491E431A042B28D300F0030352
:1057C00001F00304A34201D1012400E00024F4B15C
:1057D000032B07D109E05B1E11F8014900F80149CC
:1057E0005BB2521E0AB1002BF5DAC01EC91E04E0DE
:1057F00051F8043940F80439121F042AF8D2C01CA9
:10580000C91C04E011F8013900F80139521E002AC0
:10581000F8D130BC704770B5034662B16BB161B16D
:1058200013441144012003F0030401F00305AC42CA
:1058300005D1012504E0012070BD002070BD0025C8
:10584000DDB1BCB113F8015D11F8016DB54200D0B6
:105850000020521E641E0128F0D1002AF1D109E077
:1058600053F8044D51F8045DAC4200D00020121FE3
:1058700001280AD1042AF3D207E013F8014D11F8E8
:10588000015DAC4200D00020521E0128D6D1002A72
:10589000F3D170BD30B5C36BB3FBF2F402FB14342B
:1058A0000CB1121B00E00022446C11448C4201D266
:1058B000002030BD5D18611AC5631A44416410466A
:1058C00030BD10B5B0FBF3F403FB140000B1181A9F
:1058D000B2FBF3F403FB14240CB11B1B00E0002308
:1058E00010441A44491E02FB010010BD2DE9FC5F63
:1058F0001F4614008A46834600D101AC0020884E22
:10590000206004F071FB009053465A460121D6F8FE
:105910004480F06BFFF7D5FF054642F2E27940453F
:1059200006D9009804F064FBA5EB0800206012E0A3
:10593000524659463046FFF7ADFF0600009807D0A3
:1059400004F056FB42F2107038803046BDE8FC9FF0
:1059500004F04EFB2560A7F800900020F6E72DE943
:10596000F04116460D46044604F03EFB6368996B11
:1059700001B96B4BDF6B5C6C04F03AFB012D06D96F
:10598000B7FBF5F005FB107000B1281A241A42F29B
:10599000107030802046BDE8F0810A46014660481C
:1059A000DDE7B8B1614A0260002242608260C260F5
:1059B000026142618261C261026282624263026389
:1059C000C26242628263C2630264426442F2107045
:1059D0000880704742F21170FAE72DE9FF4F89B055
:1059E0008A46DDE91879044607B906AF0020386019
:1059F00049462046FFF7D5FFB9F80010A1F51C5025
:105A0000103859D14848006890B10020DFF8108163
:105A1000029004F0E9FA05905FEA0A000BD0024612
:105A20000B98002613184048B3465B1E056848E0F3
:105A300042F2E7713EE0D8F83C1003910423C346DC
:105A400045461A460C990398FFF73BFF03990490CB
:105A500008440890DDE916230C99FFF732FF009007
:105A600000990498464608440290D8F844100191E1
:105A7000884261D9059804F0BBFADDE901103CE0E9
:105A8000A86B504506D1D5F840C00B998C4501D183
:105A90002E4618E0296C0144491E834213D38242EA
:105AA00003D98B4201D98A4209D8059804F0A0FA9B
:105AB00042F27F71A9F800100DB0BDE8F08FAB463F
:105AC000ED68002DDCD136B9C4E90EAA0B9820642C
:105AD0000B982646606404231A46D8F83C000C99BB
