:020000040800F2
:10000000F05D002015020008C1080008B3060008D2
:10001000BD08000831050008FF18000800000000B6
:100020000000000000000000000000006512000851
:100030008505000800000000ED04000879130008A1
:100040002F0200082F0200082F0200082F020008CC
:100050002F0200082F0200082F0200082F020008BC
:100060002F0200082F0200082F0200082F020008AC
:100070002F0200082F0200082F0200082F0200089C
:100080002F0200082F0200082F0200082F0200088C
:100090002F0200082F0200082F0200082F0200087C
:1000A0002F0200082F0200082F0200082F0200086C
:1000B0002F0200082F0200082F0200082F0200085C
:1000C0002F0200082F0200082F0200082F0200084C
:1000D0002F020008191800082F0200082F0200083C
:1000E0002F0200082F0200082F0200082F0200082C
:1000F0002F0200082F0200082F0200082F0200081C
:100100002F0200082F0200082F0200082F0200080B
:100110002F0200082F0200082F0200082F020008FB
:100120002F0200082F0200082F0200082F020008EB
:1001300000F002F800F05FF80AA090E8000C82449A
:100140008344AAF10107DA4501D100F054F8AFF277
:10015000090EBAE80F0013F0010F18BFFB1A43F0A5
:1001600001031847001A0000201A00000A444FF04B
:10017000000C10F8013B13F0070408BF10F8014B06
:100180001D1108BF10F8015B641E05D010F8016B4B
:10019000641E01F8016BF9D113F0080F1EBF10F8AF
:1001A000014BAD1C0C1B09D16D1E58BF01F801CBD2
:1001B000FAD505E014F8016B01F8016B6D1EF9D555
:1001C0009142D6D37047000000230024002500266A
:1001D000103A28BF78C1FBD8520728BF30C148BFAA
:1001E0000B607047642900F07F80002070471FB5C6
:1001F0001FBD10B510BD00F02EF91146FFF7F7FF37
:1002000001F022FC00F04CF903B4FFF7F2FF03BC4D
:1002100001F0C2FB0948804709480047FEE7FEE7B6
:10022000FEE7FEE7FEE7FEE7FEE7FEE7FEE7FEE7A6
:1002300004480549054A064B70470000E5130008CD
:1002400031010008F0570020F05D0020F059002037
:10025000F0590020704700000FB41CB5074B06AAE8
:100260007B4469460090059800F0DDF8002069465F
:1002700000F0ECF81CBC5DF814FB0000E901000084
:100280002DE9F0410E460446002020622046E16838
:10029000884730B3252805D0D4E901219047206A4A
:1002A000401CF2E7E168204600278847050018D087
:1002B000A5F14100192802D820354FF400673246D5
:1002C000294620462760FFF78DFF40B1012804D062
:1002D000F61D26F007060836D8E7361DD6E728466D
:1002E000DAE7206ABDE8F0812DE9F04106460024F6
:1002F00010687529314616A510D0AFF3008000288C
:1003000002DA404213A507E031688A0701D512A539
:1003100002E0490704D511A5012401E0AFF30080F4
:1003200000210A2206F1240709E0B0FBF2FCB0FB31
:10033000F2F302FB1C00303078541846491C0028A8
:10034000F3D123462A463046BDE8F04100F00CB810
:10035000000000002D0000002B0000002000000025
:1003600070477047704770472DE9F0470D46994632
:100370009246044600F124080168880604D5E06925
:1003800021F01001216000E00120A84201DD471B9F
:1003900000E00027A1697A1902EB0900081AA061A0
:1003A0002078C00602D42046AFF30080002608E083
:1003B000D4E901211AF806009047206A401C761CF7
:1003C00020624E45F4DB2078C0060AD52046AFF304
:1003D000008006E0D4E9012130209047206A401CCB
:1003E0002062381EA7F10107F4DC07E0D4E90121FF
:1003F00018F805009047206A401C2062281EA5F1CD
:100400000105F3DC2046AFF300802078000602D51A
:100410000220BDE8F0870120FBE7000001694A1CCB
:1004200002610878704700B58FB0CDE90131002135
:10043000059105497944CDE9031011466846FFF757
:100440001FFF0FB000BD0000E5FFFFFF0A6802F8C4
:10045000010B0A607047754600F028F8AE460500AB
:100460006946534620F00700854618B020B5FFF7CF
:10047000DFFEBDE820404FF000064FF000074FF0D0
:1004800000084FF0000B21F00701AC46ACE8C009B2
:10049000ACE8C009ACE8C009ACE8C0098D467047BB
:1004A0000446AFF300802046FFF7AEFE00487047D9
:1004B00090570020EFF3108072B6704780F31088D9
:1004C000704716484FF080510160704714484FF054
:1004D000FF010170002080F309881248016881F350
:1004E00008880E484FF08051016062B672B6EFF393
:1004F000098028B1203880E8F00F0B4909680860AE
:1005000009480A490A680260106890E8F00F203034
:1005100080F309884EF0040E62B6704704ED00E0E7
:1005200022ED00E034000020380000203C000020D4
:1005300000BFFEE710B5072000F032FA0E49087040
:100540000846007800F0200020B90846007800F046
:10055000100078B1FF21272000F0D4FA00200749CD
:100560000860E12000F032FA01200549C1F890014D
:10057000002010BD0120FCE749100020900122421C
:100580000000224270472DE9F04102460025002676
:10059000002000230024002791F803C00CF00F0571
:1005A00091F803C00CF0100CBCF1000F03D091F8CF
:1005B00002C04CEA050591F800C0BCF1000F31D033
:1005C000146800202BE04FF0010C0CFA00F3B1F896
:1005D00000C00CEA03069E4220D183004FF00F0CAE
:1005E0000CFA03F7BC4305FA03FC4CEA040491F847
:1005F00003C0BCF1280F06D14FF0010C0CFA00FC2F
:10060000C2F814C00AE091F803C0BCF1480F05D14C
:100610004FF0010C0CFA00FCC2F810C0401C082876
:10062000D1D31460B1F800C0BCF1FF0F34DD5468C1
:1006300000202EE000F1080C4FF0010808FA0CF33E
:10064000B1F800C00CEA03069E4221D183004FF0AE
:100650000F0C0CFA03F7BC4305FA03FC4CEA040444
:1006600091F803C0BCF1280F05D100F1080C08FA7D
:100670000CF8C2F8148091F803C0BCF1480F07D100
:1006800000F1080C4FF0010808FA0CF8C2F81080CD
:10069000401C0828CED35460BDE8F08102460020FB
:1006A00093680B400BB1012000E00020704701610E
:1006B000704700BFFEE7000008B50121082000F0E8
:1006C000C1FD4FF42040ADF8000010208DF803006C
:1006D00003208DF8020069460448FFF754FF4FF4E9
:1006E00020410248FFF7E3FF08BD0000000C014075
:1006F00010B50120094908600949C1F8B401042076
:1007000001F0F6F90020054908390860042001F0DD
:10071000EFF900200249C1F8BC0110BDBC812142A3
:100720000080214210B50020084908600849C1F83E
:10073000B401042001F0DCF90120044908600449F7
:10074000C1F8B401042001F0D3F910BDBC812142ED
:100750000080214208B50121142000F073FD43F20E
:100760000200ADF8000048208DF8030069460748F4
:10077000FFF709FF0120ADF8000028208DF80300E5
:1007800069460348FFF7FFFE08BD00000010014066
:100790000008014010B5044614B101202F4908702B
:1007A0002E480078F8B102212D48FFF777FF28B1D5
:1007B0004FF400512A48FFF771FFA0B90A2000F05A
:1007C000DDFB00202549087002212548FFF766FF60
:1007D00008B9012010BD4FF400512148FFF75EFF1A
:1007E000C8BB0220F6E71F48007850B101211E481F
:1007F000FFF754FF012804D100201A490870032094
:10080000E8E71848007850B14FF480511448FFF7DA
:1008100045FF20B90020134908700420DAE70221BF
:100820000F48FFF73BFF012815D141030C48FFF7A4
:1008300035FF01280FD101210B48FFF72FFF50B9D9
:100840004FF480510648FFF729FF012803D10549DD
:100850000870024908700020BCE700003200002048
:1008600000100140330000200008014008B50121BC
:10087000242000F0E7FC4FF48070ADF80000102059
:100880008DF8030003208DF8020069460948FFF740
:100890007AFE4FF480710748FFF709FF0420ADF896
:1008A000000069460448FFF76EFE04210248FFF786
:1008B000FEFE08BD000801400014014000BFFEE735
:1008C0007047000010B5022001F098F80020074999
:1008D000086001200649C1F8900100200349091D64
:1008E000086001200249C1F8940110BD9001214225
:1008F0000000224208B50121142000F0A3FC402092
:10090000ADF8000014208DF8030003208DF80200DC
:1009100069462148FFF737FE40211F48FFF7C7FE11
:1009200010208DF803002020ADF8000069461A4819
:10093000FFF729FE20211848FFF7B9FE1020ADF877
:10094000000069461448FFF71EFE10211248FFF709
:10095000AEFE8020ADF8000069460F48FFF713FE99
:1009600080210D48FFF7A3FE2020ADF80000694666
:100970000A48FFF708FE20210848FFF798FE1020DC
:10098000ADF8000069460548FFF7FDFD102103485A
:10099000FFF78DFE08BD0000000801400010014077
:1009A00070B50446002007490860204600F00EF8A4
:1009B000002000F00BF8054601200349C1F8900122
:1009C000284670BD900122420000224270B50446C4
:1009D00000251CE004F0800018B101200E490860D9
:1009E00002E000200C4908606006040E01200A495C
:1009F0000839086040210948FFF750FE08B144F06B
:100A000001040020044908390860681CC5B2082D9B
:100A1000E0DB204670BD00009C012142000801403F
:100A200010B50446002018490860A521302000F0C8
:100A300069F80720FFF7B4FFA52801D100BFFEE742
:100A4000052221462A2000F075F83F21212000F0E0
:100A500059F83F21222000F055F84021252000F0D0
:100A600051F80521312000F04DF80F21262000F02B
:100A700049F80F21202000F045F8012002490860C4
:100A8000052000F0BBFF10BD9001214270B5044667
:100A90000E461546002019490860052231463020CF
:100AA00000F048F805F12001C8B20522314600F0F7
:100AB00041F805222146A02000F03CF83F212120EA
:100AC00000F020F83F21222000F01CF81A212420F9
:100AD00000F018F84021252000F014F80F212620FE
:100AE00000F010F80E21202000F00CF8012004493D
:100AF000C1F8900100F053FF70BD00009001214249
:100B00000000214270B505460C46002007490860E8
:100B10002846FFF75BFF06462046FFF757FF0120F8
:100B20000349C1F89001304670BD00009001224297
:100B3000000022422DE9F04107460C4615460020F0
:100B40000A4908603846FFF741FF8046002605E065
:100B500014F8010BFFF73AFF701CC6B2AE42F7DB88
:100B60000120024908604046BDE8F0819001224220
:100B700002490143024A1160704700000000FA0573
:100B80000CED00E010B5002000F027F810BD2DE9B5
:100B9000F04705460E4617469846DDF820A02C463D
:100BA00017E004F1B001C8B200F0ABFE002000F085
:100BB000A8FE102000F0A5FEB14606E0504600F069
:100BC000B0FE09F1010000F0FF09C145F6DB601C31
:100BD000C4B2BC42E5DBBDE8F08770B50646002430
:100BE00015E004F1B001C8B200F08BFE002000F067
:100BF00088FE102000F085FE002504E0304600F05D
:100C000090FE681CC5B2802DF8DB601CC4B2082CB5
:100C1000E7DB70BD10B54FF4FA7000F0EFFEAE20C8
:100C200000F06FFE202000F06CFE102000F069FE46
:100C3000B02000F066FEC82000F063FE002000F047
:100C400060FE102000F05DFE402000F05AFE812082
:100C500000F057FEFF2000F054FEA12000F051FEEE
:100C6000A62000F04EFEA82000F04BFE3F2000F032
:100C700048FEA42000F045FED32000F042FE0020F4
:100C800000F03FFED52000F03CFEF02000F039FEE1
:100C9000D92000F036FE222000F033FEDA2000F0EA
:100CA00030FE122000F02DFEDB2000F02AFE202076
:100CB00000F027FE8D2000F024FE142000F021FE1D
:100CC000AF2000F01EFE10BD70B504460D4605F1C4
:100CD000B001C8B200F015FE102141EA141000F076
:100CE00010FE04F00F0141F0010000F00AFE70BD9B
:100CF0002DE9F04180460E46174600247D0131461D
:100D00004046FFF7E1FF00BF06E00D49485D00F0F7
:100D100008FE6D1C601CC4B2102CF6DB701CC1B246
:100D20004046FFF7D1FF002406E00549485D00F08A
:100D3000F8FD6D1C601CC4B2102CF6DBBDE8F08120
:100D4000500000202DE9F0470646894617469A468E
:100D50004FF0000800240025BAF1010F03D0BAF1CA
:100D6000020F5ED125E020E0785D203800F0FF081A
:100D70007E2E04DD002609F1010000F0FF0949463E
:100D80003046FFF7A1FF002409E008EB4801264A9E
:100D900002EB4101085D00F0C4FD601CC4B2062CEA
:100DA000F3DBB01DC6B2681CC5B2785D0028DBD18C
:100DB00037E032E0785D203800F0FF08782E04DD5F
:100DC000002609F1010000F0FF0949463046FFF70F
:100DD0007BFF002407E004EB0811144A505C00F08C
:100DE000A0FD601CC4B2082CF5DB09F10100C1B202
:100DF0003046FFF769FF002408E004EB08110831D2
:100E00000A4A505C00F08DFD601CC4B2082CF4DB73
:100E100006F10800C6B2681CC5B2785D0028C9D1C9
:100E200000BF00BFBDE8F087F003002018060020D7
:100E30002DE9FF470646884692469946002700243A
:100E40000025524636A16846FFF706FAB9F1010FB0
:100E500003D0B9F1020F60D126E020E01DF80500B3
:100E60002038C7B27E2E04DD002608F1010000F014
:100E7000FF0841463046FFF727FF002409E007EB53
:100E80004701284A02EB4101085D00F04AFD601C61
:100E9000C4B2062CF3DBB01DC6B2681CC5B21DF887
:100EA00005000028DAD138E032E01DF805002038CE
:100EB000C7B2782E04DD002608F1010000F0FF081B
:100EC00041463046FFF700FF002407E004EB07111E
:100ED000154A505C00F025FD601CC4B2082CF5DBFF
:100EE00008F10100C1B23046FFF7EEFE002408E031
:100EF00004EB071108310C4A505C00F012FD601C35
:100F0000C4B2082CF4DB06F10800C6B2681CC5B2F6
:100F10001DF805000028C8D100BF00BFBDE8FF874D
:100F200025640000F0030020180600200121814004
:100F3000024A12688A4301490A607047440000204F
:100F4000002001E0411CC8B2202806D201218140C6
:100F5000034A126811400029F4D002490870704712
:100F6000440000204100002001218140024A126813
:100F70001143014A116070474400002070B50446D7
:100F80007CB3FFF797FA05461748007800EB40005E
:100F9000164901EB8000007A022810D1144800683D
:100FA00044601148007800EB400001EB80001049DC
:100FB00008602846FFF782FAFFF783FA70BD0A48F7
:100FC0000078FFF7B3FF0848007800EB40000749BE
:100FD00001EB800044602846FFF770FA00F0BAF891
:100FE000ECE7FFE700BFE9E7400000201023002006
:100FF0003C000020002000E0401CFDE770B50546E5
:101000000E46142000F07CFD044600202071206074
:101010002661E560204670BD2DE9F04104460D468D
:101020001646FFF747FA8046206828BB012E23D1D9
:1010300005202549097801EB4101244A02EB810191
:1010400008722148007800EB4000114601EB800057
:10105000456020791C490A7801219140084320719C
:1010600019480078FFF762FF4046FFF727FA00F0C3
:1010700071F8FFF71FFA80462768206810B12068D2
:10108000401E20601048007800EB40000F4901EB43
:101090008000007A05280FD120790B490A780121B8
:1010A00091408843207104200749097801EB4101F0
:1010B000064A02EB810108724046FFF7FFF9E0683B
:1010C00050F82700BDE8F0814000002010230020E8
:1010D0002DE9F04104460E46FFF7ECF9074620687B
:1010E000401C206021692068884201D1206920606D
:1010F0002168E06840F821603846FFF7DFF9207981
:1011000020B3FFF7D7F90746002501E0681CC5B2F8
:10111000202D05D220790121A94008400028F5D0D2
:1011200020790121A940884320712846FFF71CFF40
:10113000042005EB4501064A02EB8101087238469E
:10114000FFF7BCF900F006F8BDE8F08100BFFBE74F
:101150001023002010B5FFF7ADF904460E480068D3
:10116000B0B9FFF7EDFE0D4800780D4909788842C7
:101170000ED00A48007800EB40000A4901EB8000DD
:10118000094908600548007805490870FFF799F992
:101190002046FFF793F910BD4C00002041000020CD
:1011A00040000020102300203C00002010B5FFF775
:1011B00081F904460120034908602046FFF77EF9C3
:1011C00010BD00004C00002010B5FFF773F9044675
:1011D0000020044908602046FFF770F9FFF7BAFFC6
:1011E00010BD00004C00002010B500F02BF90D4898
:1011F0000D4908601F220D490D4800F0A3FAFFF7C2
:101200009FFE0C4800780C4908700A48007800EBF3
:1012100040000A4901EB800009490860FFF756F9D0
:1012200010BD00000C230020340000208C2500207D
:10123000F50F00084100002040000020102300208E
:101240003C00002029B1064A92690243044B9A618E
:1012500004E0034A92698243014B9A61704700009F
:1012600000100240704710B500F002F810BD0000F9
:101270000CB50020019000903348006840F48030A5
:101280003149086000BF3048006800F40030009029
:101290000198401C0190009818B90198B0F5A06F12
:1012A000F1D12948006800F4003010B1012000900D
:1012B00001E0002000900098012843D123480068F5
:1012C00040F01000214908600846006820F0030043
:1012D00008600846006840F0020008601A4840684C
:1012E000194948600846406848600846406840F42C
:1012F000806048600846406820F47C1048600846DA
:10130000406840F4E81048600846006840F080708B
:10131000086000BF0C48006800F000700028F9D099
:101320000948406820F003000749486008464068C3
:1013300040F00200486000BF0348406800F00C0025
:101340000828F9D10CBD0000001002400020024026
:10135000042808D14FF0E021096941F004014FF061
:10136000E022116107E04FF0E021096921F004015A
:101370004FF0E0221161704770B5002417480068F3
:10138000401C1649086024E0FFF794F8054604EB7A
:101390004400134901EB80004068A8B104EB44000D
:1013A00001EB800040680A3804EB44010C4A02EB70
:1013B0008101486004EB4400114601EB8000406865
:1013C00010B92046FFF7D0FD2846FFF777F8601CDC
:1013D000C4B2202CD8D3FFF7BDFE70BD480000205A
:1013E0001023002010B51348006840F00100114997
:1013F000086008464068104908400E4948600846A1
:1014000000680E4908400B4908600846006820F44F
:10141000802008600846406820F4FE0048604FF4D1
:101420001F008860FFF71FFF4FF00060044908604D
:1014300010BD0000001002400000FFF8FFFFF6FEA4
:1014400008ED00E010B56FF00400FFF781FF0B48D6
:1014500000680B49B0FBF1F442F2107044434FF0C6
:10146000E020006940F002004FF0E02108610846EA
:101470004461006940F00100086110BD14000020C3
:1014800000127A000124012000F03AFB054643A136
:101490002846FEF7E1FE294641480068FFF718FE9E
:1014A0007BE00120FFF776F9012806D002281ED044
:1014B000032836D004284AD145E03A480068401C49
:1014C000384908604CB938A12846FEF7C5FE2946C0
:1014D00033480068FFF7FCFD08E030A12846FEF71E
:1014E000BBFE29462E480068FFF7F2FD30E02D488C
:1014F0000068401E2B4908604CB92BA12846FEF716
:10150000ABFE294626480068FFF7E2FD08E023A16C
:101510002846FEF7A1FE294621480068FFF7D8FDBE
:1015200016E02CB901241DA12846FEF795FE04E023
:1015300000241DA12846FEF78FFE294618480068A2
:10154000FFF7C6FD04E001201849086000E000BF75
:1015500000BF144800680A2190FBF1F030301449B4
:101560004870104800680A2190FBF1F201FB12005C
:1015700030300F4988700B480068602803DB60201A
:101580000849086006E007480068032802DC0320D9
:10159000044908601E20FFF7F1FC82E77A00000092
:1015A000000000200400002073000000080000205C
:1015B0000C00002008B5FFF7F9FD002409E0C4EB9A
:1015C00004111431C8B222460021FFF791FB601CC0
:1015D000C4B2052CF3DD00240AE0A11DCAB2C4EB9D
:1015E0000411891CC8B20221FFF782FB601CC4B23F
:1015F000022CF2DDFFF7E8FD60E0FFF7D7FD0020E9
:1016000080230822302100900620FFF7C0FA022331
:101610002BA206210520FFF795FB02232AA2042115
:101620000520FFF78FFB022329480621026832209C
:10163000FFF7FEFBFFF7C8FD0122002125480068E7
:10164000FFF7EAFC0546FFF7B1FD2878732815D1AE
:10165000032410E0A11DCAB2C4EB0411891CC8B256
:101660000221FFF745FB73201B49087001201B492D
:101670000860601CC4B2042CECDD12E003240EE010
:1016800004F10801CAB2C4EB0411891CC8B20221DA
:10169000FFF72EFB7A2010490870601CC4B2042C9E
:1016A000EEDDFFF791FD0E48006808B9012000E06B
:1016B00000200B4908603220FFF760FC9DE7000026
:1016C00070776D3A0000000073656E643A000000A8
:1016D00004000020000000200C0000200800002072
:1016E000A001214224E0FFF761FD124800680128B3
:1016F00011D10A2210491148FFF7C8F900BFFEF7BF
:1017000019FF0028FBD10B49086002230B4A042172
:101710003220FFF717FBFFF757FD0948006808B9AB
:10172000012000E00020064908606420FFF726FC45
:10173000D9E7000008000020081000200C0000205D
:10174000888122422DE9F04107460E46154634466F
:1017500024F007044FF08071201F04460160201F11
:10176000044607602949201F044601604FF01231EA
:10177000201F044601604FF00331201F0446016022
:101780004FF00231201F044601604910201F04461B
:1017900001600021201F044601604FF01131201F1D
:1017A000044601604FF01031201F044601604FF0E5
:1017B0000931201F044601604FF00831201F044604
:1017C00001604FF00731201F044601604FF00631E1
:1017D000201F044601604FF00531201F04460160C0
:1017E0004FF00431201F0446016005EB4500084915
:1017F00041F82040002005EB4501054A02EB81013C
:1018000048602846FFF7B0FBBDE8F08115180008D6
:101810001023002000BFFEE710B540F225511D48FF
:1018200000F03EF810B31B4800F064F8C4B21A4848
:10183000008800F40040C8B91748008800F48040D0
:1018400060B10A2C03D000201349088020E0124820
:10185000008840F400401049088019E00D2C06D1A2
:101860000D48008840F480400B49088010E00A4889
:101870000088C0F30D0009490C5407480088401C3B
:101880000549088008460088C72801DD0020088037
:1018900010BD00000038014030000020482000202A
:1018A00070B50246002400230025002040F66A1689
:1018B000B14200D100BFC1F3421501F01F03012660
:1018C00006FA03F3012D02D19689334006E0022D7A
:1018D00002D1168A334001E0968A33400C12012669
:1018E00006FA04F41688344013B10CB1012000E06C
:1018F000002070BD01468888C0F30800704700BF13
:10190000FEE710B50446FEF7F3FE782000F01AF863
:10191000002000F017F8204600F014F8FEF702FF50
:1019200010BD10B50446FEF7E3FE782000F00AF87B
:10193000402000F007F8204600F004F8FEF7F2FE21
:1019400010BD0000002115E000F080021AB1012254
:101950000F4B1A6002E000220D4B1A6001220C4B63
:1019600008331A6000220B4BC3F8BC214206100E4C
:101970004A1CD1B20829E7DB0122054B1A60054B4E
:10198000C3F8BC210022024B08331A6070470000E4
:10199000B481214200802142014600BF70474FF4CC
:1019A000C87005E0642100E0491E0029FCDC401EEF
:1019B0000028F7DC7047000010B56FF00400FFF757
:1019C000C7FC0A4800680A49B0FBF1F009490870F1
:1019D0000846007800EB4001C1EBC0104FF6FF71E4
:1019E00001EAC0000449088010BD00001400002076
:1019F00000127A00280000202A0000200146114A27
:101A000012884A434FF0E0235A6100229A611A4635
:101A1000126942F001021A6100BF4FF0E022106922
:101A200000F001021AB100F48032002AF5D04FF024
:101A3000E022126922F001024FF0E0231A61002235
:101A40009A6170472A00002010B500F043F8FFF7B4
:101A5000B3FF4FF4A060FFF78BF8FEF707FFFEF728
:101A600079FEFEF729FEFFF7D5F8FFF78BF8FEF7B2
:101A700041FFFEF727FF0E48FEF7D2FF00220D4977
:101A80000D48FFF75FFE01220C490D48FFF75AFE93
:101A900002220C490C48FFF755FEFF210B48FFF7C7
:101AA000ADFA0B490860FFF79FFB002010BD000056
:101AB0002610002048140020851400084818002033
:101AC000B5150008481C0020E51600084C1C002035
:101AD00000000020002000BF04E00021034A22F89B
:101AE0001010401CB0F5A06FF7D37047904D002048
:101AF00000BF0100A0F10102D0B2FAD1704700008E
:101B000070B50346002500220024DD0803F007001D
:101B100000B16D1C00211CE0104830F8110008B91C
:101B2000521C00E00022954212D1481C811A0C463A
:101B300004E00120094E26F81400641C8818A04215
:101B4000F7D8064E26F81150054800EBC10070BDCD
:101B5000491CB1F5A06FDFD30020F8E7904D0020BD
:101B600090250020841B0008000000204C1000007D
:101B70006C010008502500084C100020A44D000006
:101B8000C80100084102104684A24A04A0090102CB
:101B9000030406070809031C0101100910945332BD
:101BA0001E325210567E4242427E4BFF490142FF96
:101BB000100908CC4A49484ACC181F7F888884827B
:101BC000E01E26121252927F4A7E10244042CC40E0
:101BD0000AFE829292FE929282FE153F10887F1F2B
:101BE0001E1212125E802710104040424458C0401E
:101BF0007F40C050484640402F8080402018072733
:101C00001A40013278380B22322AA6A26221110929
:101C100081A9180D4222130B42827E02020A12236E
:101C2000E9162030AC6330100A88C8A8998E88A8BD
:101C3000C888380A22672212128040300F4212717F
:101C4000200F1010D0FF9014E4AFA4A4A4AFE404BC
:101C500013040312FF180B894B2A1A0E1A2A4B88F9
:101C600080202A900118091010FF10101116105131
:101C70001760203F10101037030C102040F8E3606D
:101C800060E9102A240137FC22222223222A0201A1
:101C90003C42827F0813020238084044C444444452
:101CA00040602310F0500F103C131014B840300E59
:101CB000014080403F2809F8888C8A898888886D8F
:101CC000411AFF31290142FF092040AA840119C0AD
:101CD000C901111010FCFCC4FC3C1C3C2424262629
:101CE00024243C1C18107F7F101F4F61311F0F01EF
:101CF0003F3F21393D522B10F87A1BF8F8832B080F
:101D000008411B3F3F38181419392020311F0E6C31
:101D10007C10FFFF103034DEFA38F80129E1180C8E
:101D20007F7F0B0D27331C0F43407F81201004FC65
:101D3000FC24FCFC14121EFCF81C161210180F1FB9
:101D40001F117F7F4161391F0F1D31614180180BC9
:101D50001474E4E47434E4C4F4342C1980380C0CA6
:101D60000E0303060C0F43474C484139014BFCFC62
:101D70000869C029844901195E1E26A2BCBCA401C1
:101D8000180ABCBC800C0F037F7F23CB1C243F3F71
:101D9000051A20B81A48012BFEFE0629A02B1F1F8A
:101DA000472A1F1D15242F3F3C3B8084015009E426
:101DB000E4B4949C8C84803960711010E0E0ACBC79
:101DC000F4E4A4B4B4A4B4BCACE4E0101020305CDF
:101DD0004F474E7A3232327A4E4640402F90FE7E46
:101DE0001070F0461BE4F441112743673C1E1F119D
:101DF0003A40FE294C180C282828A8BEFE6838381E
:101E0000282C90113E02027F7F2501437F7FE360F3
:101E100060E910180DFCFC1434E4C4C4643414FCF0
:101E2000FC1E1010781F17180C0603030E1C103F21
:101E30007F70701E90D8CEFEBC9C1811ECE4ACBC38
:101E4000948404020A0A0A4A4A4A7F3F08950A1FF4
:101E50001F02422F1A0702111B147F021116242A97
:101E60007F2A1216626408132326364955225043EE
:101E70000503341C22411C41221C2A15083E08146B
:101E80001A080632081AA0992A080159A416201027
:101E9000080402263E5149453E1C427F400515611B
:101EA000514946162141454B31161814127F101620
:101EB0002745454539163C4A4949301C017109629C
:101EC00016364949493626064949291E4336362AD7
:101ED00056062B0814782A1401297E1314081602BA
:101EE0000151090616324959513E167C1211127CD5
:101EF0003A7F3C163E414141221A7F053A1C12129C
:101F0000411E7F09090901181449497A1A7FA11A4B
:101F10007F421A7F4E1E2040413F0112295B1B7FEA
:101F2000400111167F020C027F3E7F0408107F489B
:101F30003A3E3C1A060C1C51215E0C141929461A13
:101F4000465412311601017F01011A3F35123F1E1E
:101F50001F2040201F0C1A380C1663140814631637
:101F6000070870080719EF234543198B211B552AD1
:101F70000219781A417D16040201020429712240D7
:101F8000290B11162054545478167F484444382E97
:101F900038444444200613487F1A3818121816088B
:101FA0007E0901021D18A4A4A4E425080404781BDA
:101FB000447D3B1D4080847D5F341028441B417F5D
:101FC000121C7C04181E3A7C242948123816FC2462
:101FD0002424181A18053AFC1812081A485412201A
:101FE00016043F444020163C4040207C1A1CC01A76
:101FF0001C0C1430403C2B44284F161CA0A0A07C85
:102000003F4464544C441401011372F84333301CB0
:10201000100C0603912C40C0780319672A04032191
:102020002D7088FC0829261820FF211E14F008F0C6
:1020300033E0184D211C031E11338870000C101E54
:102040002123241927211010160E45E01804021C24
:10205000071820EA3D020418E0692C20180707172A
:102060004080F08040403F0202010F01022842F010
:102070001D0101011F04912B80B066B1191D2901BA
:10208000913A30CE492C146018043C6018061D1E8D
:10209000E010080810721F0F102020100FF05310CE
:1020A000F83620203F20203C700808C21E3028242B
:1020B0002221441E3008888848082E18202020112C
:1020C000CC3BC0203227070424243F241AF82023C5
:1020D00008084B19212036E0108888184B0F111082
:1020E0001E380808C8382021523F1A702E29608FE8
:1020F0001C222121221C90111D31222211901961D4
:10210000CAC0C26A80C659081C402010501701027C
:10211000040810204A4001114A04012119152A40DF
:102120003219251B0402F21B7048D13AF0501A36BE
:102130000F1EC030C828E870280807182724231469
:102140000B6F2A387E280D203C23020227382008F6
:10215000F888889F4B203FF01BC0303F1B08383069
:10216000191019781B08F80F194039201B100F108F
:102170003E8888E8081010AC23201810112A035E4E
:102180002940223829402C221E024019A41809F89F
:1021900008203F21010121252A0852298129424195
:1021A00049112EC08080807F0E2FF888C028180823
:1021B000501C0126382F2940292F29801B20301040
:1021C00012F81AF81413203F190229204B30C0606E
:1021D0001A2074123F4BE010B06B0F10B029D01AC8
:1021E000F0301980220179203F18242438504FC044
:1021F0004C888870C0140C30204B7088C117382070
:102200002121221C3A189F4A188239A049D0112A4C
:102210001F90121F240878881BC838151C07380E19
:1022200060191A1AF8201114033C0714073C0348DC
:1022300014081868808068180820302C03032C309C
:10224000200838C82F5950298F29102F20382621CF
:102250002020681145FE020202257F4040401A0CF2
:10226000E0611C0106380B191D42FE191D527F1A30
:1022700004120211045A80011930D91D391621188F
:102280000819242222223F20AB390F115F3F112071
:1022900020110E21311A0E104B2011104B88F8100E
:1022A0002A10B359401A1F3F2B22130F16F08888AB
:1022B00088181A20D029D1497A21176B94949493C5
:1022C000603960190F4C203F21F354809898793081
:1022D00059121AC02719D1193039311F203F240251
:1022E0002D30212A0812893069D7294B2903190B6F
:1022F000C96079A019BF2B201FDD390F9C80FFA179
:10230000E0191229D03BA0FF0C3950194112208A44
:1023100001C01B3324012A190F3AE0413952290F19
:10232000392349603C103F202C29053F010E30081D
:10233000060170291038080F300C030C300F2C499F
:10234000A14E312E0E31200C29621D818E70183065
:1023500059D1215721302C22213055807C02024452
:102360003F404072FF39083C02027C8F5440403F9E
:10237000A008060101020204040A2BFC01A10317B4
:1023800080C0399F01110515081C3C388AFF011ACD
:10239000EF011E01EFEF07EF0C980CBB03BBBBD79F
:1023A000B7770177B1D72269DB0913784EC0F8FC03
:1023B000FEFE270D12FEFCF0C086091C801DF7F7FB
:1023C000FBFC07081122F0F7F7F1FFFBF8FDFEFD1B
:1023D000F6F7F0FFFEFD804BF0FC7A180AFBFBFBE2
:1023E0007B73777767E7C43808FEFCF8F0E0C080BD
:1023F000010923801808DFDDDDDD5D815D061ADF60
:102400000E3C03EB6D01194A09208069202EFCFC6B
:10241000FCFEF80159101F037FFBFFF1E0010B20C8
:10242000F0F0801EF7F7FBFDFEF1180AFBF7F7FF4F
:10243000F7F9FEFFF0CEABFBF07F198039D129050B
:10244000AAC0D58A0F23100F7F1FCFE7F3FFFFEF3E
:10245000FFEF8F9F8F8F700A01031F3F3F7F3F1F4A
:10246000011AF00139902907199539346824B76F9A
:10247000FFB72797079727B7BFFF0F6F6F0FDFDFF4
:10248000076FAFCF6FFFDF1FC71FEF2FAFA7AF2FB4
:10249000EF806C07070301D14D0F1F3F7F242BFBFB
:1024A000F3B82008FDFD3959591918B6E0F83C3F3A
:1024B0000C7D010103010159806824F7C1FDFEC1B3
:1024C000D5C0D5D5C0FDFFF0F7F7D0DAE2FBE3DAEF
:1024D000DACEFFDBE8F7E8FCDADAC2FAFAFC8011C0
:1024E000000B101C1C1C08103838303030280A80B3
:1024F000C0810103030F0F1FF2680A7F7E7E7E3EBC
:102500003E1E0F03F901170A2B3F0121CE06040CD2
:102510003C7C77812A7FA2380BFEFEFEFCF8F8F0A7
:10252000E0C0801804108010101F18181898989890
:1025300005280FF8C0C834421113023543101001AA
:1025400036052A37052A38052A3905091C1E810057
:0400000508000131BD
:00000001FF
