:020000040800F2
:1000000060070020CD01000801490008AD04000888
:10001000FD48000875020008134C000800000000AD
:100020000000000000000000000000005D49000822
:10003000790200080000000019490008714A000810
:10004000E7010008E7010008E7010008E7010008F0
:10005000E7010008E7010008E7010008E7010008E0
:10006000E7010008E7010008E7010008E7010008D0
:10007000E7010008E7010008E7010008E7010008C0
:10008000E7010008E7010008E7010008E7010008B0
:10009000E7010008E7010008E7010008E7010008A0
:1000A000E7010008E7010008E7010008E701000890
:1000B000E7010008E7010008D54A0008E701000849
:1000C000E7010008E7010008E7010008E701000870
:1000D000E70100082D4B0008E7010008E7010008D0
:1000E000E7010008E7010008E7010008E701000850
:1000F000E7010008E7010008E7010008E701000840
:10010000E7010008E7010008E7010008E70100082F
:10011000E7010008E7010008E7010008E70100081F
:10012000E7010008E7010008E7010008E70100080F
:1001300000F002F800F03AF80AA090E8000C8244BF
:100140008344AAF10107DA4501D100F02FF8AFF29C
:10015000090EBAE80F0013F0010F18BFFB1A43F0A5
:1001600001031847486C0000686C0000103A24BF77
:1001700078C878C1FAD8520724BF30C830C144BF0C
:1001800004680C607047000000230024002500264E
:10019000103A28BF78C1FBD8520728BF30C148BFEA
:1001A0000B6070471FB51FBD10B510BD00F033F8D0
:1001B0001146FFF7F7FF04F09FFD00F051F803B47C
:1001C000FFF7F2FF03BC04F026FD0000094880475A
:1001D00009480047FEE7FEE7FEE7FEE7FEE7FEE729
:1001E000FEE7FEE7FEE7FEE704480549054A064B41
:1001F00070470000754A00083101000860010020C6
:1002000060070020600300206003002070477047F3
:10021000704770477047754600F028F8AE460500F5
:100220006946534620F00700854618B020B5FFF711
:10023000DBFFBDE820404FF000064FF000074FF015
:1002400000084FF0000B21F00701AC46ACE8C009F4
:10025000ACE8C009ACE8C009ACE8C0098D467047FD
:100260000446AFF300802046FFF7A9FF004870471F
:10027000FC00002000BFFEE77047000051B1820083
:10028000A2F1C042126842F001038200A2F1C04212
:10029000136009E08200A2F1C0421268034B1A40C9
:1002A0008300A3F1C0431A6070470000FEFF0F00F7
:1002B000D0E901121143C268114302691143426936
:1002C000114382691143C2691143026A1143426AB0
:1002D0001143826A1143C26A1143026B11430268DF
:1002E0009200A2F1C0421160816808290BD1016817
:1002F0008900A1F1C041096841F04002016889000C
:10030000A1F1C0410A60416B0968426B526841EA41
:100310000211426B926841EA0221426B928941EAE2
:100320000241426B128A41EA0251426B127D41EA5C
:100330000261426B926911430268521C9200A2F161
:10034000C0421160C16AB1F5804F1BD1816B096851
:10035000826B526841EA0211826B926841EA022183
:10036000826B128A41EA0251826B127D41EA02617C
:10037000826B9269114302689200A2F1C042C2F8F6
:10038000041107E06FF0704201688900A1F1C041DB
:10039000C1F8042170472DE9F041024600250026EE
:1003A000002000230024002791F803C00CF00F0563
:1003B00091F803C00CF0100CBCF1000F03D091F8C1
:1003C00002C04CEA050591F800C0BCF1000F31D025
:1003D000146800202BE04FF0010C0CFA00F3B1F888
:1003E00000C00CEA03069E4220D183004FF00F0CA0
:1003F0000CFA03F7BC4305FA03FC4CEA040491F839
:1004000003C0BCF1280F06D14FF0010C0CFA00FC20
:10041000C2F814C00AE091F803C0BCF1480F05D13E
:100420004FF0010C0CFA00FCC2F810C0401C082868
:10043000D1D31460B1F800C0BCF1FF0F34DD5468B3
:1004400000202EE000F1080C4FF0010808FA0CF330
:10045000B1F800C00CEA03069E4221D183004FF0A0
:100460000F0C0CFA03F7BC4305FA03FC4CEA040436
:1004700091F803C0BCF1280F05D100F1080C08FA6F
:100480000CF8C2F8148091F803C0BCF1480F07D1F2
:1004900000F1080C4FF0010808FA0CF8C2F81080BF
:1004A000401C0828CED35460BDE8F08100BFFEE7B1
:1004B00070B504460026174805884088454315480E
:1004C000808846F60401884216D1124880790128B6
:1004D00012D100200F4988712A2048812B20888161
:1004E0000021084603F01CFF01200A4988712B20D7
:1004F00048812A20888103E00021084603F010FF8C
:1005000004F0EAF9002602E003480480761CAE42BB
:10051000FAD370BDEC0000200008006C10B5044652
:10052000002C66D16C498871F02008804FF4A070CF
:1005300048800846808849F2413188420BD066489D
:10054000808846F60401884205D06348808845F2D9
:10055000103188421AD12C205F4908812A20488115
:100560002B2088810846808846F60401884205D001
:100570005948808845F21031884206D14FF4A07066
:10058000554908804FF4F0704880A1E052488088B7
:1005900045F21051884210D14FF430504E49088135
:1005A0004FF4285048814FF42C5088814FF4F0705C
:1005B00008804FF4487048808AE04748808841F6B8
:1005C000631188420DD12C20434908812B2048819A
:1005D0002A2088814FF4F07008804FF448704880DA
:1005E00076E022203C490881202048812120888112
:1005F0006EE00120384988714FF4A0700880F02027
:1006000048800846808849F24131884205D0324806
:10061000808845F21031884207D12C202E4908816C
:100620002A2048812B2088813FE02B48808846F68D
:100630000401884207D12C20274908812B204881BA
:100640002A20888131E02448808845F21051884270
:1006500010D14FF43050204908814FF42850488180
:100660004FF42C5088814FF4487008804FF4F0709C
:1006700048801AE01848808841F6631188420DD1FD
:100680002C20154908812A2048812B2088814FF48D
:10069000487008804FF4F070488006E022200E4930
:1006A000088121204881202088810B48808846F6D7
:1006B0000401884205D00848808845F210318842FC
:1006C00006D14FF4F070044908804FF4A0704880C0
:1006D000002003F0AFFC10BDEC00002030B5034655
:1006E0000C4615465A48808849F24131884205D067
:1006F0005748808845F21031884214D154494889BE
:1007000004F0E4F8181204F0DBF8D8B204F0D8F8DA
:100710004F49888904F0DAF8201204F0D1F8E0B2E9
:1007200004F0CEF88CE04A48808845F210518842A7
:1007300020D14749488904F0C9F8181204F0C0F8DC
:1007400043494989491C88B204F0C0F8D8B204F082
:10075000B7F83F49888904F0B9F8201204F0B0F8DE
:100760003B498989491C88B204F0B0F8E0B204F032
:10077000A7F865E03648808841F66311884228D1A1
:100780003348807920B932480088401EC01A83B2AD
:100790002F49488904F09AF8181204F091F8D8B259
:1007A00004F08EF8181204F08BF8D8B204F088F830
:1007B0002749888904F08AF8201204F081F8E0B211
:1007C00004F07EF8201204F07BF8E0B204F078F830
:1007D00036E01F48808846F6040188421DD11C4837
:1007E0008079012804D11A480088401EC01A83B2BB
:1007F0001749488904F06AF8181204F061F8D8B271
:1008000004F05EF81249888904F060F8201204F0C0
:1008100057F8E0B204F054F812E00D48807901284E
:1008200004D10B480088401EC01A83B20849488989
:10083000194604F05BF806498889214604F056F809
:100840000348008903490880881C058030BD0000EA
:10085000EC000020FE07006C00B59FB001210802EB
:1008600004F05CF801214FF4B47004F067F8012043
:10087000ADF8780010208DF87B0003208DF87A0009
:100880001EA9FE48FFF787FD4CF23370ADF87800E3
:1008900018208DF87B0003208DF87A001EA9F848F7
:1008A000FFF779FD4FF68070ADF8780018208DF8CD
:1008B0007B0003208DF87A001EA9F248FFF76BFD3C
:1008C00041F20100ADF8780018208DF87B0003207C
:1008D0008DF87A001EA9EC48FFF75DFD0120089015
:1008E000002009900F200A9000200B900C900D9092
:1008F0000E90019002900320039000200490059038
:100900000690079006200F90002010901190102064
:1009100012900020139015901490169017904FF499
:1009200080501890002019904FF480401A900020B9
:100930001B9008A81C9001A81D900FA8FFF7B8FCF9
:1009400001210620FFF79AFC322004F089F90020EB
:1009500003F03AFBCD49888008468088FF280ADBEF
:10096000084680884FF6FF71884204D0C7488088C7
:10097000B0F5134F7ED1D32003F0A8FF03F01AFB8C
:10098000C249888003F016FBC049888003F012FB3F
:10099000BE498880084680884FF6FF7101EA002032
:1009A000BA49888003F006FBB84989880843B749EB
:1009B00088800846808849F2413188425AD0BF2059
:1009C00003F084FF03F0F6FAB049888003F0F2FAEE
:1009D000AE49888003F0EEFAAC49888003F0EAFA69
:1009E000AA498880084680884FF6FF7101EA0020F6
:1009F000A649888003F0DEFAA44989880843A34900
:100A000088800846808846F6040188427AD0D4203F
:100A100003F05CFF03F0CEFA9C49888003F0CAFA29
:100A20009A49888003F0C6FA9849888008468088E9
:100A30004FF6FF7101EA00209449888003F0BAFA6A
:100A4000924989880843914988800846808845F200
:100A50001031884256D04FF45A4003F037FF03F06C
:100A6000A9FA8A4988804FF45B4003F02FFF03F016
:100A7000A1FA00E046E085498880084680884FF664
:100A8000FF7101EA0020814988804FF45C4003F047
:100A90001DFF03F08FFA7D49898808437B498880D0
:100AA00008468088B0F5004F02D145F2105088808A
:100AB0007648808845F21051884223D0A12003F067
:100AC00005FF03F077FA7149888003F073FA6F49E4
:100AD0008880084680884FF6FF7101EA00206B4944
:100AE000888003F067FA69498988084367498880E4
:100AF0000846808845F26171884203D141F663104F
:100B0000624988806148808849F2413188427CD1BD
:100B1000CF2003F0DBFE002003F0D2FEC12003F063
:100B2000CFFE302003F0CCFEED2003F0CFFE64209A
:100B300003F0C6FE032003F0C3FE122003F0C0FE44
:100B4000812003F0BDFEE82003F0C0FE852003F005
:100B5000B7FE102003F0B4FE7A2003F0B1FECB20E4
:100B600003F0B4FE392003F0ABFE2C2003F0A8FE06
:100B7000002003F0A5FE342003F0A2FE022003F0C3
:100B80009FFEF72003F0A2FE202003F099FEEA204A
:100B900003F09CFE002003F093FE002003F090FE83
:100BA000C02003F093FE1B2003F08AFEC12003F057
:100BB0008DFE012003F084FEC52003F087FE302067
:100BC00003F07EFE302003F07BFEC72003F07EFEA4
:100BD000B72003F075FE362003F078FE482003F0BE
:100BE0006FFE3A2003F072FE552003F069FEB1203B
:100BF00003F06CFE002003F063FE1A2003F060FE99
:100C0000B62003F063FE0A2000E0A5E003F058FEE2
:100C1000A22003F055FEF22003F058FE002003F05E
:100C20004FFE262003F052FE012003F049FEE02093
:100C300003F04CFE0F2003F043FE2A2003F040FE99
:100C4000282003F03DFE082003F03AFE0E2003F0BA
:100C500037FE082003F034FE542003F031FEA920B3
:100C600003F02EFE432003F02BFE0A2003F028FEA3
:100C70000F2003F025FE00200AE00000000C0140D8
:100C8000001401400018014000200140EC00002049
:100C900003F016FE002003F013FE002003F010FE08
:100CA000002003F00DFEE12003F010FE002003F011
:100CB00007FE152003F004FE172003F001FE0720B5
:100CC00003F0FEFD112003F0FBFD062003F0F8FD0C
:100CD0002B2003F0F5FD562003F0F2FD3C2003F03D
:100CE000EFFD052003F0ECFD102003F0E9FD0F20DF
:100CF00003F0E6FD3F2003F0E3FD3F2003F0E0FDBD
:100D00000F2003F0DDFD2B2003F0E0FD002003F0B9
:100D1000D7FD002003F0D4FD012003F0D1FD3F20DA
:100D200003F0CEFD2A2003F0D1FD002003F0C8FD22
:100D3000002003F0C5FD002003F0C2FDEF2003F00A
:100D4000BFFD112003F0C2FD782003F089FF2920A8
:100D500003F0BCFD03F01DB9FE48808846F604018F
:100D600088427CD1112003F0B1FD142003F078FFFC
:100D7000D02003F0ABFD072003F0A2FD422003F0DA
:100D80009FFD1D2003F09CFDD12003F09FFD00205E
:100D900003F096FD1A2003F093FD092003F090FD67
:100DA000D22003F093FD012003F08AFD222003F0FE
:100DB00087FDC02003F08AFD102003F081FD3B2059
:100DC00003F07EFD002003F07BFD022003F078FDA0
:100DD000112003F075FDC52003F078FD032003F01A
:100DE0006FFDC82003F072FD002003F069FD25208F
:100DF00003F066FD212003F063FD052003F060FD94
:100E0000002003F05DFD0A2003F05AFD652003F089
:100E100057FD252003F054FD772003F051FD5020AD
:100E200003F04EFD0F2003F04BFD002003F048FDC2
:100E3000F82003F04BFD012003F042FDFE2003F0FB
:100E400045FD002003F03CFD022003F039FD202089
:100E500003F03CFD362003F039FD082000E02CE0D3
:100E600003F02EFD3A2003F031FD552003F028FD5C
:100E70002B2003F02BFD002003F022FD002003F0C7
:100E80001FFD012003F01CFD3F2003F019FD2A2067
:100E900003F01CFD002003F013FD002003F010FD03
:100EA000012003F00DFDDF2003F00AFD782003F0A0
:100EB000D7FE292003F00AFD4CE7A648808845F2BA
:100EC0001031884240F07C87ED2003F0FFFC0120C8
:100ED00003F0F6FCFE2003F0F3FCEE2003F0F6FC3A
:100EE000DE2003F0EDFC212003F0EAFCF12003F00A
:100EF000EDFC012003F0E4FCDF2003F0E7FC102010
:100F000003F0DEFCC42003F0E1FC8F2003F0D8FCEA
:100F1000C62003F0DBFC002003F0D2FCE22003F04B
:100F2000CFFCE22003F0CCFCE22003F0C9FCBF20A0
:100F300003F0CCFCAA2003F0C3FCB02003F0C6FCF5
:100F40000D2003F0BDFC002003F0BAFC0D2003F0DF
:100F5000B7FC002003F0B4FC112003F0B1FC00202A
:100F600003F0AEFC192003F0ABFC002003F0A8FC5A
:100F7000212003F0A5FC002003F0A2FC2D2003F0AB
:100F80009FFC002003F09CFC3D2003F099FC002016
:100F900003F096FC5D2003F093FC002003F090FC2E
:100FA0005D2003F08DFC002003F08AFCB12003F0EB
:100FB0008DFC802003F084FC002003F081FC8B205A
:100FC00003F07EFC002003F07BFC962003F078FC0D
:100FD000002003F075FCB22003F078FC002003F041
:100FE0006FFC002003F06CFC022003F069FC002081
:100FF00003F066FC032003F063FC002003F060FCB8
:10100000B32003F063FC002003F05AFC002003F03F
:1010100057FC002003F054FC002003F051FC00209A
:1010200003F04EFC002003F04BFC002003F048FCD2
:10103000002003F045FC002003F042FC002003F0F8
:101040003FFC002003F03CFC002003F039FC0020B2
:1010500003F036FC002003F033FC002003F030FCEA
:10106000002003F02DFC002003F02AFC002003F0F8
:1010700027FC002003F024FC002003F021FC0020CA
:1010800003F01EFC002003F01BFC002003F018FC02
:10109000002003F015FCB42003F018FC8B2003F0B3
:1010A0000FFC002003F00CFC962003F009FC00204C
:1010B00003F006FCA12003F003FC002003F000FC79
:1010C000B52003F003FC022003F0FAFB002003F03C
:1010D000F7FB032003F0F4FB002003F0F1FB0420F6
:1010E00003F0EEFB002003F0EBFBB62003F0EEFB79
:1010F000002003F0E5FB002003F0E2FBB72003F043
:10110000E5FB002003F0DCFB002003F0D9FB3F20CF
:1011100003F0D6FB002003F0D3FB5E2003F0D0FBEE
:10112000002003F0CDFB642003F0CAFB002003F095
:10113000C7FB8C2003F0C4FB002003F0C1FBAC20F4
:1011400003F0BEFB002003F0BBFBDC2003F0B8FB88
:10115000002001E0EC00002003F0B2FB702003F05F
:10116000AFFB002003F0ACFB902003F0A9FB0020B4
:1011700003F0A6FBEB2003F0A3FB002003F0A0FB91
:10118000DC2003F09DFB002003F09AFBB82003F065
:101190009DFB002003F094FB002003F091FB002056
:1011A00003F08EFB002003F08BFB002003F088FB94
:1011B000002003F085FB002003F082FB002003F0F9
:1011C0007FFBBA2003F082FB242003F079FB002090
:1011D00003F076FB002003F073FB002003F070FBAC
:1011E000C12003F073FB202003F06AFB002003F012
:1011F00067FB542003F064FB002003F061FBFF2039
:1012000003F05EFB002003F05BFBC22003F05EFBFB
:101210000A2003F055FB002003F052FB042003F0EA
:101220004FFB002003F04CFBC32003F04FFB3C209E
:1012300003F046FB002003F043FB3A2003F040FBA1
:10124000002003F03DFB392003F03AFB002003F0BF
:1012500037FB372003F034FB002003F031FB3C2048
:1012600003F02EFB002003F02BFB362003F028FBBD
:10127000002003F025FB322003F022FB002003F0C6
:101280001FFB2F2003F01CFB002003F019FB2C2078
:1012900003F016FB002003F013FB292003F010FBE2
:1012A000002003F00DFB262003F00AFB002003F0D2
:1012B00007FB242003F004FB002003F001FB2420A3
:1012C00003F0FEFA002003F0FBFA232003F0F8FA03
:1012D000002003F0F5FA3C2003F0F2FA002003F0BE
:1012E000EFFA362003F0ECFA002003F0E9FA32209E
:1012F00003F0E6FA002003F0E3FA2F2003F0E0FA0F
:10130000002003F0DDFA2C2003F0DAFA002003F0CD
:10131000D7FA292003F0D4FA002003F0D1FA2620CE
:1013200003F0CEFA002003F0CBFA242003F0C8FA31
:10133000002003F0C5FA242003F0C2FA002003F0D5
:10134000BFFA232003F0BCFA002003F0B9FAC4204E
:1013500003F0BCFA622003F0B3FA002003F0B0FA05
:10136000052003F0ADFA002003F0AAFA842003F070
:10137000A7FA002003F0A4FAF02003F0A1FA00205D
:1013800003F09EFA182003F09BFA002003F098FA6D
:10139000A42003F095FA002003F092FA182003F03D
:1013A0008FFA002003F08CFA502003F089FA002015
:1013B00003F086FA0C2003F083FA002003F080FA91
:1013C000172003F07DFA002003F07AFA952003F04D
:1013D00077FA002003F074FAF32003F071FA00208A
:1013E00003F06EFAE62003F06BFA002003F068FACF
:1013F000C52003F06BFA322003F062FA002003F0FC
:101400005FFA442003F05CFA002003F059FA6520EB
:1014100003F056FA002003F053FA762003F050FA56
:10142000002003F04DFA882003F04AFA002003F070
:1014300047FAC62003F04AFA202003F041FA0020C0
:1014400003F03EFA172003F03BFA002003F038FACD
:10145000012003F035FA002003F032FAC72003F030
:1014600035FA002003F02CFA002003F029FA0020BE
:1014700003F026FA002003F023FAC82003F026FA2E
:10148000002003F01DFA002003F01AFA002003F0F8
:1014900017FA002003F014FAC92003F017FA00200D
:1014A00003F00EFA002003F00BFA002003F008FA14
:1014B000002003F005FA002003F002FA002003F0F8
:1014C000FFF9002003F0FCF9002003F0F9F90020F7
:1014D00003F0F6F9002003F0F3F9002003F0F0F92F
:1014E000002003F0EDF9002003F0EAF9002003F0FA
:1014F000E7F9002003F0E4F9002003F0E1F9E0202F
:1015000003F0E4F9162003F0DBF9002003F0D8F92A
:101510001C2003F0D5F9002003F0D2F9212003F0BC
:10152000CFF9002003F0CCF9362003F0C9F90020F0
:1015300003F0C6F9462003F0C3F9002003F0C0F918
:10154000522003F0BDF9002003F0BAF9642003F043
:10155000B7F9002003F0B4F97A2003F0B1F90020C4
:1015600003F0AEF98B2003F0ABF9002003F0A8F9EB
:10157000992003F0A5F9002003F0A2F9A82003F0B8
:101580009FF9002003F09CF9B92003F099F900209D
:1015900003F096F9C42003F093F9002003F090F9CA
:1015A000CA2003F08DF9002003F08AF9D22003F05D
:1015B00087F9002003F084F9D92003F081F9002095
:1015C00003F07EF9E02003F07BF9002003F078F9C6
:1015D000F32003F075F9002003F072F9E12003F025
:1015E00075F9162003F06CF9002003F069F91C204E
:1015F00003F066F9002003F063F9222003F060F99C
:10160000002003F05DF9362003F05AF9002003F0C2
:1016100057F9452003F054F9002003F051F9522006
:1016200003F04EF9002003F04BF9642003F048F971
:10163000002003F045F97A2003F042F9002003F07E
:101640003FF98B2003F03CF9002003F039F9992091
:1016500003F036F9002003F033F9A82003F030F945
:10166000002003F02DF9B92003F02AF9002003F03F
:1016700027F9C42003F024F9002003F021F9CA203F
:1016800003F01EF9002003F01BF9D22003F018F933
:10169000002003F015F9D82003F012F9002003F020
:1016A0000FF9E02003F00CF9002003F009F9F32012
:1016B00003F006F9002003F003F9E22003F006F935
:1016C000052003F0FDF8002003F0FAF80B2003F0EA
:1016D000F7F8002003F0F4F81B2003F0F1F80020E5
:1016E00003F0EEF8342003F0EBF8002003F0E8F804
:1016F000442003F0E5F8002003F0E2F84F2003F067
:10170000DFF8002003F0DCF8612003F0D9F80020B6
:1017100003F0D6F8792003F0D3F8002003F0D0F8D6
:10172000882003F0CDF8002003F0CAF8972003F0DA
:10173000C7F8002003F0C4F8A62003F0C1F8002089
:1017400003F0BEF8B72003F0BBF8002003F0B8F8B0
:10175000C22003F0B5F8002003F0B2F8C72003F070
:10176000AFF8002003F0ACF8D12003F0A9F8002076
:1017700003F0A6F8D62003F0A3F8002003F0A0F8A9
:10178000DD2003F09DF8002003F09AF8F32003F029
:1017900097F8002003F094F8E32003F097F8052071
:1017A00003F08EF8002003F08BF80A2003F088F88D
:1017B000002003F085F81C2003F082F8002003F0DD
:1017C0007FF8332003F07CF8002003F079F8442000
:1017D00003F076F8002003F073F8502003F070F85F
:1017E000002003F06DF8622003F06AF8002003F097
:1017F00067F8782003F064F8002003F061F888208F
:1018000003F05EF8002003F05BF8972003F058F82F
:10181000002003F055F8A62003F052F8002003F052
:101820004FF8B72003F04CF8002003F049F8C2202D
:1018300003F046F8002003F043F8C72003F040F817
:10184000002003F03DF8D12003F03AF8002003F027
:1018500037F8D52003F034F8002003F031F8DD200C
:1018600003F02EF8002003F02BF8F32003F028F803
:10187000002003F025F8E42003F028F8012003F00D
:101880001FF8002003F01CF8012003F019F80020D5
:1018900003F016F8022003F013F8002003F010F80C
:1018A0002A2003F00DF8002003F00AF83C2003F092
:1018B00007F8002003F004F84B2003F001F80020A3
:1018C00002F0FEFF5D2002F0FBFF002002F0F8FFB7
:1018D000742002F0F5FF002002F0F2FF842002F0F5
:1018E000EFFF002002F0ECFF932002F0E9FF002060
:1018F00002F0E6FFA22002F0E3FF002002F0E0FF8A
:10190000B32002F0DDFF002002F0DAFFBE2002F07B
:10191000D7FF002002F0D4FFC42002F0D1FF002046
:1019200002F0CEFFCD2002F0CBFF002002F0C8FF76
:10193000D32002F0C5FF002002F0C2FFDD2002F03C
:10194000BFFF002002F0BCFFF32002F0B9FF00202F
:1019500002F0B6FFE52002F0B9FF002002F0B0FF70
:10196000002002F0ADFF002002F0AAFF002002F0EC
:10197000A7FF022002F0A4FF002002F0A1FF29200F
:1019800002F09EFF002002F09BFF3C2002F098FF37
:10199000002002F095FF4B2002F092FF002002F0A1
:1019A0008FFF5D2002F08CFF002002F089FF742081
:1019B00002F086FF002002F083FF842002F080FF07
:1019C000002002F07DFF932002F07AFF002002F059
:1019D00077FFA22002F074FF002002F071FFB32015
:1019E00002F06EFF002002F06BFFBE2002F068FFE5
:1019F000002002F065FFC42002F062FF002002F028
:101A00005FFFCD2002F05CFF002002F059FFD320E1
:101A100002F056FF002002F053FFDC2002F050FFDE
:101A2000002002F04DFFF32002F04AFF002002F0F8
:101A300047FFE62002F04AFF112002F041FF00209C
:101A400002F03EFF342002F03BFF002002F038FF9E
:101A5000562002F035FF002002F032FF762002F01F
:101A60002FFF002002F02CFF772002F029FF00203A
:101A700002F026FF662002F023FF002002F020FF84
:101A8000882002F01DFF002002F01AFF992002F0CA
:101A900017FF002002F014FFBB2002F011FF00200E
:101AA00002F00EFF992002F00BFF002002F008FF69
:101AB000662002F005FF002002F002FF552002F030
:101AC000FFFE002002F0FCFE552002F0F9FE00208F
:101AD00002F0F6FE452002F0F3FE002002F0F0FED8
:101AE000432002F0EDFE002002F0EAFE442002F066
:101AF000E7FE002002F0E4FEE72002F0E7FE3220DD
:101B000002F0DEFE002002F0DBFE552002F0D8FEDF
:101B1000002002F0D5FE762002F0D2FE002002F076
:101B2000CFFE662002F0CCFE002002F0C9FE672046
:101B300002F0C6FE002002F0C3FE672002F0C0FEE5
:101B4000002002F0BDFE872002F0BAFE002002F065
:101B5000B7FE992002F0B4FE002002F0B1FEBB20D7
:101B600002F0AEFE002002F0ABFE992002F0A8FECB
:101B7000002002F0A5FE772002F0A2FE002002F075
:101B80009FFE442002F09CFE002002F099FE5620A9
:101B900002F096FE002002F093FE232002F090FE59
:101BA000002002F08DFE332002F08AFE002002F0B9
:101BB00087FE452002F084FE002002F081FEE8202E
:101BC00002F084FE002002F07BFE002002F078FE8E
:101BD000992002F075FE002002F072FE872002F0CC
:101BE0006FFE002002F06CFE882002F069FE0020EB
:101BF00002F066FE772002F063FE002002F060FE35
:101C0000662002F05DFE002002F05AFE882002F0FD
:101C100057FE002002F054FEAA2002F051FE0020E0
:101C200002F04EFEBB2002F04BFE002002F048FE08
:101C3000992002F045FE002002F042FE662002F0EC
:101C40003FFE002002F03CFE552002F039FE00204D
:101C500002F036FE552002F033FE002002F030FE86
:101C6000442002F02DFE002002F02AFE442002F063
:101C700027FE002002F024FE552002F021FE002065
:101C800002F01EFEE92002F021FEAA2002F018FE5A
:101C9000002002F015FE002002F012FE002002F0EB
:101CA0000FFE002002F012FEAA2002F009FECF2053
:101CB00002F00CFE002002F003FE002002F000FE05
:101CC000002002F0FDFD002002F0FAFD002002F0ED
:101CD000F7FD002002F0F4FD002002F0F1FD0020ED
:101CE00002F0EEFD002002F0EBFD002002F0E8FD26
:101CF000002002F0E5FD002002F0E2FD002002F0ED
:101D0000DFFD002002F0DCFD002002F0D9FD002004
:101D100002F0D6FD002002F0D3FDF02002F0D6FD47
:101D2000002002F0CDFD502002F0CAFD002002F09C
:101D3000C7FD002002F0C4FD002002F0C1FDF32029
:101D400002F0C4FD002002F0BBFDF92002F0BEFD50
:101D5000062002F0B5FD102002F0B2FD292002F0AD
:101D6000AFFD002002F0ACFD3A2002F0AFFD55209F
:101D700002F0A6FD112002F0A9FD642002F070FF20
:101D8000292002F0A3FD352002F0A0FD002002F082
:101D900097FD512002F09AFDFF2002F091FD5320A3
:101DA00002F094FD2C2002F08BFD552002F08EFDF8
:101DB000822002F085FD2C2002F088FD02F0E9B8B7
:101DC000FE48808845F2105188427DD155214FF45C
:101DD000704002F08BFDAA214FF2010002F086FD57
:101DE00052214FF2020002F081FD08214FF2030060
:101DF00002F07CFD01214FF2040002F077FD0D217D
:101E00004FF4304002F072FD0D214BF2010002F060
:101E10006DFD0D214BF2020002F068FD34214FF4FC
:101E2000364002F063FD34214BF2016002F05EFDAA
:101E300034214BF2026002F059FD0D214FF4314084
:101E400002F054FD0D214BF2011002F04FFD0D2167
:101E50004BF2021002F04AFD34214FF4374002F0F9
:101E600045FD34214BF2017002F040FD34214BF26C
:101E7000027002F03BFD00214FF4324002F036FDCB
:101E800000214BF2012002F031FD00214BF2022033
:101E900002F02CFD24214FF4384002F027FD2421CC
:101EA0004BF6010002F022FD24214BF6020002F065
:101EB0001DFD01214FF43F4002F018FD0F214FF4AA
:101EC000334002F013FD00E0FDE30F214BF201303F
:101ED00002F00CFD0F214BF2023002F007FD34211D
:101EE0004FF4394002F002FD34214BF6011002F0AC
:101EF000FDFC34214BF6021002F0F8FC08214FF4EF
:101F0000354002F0F3FC08214BF2015002F0EEFCE8
:101F100008214BF2025002F0E9FC03214FF4424049
:101F200002F0E4FC24214FF43A4002F0DFFC2421CB
:101F30004BF6012002F0DAFC24214BF6022002F0DD
:101F4000D5FC00214FF43C4002F0D0FC78214BF648
:101F5000014002F0CBFC00214BF6024002F0C6FC2F
:101F600000214FF43D4002F0C1FC78214BF60150B6
:101F700002F0BCFC00214BF6025002F0B7FC00213D
:101F80004FF43E4002F0B2FC64214BF6016002F0D7
:101F9000ADFC00214FF4514002F0A8FC33214DF27A
:101FA000011002F0A3FC00214DF2021002F09EFC91
:101FB00034214DF2031002F099FC00214DF204107F
:101FC00002F094FC3A214DF2051002F08FFC002142
:101FD0004DF2061002F08AFC4A214DF2071002F081
:101FE00085FC00214DF2081002F080FC5C214DF2CE
:101FF000091002F07BFC00214DF20A1002F076FC81
:1020000081214DF20B1002F071FC00214DF20C10F9
:1020100002F06CFCA6214DF20D1002F067FC0021CD
:102020004DF20E1002F062FCE5214DF20F1002F0AD
:102030005DFC01214DF2101002F058FC13214DF20D
:10204000111002F053FC01214DF2121002F04EFC6F
:1020500054214DF2131002F049FC01214DF21410ED
:1020600002F044FC82214DF2151002F03FFC0121E8
:102070004DF2161002F03AFCCA214DF2171002F090
:1020800035FC02214DF2181002F030FC00214DF217
:10209000191002F02BFC02214DF21A1002F026FC5E
:1020A00001214DF21B1002F021FC02214DF21C1007
:1020B00002F01CFC34214DF21D1002F017FC02212D
:1020C0004DF21E1002F012FC67214DF21F1002F0BB
:1020D0000DFC02214DF2201002F008FC84214DF28B
:1020E000211002F003FC02214DF2221002F0FEFB4F
:1020F000A4214DF2231002F0F9FB02214DF224102D
:1021000002F0F4FBB7214DF2251002F0EFFB0221A3
:102110004DF2261002F0EAFBCF214DF2271002F01B
:10212000E5FB02214DF2281002F0E0FBDE214DF22A
:10213000291002F0DBFB02214DF22A1002F0D6FB3F
:10214000F2214DF22B1002F0D1FB02214DF22C10A6
:1021500002F0CCFBFE214DF22D1002F0C7FB032153
:102160004DF22E1002F0C2FB10214DF22F1002F0A2
:10217000BDFB03214DF2301002F0B8FB33214DF2CC
:10218000311002F0B3FB03214DF2321002F0AEFB2E
:102190006D214DF2331002F0A9FB00214FF45240A3
:1021A00002F0A4FB33214DF2012002F09FFB00213D
:1021B0004DF2022002F09AFB342101E0EC000020F5
:1021C0004DF2032002F092FB00214DF2042002F0B8
:1021D0008DFB3A214DF2052002F088FB00214DF2E3
:1021E000062002F083FB4A214DF2072002F07EFB1D
:1021F00000214DF2082002F079FB5C214DF209200C
:1022000002F074FB00214DF20A2002F06FFB8121E5
:102210004DF20B2002F06AFB00214DF20C2002F07F
:1022200065FBA6214DF20D2002F060FB00214DF26E
:102230000E2002F05BFBE5214DF20F2002F056FB71
:1022400001214DF2102002F051FB13214DF211201B
:1022500002F04CFB01214DF2122002F047FB542109
:102260004DF2132002F042FB01214DF2142002F046
:102270003DFB82214DF2152002F038FB01214DF289
:10228000162002F033FBCA214DF2172002F02EFB7C
:1022900002214DF2182002F029FB00214DF21920F5
:1022A00002F024FB02214DF21A2002F01FFB012153
:1022B0004DF21B2002F01AFB02214DF21C2002F00D
:1022C00015FB34214DF21D2002F010FB02214DF2CE
:1022D0001E2002F00BFB67214DF21F2002F006FBCF
:1022E00002214DF2202002F001FB84214DF2212039
:1022F00002F0FCFA02214DF2222002F0F7FAA421AA
:102300004DF2232002F0F2FA02214DF2242002F0D5
:10231000EDFAB7214DF2252002F0E8FA02214DF244
:10232000262002F0E3FACF214DF2272002F0DEFA58
:1023300002214DF2282002F0D9FADE214DF22920A7
:1023400002F0D4FA02214DF22A2002F0CFFAF22153
:102350004DF22B2002F0CAFA02214DF22C2002F09D
:10236000C5FAFE214DF22D2002F0C0FA03214DF2F4
:102370002E2002F0BBFA10214DF22F2002F0B6FA07
:1023800003214DF2302002F0B1FA33214DF2312019
:1023900002F0ACFA03214DF2322002F0A7FA6D21CF
:1023A0004DF2332002F0A2FA00214FF4534002F024
:1023B0009DFA33214DF2013002F098FA00214DF2DE
:1023C000023002F093FA34214DF2033002F08EFA1B
:1023D00000214DF2043002F089FA3A214DF2053025
:1023E00002F084FA00214DF2063002F07FFA4A2111
:1023F0004DF2073002F07AFA00214DF2083002F077
:1024000075FA5C214DF2093002F070FA00214DF2AC
:102410000A3002F06BFA81214DF20B3002F066FABD
:1024200000214DF20C3002F061FAA6214DF20D3080
:1024300002F05CFA00214DF20E3002F057FAE5216D
:102440004DF20F3002F052FA01214DF2103002F03D
:102450004DFA13214DF2113002F048FA01214DF2EC
:10246000123002F043FA54214DF2133002F03EFADA
:1024700001214DF2143002F039FA82214DF215306B
:1024800002F034FA01214DF2163002F02FFACA217F
:102490004DF2173002F02AFA02214DF2183002F004
:1024A00025FA00214DF2193002F020FA02214DF2F6
:1024B0001A3002F01BFA01214DF21B3002F016FA1D
:1024C00002214DF21C3002F011FA34214DF21D3080
:1024D00002F00CFA02214DF21E3002F007FA6721D9
:1024E0004DF21F3002F002FA02214DF2203002F0CC
:1024F000FDF984214DF2213002F0F8F902214DF26C
:10250000223002F0F3F9A4214DF2233002F0EEF96B
:1025100002214DF2243002F0E9F9B7214DF22530C5
:1025200002F0E4F902214DF2263002F0DFF9CF216A
:102530004DF2273002F0DAF902214DF2283002F094
:10254000D5F9DE214DF2293002F0D0F902214DF209
:102550002A3002F0CBF9F2214DF22B3002F0C6F90D
:1025600002214DF22C3002F0C1F9FE214DF22D3046
:1025700002F0BCF903214DF22E3002F0B7F9102120
:102580004DF22F3002F0B2F903214DF2303002F05B
:10259000ADF933214DF2313002F0A8F903214DF2AB
:1025A000323002F0A3F96D214DF2333002F09EF982
:1025B00000214FF4544002F099F933214DF20140CB
:1025C00002F094F900214DF2024002F08FF934211B
:1025D0004DF2034002F08AF900214DF2044002F06E
:1025E00085F93A214DF2054002F080F900214DF2C3
:1025F000064002F07BF94A214DF2074002F076F9DD
:1026000000214DF2084002F071F95C214DF20940C1
:1026100002F06CF900214DF20A4002F067F98121C5
:102620004DF20B4002F062F900214DF20C4002F035
:102630005DF9A6214DF20D4002F058F900214DF24E
:102640000E4002F053F9E5214DF20F4002F04EF931
:1026500001214DF2104002F049F913214DF21140D1
:1026600002F044F901214DF2124002F03FF95421E9
:102670004DF2134002F03AF901214DF2144002F0FC
:1026800035F982214DF2154002F030F901214DF269
:10269000164002F02BF9CA214DF2174002F026F93C
:1026A00002214DF2184002F021F900214DF21940AB
:1026B00002F01CF902214DF21A4002F017F9012133
:1026C0004DF21B4000E006E302F010F902214DF24A
:1026D0001C4002F00BF934214DF21D4002F006F9C6
:1026E00002214DF21E4002F001F967214DF21F4018
:1026F00002F0FCF802214DF2204002F0F7F88421AC
:102700004DF2214002F0F2F802214DF2224002F097
:10271000EDF8A4214DF2234002F0E8F802214DF239
:10272000244002F0E3F8B7214DF2254002F0DEF834
:1027300002214DF2264002F0D9F8CF214DF2274078
:1027400002F0D4F802214DF2284002F0CFF8DE2149
:102750004DF2294002F0CAF802214DF22A4002F05F
:10276000C5F8F2214DF22B4002F0C0F802214DF2E3
:102770002C4002F0BBF8FE214DF22D4002F0B6F8DD
:1027800003214DF22E4002F0B1F810214DF22F40FE
:1027900002F0ACF803214DF2304002F0A7F83321EB
:1027A0004DF2314002F0A2F803214DF2324002F026
:1027B0009DF86D214DF2334002F098F800214FF45E
:1027C000554002F093F833214DF2015002F08EF89B
:1027D00000214DF2025002F089F834214DF20350ED
:1027E00002F084F800214DF2045002F07FF83A2103
:1027F0004DF2055002F07AF800214DF2065002F039
:1028000075F84A214DF2075002F070F800214DF2A0
:10281000085002F06BF85C214DF2095002F066F8A6
:1028200000214DF20A5002F061F881214DF20B5067
:1028300002F05CF800214DF20C5002F057F8A6218E
:102840004DF20D5002F052F800214DF20E5002F000
:102850004DF8E5214DF20F5002F048F801214DF2FC
:10286000105002F043F813214DF2115002F03EF8DF
:1028700001214DF2125002F039F854214DF213505B
:1028800002F034F801214DF2145002F02FF88221A9
:102890004DF2155002F02AF801214DF2165002F0C7
:1028A00025F8CA214DF2175002F020F802214DF20E
:1028B000185002F01BF800214DF2195002F016F8E2
:1028C00002214DF21A5002F011F801214DF21B5075
:1028D00002F00CF802214DF21C5002F007F83421EE
:1028E0004DF21D5002F002F802214DF21E5001F08F
:1028F000FDFF67214DF21F5001F0F8FF02214DF25C
:10290000205001F0F3FF84214DF2215001F0EEFF41
:1029100002214DF2225001F0E9FFA4214DF2235093
:1029200001F0E4FF02214DF2245001F0DFFFB72156
:102930004DF2255001F0DAFF02214DF2265001F050
:10294000D5FFCF214DF2275001F0D0FF02214DF2EB
:10295000285001F0CBFFDE214DF2295001F0C6FFD7
:1029600002214DF22A5001F0C1FFF2214DF22B500D
:1029700001F0BCFF02214DF22C5001F0B7FFFE2107
:102980004DF22D5001F0B2FF03214DF22E5001F017
:10299000ADFF10214DF22F5001F0A8FF03214DF2A1
:1029A000305001F0A3FF33214DF2315001F09EFF72
:1029B00003214DF2325001F099FF6D214DF2335059
:1029C00001F094FF00214FF4564001F08FFF3321B6
:1029D0004DF2016001F08AFF00214DF2026001F02A
:1029E00085FF34214DF2036001F080FF00214DF29C
:1029F000046001F07BFF3A214DF2056001F076FFA3
:102A000000214DF2066001F071FF4A214DF207608E
:102A100001F06CFF00214DF2086001F067FF5C21BE
:102A20004DF2096001F062FF00214DF20A6001F0F1
:102A30005DFF81214DF20B6001F058FF00214DF246
:102A40000C6001F053FFA6214DF20D6001F04EFF26
:102A500000214DF20E6001F049FFE5214DF20F60BB
:102A600001F044FF01214DF2106001F03FFF1321FE
:102A70004DF2116001F03AFF01214DF2126001F0B8
:102A800035FF54214DF2136001F030FF01214DF26A
:102A9000146001F02BFF82214DF2156001F026FF3A
:102AA00001214DF2166001F021FFCA214DF217609D
:102AB00001F01CFF02214DF2186001F017FF002108
:102AC0004DF2196001F012FF02214DF21A6001F07F
:102AD0000DFF01214DF21B6001F008FF02214DF2B4
:102AE0001C6001F003FF34214DF21D6001F0FEFE79
:102AF00002214DF21E6001F0F9FE67214DF21F60C8
:102B000001F0F4FE02214DF2206001F0EFFE84217D
:102B10004DF2216001F0EAFE02214DF2226001F047
:102B2000E5FEA4214DF2236001F0E0FE02214DF20A
:102B3000246001F0DBFEB7214DF2256001F0D6FEE6
:102B400002214DF2266001F0D1FECF214DF2276027
:102B500001F0CCFE02214DF2286001F0C7FEDE211B
:102B60004DF2296001F0C2FE02214DF22A6001F00F
:102B7000BDFEF2214DF22B6001F0B8FE02214DF2B4
:102B80002C6001F0B3FEFE214DF22D6001F0AEFE8F
:102B900003214DF22E6001F0A9FE10214DF22F60AD
:102BA00001F0A4FE03214DF2306001F09FFE3321BD
:102BB0004DF2316001F09AFE03214DF2326001F0D6
:102BC00095FE6D214DF2336001F090FE55214FF4DA
:102BD000704001F08BFEAA214FF2010001F086FE49
:102BE00052214FF2020001F081FE08214FF2030052
:102BF00001F07CFE00214FF2040001F077FECC21B1
:102C00004FF4314001F072FE00214BF2011001F04F
:102C10006DFE05214FF4364001F068FE70214FF43F
:102C2000374001F063FE70214BF2017001F05EFE4F
:102C300001214FF4384001F059FE03214BF6010009
:102C400001F054FE03214BF6020001F04FFE032178
:102C50004BF6030001F04AFE02214FF43C4001F024
:102C600045FE00214BF6014001F040FE00214BF6ED
:102C7000024001F03BFED0214FF4494001F036FE06
:102C800002214CF6011001F031FE50214CF60210E9
:102C900001F02CFE50214CF6031001F027FE5021CC
:102CA0004CF6041001F022FE00214FF4545001F0C4
:102CB0001DFE55214FF4685001F018FE4FF4885066
:102CC00001F004FE782001F0F1FF4FF4245001F0F0
:102CD000FDFD01F05EB9FE48808849F22531884249
:102CE0007ED147F6F001E52001F000FE4FF480713F
:102CF000012001F0FBFD4FF4E061022001F0F6FD40
:102D000041F23001032001F0F1FD0021042001F027
:102D1000EDFD40F20221082001F0E8FD002109202C
:102D200001F0E4FD00210A2001F0E0FD00210C206B
:102D300001F0DCFD00210D2001F0D8FD00210F2065
:102D400001F0D4FD0021102001F0D0FD0721112059
:102D500001F0CCFD0021122001F0C8FD002113205C
:102D600001F0C4FD0021072001F0C0FD41F2906197
:102D7000102001F0BBFD40F22721112001F0B6FD2B
:102D80009D21122001F0B2FD4FF4C851132001F033
:102D9000ADFD2521292001F0A9FD0D212B2001F0F9
:102DA000A5FD0721302001F0A1FD40F203313120C3
:102DB00001F09CFD0321322001F098FD40F2062134
:102DC000352001F093FD0821362001F08FFD40F2FF
:102DD0000641372001F08AFD4FF44171382000E0B0
:102DE00057E001F083FD0721392001F07FFD40F21B
:102DF00002613C2001F07AFD08213D2001F076FDC2
:102E00000021502001F072FDEF21512001F06EFDF4
:102E10000021522001F06AFD40F23F11532001F0E1
:102E200065FD4FF42741602001F060FD0121612024
:102E300001F05CFD00216A2001F058FD0021802096
:102E400001F054FD0021812001F050FD002182207D
:102E500001F04CFD0021832001F048FD0021842079
:102E600001F044FD0021852001F040FD102190205B
:102E700001F03CFD4FF4C061922001F037FD40F2BB
:102E80003311072001F032FD2221002001F02EFD38
:102E90001FE78F48808849F2283188427ED141F26D
:102EA0008F01EC2001F022FD41F23421EF2001F0EE
:102EB0001DFD4FF48071012001F018FD4FF4E06119
:102EC000022001F013FD41F23001032001F00EFD5C
:102ED0000021042001F00AFD40F20221082001F047
:102EE00005FD0021092001F001FD00210A2001F06B
:102EF000FDFC01210C2001F0F9FC00210D2001F066
:102F0000F5FC00210F2001F0F1FC0021102001F060
:102F1000EDFC0721112001F0E9FC0021122001F055
:102F2000E5FC0021132001F0E1FC0121072001F064
:102F3000DDFC322001F094FE41F29041102001F0BE
:102F4000D5FC40F22721112001F0D0FC322001F005
:102F500087FE8A21122001F0C9FC322001F080FE98
:102F60004FF4D051132001F0C1FC0621292001F0BB
:102F7000BDFC0D212B2001F0B9FC322001F070FEC8
:102F80000021202001F0B2FC0021212001F0AEFC44
:102F9000322001F065FE0021302000E074E001F0F5
:102FA000A5FC40F20461312001F0A0FC40F20531A3
:102FB000322001F09BFC0021352001F097FC40F607
:102FC0000941362001F092FC4FF40171372001F0E5
:102FD0008DFC40F20131382001F088FC40F207718D
:102FE000392001F083FC00213C2001F07FFC40F6F9
:102FF0000A213D2001F07AFC322001F031FE00214F
:10300000502001F073FCEF21512001F06FFC0021F2
:10301000522001F06BFC40F23F11532001F066FC9E
:103020004FF42741602001F061FC0121612001F093
:103030005DFC00216A2001F059FC0021802001F094
:1030400055FC0021812001F051FC0021822001F07B
:103050004DFC0021832001F049FC0021842001F077
:1030600045FC0021852001F041FC1021902001F059
:103070003DFC4FF4C061922001F038FC40F2331166
:10308000072001F033FC24E61148808849F2203102
:1030900088427DD10021084601F028FC4FF4807160
:1030A000012001F023FC4FF4E061022001F01EFC3E
:1030B00041F23001032001F019FC0021042001F04D
:1030C00015FC40F20221082001F010FC002101E073
:1030D000EC000020092001F009FC00210A2001F089
:1030E00005FC01210C2001F001FC00210D2001F064
:1030F000FDFB00210F2001F0F9FB322001F0B0FDB3
:1031000040F20111072001F0F1FB322001F0A8FD8F
:103110004FF48651102001F0E9FB0721112001F046
:10312000E5FB4FF48871122001F0E0FB4FF43061B1
:10313000132001F0DBFB0021292001F0D7FB44F232
:1031400010012B2001F0D2FB0021502001F0CEFB1A
:10315000EF21512001F0CAFB0021522001F0C6FBF3
:1031600040F23F11532001F0C1FB4FF41C5160208D
:1031700001F0BCFB0121612001F0B8FB00216A20B5
:1031800001F0B4FB0021802001F0B0FB002100E041
:1031900031E0812001F0AAFB0021822001F0A6FB92
:1031A0000021832001F0A2FB0021842001F09EFB7E
:1031B0000021852001F09AFB1021902001F096FB60
:1031C0000021922001F092FB0121932001F08EFB5F
:1031D0004FF48871952001F089FB0021972001F0C0
:1031E00085FB0021982001F081FB40F2731107203C
:1031F00001F07CFB6DE5FE48808849F23131884260
:103200007DD141F21401E72001F070FB4FF4807191
:10321000012001F06BFB4FF40071022001F066FB0E
:1032200041F23801032001F061FB40F20221082045
:1032300001F05CFB0021092001F058FB00210A206D
:1032400001F054FB00210C2001F050FB00210D2067
:1032500001F04CFB00210F2001F048FB0021102061
:1032600001F044FB0721112001F040FB0021122056
:1032700001F03CFB0021132001F038FBC82001F0D5
:10328000EFFC41F29061102001F030FB40F2272169
:10329000112001F02BFB322001F0E2FC0C21122066
:1032A00001F024FB322001F0DBFC4FF4006113201D
:1032B00001F01CFB1121292001F018FB0B212B2010
:1032C00001F014FB322001F0CBFC0021202001F0A2
:1032D0000DFB40F23F11212001F008FB00213020BE
:1032E00001F004FB4FF48371312001F0FFFA00215B
:1032F000322001F0FBFA4FF40171352000E064E068
:1033000001F0F4FA41F20A61362001F0EFFA40F2DE
:103310000771372001F0EAFA4FF48371382001F089
:10332000E5FA40F20771392001F0E0FA40F202417B
:103330003C2001F0DBFA40F60F413D2001F0D6FAC7
:103340000021502001F0D2FAEF21512001F0CEFAF5
:103350000021522001F0CAFA40F23F11532001F03F
:10336000C5FA4FF41C51602001F0C0FA0121612020
:1033700001F0BCFA00216A2001F0B8FA0021802097
:1033800001F0B4FA0021812001F0B0FA002182207E
:1033900001F0ACFA0021832001F0A8FA002184207A
:1033A00001F0A4FA0021852001F0A0FA102190205C
:1033B00001F09CFA4FF4C061922001F097FA40F2BC
:1033C0003311072001F092FA83E48948808845F29E
:1033D000084188427ED14FF48071012001F086FAC5
:1033E0004FF4E061022001F081FA41F23001032044
:1033F00001F07CFA0021042001F078FA40F2072164
:10340000082001F073FA0021092001F06FFA002171
:103410000A2001F06BFA00210C2001F067FA00216C
:103420000D2001F063FA00210F2001F05FFA142053
:1034300001F016FC41F2B061102001F057FA0121B1
:10344000112001F053FA0121172001F04FFA4FF437
:103450009C71122001F04AFA4FF40061132001F030
:1034600045FA0921292001F041FA09212A2001F019
:103470003DFA0021A42001F039FA0021502001F08A
:1034800035FAEF21512001F031FA0021522001F0EC
:103490002DFA40F23F11532001F028FA4FF41C514D
:1034A000602001F023FA0121612001F01FFA0021C0
:1034B0006A2001F01BFA0021802001F017FA002198
:1034C000812001F013FA0021822001F00FFA00217F
:1034D000832000E023E001F009FA0021842001F0BC
:1034E00005FA0021852001F001FA1321902001F056
:1034F000FDF90021922001F0F9F90321932001F058
:10350000F5F94FF48871952001F0F0F940F273114C
:10351000072001F0EBF9322001F0A2FBB8E43448B7
:10352000808841F2055188427ED10021072001F0B8
:10353000DDF9322001F094FB4FF48E71122001F07E
:10354000D5F90121A42001F0D1F90F21082001F0C3
:10355000CDF908210A2001F0C9F908210D2001F058
:10356000C5F940F20771302001F0C0F90721312080
:1035700001F0BCF940F20361322001F0B7F94FF4D9
:10358000E061332001F0B2F940F20221342001F071
:10359000ADF90221352001F0A9F941F60F7136206D
:1035A00001F0A4F940F20771372001F09FF90021E2
:1035B000382001F09BF90021392001F097F940F201
:1035C00007713A2001F092F900213B2001F08EF9B9
:1035D00007213C2001F08AF900213D2001F086F905
:1035E000322001F03DFB0121072001F07FF901E0CD
:1035F000EC0000200121172001F078F9322001F0C1
:103600002FFB4FF4BD51102001F070F940F217214B
:10361000112001F06BF94FF48F71122001F066F95F
:103620004FF47061132000E097E001F05FF9002192
:103630002A2001F05BF90A21292001F057F94FF403
:103640009F71122001F052F90021502001F04EF933
:10365000EF21512001F04AF90021522001F046F9F2
:1036600040F23F11532001F041F94FF41C5160200A
:1036700001F03CF90121612001F038F900216A20B4
:1036800001F034F90021802001F030F9002181207F
:1036900001F02CF90021822001F028F9002183207B
:1036A00001F024F90021842001F020F90021852077
:1036B00001F01CF91321902001F018F94FF440712A
:1036C000922001F013F90521932001F00FF9002158
:1036D000952001F00BF90021972001F007F9002156
:1036E000982001F003F94FF48071012001F0FEF8F9
:1036F0004FF4E061022001F0F9F841F238010320B3
:1037000001F0F4F80021042001F0F0F800210C2071
:1037100001F0ECF800210F2001F0E8F80021202052
:1037200001F0E4F80021212001F0E0F82121072038
:1037300001F0DCF8142001F093FA6121072001F078
:10374000D5F8142001F08CFA40F27311072001F033
:10375000CDF8142001F084FA95E4FE4880884BF2FD
:10376000055188427ED10021084601F0BFF80021B2
:10377000084601F0BBF80021084601F0B7F8002127
:10378000084601F0B3F80121A42001F0AFF814209D
:1037900001F066FA4FF41C51602001F0A7F840F2E6
:1037A0000221082001F0A2F84FF40571302001F049
:1037B0009DF843F21571312001F098F840F2046150
:1037C000322001F093F840F61661332001F08EF8B4
:1037D00042F21121342001F089F84FF4A85135202C
:1037E00001F084F848F20751362001F07FF841F2E9
:1037F0000741372001F07AF841F20341382001F007
:1038000075F82021392001F071F81A21902001F07B
:103810006DF80021102001F069F80721112001F056
:1038200065F80021122001F061F80021132001F059
:103830005DF8142001F014FA4FF4E661102001F055
:1038400055F840F23711112001F050F8142001F022
:1038500007FA4FF4DC71122001F048F8142001F04F
:10386000FFF900E083E04FF47061132001F03EF8AF
:1038700080212A2001F03AF84821292001F036F869
:10388000142001F0EDF94FF48071012001F02EF8C1
:103890004FF4E061022001F029F841F238010320E1
:1038A00001F024F840F20221082001F01FF8002165
:1038B0000A2001F01BF800210C2001F017F800216C
:1038C0000D2001F013F830210E2001F00FF8002137
:1038D000502001F00BF8EF21512001F007F80021F2
:1038E000522001F003F840F23F11532000F0FEFF98
:1038F0004FF41C51602000F0F9FF0121612000F01D
:10390000F5FF00216A2000F0F1FF1121902000F066
:10391000EDFF4FF4C061922000F0E8FF40F2024159
:10392000932000F0E3FF0221942000F0DFFF142039
:1039300001F096F90121072000F0D8FF142001F0D2
:103940008FF96121072000F0D1FF40F273110720A9
:1039500000F0CCFF0021202000F0C8FF0021212032
:1039600000F0C4FF2221002000F0C0FF11E37948DD
:1039700080884CF2055188427ED10021084600F033
:10398000B5FF0021084600F0B1FF142001F068F9EE
:103990000021084600F0AAFF0021084600F0A6FF1B
:1039A0000021084600F0A2FF0021084600F09EFF1B
:1039B0000121A42000F09AFF142001F051F94FF4E6
:1039C0001C51602000F092FF40F60601082000F034
:1039D0008DFF40F20371302000F088FF012131207B
:1039E00000F084FF0421322000F080FF4FF4817149
:1039F000332000F07BFF4FF44071342000F076FF5D
:103A000040F20311352000F071FF1F21362000F035
:103A10006DFF40F20371372000F068FF012138206C
:103A200000F064FF0421392000F060FF1521902090
:103A300000F05CFF4FF48261102000F057FF40F26D
:103A40004721112000F052FF4FF4DE71122000F0E8
:103A50004DFF4FF46061132000F048FF782001F023
:103A6000FFF84FF48071012000F040FF4FF4007127
:103A7000022000F03BFF00E050E041F23001032063
:103A800000F034FF08210A2000F030FF00210C2054
:103A900000F02CFF20210E2000F028FF00210F2035
:103AA00000F024FF0021202000F020FF0021212031
:103AB00000F01CFF3D212A2000F018FF142001F027
:103AC000CFF82D21292000F011FF0021502000F017
:103AD0000DFF4DF2EF01512000F008FF00215220B0
:103AE00000F004FF40F23F11532000F0FFFE0021E0
:103AF000612000F0FBFE00216A2000F0F7FE4FF489
:103B00004071922000F0F2FE0521932000F0EEFEBD
:103B10004FF48071072000F0E9FE3AE20D488088FA
:103B200044F2315188427CD10121002000F0DEFEB8
:103B30000A2001F095F841F22861102000F0D6FE2D
:103B40000E21122000F0D2FE40F63921132000F0A1
:103B5000CDFE01E0EC0000200A2001F081F84021B8
:103B6000112000F0C3FE5021152000F0BFFE0A20F6
:103B700001F076F81E21122000F0B8FE0A2001F0B4
:103B80006FF84FF4B151102000F0B0FE42F6392129
:103B9000132000F0ABFE0A2001F062F84FF48071B0
:103BA000012000F0A3FE4FF44071022000F09EFEC1
:103BB00041F23801032000F099FE40F20221082072
:103BC00000F094FE08210A2000F090FE0021302031
:103BD00000F08CFE40F20241312000F087FE4FF4ED
:103BE0008371322000F082FE40F20351332000F056
:103BF0007DFE4FF48271342000F078FE40F20131F6
:103C0000352000F073FE40F20771362000F06EFEA2
:103C100040F20531372000F069FE4FF40271382080
:103C200000E040E000F062FE40F60B71392000F049
:103C30005DFE0221412000F059FE4FF41C5160202E
:103C400000F054FE0121612000F050FE4FF4047199
:103C5000902000F04BFE4FF48571922000F046FE5C
:103C60000421932000F042FE4FF48071A02000F068
:103C70003DFE0121072000F039FE2121072000F040
:103C800035FE2321072000F031FE3321072000F00C
:103C90002DFE40F23311072000F028FE0021A02065
:103CA00000F024FE75E1C148808844F23551884215
:103CB0007ED13021152000F019FE10219A2000F04D
:103CC00015FE2021112000F011FE43F228411020A2
:103CD00000F00CFE0221122000F008FE41F2380133
:103CE000132000F003FE282000F0BAFF122108463E
:103CF00000F0FCFD282000F0B3FF43F2204110202B
:103D000000F0F4FD43F23801132000F0EFFD4620EF
:103D100000F0A6FF0021302000F0E8FD40F2024153
:103D2000312000F0E3FD40F20731322000F0DEFDEB
:103D30004FF44171332000F0D9FD0421342000F00C
:103D4000D5FD40F20141352000F0D0FD40F2077171
:103D5000362000F0CBFD40F20531372000F0C6FDE3
:103D60004FF4C261382000F0C1FD4FF4C261392028
:103D700000F0BCFD4FF48071012000F0B7FD4FF45E
:103D80004071022000F0B2FD41F23001032000F04A
:103D9000ADFD40F60801082000F0A8FD08210A202A
:103DA00000F0A4FD4FF41C51602000F09FFD00E0E6
:103DB00031E00121612000F099FD4FF49F719020C6
:103DC00000F094FD4FF48071922000F08FFD4FF4CD
:103DD0008071932000F08AFD4FF44051A02000F044
:103DE00085FD1021A32000F081FD0121072000F0B6
:103DF0007DFD2121072000F079FD2321072000F01F
:103E000075FD3321072000F071FD40F233110720CA
:103E100000F06CFDBDE06548808841F66311884282
:103E2000F8D1E22000F052FD1D2000F049FD0220F3
:103E300000F046FD042000F043FD642000F036FF52
:103E4000E02000F043FD012000F03AFD0A2000F0E0
:103E500007FFE02000F03AFD032000F031FD0C20C8
:103E600000F0FEFE012000F031FD0A2000F0F8FE17
:103E7000E62000F02BFD2F2000F022FDFF2000F0B7
:103E80001FFDFF2000F01CFDB02000F01FFD2020D2
:103E900000F016FD002000F013FD032000F010FDDF
:103EA00040F21F3000F00CFD012000F009FD40F24F
:103EB000DF1000F005FD002000F002FDB42000F04E
:103EC00005FD042000F0FCFC40F21F4000F0F8FC6F
:103ED000002000F0F5FC2E2000F0F2FC002000F0A5
:103EE000EFFC002000F0ECFC002000F0E9FC0020DA
:103EF00000F0E6FCB62000F0E9FC022000F0E0FC57
:103F00004FF4037000F0DCFC002000F0D9FC172017
:103F100000F0D6FC152000F0D3FC002000F0D0FC0F
:103F2000002000F0CDFCF02000F0D0FC032000F0D9
:103F3000C7FC292000F0CAFCD02000F0C7FC0020FC
:103F400000F0BEFCBE2000F0C1FC052000F0B8FC73
:103F5000FE2000F0B5FC012000F0B2FC002000F0D3
:103F6000AFFC002000F0ACFC002000F0A9FCB82061
:103F700000F0ACFC032000F0A3FC012000F0A0FC4A
:103F8000BA2000F0A3FC012000F09AFC642000F0AD
:103F900027F80020FCF7C2FA0120054908604FF617
:103FA000FF70FCF785FA1FB000BD0000EC00002098
:103FB0008081214208B5034800880090BDF80000C8
:103FC00008BD00000008006C10B50446204600F053
:103FD0007DFC052000F06AFEFFF7ECFF10BD00003D
:103FE0002DE9F0470446BE2000F070FC052000F0EB
:103FF00067FC204600F01DFF07464FF066320C4B71
:1040000000F02AFF054600F0E7FE1FFA80F9484657
:1040100000F056FC012000F053FCFF2000F050FCA3
:10402000002000F04DFC002000F04AFCBDE8F087C5
:104030006666044070B5044600230026B7488079C0
:1040400001280BD1B548808846F60401884205D086
:10405000B248808841F66311884208D1AF48807920
:10406000F0B9AE48808841F66311884218D1082C17
:1040700015D2DFE804F00406080A0C0E101206241C
:104080000DE007240BE0042409E0052407E00124E7
:1040900005E0002403E0032401E0022400BF00BF88
:1040A0009E48808849F24131884217D09B488088D9
:1040B00046F60401884211D09848808845F21031B4
:1040C00088420BD09548808845F21051884205D02F
:1040D0009248808841F6631188427DD1082C1CD219
:1040E000DFE804F00406090C0F12151800BF14E0F5
:1040F00043F0800311E043F040030EE043F0C003BF
:104100000BE043F0200308E043F0600305E043F0D8
:10411000A00302E043F0E00300BF00BF7F488088B7
:1041200045F21051884202D14FF4585600E036262D
:104130007A48808845F2103188420DD077488088CF
:1041400045F21051884207D07448808841F66311C7
:10415000884201D043F008037048808846F6040185
:10416000884201D143F002031946304600F0BEFBFD
:104170006A48808841F6631188421DD003F0200010
:1041800068B16648008865494988884214DA6348FE
:104190000588408861490880084645800CE05F48F2
:1041A00000885E494988884206DD5C480588408869
:1041B0005A490880084645805848808845F2105181
:1041C000884254D15549488900F080FB002000F016
:1041D00077FB5249498900E078E0491C88B200F039
:1041E00075FB002000F06CFB4C494989891C88B2A2
:1041F00000F06CFB49490988491EC1F30F2000F00B
:104200005FFB46494989C91C88B200F05FFB4349FE
:104210000978491EC8B200F053FB4049888900F074
:1042200055FB002000F04CFB3C498989491C88B2B1
:1042300000F04CFB002000F043FB38498989891CC1
:1042400088B200F043FB35494988491EC1F30F206D
:1042500000F036FB31498989C91C88B200F036FB71
:104260002E498978491EC8B200F02AFB55E02B4937
:10427000488900F02BFB002000F022FB002000F01A
:104280001FFB26490988491EC1F30F2000F018FBC7
:1042900022490978491EC8B200F012FB1F498889DB
:1042A00000F014FB002000F00BFB002000F008FBE6
:1042B0001A494988491EC1F30F2000F001FB174934
:1042C0008978491EC8B200F0FBFA26E0082C1CD2FF
:1042D000DFE804F004070A0D0F12151843F030034D
:1042E00013E043F0100310E043F020030DE000BFA3
:1042F0000BE043F0380308E043F0280305E043F007
:10430000180302E043F0080300BF00BF032643F494
:1043100080531946304600F0E9FA70BDEC000020E9
:1043200010B503460C466748808849F241318842FF
:1043300005D06448808845F21031884214D1614923
:10434000488900F0C3FA181200F0BAFAD8B200F0A7
:10435000B7FA5C49888900F0B9FA201200F0B0FA87
:10436000E0B200F0ADFAABE05648808846F60401B2
:1043700088421DD153488079012804D151480088D2
:10438000401EC01A83B24F49488900F09FFA1812A4
:1043900000F096FAD8B200F093FA4A49888900F002
:1043A00095FA201200F08CFAE0B200F089FA87E06A
:1043B0004448808841F66311884247D1414880795A
:1043C000A8B940480088401EC01A83B23D494889B8
:1043D00000F07CFA002000F073FA002000F070FA80
:1043E000181200F06DFAD8B200F06AFA16E03549FA
:1043F000488900F06BFA181200F062FAD8B200F0A7
:104400005FFA30490988491EC1F30F2000F058FABD
:104410002C490978491EC8B200F052FA2949888906
:1044200000F054FA201200F04BFAE0B200F048FA23
:1044300024494988491EC1F30F2000F041FA21495F
:104440008978491EC8B200F03BFA39E01D488088DF
:1044500045F21051884220D11A49488900F036FAB5
:10446000181200F02DFA17494989491C88B200F04A
:104470002DFAD8B200F024FA1249888900F026FA01
:10448000201200F01DFA0F498989491C88B200F0FA
:104490001DFAE0B200F014FA12E00A48807901280F
:1044A00004D108480088401EC01A83B205494889D3
:1044B000194600F01BFA03498889214600F016FAD4
:1044C00010BD0000EC0000202DE9F84F80460E469C
:1044D00017461C46B3462046E31704EB5373DB1024
:1044E00021464FEAE47C04EB5C7C4FEAEC0CA4EB45
:1044F000CC0CBCF1000F02D04FF0010C01E04FF0EA
:10450000000C6344224604EBD27C4FEA6C0C03FBA4
:104510000CF3DBB20093A7F12000C7B2002556E0F0
:104520000C2C07D107EB47002B4901EB800010F85A
:10453000059013E0102C05D1284800EB071010F867
:1045400005900BE0182C07D107EBC700244901EBBD
:10455000800010F8059001E0BDE8F88F4FF0000AE8
:104560002FE009F0800030B11E48028831464046F5
:10457000FCF7B4F807E00A9828B91B4802883146CE
:104580004046FCF7ABF84FEA49604FEA1069701CEF
:1045900086B216484088B04200DCDDE7A6EB0B008F
:1045A000A0420AD15E4608F101001FFA80F80F48C8
:1045B0000088404500DCCFE706E00AF1010000F08A
:1045C000FF0ABAF1080FCCDB00BF681CC5B2009827
:1045D0008542A5DB00BFBFE7AC550008205A0008A4
:1045E000106000081E00002020000020EC000020C9
:1045F0002DE9FC4F82460F4616461D460197284678
:10460000EA1705EB5272D2102946EB1705EB5373EC
:10461000DB10A5EBC3030BB1012300E000231A4418
:104620006A43D2B200924FF0FF390C2D1DD1002405
:1046300018E0307804EB440101EB0411614A52F8B0
:104640002110097888420BD1707804EB440101EB0A
:10465000041152F821104978884201D1A14603E0A3
:10466000601CC4B2042CE4D341E0102D1DD1002401
:1046700018E0307804EB440101EB0411524A52F87F
:104680002110097888420BD1707804EB440101EBCA
:10469000041152F821104978884201D1A14603E063
:1046A000601CC4B2082CE4D321E0182D1DD10024D5
:1046B00018E0307804EB440101EB0411434A52F84E
:1046C0002110097888420BD1707804EB440101EB8A
:1046D000041152F821104978884201D1A14603E023
:1046E000601CC4B2062CE4D301E0BDE8FC8F09F1E4
:1046F000010000B9F9E700245EE00C2D0AD109EBB6
:10470000490000EB09102F4901EB8000001D10F853
:10471000048018E0102D0AD109EB490000EB0910C4
:10472000294901EB8000001D10F804800BE0182DD2
:1047300009D109EB490000EB0910244901EB800085
:10474000001D10F804804FF0000B2FE008F08000EF
:1047500030B11F48028839465046FBF7BFFF07E0DB
:104760000B9828B91B48028839465046FBF7B6FF1C
:104770004FEA48604FEA1068781C87B216484088B4
:10478000B84200DCB1E70198381AA8420AD1019F6B
:104790000AF101001FFA80FA0F480088504500DC3A
:1047A000A3E706E00BF1010000F0FF0BBBF1080FDF
:1047B000CCDB00BF601CC4B2009884429DDB00BF0C
:1047C00093E700005450000884510008E4530008A7
:1047D0001E00002020000020EC0000202DE9F847FA
:1047E00005460E4690469946DDE9097405F0FF0A34
:1047F00008EB05001FFA80F809EB06001FFA80F9A4
:1048000022E0454502DB5546F01986B24E4500DBF5
:1048100020E020787F280BDD00203B4622463146F1
:1048200000902846FFF7E4FEE81985B2A41C0BE0CF
:104830000020009022783B4631462846FFF744FE90
:1048400005EB670085B2641C20787F2802D02078B1
:104850002028D6DA00BFBDE8F8872DE9F8470446DE
:104860000D4690469946DDE9096704F0FF0A08EB1A
:1048700004001FFA80F809EB05001FFA80F916E022
:10488000444502DB5446A81985B24D4500DB14E0CF
:10489000002000903A78334629462046FFF714FE60
:1048A000304606EBD07104EB61018CB27F1C387886
:1048B0007E2802DC38782028E2DA00BFBDE8F887DD
:1048C00001490880704700000008006C0149088019
:1048D00070470000FE07006C02480089024908800A
:1048E00070470000EC000020FE07006C024A1080B8
:1048F000921C118070470000FE07006C00BFFEE7AD
:104900007047000002490143024A116070470000ED
:104910000000FA050CED00E07047000029B1064ADE
:1049200052690243044B5A6104E0034A52698243CC
:10493000014B5A61704700000010024029B1064A3D
:1049400092690243044B9A6104E0034A92698243EC
:10495000014B9A617047000000100240704710B58B
:1049600000F002F810BD00000CB50020019000908E
:104970003348006840F480303149086000BF304857
:10498000006800F4003000900198401C01900098ED
:1049900018B90198B0F5A06FF1D12948006800F46A
:1049A000003010B10120009001E00020009000983C
:1049B000012843D12348006840F0100021490860D5
:1049C0000846006820F0030008600846006840F0D0
:1049D000020008601A484068194948600846406863
:1049E00048600846406840F4806048600846406877
:1049F00020F47C1048600846406840F4E8104860A5
:104A00000846006840F08070086000BF0C480068ED
:104A100000F000700028F9D00948406820F0030039
:104A2000074948600846406840F00200486000BFFF
:104A30000348406800F00C000828F9D10CBD0000C4
:104A40000010024000200240042808D14FF0E0216D
:104A5000096941F004014FF0E022116107E04FF0D5
:104A6000E021096921F004014FF0E0221161704753
:104A70007047000010B51348006840F0010011496C
:104A8000086008464068104908400E4948600846DA
:104A900000680E4908400B4908600846006820F489
:104AA000802008600846406820F4FE0048604FF40B
:104AB0001F008860FFF753FF4FF000600449086053
:104AC00010BD0000001002400000FFF8FFFFF6FEDE
:104AD00008ED00E010B50121084800F016F858B1C3
:104AE0000121064800F00EF80548006808B90120C9
:104AF00000E000200249086010BD000000080040EE
:104B000094012342CA430282704730B50246002016
:104B100000230024158A05EA0103958905EA0104AA
:104B200013B10CB1012000E0002030BD10B540F2FF
:104B300025511D4800F03EF810B31B4800F064F802
:104B4000C4B21A48008800F40040C8B91748008869
:104B500000F4804060B10A2C03D000201349088083
:104B600020E01248008840F400401049088019E015
:104B70000D2C06D10D48008840F480400B49088078
:104B800010E00A480088C0F30D0009490C5407489A
:104B90000088401C0549088008460088C72801DDB8
:104BA0000020088010BD0000003801401C000020DB
:104BB0002400002070B502460024002300250020B8
:104BC00040F66A16B14200D100BFC1F3421501F0B0
:104BD0001F03012606FA03F3012D02D19689334003
:104BE00006E0022D02D1168A334001E0968A334056
:104BF0000C12012606FA04F41688344013B10CB1E5
:104C0000012000E0002070BD01468888C0F3080044
:104C1000704700BFFEE7014600BF704710B56FF058
:104C20000400FFF711FF0A4800680A49B0FBF1F0E1
:104C3000094908700846007800EB4001C1EBC0103C
:104C40004FF6FF7101EAC0000449088010BD000062
:104C50000000002000127A0014000020160000203E
:104C60000146114A12884A434FF0E0235A6100225C
:104C70009A611A46126942F001021A6100BF4FF0B0
:104C8000E022106900F001021AB100F48032002A1B
:104C9000F5D04FF0E022126922F001024FF0E0233C
:104CA0001A6100229A617047160000200146114ADD
:104CB00012784A434FF0E0235A6100229A611A4663
:104CC000126942F001021A6100BF4FF0E022106940
:104CD00000F001021AB100F48032002AF5D04FF042
:104CE000E022126922F001024FF0E0231A61002253
:104CF0009A617047140000201CB5FFF78FFF4FF436
:104D0000A060FFF7FFFDFBF7A7FD4FF478401D49BA
:104D100008804FF6FF70FBF7CBFB31E01AA018219B
:104D20000B46D222CDE9001028211E20FFF795FD69
:104D30001AA010210B46C822CDE9001046211E20E2
:104D4000FFF78BFD18A010210B46C822CDE90010FB
:104D50005A211E20FFF742FD18A018210B46C82239
:104D6000CDE900106E215020FFF738FD17A00C216F
:104D70000B46C822CDE9001096211E20FFF76DFDDD
:104D8000CCE700001E00002053544D333246313032
:104D9000335A455436205E5F5E0000005446544C42
:104DA0004344205445535400B9F0C1D6B5E7D7D396
:104DB000BFC6BCBCB4F3D1A700000000B4B4D0C2DD
:104DC000D1A7D4BA20B7E7F3DD0000003230313686
:104DD0002F382F31330000004FEA1153A3F58063C1
:104DE000D3F11E03A8BFD3F1200C08DB4FF0004223
:104DF00042EAC12252EA505232FA03F070470942A5
:104E00000BD4102BC4BF0020704703F5787CBCF195
:104E1000FF3F05D04FF0FF3070474FF00000704764
:104E200070B500F0C3F800BF49922480002070479D
:104E3000F0E7B0FA80F310FA03F10AD0C3F11D03D2
:104E400003F580634FEA41504FEA035202EBD12150
:104E500070474FF000007047DFF848C170B51CEA9A
:104E6000111E1EBF1CEA13159EEA0C0F95EA0C0FCB
:104E700000F06F8081EA030423EA4C134EEAD47EEB
:104E800021EA4C1141F4801143F48013AE44A1FB9C
:104E9000024CA0FB0365AEF17F7E361955EB0C0585
:104EA000A1FB034C4CF10003A0FB021C16EB0C060B
:104EB000654153F10003094218BF46F0010613F49F
:104EC000007F0BD14FEA03314FEA0530340341EA4A
:104ED000155140EA16506FF003020AE04FEAC32171
:104EE0004FEAC520F40241EA555140EA56506FF0AE
:104EF000020202EB2E4201EB025585EACE710AD086
:104F00005FEA440C18BF24F0004450F1000041F166
:104F1000000120EAD47040F2FE7C624500D270BDF0
:104F2000A84214BF4FF080444FF04044002E08BF09
:104F30000024BEF1806FA8BFA1F1C041BDE8704060
:104F400080F282804FF0000001F1C04101F0004189
:104F500070479EEA0C0F0CEA131518BF95EA0C0F68
:104F600006D04FF0000081EA030E0EF0004170BD44
:104F700000F01CF88900013E00F007B800F009B805
:104F80004FEA430C5FEA5C5C08D081EA030100F061
:104F90005BB84FEA410C5FEA5C5CF6D14FF0000071
:104FA000014970470000FF070000F87F0EF1020E74
:104FB0002EF0030E5EF8046B364205D4012A43EB53
:104FC000030515F5001F12D8012841EB010C1CF553
:104FD000001F0CD80ED14FEAD17C15F5001F0CEB49
:104FE0004C0C0CF1020C08BF4CEBD37C04E04FF0EE
:104FF000080C01E04FEAD37C0CEB4C0526FA05F6D1
:1050000006F00706B6F1040C06D20EEB860CBDE8DE
:1050100070404CF0010C6047DFE80CF0090B020215
:105020004FF000414FF00000A1F5002170BD19467E
:105030001046012851EB010418BFD4F5001484BFB9
:10504000002001F0004170BD0808A0F500114FEAF2
:1050500031017047A86D00080010401047F0401063
:1050600040107FF042104210421042100010000029
:105070000000000000000000000000000000000030
:105080000000000000000000000000000000000020
:105090000000000000000000000000000000000010
:1050A000946D000800100FA0088008A00890F880F8
:1050B00048A0489048804FA0401000000000000029
:1050C00000000000000000000000000000000000E0
:1050D00000000000000000000000000000000000D0
:1050E000000000000000000000000000706D0008DB
:1050F00000107FE040105F205540751055F05500BE
:1051000055405F204010000000000000000000003B
:10511000000000000000000000000000000000008F
:10512000000000000000000000000000000000007F
:105130000000000000000000886D0008020002006E
:105140004200421042104FF0520062004200020042
:10515000020000000000000000000000000000004D
:10516000000000000000000000000000000000003F
:10517000000000000000000000000000000000002F
:1051800000000000A06D0008082008C00B00FFFF11
:10519000090008C00202222222222222FEFE22222E
:1051A0002222222202020000000000000000000073
:1051B00000000000000000000000000000000000EF
:1051C00000000000000000000000000000000000DF
:1051D0008C6D0008082008C00B00FFFF090008883C
:1051E0000010082008C00B00FFFF0B0008C00820BB
:1051F0000810000000000000000000000000000097
:10520000000000000000000000000000000000009E
:10521000000000000000000000000000986D000881
:10522000000000001FF81110111011101110FFFEE6
:1052300011111111111111111FF90001000F0000BE
:10524000000000000000000000000000000000005E
:10525000000000000000000000000000000000004E
:105260000000000000000000886D000801004100FF
:105270004100410041004102410147FE4500490013
:105280005100610041000100010000000000000029
:10529000000000000000000000000000000000000E
:1052A00000000000000000000000000000000000FE
:1052B00000000000846D00082410246025807FFF1A
:1052C000C500448000204420332000200020FFFF40
:1052D000004000400040000000000000000000000E
:1052E00000000000000000000000000000000000BE
:1052F00000000000000000000000000000000000AE
:105300007C6D0008082008220841FFFE0880090182
:105310001001110211C21134FF0811141162118120
:10532000100100000000000000000000000000006C
:10533000000000000000000000000000000000006D
:10534000000000000000000000000000A46D000844
:1053500004010401040204040408043004C0FF0032
:1053600004C0043004080404040204010401000021
:10537000000000000000000000000000000000002D
:10538000000000000000000000000000000000001D
:1053900000000000000000006C6D000802200C20DE
:1053A00088206920092009228921697E096009A0D5
:1053B00019202820C8200A200C200000000000002E
:1053C00000000000000000000000000000000000DD
:1053D00000000000000000000000000000000000CD
:1053E00000000000746D00080000000010000020A4
:1053F0000000C000017FF806400C384004704104F2
:10540000104184084184087F0406400407007C00A2
:10541000000800000002008003FF000000040000FC
:10542000040000063FFFFC3FFFF800000000000002
:10543000806D00080000000020080424100424608F
:105440000725C805E4843424061C3FFC04640007D7
:10545000A5000424C2042C640024080020700FFF5F
:10546000C0082000082000082000083FFE103FFC74
:105470001020000020000000000000006C6D0008FB
:1054800000000000010000210001E10001010021F5
:1054900021001921000F21000121080121046121AF
:1054A000043D210E1D23FC012500012900033100CC
:1054B0001D31007121002101000141000183000123
:1054C0008100000000000000786D0008000000006E
:1054D00000000000001FFFFC10008010C08013209F
:1054E000C21C19821007040108040F080804483080
:1054F0000449E0044F003448001C4800044FFC04F9
:10550000480404480405080406080404003C00009C
:10551000000000009C6D0008000000000002000078
:10552000040000180FFFE00FFE10080020080040E4
:10553000084080082100081200080C00083E0008FE
:10554000E3000981C00800C00800001FFF800801B7
:10555000E000003800000C00001C0000E600000025
:10556000906D0008000000008000010200020A00A7
:105570000C12403832402872402FD2400992400B22
:105580009244189244089FFE039FF804B24038D218
:10559000406892402812400E12400B1FE008120093
:1055A00008020008060000000000000000000000E3
:1055B0000000000000000000000000003F4000006C
:1055C00000000000000030004000300040000000FB
:1055D00009000BC03D000BC03D00090018C024406D
:1055E0007FE0224031800000180024C01B000D80A5
:1055F0003240018003801C4027401C80074000404F
:10560000100060000000000000000000000000002A
:1056100000001F80204040200000402020401F80CC
:1056200000000000090006001F80060009000000BD
:10563000040004003F80040004000000001000602B
:10564000000000000000000004000400040004004A
:105650000400000000000040000000000000000006
:10566000002001C006003800400000001F802040DC
:10567000204020401F800000000010403FC000403C
:105680000000000018C021402240244018400000C3
:1056900010802040244024401B80000002000D00A8
:1056A00011003FC0014000003C80244024402440C1
:1056B000238000001F8024402440344003800000E9
:1056C0003000200027C03800200000001B8024404C
:1056D000244024401B8000001C0022C022402240A5
:1056E0001F800000000000000840000000000000D3
:1056F0000000000004600000000000000000040042
:105700000A0011002080404009000900090009003A
:105710000900000000004040208011000A00040041
:105720001800200023402400180000001F802040A3
:10573000274029401F400000004007C039000F00EB
:1057400001C0004020403FC0244024401B80000096
:105750001F802040204020403080000020403FC07B
:10576000204020401F80000020403FC024402E40A9
:1057700030C0000020403FC024402E003000000018
:105780000F001080204022403380020020403FC0A4
:10579000040004003FC02040204020403FC0204083
:1057A000204000000060202020203FC0200020007A
:1057B00020403FC024400B0030C0204020403FC06C
:1057C00020400040004000C03FC03C0003C03C00FF
:1057D0003FC0000020403FC00C4023003FC02000DD
:1057E0001F802040204020401F80000020403FC0FC
:1057F00024402400180000001F802140214020E0A8
:105800001FA0000020403FC02440260019C00040D7
:1058100018C0244024402240318000003000204045
:105820003FC020403000000020003F80004000408A
:105830003F80200020003E0001C00700380020000B
:10584000380007C03C0007C038000000204039C0C5
:10585000060039C0204000002000384007C0384012
:1058600020000000304021C02640384020C0000009
:10587000000000007FE04020402000000000700099
:105880000C000380004000000000402040207FE02A
:105890000000000000002000400020000000000088
:1058A0000010001000100010001000100000000098
:1058B000400000000000000000000280054005409C
:1058C00003C0004020003FC00440044003800000AB
:1058D00000000380044004400640000000000380F4
:1058E000044024403FC000400000038005400540C4
:1058F00003400000000004401FC02440244020005A
:10590000000002E0055005500650042020403FC032
:105910000440040003C000400000044027C00040D1
:105920000000000000100010041027E0000000003C
:1059300020403FC00140070004C0044020402040F8
:105940003FC000400040000007C0040007C0040042
:1059500003C00000044007C00440040003C000402E
:10596000000003800440044003800000041007F09E
:1059700004500440038000000000038004400450F1
:1059800007F00010044007C00240040004000000BB
:10599000000006400540054004C00000000004006F
:1059A0001F800440004000000400078000400440C5
:1059B00007C000400400070004C001800600040086
:1059C000060001C0070001C006000000044006C038
:1059D000010006C0044000000410071004E001802C
:1059E000060004000000044005C00640044000001A
:1059F0000000000004007BE04020000000000000E8
:105A00000000FFF000000000000040207BE00400E8
:105A10000000000040008000400020002000400006
:105A20000000000000000000000000000000000076
:105A30000000000000001FCC000C0000000000006F
:105A40000000080030006000080030006000000026
:105A5000022003FC1E20022003FC1E200220000066
:105A600000000E1811043FFF10840C7800000000A5
:105A70000F0010840F3800C00778188400780000E9
:105A800000780F8410C411240E9800E400840008EC
:105A90000800680070000000000000000000000026
:105AA00000000000000007E0181820044002000079
:105AB000000040022004181807E000000000000069
:105AC0000240024001800FF00180024002400000CD
:105AD0000080008000800FF80080008000800000BF
