:020000040800F2
:100000007817002015020008030E000803080008F6
:10001000A50D0008E3060008EF1900080000000025
:10002000000000000000000000000000D5130008E0
:10003000E70600080000000061120008E91400084B
:100040002F0200082F0200082F0200082F020008CC
:100050002F0200082F0200082F0200082F020008BC
:100060002F0200082F0200082F0200082F020008AC
:100070002F0200082F0200082F0200082F0200089C
:100080002F0200082F0200082F0200082F0200088C
:100090002F0200082F0200082F0200082F0200087C
:1000A0002F0200082F0200082F0200082F0200086C
:1000B0002F0200082F020008D11500082F020008A7
:1000C0002F0200082F0200082F0200082F0200084C
:1000D0002F020008BD1700082F0200082F02000899
:1000E0002F0200082F0200082F0200082F0200082C
:1000F0002F0200082F0200082F0200082F0200081C
:100100002F0200082F0200082F0200082F0200080B
:100110002F0200082F0200082F0200082F020008FB
:100120002F0200082F0200082F0200082F020008EB
:1001300000F002F800F05FF80AA090E8000C82449A
:100140008344AAF10107DA4501D100F054F8AFF277
:10015000090EBAE80F0013F0010F18BFFB1A43F0A5
:1001600001031847EC5D00000C5E00000A444FF0EC
:10017000000C10F8013B13F0070408BF10F8014B06
:100180001D1108BF10F8015B641E05D010F8016B4B
:10019000641E01F8016BF9D113F0080F1EBF10F8AF
:1001A000014BAD1C0C1B09D16D1E58BF01F801CBD2
:1001B000FAD505E014F8016B01F8016B6D1EF9D555
:1001C0009142D6D37047000000230024002500266A
:1001D000103A28BF78C1FBD8520728BF30C148BFAA
:1001E0000B607047642900F05780002070471FB5EE
:1001F0001FBD10B510BD00F049FA1146FFF7F7FF1B
:1002000002F064FD00F067FA03B4FFF7F2FF03BCED
:1002100001F0BDFC0948804709480047FEE7FEE7BA
:10022000FEE7FEE7FEE7FEE7FEE7FEE7FEE7FEE7A6
:1002300004480549054A064B70470000ED140008C4
:100240003101000878110020781700207813002071
:1002500078130020704700000FB4044910B503AABA
:10026000029800F0ABF910BC5DF814FB38000020D8
:100270000FB41CB5074B06AA7B446946009005984D
:1002800000F083F90020694600F092F91CBC5DF88B
:1002900014FB0000350300002DE9F0410646002460
:1002A00010687529314616A510D0AFF300800028DC
:1002B00002DA404213A507E031688A0701D512A58A
:1002C00002E0490704D511A5012401E0AFF3008045
:1002D00000210A2206F1240709E0B0FBF2FCB0FB82
:1002E000F2F302FB1C00303078541846491C0028F9
:1002F000F3D123462A463046BDE8F04100F0E7B886
:10030000000000002D0000002B0000002000000075
:100310002DE9F05F894604464FF0000ADFF824B16A
:10032000FB44C0F820A02046E168884700287DD023
:10033000252806D0D4E901219047206A401C20627C
:10034000F1E700255F462046E168884720280646F9
:1003500007DB312E05D2B81910F8200C08B105437F
:10036000F1E7A80701D525F00405C4F81CA0002773
:10037000C4F818A02A2E09D0304601F001FC38B389
:1003800004EB8708303EC8F8186019E059F8041BE0
:10039000204604EB87029161E1688847012F0646F9
:1003A00018D1E069002820DA25F020051DE0D8F8F2
:1003B000180000EB800006EB40003038C8F8180049
:1003C0002046E1688847064601F0DAFB0028EED1B6
:1003D000012F0AD02E2E08D12046E16888477F1CC5
:1003E0000646022F45F02005C4DBA069002803DA89
:1003F000404245F00105A061E80701D025F0100555
:10040000A6B1A6F14100192802D8203645F40065AE
:100410004A463146204625604D46FFF7E3FE60B16F
:10042000012807D0ED1D25F0070000E007E000F1EE
:10043000080978E705F1040975E730467AE7206A8C
:10044000BDE8F09FDA5A000040EA010310B59B07AF
:100450000FD1042A0DD310C808C9121F9C42F8D02E
:1004600020BA19BA884201D9012010BD4FF0FF30DF
:1004700010BD1AB1D30703D0521C07E0002010BDF5
:1004800010F8013B11F8014B1B1B07D110F8013B81
:1004900011F8014B1B1B01D1921EF1D1184610BD62
:1004A00002F0FF0343EA032242EA024200F09AB854
:1004B000704770477047704710B500F0B3F8006898
:1004C00010BD10B5044600F0ADF8046010BD2DE974
:1004D000F0470D4699469246044600F1240801680B
:1004E000880604D5E06921F01001216000E00120B8
:1004F000A84201DD471B00E00027A1697A1902EB41
:100500000900081AA0612078C00602D42046AFF383
:100510000080002608E0D4E901211AF8060090477F
:10052000206A401C761C20624E45F4DB2078C00611
:100530000AD52046AFF3008006E0D4E9012130203F
:100540009047206A401C2062381EA7F10107F4DCA6
:1005500007E0D4E9012118F805009047206A401C03
:100560002062281EA5F10105F3DC2046AFF30080D0
:100570002078000602D50220BDE8F0870120FBE7C5
:1005800001694A1C02610878704700B58FB0CDE957
:1005900001310021059105497944CDE90310114647
:1005A0006846FFF7B5FE0FB000BD0000E5FFFFFF96
:1005B0000A6802F8010B0A6070470000074B70B52B
:1005C0000D467B44FFF7E1FF0446284600F02EF875
:1005D00010B14FF0FF3070BD204670BD7326000093
:1005E0004FF000020429C0F0128010F0030C00F05C
:1005F0002380CCF1040CBCF1020F18BF00F8012BD2
:10060000A8BF20F8022BA1EB0C0100F015B85FEA9F
:10061000C17C24BF00F8012B00F8012B48BF00F873
:10062000012B70470048704718110020007B00F034
:10063000800070474FF0000200B51346944696467E
:10064000203922BFA0E80C50A0E80C50B1F12001E5
:10065000BFF4F7AF090728BFA0E80C5048BF0CC093
:100660005DF804EB890028BF40F8042B08BF7047F1
:1006700048BF20F8022B11F0804F18BF00F8012B63
:100680007047000000487047181100207546FFF7BA
:10069000F9FFAE4605006946534620F0070085463F
:1006A00018B020B5FFF7C4FDBDE820404FF00006AC
:1006B0004FF000074FF000084FF0000B21F007014A
:1006C000AC46ACE8C009ACE8C009ACE8C009ACE88D
:1006D000C0098D4670470446AFF300802046FFF7FF
:1006E00093FD00BFFEE770472DE9F041024600256B
:1006F0000026002000230024002791F803C00CF0FE
:100700000F0591F803C00CF0100CBCF1000F03D0E2
:1007100091F802C04CEA050591F800C0BCF1000F49
:1007200031D0146800202BE04FF0010C0CFA00F3DC
:10073000B1F800C00CEA03069E4220D183004FF0BE
:100740000F0C0CFA03F7BC4305FA03FC4CEA040453
:1007500091F803C0BCF1280F06D14FF0010C0CFA40
:1007600000FCC2F814C00AE091F803C0BCF1480FC5
:1007700005D14FF0010C0CFA00FCC2F810C0401C6F
:100780000828D1D31460B1F800C0BCF1FF0F34DDEC
:10079000546800202EE000F1080C4FF0010808FA20
:1007A0000CF3B1F800C00CEA03069E4221D183008D
:1007B0004FF00F0C0CFA03F7BC4305FA03FC4CEAAC
:1007C000040491F803C0BCF1280F05D100F1080C16
:1007D00008FA0CF8C2F8148091F803C0BCF1480F75
:1007E00007D100F1080C4FF0010808FA0CF8C2F824
:1007F0001080401C0828CED35460BDE8F081016110
:10080000704700BFFEE7000008B50121082000F096
:1008100039FD4FF42040ADF8000010208DF80300A2
:1008200003208DF8020069460448FFF75DFF4FF48E
:1008300020410248FFF7E3FF08BD0000000C014023
:1008400010B50120094908600949C1F8B401042024
:1008500001F022FD0020054908390860042001F05C
:100860001BFD00200249C1F8BC0110BDBC81214222
:100870000080214210B50020084908600849C1F8ED
:10088000B401042001F008FD012004490860044976
:10089000C1F8B401042001F0FFFC10BDBC8121426D
:1008A0000080214210B500200E4908600E48006803
:1008B00020F470400C4908600846006840F440503D
:1008C000086000200949C1F8AC0100F011F80120CE
:1008D0000449086000F00CF800200449C1F8A801A0
:1008E00010BD0000A8812142040C0140008021427B
:1008F00010B5022001F0D0FC10BD000008B50121A8
:10090000082000F0BFFC4FF44060ADF8000010205C
:100910008DF8030003208DF8020069460448FFF7B4
:10092000E3FE4FF440610248FFF769FF08BD000095
:10093000000C014010B500200E4908600E48006808
:1009400020F470400C4908600846006840F44050AC
:10095000086001200949C1F8AC01FFF7C9FF012077
:1009600004490860FFF7C4FF00200449C1F8A8014A
:1009700010BD0000A8812142040C014000802142EA
:1009800070B5054600241648006820F470401449EC
:1009900008600846006840F400400860002614E043
:1009A000002010490860FFF7A3FF01200E49C1F89D
:1009B000A8016006040E0B487C38006808B1601C72
:1009C000C4B2FFF795FF701CC6B2082EE8DB15B95C
:1009D000FFF7B0FF01E0FFF765FF204670BD0000A4
:1009E000040C0140A88121420080214270B50446D8
:1009F0001248006820F470401049086008460068FA
:100A000040F44050086000200D490860002512E0C5
:100A1000E0090B49091D08606006040E0120094920
:100A2000C1F8A801FFF764FF002005490860FFF73F
:100A30005FFF681CC5B2082DEADB70BD040C0140E5
:100A4000A88121420080214210B50E48006820F4A0
:100A500070400C4908600846006840F44050086047
:100A60000120094908600949C1F8A801FFF740FFC2
:100A7000002005490860FFF73BFF00200349C1F84B
:100A8000A80110BD040C0140AC812142008021422C
:100A900010B50E48006820F470400C490860084604
:100AA000006840F440500860002009490860094986
:100AB000C1F8AC01FFF71CFF01200549086005499A
:100AC000C1F8AC01FFF714FF10BD0000040C014099
:100AD000A88121420080214210B5002414480068FA
:100AE00020F47040124908600846006840F4004055
:100AF000086001200F490860FFF7FAFE01200E4947
:100B0000C1F8A801FFF7F4FE07E0601CC4B2FA2C9C
:100B100003DDFFF7BDFF012010BD064880380068E7
:100B20000028F2D10349091F086000BFF4E7000064
:100B3000040C0140AC8121420080214210B501210A
:100B4000084600F09FFBFFF7D9FE80216B2000F0E4
:100B5000D7F8642001F07AFB00216B2000F0D0F878
:100B6000032000F08BF8002000F080F8322000F025
:100B7000AAF80021382000F0C3F800216A2000F014
:100B8000BFF80021232000F0BBF88021372000F0BF
:100B9000B7F8752000F013F80446682C0BD101213A
:100BA0006B2000F0ADF800216C2000F0A9F8322095
:100BB00000F089F801E0012010BD0020FCE770B5CD
:100BC0000446FFF741FFD020FFF710FFFFF784FF37
:100BD0002046FFF70BFFFFF77FFFFFF735FFD12020
:100BE000FFF704FFFFF778FF0020FFF7C9FE054677
:100BF000FFF74EFF284670BD2DE9F04106460F462F
:100C000014461D46FFF720FF002141EA4601C8B205
:100C1000FFF7ECFEFFF760FF20B1FFF739FF01207F
:100C2000BDE8F0813846FFF7E1FEFFF755FFFFF71B
:100C30000BFF012101EB4601C8B2FFF7D7FEFFF71A
:100C40004BFF0DE0012C04D10020FFF799FE287026
:100C500003E00120FFF794FE2870601EC4B26D1CF3
:100C6000002CEFD1FFF714FF0020D9E710B50446A0
:100C7000E006010E1C2000F043F810BD10B504463C
:100C8000E006010E1B2000F03BF810BD70B50446D5
:100C90000025BC2C01DB012510E0622C01DB0225C4
:100CA0000CE02A2C01DB032508E0142C01DB0425D1
:100CB00004E00A2C01DB052500E0062529461A2060
:100CC00000F01EF870BD70B50446B4F57A7F01DD02
:100CD0004FF47A74042C00DA04244FF47A7090FBF9
:100CE000F4F0401EC5B22946192000F009F8054667
:100CF000264604EBD671C1F34F00FFF7C7FF70BD66
:100D000070B505460C46FFF79FFED020FFF76EFE3C
:100D1000FFF7E2FE18B1FFF7BBFE012070BD2846C9
:100D2000FFF764FEFFF7D8FE2046FFF75FFEFFF7F0
:100D3000D3FE18B1FFF7ACFE0120EFE7FFF7A8FEE6
:100D40000020EBE72DE9F04105460E461746984690
:100D5000FFF77AFE002141EA4501C8B2FFF746FEDF
:100D6000FFF7BAFE20B1FFF793FE0120BDE8F08146
:100D70003046FFF73BFEFFF7AFFE00240CE018F80B
:100D80000400FFF733FEFFF7A7FE18B1FFF780FE60
:100D90000120EBE7601CC4B2BC42F0DBFFF778FE39
:100DA0000020E3E700BFFEE708B50121042000F0C2
:100DB00069FA3020ADF8000010208DF80300032000
:100DC0008DF8020069460448FFF78EFC3021024886
:100DD000FFF715FD08BD00000008014010B50446EE
:100DE000002C03DD204602F027F809E0002C04DA8D
:100DF0006442204602F00CF802E0002002F01CF8E9
:100E000010BD704770B5002100230F22C47804B3D1
:100E1000154C246804F4E064C4F5E064210AC1F1CF
:100E20000403CA40447804FA03F18478144021434F
:100E300009010E4C0678A155047804F01F05012421
:100E4000AC4005786D11AD0005F1E025C5F8004115
:100E500009E0047804F01F050124AC40044D067835
:100E6000761145F8264070BD0CED00E000E400E08E
:100E700080E100E002490143024A1160704700002E
:100E80000000FA050CED00E010B5002000F001F8BC
:100E900010BD70B50646002415E004F1B001C8B2DB
:100EA00000F0A7FD002000F0A4FD102000F0A1FD3F
:100EB000002504E0304600F0ACFD681CC5B2802D72
:100EC000F8DB601CC4B2082CE7DB70BD10B54FF432
:100ED000FA7001F0BBF9AE2000F08BFD202000F08D
:100EE00088FD102000F085FDB02000F082FDC820B4
:100EF00000F07FFD002000F07CFD102000F079FD67
:100F0000402000F076FD812000F073FDFF2000F00E
:100F100070FDA12000F06DFDA62000F06AFDA82064
:100F200000F067FD3F2000F064FDA42000F061FDAB
:100F3000D32000F05EFD002000F05BFDD52000F026
:100F400058FDF02000F055FDD92000F052FD222080
:100F500000F04FFDDA2000F04CFD122000F049FDBA
:100F6000DB2000F046FD202000F043FD8D2000F046
:100F700040FD142000F03DFDAF2000F03AFD10BD13
:100F800070B504460D4605F1B001C8B200F031FD60
:100F9000102141EA141000F02CFD04F00F0141F083
:100FA000010000F026FD70BD2DE9F04180460E469F
:100FB000174600247D0131464046FFF7E1FF00BFA0
:100FC00006E00D49485D00F024FD6D1C601CC4B2B4
:100FD000102CF6DB701CC1B24046FFF7D1FF002495
:100FE00006E00549485D00F014FD6D1C601CC4B2AC
:100FF000102CF6DBBDE8F0813E0000202DE9F04723
:101000000646894617469A464FF0000800240025F8
:10101000BAF1010F03D0BAF1020F5ED125E020E052
:10102000785D203800F0FF087E2E04DD002609F1EF
:10103000010000F0FF0949463046FFF7A1FF0024F8
:1010400009E008EB4801264A02EB4101085D00F087
:10105000E0FC601CC4B2062CF3DBB01DC6B2681CF9
:10106000C5B2785D0028DBD137E032E0785D20380A
:1010700000F0FF08782E04DD002609F1010000F0E1
:10108000FF0949463046FFF77BFF002407E004EBE9
:101090000811144A505C00F0BCFC601CC4B2082C5F
:1010A000F5DB09F10100C1B23046FFF769FF00240A
:1010B00008E004EB081108310A4A505C00F0A9FC72
:1010C000601CC4B2082CF4DB06F10800C6B2681C30
:1010D000C5B2785D0028C9D100BF00BFBDE8F08768
:1010E000BE030020E60500202DE9FF47064688469E
:1010F00092469946002700240025524636A16846AC
:10110000FFF7B6F8B9F1010F03D0B9F1020F60D1C2
:1011100026E020E01DF805002038C7B27E2E04DD51
:10112000002608F1010000F0FF0841463046FFF7B5
:1011300027FF002409E007EB4701284A02EB4101A1
:10114000085D00F066FC601CC4B2062CF3DBB01D29
:10115000C6B2681CC5B21DF805000028DAD138E017
:1011600032E01DF805002038C7B2782E04DD0026D5
:1011700008F1010000F0FF0841463046FFF700FF8C
:10118000002407E004EB0711154A505C00F041FC15
:10119000601CC4B2082CF5DB08F10100C1B2304676
:1011A000FFF7EEFE002408E004EB071108310C4ABB
:1011B000505C00F02EFC601CC4B2082CF4DB06F17D
:1011C0000800C6B2681CC5B21DF805000028C8D1C9
:1011D00000BF00BFBDE8FF8725640000BE030020FC
:1011E000E60500202DE9F047054615480168284628
:1011F00003F0E9FE0446124A116A906903F0E6FD25
:1012000080460F4AD169506903F0E0FD81460C49E0
:101210000869214603F0DAFD8246494603F00AFCDC
:101220000746414603F0DAFE06460548C069044910
:1012300008620846C461304603F02CFDBDE8F08723
:10124000F01000200149086070470000F0100020F5
:10125000024B186159619A6170470000F01000203C
:101260007047000029B1064AD2690243044BDA6193
:1012700004E0034AD2698243014BDA6170470000FF
:101280000010024029B1064A92690243044B9A6158
:1012900004E0034A92698243014B9A61704700005F
:1012A0000010024030B500210022002400232D4D03
:1012B0006D6805F00C0121B1042905D0082923D15E
:1012C00005E0294D056022E0274D05601FE0254D12
:1012D0006D6805F47012234D6D6805F480340225A5
:1012E00005EB92421CB9214D554305600BE01D4DA5
:1012F0006D6805F400351DB11C4D5543056002E0D5
:10130000194D5543056002E0174D056000BF00BF51
:10131000144D6D6805F0F0010909154D6B5C056809
:10132000DD4045600F4D6D6805F4E061090A104D20
:101330006B5C4568DD4085600A4D6D6805F4605161
:10134000C90A0B4D6B5C4568DD40C560054D6D6895
:1013500005F44041890B074D6B5CC568B5FBF3F59F
:10136000056130BD0010024000127A0000093D0006
:10137000200000203000002070B50546284603F00C
:10138000C5FC0646FFF75EFF0D4A0E490E48FFF703
:101390005FFF0E480068FFF725FF04460C48006811
:1013A000844201DD0A4804680948006840428442DA
:1013B00002DA0748006844422046FFF70FFD70BD7F
:1013C0003333634166660A42CDCCD4410400002029
:1013D00010100020704710B500F002F810BD00009A
:1013E0000CB50020019000903348006840F4803034
:1013F0003149086000BF3048006800F400300090B8
:101400000198401C0190009818B90198B0F5A06FA0
:10141000F1D12948006800F4003010B1012000909B
:1014200001E0002000900098012843D12348006883
:1014300040F01000214908600846006820F00300D1
:1014400008600846006840F0020008601A484068DA
:10145000194948600846406848600846406840F4BA
:10146000806048600846406820F47C104860084668
:10147000406840F4E81048600846006840F080701A
:10148000086000BF0C48006800F000700028F9D028
:101490000948406820F00300074948600846406852
:1014A00040F00200486000BF0348406800F00C00B4
:1014B0000828F9D10CBD00000010024000200240B5
:1014C000042808D14FF0E021096941F004014FF0F0
:1014D000E022116107E04FF0E021096921F00401E9
:1014E0004FF0E022116170477047000010B51348BB
:1014F000006840F001001149086008464068104942
:1015000008400E494860084600680E4908400B49EB
:1015100008600846006820F480200860084640689B
:1015200020F4FE0048604FF41F008860FFF753FF6F
:101530004FF000600449086010BD00000010024038
:101540000000FFF8FFFFF6FE08ED00E030B589B0BF
:1015500005460C4601210220FFF784FE01210520EB
:10156000FFF790FE8020ADF8200018208DF82300B2
:1015700003208DF8220008A91348FFF7B5F8ADF84D
:101580001850ADF814400020ADF81A00ADF8160060
:1015900005A90E4800F0ACF87020ADF80400012059
:1015A000ADF806000220ADF80C0001A9074800F0D4
:1015B0003DF80821054800F08BF80121034800F0B0
:1015C00018F809B030BD00000008014000040040D8
:1015D00010B50121044800F018F818B101210248A3
:1015E00000F004F810BD000000080040CA43028269
:1015F000704721B1028842F00102028004E00288B3
:101600004FF6FE731A400280704730B50246002044
:1016100000230024158A05EA0103958905EA0104DF
:1016200013B10CB1012000E0002030BD70B50024E2
:1016300000220023058C4FF6EF7635400584028C9E
:101640008388048B48F6FF752C404FF6FF452C40ED
:101650000D884FF6FF7606EA05252C434FF6DF7519
:101660002A400D8906EA05152A434D8806EA051524
:101670002A43154DA84202D0144DA8421DD14FF661
:101680007F752A404D894FF6FF7606EA05152A43F5
:101690004FF6BF752A408D8806EA05152A434FF696
:1016A000FF352B404FF2FF752B408D8906EA8505EB
:1016B0002B43CD8906EA85052B4383800483CD889F
:1016C0000587028470BD0000002C014000340140F9
:1016D0000A460021018B4FF2FF7319404FF6FF734A
:1016E00003EA022319430183704701877047000012
:1016F000002202881D4B98420ED01D4B98420BD001
:10170000B0F1804F08D01B4B984205D01A4B98423D
:1017100002D01A4B984204D14FF68F731A404B886F
:101720001A43174B984207D0164B984204D04FF6F5
:10173000FF431A40CB881A4302808B8883850B882D
:1017400003850A4B98420BD0094B984208D00E4BA8
:10175000984205D00D4B984202D00D4B984201D1D2
:101760000B7A03860123838270470000002C01401E
:10177000003401400004004000080040000C00401C
:1017800000100040001400400040014000440140AF
:101790000048014010B50146C41700EB1474C4F3AF
:1017A0000712C41700EB14742411A0EB0414E3B265
:1017B00002EB820103EB410010BD000010B50024D4
:1017C00040F22551194800F052F870B328E040F279
:1017D0002551164800F04BF8C8B1144800F002F942
:1017E00013490988C1F30D01124A5054104800886A
:1017F000401C0F49088040F225510C4800F01CF8AD
:101800000B480088C72802DD00200949088041F202
:101810009410844204DD002400200549088003E080
:10182000601C80B20400D2D100BF10BD003801405E
:101830003C0000201410002010B50022002340F6C8
:101840006A14A14200D100BF0A1201249440A3B23D
:10185000DC43048010BD21B1828942F400528281B0
:1018600004E082894DF6FF731A408281704770B59B
:101870000246002400230025002040F66A16B142EB
:1018800000D100BFC1F3421501F01F03012606FA83
:1018900003F3012D02D19689334006E0022D02D1D7
:1018A000168A334001E0968A33400C12012606FA6C
:1018B00004F41688344013B10CB1012000E000207C
:1018C00070BDF0B50346002400260025002040F638
:1018D0006A17B94200D100BF1846C1F3421401F0A3
:1018E0001F06012707FA06F5012C01D10C3004E090
:1018F000022C01D1103000E014301AB107682F43D8
:10190000076002E00768AF430760F0BD2DE9F047CC
:1019100086B005460E460024A24600BFA146002719
:10192000B08900B100BF2F462C8A4CF6FF700440EE
:10193000F08804432C82AC894EF6F3100440B08842
:1019400031890843718908430443AC81AC8A4FF65E
:10195000FF400440B0890443AC8201A8FFF7A2FC19
:101960001F48874202D1DDF810A001E0DDF80CA08D
:10197000A88900F4004040B10AEBCA0000EB0A104D
:1019800031684900B0FBF1F807E00AEBCA0000EB50
:101990000A1031688900B0FBF1F86420B8FBF0F060
:1019A00004012009642101FB1089A88900F400408A
:1019B00040B1322000EBC900B0FBF1F000F00700AD
:1019C000044308E0322000EB09106421B0FBF1F081
:1019D00000F00F0004432C8106B0BDE8F087000042
:1019E0000038014001468888C0F30800704700BFF6
:1019F000FEE710B50446FEF723FF782000F01AF842
:101A0000002000F017F8204600F014F8FEF732FF2F
:101A100010BD10B50446FEF713FF782000F00AF859
:101A2000402000F007F8204600F004F8FEF722FFFF
:101A300010BD0000002115E000F080021AB1012263
:101A40000F4B1A6002E000220D4B1A6001220C4B72
:101A500008331A6000220B4BC3F8BC214206100E5B
:101A60004A1CD1B20829E7DB0122054B1A60054B5D
:101A7000C3F8BC210022024B08331A6070470000F3
:101A8000B481214200802142490050EAC12018BFA0
:101A900004204A0D18BF40F0010040F2FF72B2EB83
:101AA000515F08BF40F00200012808BF05207047C1
:101AB0002DE9F0414F1E00EBC7010446D1E90001BA
:101AC00015461E4637F006020DD02A46334602F070
:101AD000ABFC7F1E04EBC703D3E9002302F09CFAA2
:101AE00037F00602F1D1022F25D0042F13D0062F94
:101AF00018BFBDE8F0812A46334602F095FCD4E9D0
:101B00000A2302F089FA2A46334602F08DFCD4E912
:101B1000082302F081FA2A46334602F085FCD4E914
:101B2000062302F079FA2A46334602F07DFCD4E916
:101B3000042302F071FA2A46334602F075FCD4E918
:101B4000022302F069FA2A46334602F06DFCD4E91A
:101B50000023BDE8F04102F05FBA012203F0E5BACC
:101B600002F05ABA002213461046114602F004BB96
:101B7000024A0020110703F0D8BA000001FDFFFF60
:101B800030380A2801D201207047002070470146F2
:101B900000BF70472DE9F04D8D4F21F0004A86B00F
:101BA00005460C46BA452ADBAAEB070028430AD0B3
:101BB0008848824501DC1AD1CDB106B02846BDE87F
:101BC000F04DFFF7CABF844A844B284602F02CFC34
:101BD00007460E46824A834B2846214602F024FCE3
:101BE00006B03A463346BDE8F04D02F015BA012082
:101BF000FEF767FC06B0BDE8F04DFFF7B3BF7A48CB
:101C0000824542DABAF1795F0BDA2846FFF73CFFEA
:101C1000042808BFFFF7ACFF284606B02146BDE800
:101C2000F08D2A460B46104602F0FEFB8346024624
:101C30006E480E460B4606217844FFF739FF5A4698
:101C4000334602F0F1FB804669488A465A463346DD
:101C500004217844FFF72CFF5A46334602F0E4FB98
:101C600000223B4602F0D8F902460B464046514658
:101C700002F082FA2A46234602F0D6FB06B02A4634
:101C80002346BDE8F04D02F0C7B9284624F00041D4
:101C900000223D463B4602F0C5FC4FF0FF3203F008
:101CA00044FA0646024653480F460B46062178443E
:101CB000FFF7FEFE32463B4602F0B6FBCDE90001DF
:101CC0004D4832463B4604217844FFF7F1FE324648
:101CD0003B4602F0A9FB00222B4602F09DF9834609
:101CE00002913046394602F0EFF8804643480D46EF
:101CF000504517DCDDE900015A46029B02F03CFA30
:101D000042462B4602F090FB42462B4602F084F9F5
:101D1000012203F00AFA304A304B02F075FD304AD6
:101D2000304B4CE04FF0000A52460B46404602F062
:101D300073F9CDE9031052462B461046194602F0BE
:101D400073FB32463B4602F06DFCDDE9033202F0E4
:101D500013FA06460F46DDE900015A46029B02F0DF
:101D60000BFA8346009101223046394603F0DDF933
:101D7000194A1A4B02F056FC06460F46012240460D
:101D8000294603F0D2F95A46009B02F04DFB324639
:101D90003B4602F039FD06460F46012250462946D1
:101DA00003F0C3F90E4DDFF858802A46434602F08F
:101DB00039FC32463B4602F035FC2A46434602F0E7
:101DC00031FC002CD8BF81F0004106B0BDE8F08D99
:101DD0000000F03F0000F07F075C143326A6913C22
:101DE000182D4454FB21F93F0000E03FD44100008E
:101DF000EA4100005E410000744100003333EF3FD0
:101E0000FB21E93F2DE9F84F04460D4621F0004043
:101E100000917349814211DC7249884201DC06D18C
:101E20002CB120462946BDE8F84FFFF796BE6E4814
:101E3000002DCCBF6D496E49BDE8F88F6D498142D8
:101E400011DD6D498142D8BF4FF0FF366DDD204670
:101E50002946FFF719FE042808BFFFF789FE204630
:101E60002946BDE8F88F6549654F25F00045814258
:101E700033DD6449814219DD002632464FF080434C
:101E80002046294602F0C8F880468A4601222046AC
:101E9000294603F04AF900223B4602F0B5FC4246CF
:101EA000534602F069F904460D463EE00126002241
:101EB000BA463B462046294602F0AEF880460F4619
:101EC000002253462046294602F09EFC42463B46ED
:101ED00002F052F904460D4627E04B4981421BDDD2
:101EE000DFF828A10226002253462046294602F0A8
:101EF0009BFA00223B4602F08FF880460F460022F4
:101F000053462046294602F07FFC42463B4602F0FB
:101F100033F904460D4608E0032622462B460020EE
:101F20003B4902F029F904460D4622462B4610464D
:101F3000194602F079FA8B46824602460B4602F0B9
:101F400073FA07460246334888460B460621784412
:101F5000FFF7AEFD52465B4602F066FA82462E4817
:101F60008B463A46434605217844FFF7A1FD3A46A1
:101F7000434602F059FA02460B46002E5046594697
:101F80000CDA02F049F822462B4602F04DFA01B075
:101F900022462B46BDE8F04F02F044BB02F03CF86D
:101FA00022462B4602F040FA1C4A7A4402EBC60352
:101FB000D3E9002302F028FC22462B4602F024FC41
:101FC000174A7A4402EBC603D3E9002302F02AFB46
:101FD000009A002AB8BF81F00041BDE8F88F0000E8
:101FE000000010440000F07F182D4454FB21F93FFD
:101FF000FB21F9BF0000DC3F0000203E0000F33F62
:102000000000F03F0000E63F008003400000F83F82
:102010000000F0BF763F0000343F0000D23E0000D9
:102020009A3E00002DE9F04D9446CCF1000423F0D7
:1020300000464CEA0404524F46EAD4749A46884655
:1020400021F00042BC4206D8454240EA050442EA7B
:10205000D474BC4204D9BDE8F04D6246FFF780BDA0
:10206000AAF14055A5F17F6555EA0C040BD0022476
:1020700004EAAA74434DDFF810E144EAD87452EA46
:10208000000B04D00CE0BDE8F04DFFF7BBBE002C08
:1020900014BF012CBDE8F08D022C30D0032C32D0BF
:1020A00056EA0C0B0AD0BE4220D1BA4209D126F022
:1020B000804622F080423346114617E000291ADBA1
:1020C00025E0DFF8C8B0FB44002C04BFDBE90001C9
:1020D000BDE8F08D012C02BFDBE9000181F0004179
:1020E000BDE8F08D022C0AD0032C0CD0BA4212D1DC
:1020F000B8F1000F0BDA23482549BDE8F08D2846DA
:102100002449BDE8F08D28467146BDE8F08D1D4894
:102110002149BDE8F08D921B12153C2AC4BF194815
:102120001D490EDCBAF1000FBEBF12F13C0F0020BA
:10213000014606DB624602F01FF821F00041FFF77E
:1021400061FE002C08BFBDE8F08D012C04BF81F0BA
:102150000041BDE8F08D114A114B022C07D002F06E
:1021600053FB2A46BDE8F04D0A4B02F04DBB02F08E
:102170004BFB2A46BDE8F04D064B02F053BA000077
:102180000000F07F182D4454FB2109C02E3E0000B2
:10219000FB21F9BFFB210940FB21F93F075C143308
:1021A00026A6A13C2DE9F0410446E07800F0C006E7
:1021B000E07800F03F05607800F0010098B1EF1082
:1021C0002846E91705EB5171C910A5EBC101491C5F
:1021D00001F0FF080B48006820B10A484146026838
:1021E0003846904700BF607800F0080030B10548DD
:1021F000406818B1B011034A516888470020BDE813
:10220000F0810000DC10002010B56FF00400FFF733
:1022100057F90A4800680A49B0FBF1F0094908700B
:102220000846007800EB4001C1EBC0104FF6FF718B
:1022300001EAC0000449088010BD00000C00002025
:1022400000127A0034000020360000200146114AB6
:1022500012884A434FF0E0235A6100229A611A46DD
:10226000126942F001021A6100BF4FF0E0221069CA
:1022700000F001021AB100F48032002AF5D04FF0CC
:10228000E022126922F001024FF0E0231A610022DD
:102290009A617047360000200146114A12784A437D
:1022A0004FF0E0235A6100229A611A46126942F007
:1022B00001021A6100BF4FF0E022106900F0010234
:1022C0001AB100F48032002AF5D04FF0E0221269F2
:1022D00022F001024FF0E0231A6100229A61704758
:1022E0003400002038B5044664B120208DF8000089
:1022F00028208DF8010030208DF8020038208DF85C
:10230000030004E0A32204216846FEF7C9F86A46E8
:10231000042140F69E2001F04FFD01F0C7F938BDC1
:102320003EB5044602208DF80000CA208DF8010059
:10233000E3208DF8020009208DF803006A4604218D
:10234000682001F039FDA3208DF8000004F0400062
:1023500048B1C0208DF80100C8208DF80200C220CD
:102360008DF8030006E0A3208DF801008DF802002F
:102370008DF8030004F4C07048B1C4208DF8040047
:10238000CC208DF80500C6208DF8060006E0A320BD
:102390008DF804008DF805008DF80600A3208DF857
:1023A00007008DF808008DF809006A460A2140F6FA
:1023B000A72001F001FD04F0030018B120208DF8E2
:1023C000000002E0D8208DF800006A46012140F6A6
:1023D000B62001F0F1FC04F0200018B1012000F05B
:1023E000ADF802E0002000F0A9F804F4C07008B3D2
:1023F00004F4807060B1B2208DF800008B208DF85D
:102400000100B6208DF802009B208DF803000BE040
:10241000B0208DF8000080208DF80100B4208DF8E8
:10242000020090208DF803006A46042140F6A220A5
:1024300001F0C2FC04F0010020B3F8208DF8000088
:102440006A4601214FF40B6001F0B6FCFA21072027
:1024500000F0FCFA072000F0C3FA012000F0E3FAD4
:10246000642000F0C3FB4FF4FA7000F0D2FBC821E7
:10247000304800F073FA282000F08CFA0A2000F0AF
:102480009CFA08E0D8208DF800006A4601214FF43C
:102490000B6001F091FC04F0020018B1D9208DF816
:1024A000000002E0D8208DF800006A46012140F2C9
:1024B0003D7001F081FC04F0040018B1012000F02F
:1024C00069F802E0002000F065F804F0100018B18F
:1024D0000120FFF707FF02E00020FFF703FF44F0B1
:1024E00008001549488101F0E1F80020124988737D
:1024F00004F0400018B10846807B801D887304F406
:10250000C07020B10C48807B801D0B49887304F09B
:10251000140020B10848807B10300749887304F00C
:10252000030020B10448807B001D0349887300200C
:102530003EBD000009E3CA02DC1000203EB504469F
:102540006CB10EA1D1E900208968CDE9002002918B
:102550006A4609214FF4976001F02EFC3EBD0AA2A5
:10256000D2E900109268CDE9010200916A46092182
:102570004FF4976001F020FCF0E70000B8AAB38D9B
:10258000B4980D355D000000B8AAAAAAB088C3C5EA
:10259000C700000038B5044664B1C0208DF80000C3
:1025A000C2208DF80100C4208DF80200C6208DF8ED
:1025B000030004E08B2204216846FDF771FF6A46A0
:1025C000042140F6982001F0F7FB01F06FF838BDC8
:1025D00010B5C8234FF48062024940F6F63000F08F
:1025E000F9FE10BD085200082DE9F04F8DB00746E6
:1025F000884615469946DDE9166B00240020308098
:102600006B49887B5A4605A900F0B0FF18B1601EDF
:102610000DB0BDE8F08F6648807A00F01400002805
:1026200067D09DF8140000069DF8151040EA01409F
:102630009DF8161040EA01209DF817100843286005
:102640009DF8180000069DF8191040EA01409DF819
:102650001A1040EA01209DF81B10084368609DF89D
:102660001C0000069DF81D1040EA01409DF81E1058
:1026700040EA01209DF81F100843A8609DF8200043
:1026800000069DF8211040EA01409DF8221040EA22
:1026900001209DF823100843E86004F11000C4B243
:1026A000286800140190686800140290A86800145B
:1026B0000390E8680014049001984043029901FBDC
:1026C0000100039901FB0100049901FB010ABAF121
:1026D000706F02DBBAF1885F05DD00F0E7FF0020D4
:1026E0003080401E94E7B6F9000040F480703080DE
:1026F00000BF2F48807A00F0400020B305A9601C7D
:10270000085C095D40EA012000B2A8F8000005A9B4
:10271000E01C095C05AAA01C105C41EA002000B284
:10272000A8F8020005A9601D095C201D105C41EAA3
:10273000002000B2A8F80400A01DC4B2B6F9000041
:1027400040F0080030801A48408900F4C07008B397
:1027500005A9601C085C095D40EA012000B23880D0
:1027600005A9E01C095C05AAA01C105C41EA002038
:1027700000B2788005A9601D095C201D105C41EA4B
:10278000002000B2B880A01DC4B2B6F9000040F02D
:10279000700030800648807A00F0030018B105A967
:1027A0000819FFF7FFFC484600F030FB00202FE738
:1027B000DC10002030B585B0044616A207CA02AB73
:1027C00007C3C82C03DD4FF0FF3005B030BDC82073
:1027D00090FBF4F0401E85B2280A8DF80000E8B2A4
:1027E0008DF801006A46022140F2162001F0E4FA59
:1027F00010B14FF0FF30E8E702AA0C2140F6C120EB
:1028000001F0DAFA10B14FF0FF30DEE704488481BE
:102810000020DAE7FEF2ABC4AAF1DFDFBBAFDFDFF7
:10282000DC10002010B586B0044647A00068039075
:1028300046A00068029046A00068019045A000688C
:10284000009004F0030003A9085C8DF8140003A8AD
:10285000C4F3C101405C8DF8150003A8C4F38111D5
:10286000405C8DF8160004F0030002A9085C8DF8A6
:10287000100002A8C4F3C101405C8DF8110002A849
:10288000C4F38111405C8DF8120005AA032140F2C7
:10289000264001F091FA18B14FF0FF3006B010BD9C
:1028A00004AA032140F22A4001F086FA10B14FF049
:1028B000FF30F3E7019805900098049004F00400BD
:1028C00058B19DF8140040F001008DF814009DF8F7
:1028D000100040F001008DF8100004F0200058B105
:1028E0009DF8150040F001008DF815009DF81100CD
:1028F00040F001008DF8110004F4807058B19DF88B
:10290000160040F001008DF816009DF8120040F00E
:1029100001008DF8120005AA03214FF4886001F030
:102920004BFA10B14FF0FF30B8E704AA032140F290
:10293000314001F041FA10B14FF0FF30AEE70648E8
:1029400004810020AAE700004CCD6C000CC92C00CB
:102950003656760026466600DC100020F8B505469F
:102960000E464FF47A7095FBF0F000FB06F4200E53
:102970008DF80000200C8DF80100200A8DF802006F
:10298000E0B28DF803006A4604214FF4AE7001F006
:1029900013FAF8BD38B50446052094FBF0F084B274
:1029A00020128DF80000E0B28DF801006A46022185
:1029B0004FF4AD7001F000FA38BD38B5044605207B
:1029C00094FBF0F084B220128DF80000E0B28DF894
:1029D00001006A4602214FF4AC7001F0EDF938BDF8
:1029E00038B504460020009004F0010020B19DF8A5
:1029F000000040F03000009004F0020020B19DF88B
:102A0000000040F00C00009004F0040020B19DF89C
:102A1000000040F0030000906A4601214FF4A470CA
:102A200001F0CAF938BD38B50446012C01DA012499
:102A300002E0042C00DD0424601EC0B200906A464F
:102A4000012140F24F1001F0B7F938BD2DE9FC47E4
:102A500006460F4606F0070010B1B7F5C86F03DD54
:102A60004FF0FF30BDE8FC87384602F067F9814639
:102A7000594902F04DF88046684600F08DFB9DF8FC
:102A80000000022806D0042816D0082826D01028D6
:102A900048D135E04FF08D41404602F097F981462C
:102AA00002F014F984B24D49404602F08FF9814694
:102AB00002F00CF985B238E04FF08C41404602F04C
:102AC00085F9814602F002F984B24549404602F098
:102AD0007DF9814602F0FAF885B226E04FF08B418D
:102AE000404602F073F9814602F0F0F884B23D49A5
:102AF000404602F06BF9814602F0E8F885B214E036
:102B00004FF08A41404602F061F9814602F0DEF85A
:102B100084B23549404602F059F9814602F0D6F8B0
:102B200085B202E04FF0FF309CE700BF20128DF825
:102B30000400E0B28DF8050028128DF80600E8B216
:102B40008DF8070006F00100A0B101AA02214FF4A0
:102B5000EA7001F031F910B14FF0FF3082E70DF16A
:102B6000060202214FF4927001F026F910B14FF0E5
:102B7000FF3077E706F00200A0B101AA02214FF46E
:102B8000EC7001F019F910B14FF0FF306AE70DF168
:102B9000060202214FF4947001F00EF910B14FF0CB
:102BA000FF305FE706F00400A0B101AA02214FF454
:102BB000EE7001F001F910B14FF0FF3052E70DF166
:102BC000060202214FF4967001F0F6F810B14FF0B2
:102BD000FF3047E7002045E700004843000040463B
:102BE0000000C045000040450000C04438B5044620
:102BF000052094FBF0F085B228128DF80000E8B2B1
:102C00008DF801006A4602214FF4EF7001F0D4F80C
:102C100038BD38B50446052094FBF0F085B2281283
:102C20008DF80000E8B28DF801006A4602214FF4E9
:102C3000ED7001F0C1F838BD00BF054A128802F0FE
:102C40004002002AF9D0C2B2014B1B1D1A80704706
:102C50000038014010B50446204600F00FF8034646
:102C6000E01C00F00BF843EAC00083B2A01D00F0A6
:102C700005F843EA801083B2184610BD014691F969
:102C80000020002A01DD00201EE091F90020002A2A
:102C900001DA042018E091F90120002A01DD012069
:102CA00012E091F90120002A01DA05200CE091F9E7
:102CB0000220002A01DD022006E091F90220002A0C
:102CC00001DA062000E0072070470000FFF79CFAB9
:102CD000FEF76AF84FF4A060FEF7CCF84FF4E1304D
:102CE00001F018F9FDF790FDFEF7F0F8FDF726FF6B
:102CF000FEF7CAF8022336A219460020FEF77EF935
:102D000005E0022336A204210A20FEF777F900F03D
:102D1000F9F90028F5D1FEF7B7F808240DE0A4F181
:102D2000080101EB8101142202EB8101C8B22246A5
:102D30000221FEF739F9601CC4B20B2CEFDD02232F
:102D400029A206210020FEF759F9002140F2AF40E8
:102D5000FEF7FCFB3BE0264A2649274800F0B8F87E
:102D600070BB2448006801F095FF054602232A46FF
:102D700006212820FEF7B8F920491E48006801F016
:102D8000F1FF0BD200211B48006802F0EBF805D8D8
:102D900002231BA206213020FEF730F919491548FD
:102DA000006801F0DFFF0BD214491248006802F0FE
:102DB000D9F805D8022312A206213820FEF71EF901
:102DC00011490878FEF7E6FC0546FEF7D5FAC2E79A
:102DD0004D5055363035305F496E69743A00000009
:102DE0004572726F6E000000526F6C6C3A0000000A
:102DF0000800002004000020000000200000204106
:102E0000272000000000C842141000207047000076
:102E100010B5044600200549086001200449C1F8A6
:102E20009401A1B20348FEF760FC10BD900121425D
:102E3000000021420004004010B50446012005496D
:102E4000086000200449C1F89401A1B20348FEF7CC
:102E50004CFC10BD900121420000214200040040C2
:102E600070B50446002624F00104184890F82400A8
:102E700008B1002070BD1548807A10B94FF0FF30BE
:102E8000F8E71248057C807A20401049087408460B
:102E9000007CA04202D04FF0FF3600E0002614B9BB
:102EA0000A48007D18B1012000F0C6FF02E00020B2
:102EB00000F0C2FF3CB100F0F9FB20B103480574FB
:102EC0004FF0FF30D6E73046D4E70000D80F00209F
:102ED0002DE9F04F99B004460D4616464FF07E5747
:102EE0004FF000084FF000094FF0000A12A813A994
:102EF00018AB0EAACDE9001014A916A8FFF774FBB1
:102F000018B1012019B0BDE8F08FBDF84C0000F4F5
:102F1000807000287ED00E9801F0F8FE83464FF0B6
:102F20009D4101F0F5FD07460F9801F0EFFE834645
:102F30004FF09D4101F0ECFD8046109801F0E6FE57
:102F400083464FF09D4101F0E3FD8146119801F069
:102F5000DDFE83464FF09D4101F0DAFD82463946A1
:102F60004FF0804001F032FF4946059001F02EFFFE
:102F7000834641464FF0404001F028FF51460590FE
:102F800001F024FF5946069001F054FD079001F02E
:102F900025FDCDE90801FEF7FDFD4FF06632574BE8
:102FA000CDE90A0101F040FACDE90C0101F002F887
:102FB000206049464FF0804001F008FF49460090EC
:102FC00001F004FF414602904FF0404001F0FEFE48
:102FD0004146009001F0FAFE0190029901F0FEFFD7
:102FE0004FF07E51039001F025FD834601F0F6FC81
:102FF000CDE9060139464FF0804001F0E7FE414639
:10300000019001F0E3FE834649464FF0804001F015
:10301000DDFE00E06EE05146019001F0D7FE59461A
:10302000029001F007FD039001F0D8FCCDE9040106
:10303000DDE90623FEF7F6FF4FF066322F4BCDE9B0
:10304000080101F0F1F900222D4BCDE90A0100F051
:10305000E3FFCDE90C0100F0ADFF2860514650467A
:1030600001F0B4FE49460590484601F0AFFE4146E6
:103070000390404601F0AAFE39460190384601F01F
:10308000A5FE0090019901F0D5FC0290039901F092
:10309000A5FF0490059901F0A1FF834601F09EFC75
:1030A000CDE908015146384601F090FE49460490AA
:1030B000404601F08BFE0390049901F0BBFC83466F
:1030C0004FF0804101F082FE059001F087FCCDE9D0
:1030D0000601DDE90823FEF7A5FF4FF06632074B36
:1030E000CDE90A0101F0A0F9CDE90C0100F062FF81
:1030F000306001E0022005E7002003E766A64C40AF
:103100000080564070B50024FDF7F8FB00F06AF827
:1031100000283AD1782000F0E7FDC4B20CB10120BC
:1031200070BD7820FFF79CFEC4B20CB10220F7E717
:10313000642000F08BFDC4B20CB10320F0E7FFF770
:1031400047FAC4B20CB10420EAE71248FFF782FD47
:103150000546FFF767FBC4B20CB10520E0E740F27B
:103160007310FFF7DDF8C4B20CB10620D8E7642075
:10317000FFF720FBC4B20CB10720D1E7012000F01B
:1031800061FCC4B21CB10920CAE70A20C8E70020CC
:10319000C6E700000410002001461148407A30B113
:1031A000012807D0022808D003280CD108E002200B
:1031B00008700BE00420087008E00820087005E0A3
:1031C0001020087002E04FF0FF30704700BF044845
:1031D000C07C18B108784006000E08700020F4E7A3
:1031E000D80F00201CB580208DF80000654A1268B9
:1031F000917C644A526810786B460122FDF7A2FD6B
:1032000010B14FF0FF301CBD6420FFF71FF8002005
:103210008DF800005B4A1268917C5A4A5268107817
:103220006B460122FDF78EFD10B14FF0FF30EAE74B
:10323000544A1268917D534A526810786B460622B0
:10324000FDF7DAFC10B14FF0FF30DCE79DF8050028
:10325000C007400F9DF8031001F0010140EA410052
:103260009DF8011001F0010140EA010494B1012C24
:1032700003D101214348C17431E0022C03D1002164
:103280004048C1742BE021463FA0FCF7E5FF4FF01A
:10329000FF30B8E73B4A1268D1783A4A5268107852
:1032A0006B460122FDF7A8FC10B14FF0FF30AAE7F2
:1032B0009DF8000000F00F042CB93D48FCF7CCFF4E
:1032C0004FF0FF309FE7042C06D13AA0FCF7C4FF73
:1032D00001212C48C17402E000212A48C174FF2159
:1032E00028488172FF2027490872FF212548417232
:1032F000C1724FF6FF71C181FF21017481740121F8
:10330000017380F82210002180F8231041750175A7
:103310001630016041608160163880F8241080F812
:103320002510C1844FF4FA6000F0D4FB10B14FF0C7
:10333000FF3068E7022000F09DFA10B14FF0FF3037
:1033400061E72A2000F040FC10B14FF0FF305AE74F
:10335000322000F07BFC10B14FF0FF3053E700202B
:10336000FFF77EFD10B14FF0FF304CE7002000F07A
:10337000C3FA10B14FF0FF3045E7002000F0B4FC75
:10338000002040E7D80F0020556E737570706F7283
:1033900074656420736F6674776172652070726FF4
:1033A00064756374207265762025642E0A0000001F
:1033B000005F000848616C662073656E736974690C
:1033C00076697479207061727420666F756E642EF0
:1033D0000A0000002DE9F04385B005460E469046F0
:1033E0009946294890F8250020B14FF0FF3005B0EC
:1033F000BDE8F08316B94FF0FF30F8E7002423E072
:10340000281B102801DD102000E0281B87B232198C
:103410003946204600F0D0FC10B14FF0FF30E6E70F
:1034200001AA3946204600F001F910B14FF0FF30F3
:10343000DDE730193A4601A9FDF706F810B16FF043
:103440000100D4E7E01984B2AC42D9DB4FEA28206E
:103450008DF8000008F0FF008DF801000A4A12689C
:10346000917E094A526810786B460222FDF76AFC89
:1034700010B14FF0FF30BAE70121034880F8251062
:10348000A0F826900020B2E7D80F002038B50446F7
:10349000282C02DD4FF0FF3038BDDCB9002000F0F1
:1034A0005DFB00208DF8000007208DF801002E4AFA
:1034B0001268917C2C4A526810786B460222FDF704
:1034C00041FC10B14FF0FF30E6E7002126480175BE
:1034D0000020E1E7012000F041FB20208DF80000F2
:1034E000012C06D100208DF80100052000F06CFBB6
:1034F00017E0052C06DC01208DF80100052000F006
:1035000063FB0EE0142C06DC02208DF801000A207B
:1035100000F05AFB05E003208DF80100142000F0B4
:1035200053FB9DF80100072101EB8010C0B28DF81C
:1035300001000D4A1268917C0B4A526810786B4664
:103540000222FDF7FFFB10B14FF0FF30A4E7082186
:103550000548817200210173012101750020FFF7E8
:103560007FFC002098E70000D80F0020F8B5044643
:103570000F4616462C4890F8240010B94FF0FF3043
:10358000F8BD2948807A10B94FF0FF30F8E7264A95
:103590001268917A244A526810786B460222FDF72D
:1035A0002BFB10B14FF0FF30EAE79DF801009DF8CA
:1035B000001040EA0125A54203DA00203070401EC9
:1035C000DEE7194840684088B5EB600F17DD164A02
:1035D0001268517C144A526810786B460122FDF73C
:1035E0000BFB10B14FF0FF30CAE79DF8000000F070
:1035F000100020B100F05AF86FF00100C0E7E2B20D
:10360000094B1B68D97A084B5B6818783B46FDF775
:10361000F3FA10B14FF0FF30B2E795FBF4F0401E23
:1036200030700020ACE70000D80F0020F8B5044649
:103630000D46164616B94FF0FF30F8BD1A48807A8D
:1036400010B94FF0FF30F8E720128DF80000E0B21B
:103650008DF801009DF80100284413494968498903
:10366000884202DD4FF0FF30E7E70F4A1268117E13
:103670000D4A526810786B460222FDF763FB10B1C9
:103680004FF0FF30D9E7EAB2074B1B68597D064B74
:103690005B6818783346FDF7AFFA10B14FF0FF3092
:1036A000CBE70020C9E70000D80F002008B570481C
:1036B000807A10B94FF0FF3008BD002000906C4AAE
:1036C0001268D17B6A4A526810786B460122FDF776
:1036D00039FB10B14FF0FF30EEE7654A12685179BF
:1036E000634A526810786B460122FDF72BFB10B13C
:1036F0004FF0FF30E0E75E4A126811795C4A526889
:1037000010786B460122FDF71DFB10B14FF0FF3022
:10371000D2E7574890F82400002853D00C2000909E
:10372000534A12681179524A526810786B46012246
:10373000FDF708FB10B14FF0FF30BDE73220FEF778
:1037400085FDC02000904A48807A00F0010020B139
:103750009DF8000040F020000090454A1268117961
:10376000434A526810786B460122FDF7EBFA10B11C
:103770004FF0FF30A0E73E48407C10B1022000909F
:1037800001E0002000903A4A1268D17B384A526822
:1037900010786B460122FDF7D5FA10B14FF0FF30DB
:1037A0008AE700200090324A12685179304A526804
:1037B00010786B460122FDF7C5FA002855D04FF06E
:1037C000FF3079E704200090294A12681179284ACD
:1037D000526810786B460122FDF7B4FA10B14FF031
:1037E000FF3069E72248807C20B92148807A00F0C8
:1037F000010010B94020009001E0602000901C4AB8
:10380000126811791A4A526810786B460122FDF746
:1038100099FA10B14FF0FF304EE73220FEF716FD57
:103820001348407C10B10120009001E0002000907E
:103830000F4A1268D17B0E4A526810786B460122FB
:10384000FDF780FA10B14FF0FF3035E7084A1268F3
:103850005179074A52681078054B10330122FDF761
:1038600071FA10B14FF0FF3026E7002024E7000086
:10387000D80F002038B504461E48807A10B94FF0A2
:10388000FF3038BD022C06D0042C07D0082C08D0FD
:10389000102C0CD108E0002000900BE008200090D4
:1038A00008E01020009005E01820009002E04FF0A2
:1038B000FF30E6E700BF0F48407A9DF80010B0EBFC
:1038C000E10F01D10020DCE70A4A1268D179094AE8
:1038D000526810786B460122FDF734FA10B14FF0B0
:1038E000FF30CEE79DF80000C11002484172002071
:1038F000C7E70000D80F002038B504465048807C48
:10390000A04201D1002038BD002C46D04C4A12689C
:1039100011794B4A526810786B460122FDF76CF919
:1039200010B14FF0FF30EEE79DF8000020F02000CE
:103930000090434A12681179414A526810786B46E8
:103940000122FDF7FFF910B14FF0FF30DBE7032054
:10395000FEF77CFC02200090394890F8220020B14C
:103960009DF8000040F080000090354890F823005A
:1039700020B19DF8000040F030000090304A1268FD
:10398000117D2F4A526810786B460122FDF7DAF953
:10399000002851D04FF0FF30B5E7294A126811795D
:1039A000274A526810786B460122FDF725F910B1BD
:1039B0004FF0FF30A7E72248807A00F0010028B1DD
:1039C0009DF8000040F02000009004E09DF8000009
:1039D00020F0200000901A4A12681179184A5268A3
:1039E00010786B460122FDF7ADF910B14FF0FF30B2
:1039F00089E70320FEF72AFC114890F8220010B155
:103A00008020009001E0002000900D4890F82300F5
:103A100020B19DF8000040F030000090084A126884
:103A2000117D074A526810786B460122FDF78AF92A
:103A300010B14FF0FF3066E701488474002062E760
:103A4000D80F002038B50446214890F82400A04241
:103A500001D1002038BD24B31D4890F8250010B9CD
:103A60004FF0FF30F6E7002000F0E6F90020FFF706
:103A700043FF1749C88C00F0E9F800200090144972
:103A8000496808786B4601222321FDF75BF9012183
:103A90000F4880F82410012000F0CEF9FFF706FE51
:103AA00013E0002000F0C8F90948007C00900849A4
:103AB000496808786B4601222321FDF743F900216C
:103AC000034880F82410FFF7F1FD0020C2E7000052
:103AD000D80F002038B504461F48807A10B94FF03F
:103AE000FF3038BDFA2C09D0B4F5FA7F09D0B4F50F
:103AF0007A7F09D0B4F5FA6F0CD108E0002000906D
:103B00000BE00820009008E01020009005E018204D
:103B1000009002E04FF0FF30E3E700BF0E48007A6C
:103B20009DF80010B0EBE10F01D10020D9E70A4A5F
:103B300012689179084A526810786B460122FDF7A5
:103B400001F910B14FF0FF30CBE79DF80000C01035
:103B5000014908720020C4E7D80F002038B5044698
:103B6000184890F82300A04201D1002038BD14B1BC
:103B70003020009001E0002000901248807C20B1AD
:103B80009DF8000040F0020000900E4890F82200DE
:103B900020B19DF8000040F080000090094A1268B2
:103BA000117D084A526810786B460122FDF7CAF869
:103BB00010B14FF0FF30D9E7024880F823400020D1
:103BC000D4E70000D80F002038B504461E48807A9C
:103BD00010B94FF0FF3038BDBC2C02DB0120009043
:103BE00015E0622C02DB0220009010E02A2C02DBA0
:103BF000032000900BE0142C02DB0420009006E070
:103C00000A2C02DB0520009001E0062000900E48FF
:103C1000C07A9DF80010884201D10020DBE70A4AF3
:103C200012689178084A526810786B460122FDF7B5
:103C300089F810B14FF0FF30CDE79DF80010024831
:103C4000C1720020C7E70000D80F002038B5044635
:103C50002448807A10B94FF0FF3038BD214890F8E1
:103C6000240010B14FF0FF30F7E71E48007D50B13F
:103C700034B1282C04DCE0B2FFF708FC0020ECE7AC
:103C80000020FFF703FC042C01DA042404E0B4F55F
:103C90007A7F01DD4FF47A744FF47A7090FBF4F080
:103CA000401EC0B200900F4A126851780D4A526807
:103CB00010786B460122FDF745F810B14FF0FF3048
:103CC000CBE79DF80000401C4FF47A7191FBF0F0B7
:103CD00081B20448C1810146C9894810FFF774FFC9
:103CE0000020BAE7D80F002038B5044604F0700071
:103CF00010B10120009005E014B10020009001E017
:103D0000402000902B4A1268917C2A4A5268107811
:103D10006B460122FDF716F820B10021254881727B
:103D2000481E38BD9DF8000020F040012148017375
:103D30000020009004F0400020B99DF8000040F001
:103D40000400009004F0200020B99DF8000040F02D
:103D50000200009004F0100020B99DF8000040F02F
:103D60000100009004F0080020B99DF8000040F028
:103D7000380000900F4A1268D17C0E4A52681078C1
:103D80006B460122FCF7DEFF20B100210948817259
:103D9000481EC6E724B1082C02D00020FFF7DEFE43
:103DA00004488472002101753220FEF74FFA00208A
:103DB000B7E70000D80F0020F8B504460D461646B8
:103DC00016B94FF0FF30F8BD1A48807A10B94FF09D
:103DD000FF30F8E720128DF80000E0B28DF8010006
:103DE0009DF801002844134949684989884202DD49
:103DF0004FF0FF30E7E70F4A1268117E0D4A526814
:103E000010786B460222FCF79DFF10B14FF0FF3097
:103E1000D9E7EAB2074B1B68597D064B5B681878F7
:103E20003346FCF78FFF10B14FF0FF30CBE7002097
:103E3000C9E70000D80F002038B50446214890F8A3
:103E40002400C0B114B10220009001E000200090D5
:103E50001C4A1268D17B1B4A526810786B460122BB
:103E6000FCF770FF10B14FF0FF3038BD9DF8001027
:103E70001448417423E01348807A10B94FF0FF30A2
:103E8000F3E724B10F48407C08B10020EDE714B1FE
:103E90000120009001E0002000900A4A1268D17BC6
:103EA000084A526810786B460122FCF74BFF10B1AC
:103EB0004FF0FF30D9E79DF8001002484174002010
:103EC000D3E70000D80F00202DE9F04106460F4649
:103ED00000F0B4FB04000D4618BF0120284320F079
:103EE0000040C0F17F6000F1E040C00F0ED0301CF8
:103EF00018BF0120384320F00040C0F17F6000F17E
:103F0000E040C00F04BF0120FCF7DBFA2046294641
:103F1000BDE8F08110B586B00446012144F20400EA
:103F2000FDF7B0F94FF40070ADF8140003208DF8E0
:103F3000160018208DF8170005A91C48FCF7D4FBC3
:103F40004FF48060ADF8140004208DF8170005A927
:103F50001648FCF7C9FB25208DF8000003208DF8DA
:103F600001008DF8020001208DF803006846FCF77F
:103F700049FF01940020ADF80800ADF80A00ADF843
:103F80000C00ADF810000C20ADF80E0001A9084897
:103F9000FDF7BCFC012240F225510548FDF791FCDC
:103FA00001210348FDF757FC06B010BD0008014091
:103FB0000038014021F00042A2F16052B2F5801FAA
:103FC00001F0004328BFD2F17F6C0BD95FEA001CDF
:103FD00043EAC20242EB507018BF704728BF20F07E
:103FE00001007047B2F5801FBCBF184670474FEA0A
:103FF000410C1CF5001F02D2084600F0AEBF70B5A0
:1040000000F0BCFA00000089FFF7F6BF4FF0004057
:10401000A0F580007047000010B591EA030F48BF7B
:1040200083F0004300F1F883841A71EB030C05D28E
:10403000121943EB0C03001B61EB0C01DFF824E1C8
:104040004FEA1154A4EB135C1EEA430F18BF9EEA1B
:10405000445F73D023EA0E03DCF1200E21EA045101
:1040600043F4801332D322FA0CFE10EB0E0023FA35
:104070000CFE41EB0E01CCF1200E03FA0EFE10EB0C
:104080000E0051F10001B1F5801FCCF1200E32D2AB
:1040900001EB045112FA0EF2BDE8104058BF704710
:1040A000401C38BF5FEA420218BF7047002814BFA7
:1040B00020F0010041F100014FEA410313F5001F18
:1040C00038BF7047A1F1C04100F0A6BA012A43EB06
:1040D0000302ACF1200CDCF11F0E32BF4FF0000EDA
:1040E00023FA0CF310EB030041EB0451B4EB115F26
:1040F000D0D0A1EB045101F5801149085FEA3000EE
:1041000001EB04510ED350F1000038BF12FA0EFE3D
:1041100008D1BDE81040C9E7401C38BF5FEA420241
:10412000CAD1C3E7BDE810404FEA410313F5001FB1
:1041300038BF7047A1F1C04100F06EBA9EEA445FFB
:1041400008D011EA5E0FBDE8104004BF01F0004145
:1041500000207047BDE8104070B500F00FFA00BFB6
:1041600064FBBE3E0000E0FF02494FF0000000F09B
:10417000AABF00BF0000F87F2DE9C04130B4DFF8CE
:10418000A0C23CEA111418BF3CEA131400F0EC8002
:1041900081EA03051CEA111444EAD57418BF1CEA2D
:1041A000131500F0C780A4EB05044FF0004545EA65
:1041B000C12145EAC32341EA505143EA525304F175
:1041C0007F74994204F500344FEAC0204FEAC222BE
:1041D00008BF904200F09C804FEA13650FF2401632
:1041E000765D4FEA134506FB05F7C7F1807706FBBE
:1041F00007F74FEAD737A7FB03687642C8F5803840
:10420000A7FB06CE38BFA8F1010807FB08E64FF070
:10421000000EA6FB028CE6FB03CEDCF1000CCEF117
:10422000004E38BFAEF1010EA6FB0C584FF0000750
:104230004FF00005E6FB0E87A1FB08C6A0FB07CEEA
:1042400016EB0E0645F10005E1FB076515F1E04EA2
:104250007EBFA4F580345FEA46066D4116F1800703
:1042600045F100054FEA17274FEA066647EA05675A
:10427000A6F1DE46B6F1805F4FEA15251FD9384614
:1042800024F0010C05EBC471BCF1FE6F01EB0C11C5
:1042900002D8F0BCBDE8008124425CBF01F5801E5D
:1042A0009EEAC47F02D4F0BCBDE80081244238D429
:1042B000F0BCA1F1C041BDE8004100F0ADB94FEA4A
:1042C000D22242EA43524FEAD323A7FB02864FEAA7
:1042D000D02040EA415007FB03661EEA0E0F4FEA6A
:1042E000D12105FB026658BFA6EB0056B6EB00567F
:1042F0004FEA520E4EEAC37E18EB0E0E56EB530EEB
:10430000BDD518EB02085E417F1C55F10005B6E7EC
:104310004FF480154FF000074FF000064FF00008F3
:10432000ADE7F0BC4FF0000001F1C04101F00041E9
:10433000BDE8008111EA0C1F0CEA131500D00CE057
:1043400013EA0C1F00F025804FF00000F0BC81EA5A
:10435000030101F00041BDE80081F0BCBDE800416F
:1043600081EA030100F058B9F0BCBDE8004170B526
:1043700000F004F9097EFC3E00F007B881EA030171
:104380004FF0000001F00041704781EA030100F0A6
:1043900043B9F0BCBDE800414FF00000214970472F
:1043A000FFFDFBF9F7F5F4F2F0EEEDEBE9E8E6E4FA
:1043B000E3E1E0DEDDDBDAD8D7D5D4D3D1D0CFCD81
:1043C000CCCBCAC8C7C6C5C4C2C1C0BFBEBDBCBBBA
:1043D000BAB9B8B7B6B5B4B3B2B1B0AFAEADACABB5
:1043E000AAA9A8A8A7A6A5A4A3A3A2A1A09F9F9E8F
:1043F0009D9C9C9B9A999998979796959594939341
:10440000929191908F8F8E8E8D8C8C8B8B8A8989D7
:10441000888887878685858484838382828181805A
:104420000000FF070000F87FDFF848C170B51CEA04
:10443000111E1EBF1CEA13159EEA0C0F95EA0C0F05
:1044400000F06F8081EA030423EA4C134EEAD47E25
:1044500021EA4C1141F4801143F48013AE44A1FBD6
:10446000024CA0FB0365AEF17F7E361955EB0C05BF
:10447000A1FB034C4CF10003A0FB021C16EB0C0645
:10448000654153F10003094218BF46F0010613F4D9
:10449000007F0BD14FEA03314FEA0530340341EA84
:1044A000155140EA16506FF003020AE04FEAC321AB
:1044B0004FEAC520F40241EA555140EA56506FF0E8
:1044C000020202EB2E4201EB025585EACE710AD0C0
:1044D0005FEA440C18BF24F0004450F1000041F1A1
:1044E000000120EAD47040F2FE7C624500D270BD2B
:1044F000A84214BF4FF080444FF04044002E08BF44
:104500000024BEF1806FA8BFA1F1C041BDE870409A
:1045100080F282804FF0000001F1C04101F00041C3
:1045200070479EEA0C0F0CEA131518BF95EA0C0FA2
:1045300006D04FF0000081EA030E0EF0004170BD7E
:1045400000F01CF88900013E00F007B800F009B83F
:104550004FEA430C5FEA5C5C08D081EA030100F09B
:104560005BB84FEA410C5FEA5C5CF6D14FF00000AB
:10457000014970470000FF070000F87F0EF1020EAE
:104580002EF0030E5EF8046B364205D4012A43EB8D
:10459000030515F5001F12D8012841EB010C1CF58D
:1045A000001F0CD80ED14FEAD17C15F5001F0CEB83
:1045B0004C0C0CF1020C08BF4CEBD37C04E04FF028
:1045C000080C01E04FEAD37C0CEB4C0526FA05F60B
:1045D00006F00706B6F1040C06D20EEB860CBDE819
:1045E00070404CF0010C6047DFE80CF0090B020250
:1045F0004FF000414FF00000A1F5002170BD1946B9
:104600001046012851EB010418BFD4F5001484BFF3
:10461000002001F0004170BD0808A0F500114FEA2C
:104620003101704791EA030F10B581F000413FF569
:10463000FBAC83F0004300F0EFB800002DE9F0413F
:1046400001F5801CBCF5001FC0F2C3804FEA115C6D
:1046500021EA0C510CF1FD0C41F480115FEA5C0C75
:104660000CF5C07C01D3400049413DA4890241EAD8
:10467000905187028E0E0A0CA45D04FB04F602FB27
:1046800006F6C6F14046A4FB0662F60D46EA42264F
:1046900006FB06F4A4FB01235242C3F1404338BF9A
:1046A0005B1EA6FB02420024E6FB0324D20B42EA77
:1046B0004446A6FB0623A1FB02E2A3FB07E4A418E1
:1046C0004FF0000252F10002E3FB01426442C2F1EA
:1046D000404E38BFAEF1010EA6FB04234FF000029E
:1046E000E6FB0E32A2FB03464FF00004B61954F16C
:1046F0000004E2FB0264A1FB06E6A4FB07E816EB5C
:1047000008064FF0000858F10008E4FB0168764203
:10471000C8F1405838BFA8F10108A2FB06E4A3FB8A
:1047200008E52D194FF0000454F10004E2FB085491
:10473000A1FB05E6A7FB04E818EB06084FF000060E
:1047400056F10006E1FB048618F1200556F100063B
:10475000A809A8F11B08B10908F03F08B8F10A0F31
:1047600040EA86601CD901EB0C51BDE8F08100BF26
:10477000FCF5EEE8E2DDD8D3CFCBC7C3C0BDB9B6F8
:10478000B4B1AEACA9A7A5A3A19F9D9B9A989695FD
:104790009392908F8D8C8B89888786858483828184
:1047A000A0FB006800FB01F208EB4208B8EB872889
:1047B00007D5341858EB0104D5D5401C51F1000140
:1047C000D1E7341A78EB0104CDD4401E71F1000119
:1047D000C9E75FEA4C0C5FEA9C5C0DD105D34FF052
:1047E000000001F00041BDE8F081BDE8F04170B586
:1047F000FFF7C4FE6DDBFFBEBDE8F0414FF00000E7
:10480000004970470000F87F10B591EA030F48BFD8
:1048100083F000433FF508AC841A71EB030C07D218
:1048200012198CF0004C43EB0C03001B61EB0C01E4
:10483000DFF8A4E14FEA1154A4EB135C1EEA430F26
:1048400018BF9EEA445F00F0B08023EA6E03524234
:1048500021EA0451C3EB6E0338BF5B1EDCF1200E6E
:1048600025D322FA0CFE10EB0E0043FA0CFE41EBAE
:104870000E01CCF1200E03FA0EFE10EB0E0051F1EA
:104880000001CCF1200E29D412FA0EF201EB0451F2
:10489000BDE8104058BF7047401C1CBFB2F1004F2C
:1048A000704700280CBF491C20F00100704712EB34
:1048B000020E43EB030218BF4FF0010E4EEA420214
:1048C000ACF1200CDCF11E0E54D943FA0CFE10EBB7
:1048D0000E0051F1FF31CCF11E0ED5D50EF1010EB7
:1048E00012FA0EFE404141EB010101EB445C5FEA2C
:1048F0005C5C10D910EBDE7001EB045138BFBEF1E7
:10490000004FBDE8104018BF704700280CBF491C7D
:1049100020F00100704730D24FEAD42C11F500117D
:1049200024F400641BD0B1FA81F20B3AA41AA41E3D
:10493000D2F12003914030FA03F31943904001EB88
:10494000CC71002C01EB0451BDE81040A8BF7047AA
:1049500001F1C0414FF0000001F000417047B0FA92
:1049600080F310FA03F100D110BDE41A173C48059A
:10497000C90AE4E701EB045110BD491001EB0451F1
:10498000BDE810404FEA300002E04FF000017047F0
:104990004A0008BF0042F8D0B2F5001F28BF704798
:1049A00001F000414FF0000070479EEA445F07D0DD
:1049B00011EA5E0FBDE8104004BF002100207047DF
:1049C000BDE8104070B5FFF7D9FD00BF40DFF63EEF
:1049D00083F00041104670470000E0FF43004FEABB
:1049E000D30C4FEA3C0C43401FBF40070CF1605111
:1049F00013F0FE4F70471CF0006F03D100200CF045
:104A0000004170470CF0004343EA507010B540EA93
:104A1000CC0000F05CFA00BF000000924FEA0001F9
:104A2000FFF7FABD4FF000414FF00000A1F5002163
:104A30007047000090EA010F48BF81F0004100F18B
:104A4000D482421A3CBF801A89184FEAD0524FF0E4
:104A50007F4C1CEA410FA2EBD15318BF9CEA026FB6
:104A600000F03B804FF0004C4CEA00204CEA012162
:104A700021FA03FC10EB0C0C1ED202F1FF325FEAAC
:104A80001C2040EBC25038BF70471CF07F0F4FEA2C
:104A9000400C18BFBCF17F4F38BF7047C3F12003F3
:104AA000994008BF20F00100BCF17F4F38BF70472C
:104AB000A0F1C04000F051BA4FEA3C00000A40EBC0
:104AC000C25028BF1CF0FF0F4FEA400CE6D018BFC1
:104AD000BCF17F4F38BF7047EAE79CEA026F05D010
:104AE00010EA5C0F08BF00F00040704710B500F0FE
:104AF000EEF900BF64FBBE3E401058BFC0F140401D
:104B0000491058BFC1F140418142EFF30080704726
:104B10004FF47F0C1CEAD0121EBF1CEAD11392EA9C
:104B20000C0F93EA0C0F00F0858090EA010F48BF4C
:104B300042F4807240F4000C41F400002CF07F41FC
:104B400020F07F4000B58142A2EB03020FF2081C67
:104B5000ACEB504EC0F100009EF800E04FEA4E0E64
:104B600000FB0EFC38BF49004FEA2C1C02F5FA028C
:104B70000CFB0EF34FEACE1E4FEA112C4FEAC12177
:104B80000EEB635E42EB22420EFB0CFC4FEA1C5321
:104B900000FB03114FEA112C4FEA01310EFB0CFC14
:104BA0004FEADC4C00FB0C11C14228BF09184CEB4A
:104BB00003335DF804EB10EB410143EBC250B2F557
:104BC0007C0F38BF704729D512F0F00F1CBF00F1E1
:104BD000C04000F000407047008182838485868752
:104BE00088898B8C8D8E8F919293959697999A9CAC
:104BF0009D9FA0A2A3A5A7A8AAACAEB0B2B3B5B71B
:104C0000B9BCBEC0C2C5C7C9CCCED1D4D7D9DCDFF0
:104C1000E2E6E9ECF0F3F7FAFE0000004FEA400CA0
:104C20000CF1807CBCF17E4F28BF7047B0F1C040D2
:104C300000F093B990EA010F0CEAD11348BF42F497
:104C40008072624538BF634507D213F47F0F16D0D8
:104C500080EA010000F00040704710B500F037F91D
:104C6000097EFC3E00F005B880EA010000F000403B
:104C7000704780EA010000F0004000F06EB912F4C5
:104C80007F0F04BF0248704780EA010000F065B959
:104C90000000C07F41000B0ED3F19E0208D950F4F2
:104CA00000034FEA032323FA02F048BF4042704753
:104CB00010B500F00CF900BF499224800020704725
:104CC0006FF0004282EA200070470000C10DD1F170
:104CD0009E0206DB4FEA002343F0004323FA02F072
:104CE0007047004207D54FEA4001B1F1FE4F02D2B2
:104CF0004FF00000704710B500F0E9F849922480A9
:104D0000002070476FEA20007047000010F000415B
:104D100048BF4042B0FA80F310FA03F2C3F19D039A
:104D20000BD051EAC35101EB1220530638BF704734
:104D300000F1010008BF20F001007047B0FA80F3D5
:104D400010FA03F2C3F19D030AD0D90501EB12203A
:104D5000530638BF704700F1010008BF20F0010082
:104D60007047000050EA010C00F113801CF5000FA1
:104D700058BFBCF5000F01D48842704707D710F523
:104D8000000F58BF11F5000F15D4884270478942B3
:104D900070471CF5000F04D5BCF5000FF7D5814214
:104DA00070474FF0807C1CEB400F38BF1CEB410F6D
:104DB00001D28142704710B500F089F89224490071
:104DC0004FF000504FF08051FFF796BE4FF47F0C2C
:104DD0001CEAD0121EBF1CEAD11392EA0C0F93EA10
:104DE0000C0F00F0478090EA010F48BF42F4807238
:104DF0004FF0004C4CEA00204CEA012102EB030288
:104E0000A0FB0113A2F50002002918BF43F0010323
:104E10005B0028BF4FEA330342EB22425FEA132CC8
:104E20004CEBC2502EBFBCEB436FB2F57C0F70470A
:104E30004FEA036CBCF1004F08BF20F00100B2F54F
:104E40007C0F38BF70470BD582F0FF0212F5803F10
:104E5000C8BF704700F1C040D8BF00F000407047A5
:104E600000F5000C5FEA4C0C48BF7047B0F1C04041
:104E700000F073B890EA010F0CEAD11348BF42F476
:104E80008072624538BF634504D280EA010000F0B9
:104E90000040704710B500F01AF800BF8900013ECD
:104EA00000F007B800F009B85FEA410C5FEA1C6C3B
:104EB00008D080EA010000F050B85FEA400C5FEAD9
:104EC0001C6CF6D14FF00040A0F5800070470EF149
:104ED000020E2EF0030E5EF8044B244204D44FEA77
:104EE0004102B2F17F4F11D84FEA4003B3F17F4F37
:104EF0000CD80ED14FEAD07CB2F17F4F0CEB4C0CAA
:104F00000CF1020C08BF4CEBD17C04E04FF0080C14
:104F100001E04FEAD17C0CEB4C0324FA03F404F0DB
:104F20000704B4F1040C06D20EEB840CBDE810406B
:104F30004CF0010C6047DFE80CF0070802024FF06C
:104F40000040A0F5800010BD0846420018BFD2F115
:104F5000807288BF00F0004010BDFF2141EAD050B0
:104F6000C005704751EA000C00F113801CF5000FDA
:104F700058BFBCF5000F01D48142704707D711F527
:104F8000000F58BF10F5000F15D4814270478942B9
:104F900070471CF5000F04D5BCF5000FF7D588420B
:104FA00070474FF0807C1CEB410F38BF1CEB400F6B
:104FB00001D28842704780EA010081EA000180EA5C
:104FC0000100FFF7F8BE80F0004090EA010F7FF586
:104FD00038AD81F0004100F008B8000090EA010F00
:104FE00048BF81F000413FF52CAD421A04D882F051
:104FF0000042A0EB020011444FEAD0524FF07F4C28
:105000001CEA410FA2EBD15318BF9CEA026F4AD0B1
:105010004FF0004C4CEA00204CEA012121FA03FC3D
:10502000B0EB0C0C0FD412F0FE0F36D05FEA4C0040
:105030001DD5001240EBC25038BF70471CF03F0F27
:1050400018BF70470BE0A2F101025FEA1C2040EBA1
:10505000C25038BF70471CF07F0F18BF7047C3F1B4
:105060002003994014BF401E20F0010070478008C3
:105070004FEA122308BF7047B0FA80FCA2EB0C0283
:10508000CCF1280C60FA0CF093EA122F04BF00EB6D
:10509000C25070474FEAC3707047130A5FEADC10D2
:1050A00008BF7047F6E79CEA026F04D010EA5C0F75
:1050B00008BF0020704710B5FFF709FF40DFF63E3C
:1050C00081F0004070470CF00F03092B08BF082047
:1050D00000F059800A2B0BD0082B18BF704708BF6F
:1050E0001CF0400F0AD04FF000004FF00001704755
:1050F0001CF0400F18BF4FF0004070471CF0100F1D
:1051000008D020F0704300F07F4242EAD3014FEA1A
:105110004370704700F0604021F07F4242EA000295
:1051200001F07F4040EA727070474FF0FF0C4CF482
:10513000E06C1CEA11531CBF9CEA030C9445C2BFEF
:10514000DA4201EB02517047002B0DD0BCF1000F89
:105150000FD0002A01F00041A4BF41F0E04141F02E
:105160007F614FF00000704701F000414FF00000F8
:10517000704750EA01334FF09B0C18BF4CF0806C25
:105180007EF4F2AF70471CF4801F11D01CF4E02FA6
:1051900003D06FEACC31490070474FF04050EFF335
:1051A000008222F0704242EA000282F300887047D7
:1051B0004FF000007047000075191A0C6A231B1C81
:1051C0001F207274433B4138393A6B6C376F0624A9
:1051D0006D6E70006800000476005401F7FD000158
:1051E00083000000000800000001001832000500E4
:1051F000000020410000D242295C0F3E9A99993E5E
:105200003333733F295C0F3E000070000000002420
:10521000000000020003000000650054FFEF0000E2
:10522000FA80000B12820001030C30C30E8C8CE953
:1052300014D5400213710F8E3883F8833000F88341
:10524000258EF8833000F883FFFFFFFF0FFEA9D6FD
:10525000240004001A8279A10000003CFFFF000036
:105260000010000038836FA2003E033040000000B1
:1052700002CAE3093E800000200000000000000098
:105280004000000060000000000C0000000C186EE0
:10529000000006920A16C0DFFFFF0256FD8CD3778E
:1052A000FFE1C496E0C5BEAA00000000FFFF0B2B83
:1052B00000001657000003594000000000001DFACE
:1052C00000026C1D000000003FFFDFEB003EB3B6A4
:1052D000000D227800002F3C00000000001942B5AC
:1052E000000039A20000B365D90E9FC91DCF4C3410
:1052F00030000000500000003BB67AE80064000077
:1053000000C8000000000000100000001000FA9229
:105310001000225E000D229F0001000000320000FC
:10532000FF46000063D400001000000004D6000017
:1053300004CC000004CC000000001072000000400B
:105340000000000000000000000600020005000749
:1053500000000000006400000000000000000005E4
:1053600000050064002000000000000000000000B4
:10537000000040000000030000000032F898000028
:10538000FF650000830F0000FF9BFC000000000091
:10539000000000000000000000000000000000000D
:1053A00000000000000000000000000000000000FD
:1053B0000000000000001000400000000000000697
:1053C0000000B26A000200000001FB8300680000D8
:1053D00000D9FC007CF1FF830000000000650000A4
:1053E000006403E8006400280000002500000000BD
:1053F00016A000000000100000001000002F0000A8
:10540000000001F40000100000280000FFFF4581AB
:10541000FFFFFA72000000000000000000440005D9
:105420000005BAC6004778A2000000010000000095
:1054300000000600000000140000254D002F706DD4
:10544000000005AE000C02D00000000000000000CB
:105450000000000000000000001B00000000000031
:1054600000000000000000000064000000080000D0
:10547000000000000000000000000000000000002C
:10548000000000000000000000000000000000001C
:10549000000000000000000000000000000000000C
:1054A00000000000000000000000000000000000FC
:1054B00000000000000000000000000000000000EC
:1054C0000000000000000000001B000000000000C1
:1054D00000000000000E000E00000AC700040000DB
:1054E00000000032FFFFFF9C00000B2B00000002B9
:1054F0000000000100000064FFE500000000000063
:10550000000000000000000000000001000000009A
:105510000001000000000000000180000001800088
:1055200000018000002426D30000000000000000DD
:10553000000600100096003C000000000000000083
:1055400000000000000000000C0A4E68CDCF770973
:1055500050166759C619CE820000000000000000F6
:10556000000000000000000000000000000000003B
:1055700017D78400030000000000000000000000B6
:10558000C7938F9D1E1B1C19000000000000000027
:10559000000000000000000000000000000000000B
:1055A0000203188500004000000000030000000313
:1055B00000000000000000004000000000000000AB
:1055C00000000000000000000000000000000000DB
:1055D00000000000000000000000000000000000CB
:1055E000000000000000000000000000677DDF7E7A
:1055F00072902E554CF6E688000000000000000076
:105600000000000000000000D8DCB4B8B0D8B9AB8E
:10561000F3F8FAB3B7BB8E9EAEF132F51BF1B4B816
:10562000B08097F1A9DFDFDFAADFDFDFF2AAC5CD07
:10563000C7A90CC92C97F1A989264666B28999A9F0
:105640002D557DB0B08AA896365676F1BAA3B4B27D
:1056500080C0B8A89711B28398BAA3F02408441068
:105660006418B2B9B49883F1A329557DBAB5B1A332
:105670008393F0002850F5B2B6AA839328547CF1A6
:10568000B9A3829361BAA2DADEDFDB819AB9AEF503
:10569000606870F1DABAA2DFD9BAA2FAB9A382922D
:1056A000DB31BAA2D9BAA2F8DF85A4D0C1BBAD83E1
:1056B000C2C5C7B8A2DFDFDFBAA0DFDFDFD8D8F10D
:1056C000B8AAB38DB4980D355DB2B6BAAF8C961941
:1056D0008F9FA70E161EB49AB8AA872C547CBAA422
:1056E000B08AB691325676B28494A4C808CDD8B8A0
:1056F000B4B0F19982A82D557D98A80E161EA22C43
:10570000547C92A4F02C5078F184A898C4CDFCD895
:105710000DDBA8FC2DF3D9BAA6F8DABAA6DED8BA02
:10572000B2B68696A6D0F3C841DAA6C8F8D8B0B407
:10573000B882A892F52C548898F135D9F418D8F18C
:10574000A2D0F8F9A884D9C7DFF8F883C5DADF69F1
:10575000DF83C1D8F40114F1A8824EA884F311D1DB
:1057600082F5D992289788F109F41C1CD884A8F3F3
:10577000C0F9D1D99782F129F40DD8F3F9F9D1D92B
:1057800082F4C203D8DEDF1AD8F1A2FAF9A884980D
:10579000D9C7DFF8F8F883C7DADF69DFF883C3D841
:1057A000F40114F198A8822EA884F311D182F5D9BE
:1057B00092509788F109F41CD884A8F3C0F8F9D165
:1057C000D99782F149F40DD8F3F9F9D1D982F4C40B
:1057D00003D8DEDFD8F1AD8898CCA809F9D9829238
:1057E000A8F57CF1883ACF944A6E98DB6931DAAD3E
:1057F000F2DEF9D88795A8F221D1DAA5F9F417D904
:10580000F1AE8ED0C0C3AE82C684C3A88595C8A5AC
:1058100088F2C0F1F4010EF18E9EA8C63E56F554F2
:10582000F18872F40115F19845856EF58E9E048815
:10583000F142985A8E9E068869F4011CF1981E1157
:1058400008D0F504F11E970202983625DBF9D985B8
:10585000A5F3C1DA85A5F3DFD88595A8F309DAA504
:10586000FAD88292A8F578F1881A849F2688982120
:10587000DAF41DF3D8879F39D1AFD9DFDFFBF9F414
:105880000CF3D8FAD0F8DAF9F9D0DFD9F9D8F40B5B
:10589000D8F3879F39D1AFD9DFDFF41DF3D8FAFCF5
:1058A000A869F9F9AFD0DADEFAD9F88F9FA8F1CC60
:1058B000F398DB45D9AFDFD0F8D8F18F9FA8CAF3B2
:1058C0008809DAAF8FCBF8D8F2AD978D0CD9A5DF68
:1058D000F9BAA6F3FAF412F2D8950DD1D9BAA6F313
:1058E000FADAA5F2C1BAA6F3DFD8F1BAB2B6869653
:1058F000A6D0CAF349DAA6CBF8D8B0B4B8D8AD84EC
:10590000F2C0DFF18FCBC3A8B2B68696C8C1CBC3B5
:10591000F3B0B48898A821DB718D9D71859521D94C
:10592000ADF2FAD88597A828D9F408D8F28D29DAEB
:10593000F405D9F285A4C2F2D8A88D9401D1D9F486
:1059400011F2D88721D8F40AD8F28498A8C801D1D6
:10595000D9F411D8F3A4C8BBAFD0F2DEF8F8F8F848
:10596000F8F8F8F8D8F1B8F6B5B9B08A95A3DE3CE6
:10597000A3D9F8D85CA3D9F8D87CA3D9F8D8F8F97A
:10598000D1A5D9DFDAFAD8B18530F7D9DED8F83029
:10599000ADDADED8F2B48C99A32D557DA083DFDF7C
:1059A000DFB591A0F629D9FBD8A0FC29D9FAD8A057
:1059B000D051D9F8D8FC51D9F9D879D9FBD8A0D091
:1059C000FC79D9FAD8A1F9F9F9F9F9A0DADFDFDF22
:1059D000D8A1F8F8F8F8F8ACDEF8ADDE8393AC2C7B
:1059E000547CF1A8DFDFDFF69D2CDAA0DFD9FADBEB
:1059F0002DF8D8A850DAA0D0DED9D0F8F8F8DB55C9
:105A0000F8D8A878DAA0D0DFD9D0FAF8F8F8F8DB1F
:105A10007DF8D89CA88CF530DB38D9D0DEDFA0D05B
:105A2000DEDFD8A848DB58D9DFD0DEA0DFD0DED853
:105A3000A868DB70D9DFDFA0DFDFD8F1A888902C61
:105A4000547C98A8D05C38D1DAF2AE8CDFF9D8B0AB
:105A500087A8C1C1B188A8C6F9F9DA36D8A8F9DA99
:105A600036D8A8F9DA36D8A8F9DA36D8A8F9DA3665
:105A7000D8F78D9DADF818DAF2AEDFD8F7ADFA3071
:105A8000D9A4DEF9D8F2AEDEFAF983A7D9C3C5C727
:105A9000F1889BA77AADF7DEDFA4F8849408A79776
:105AA000F300AEF29819A488C6A39488F632DFF208
:105AB0008393DB09D9F2AADFD8D8AEF8F9D1DAF3AB
:105AC000A4DEA7F1889B7AD8F38494AE19F9DAAAF8
:105AD000F1DFD8A881C0C3C5C7A39283F628ADDE85
