:020000040800F2
:10000000A0070020CD0100085B4B0008DD050008BB
:10001000574B000815030008A35700080000000014
:10002000000000000000000000000000E152000895
:10003000A1030008000000003F500008C55400085C
:10004000E7010008E7010008E7010008E7010008F0
:10005000E7010008E7010008E7010008E7010008E0
:10006000E7010008E7010008E7010008E7010008D0
:10007000E7010008E7010008E7010008E7010008C0
:10008000E7010008E7010008E7010008E7010008B0
:10009000E7010008E7010008E7010008E7010008A0
:1000A000E7010008E7010008E7010008E701000890
:1000B000E7010008E701000829550008E7010008EA
:1000C000E7010008E7010008E7010008E701000870
:1000D000E701000881550008E7010008E701000872
:1000E000E7010008E7010008E7010008E701000850
:1000F000E7010008E7010008E7010008E701000840
:10010000E7010008E7010008E7010008E70100082F
:10011000E7010008E7010008E7010008E70100081F
:10012000E7010008E7010008E7010008E70100080F
:1001300000F002F800F03AF80AA090E8000C8244BF
:100140008344AAF10107DA4501D100F02FF8AFF29C
:10015000090EBAE80F0013F0010F18BFFB1A43F0A5
:10016000010318475479000074790000103A24BF45
:1001700078C878C1FAD8520724BF30C830C144BF0C
:1001800004680C607047000000230024002500264E
:10019000103A28BF78C1FBD8520728BF30C148BFEA
:1001A0000B6070471FB51FBD10B510BD00F06EF895
:1001B0001146FFF7F7FF05F097FB00F0A0F803B436
:1001C000FFF7F2FF03BC05F005FB0000094880477C
:1001D00009480047FEE7FEE7FEE7FEE7FEE7FEE729
:1001E000FEE7FEE7FEE7FEE704480549054A064B41
:1001F00070470000C954000831010008A001002028
:10020000A0070020A0030020A003002070470000EA
:100210000FB4044910B503AA029800F009F810BC05
:100220005DF814FB48000020704770477047704726
:10023000074B70B50D467B4400F011F80446284684
:1002400000F020F810B14FF0FF3070BD204670BDB7
:100250009356000001694A1C02610878704700B596
:100260008FB0CDE901310021059105497944CDE9EF
:1002700003101146684600F02EF80FB000BD0000D4
:10028000E5FFFFFF007B00F080007047754600F03F
:100290003DF8AE4605006946534620F00700854606
:1002A00018B020B5FFF7A0FFBDE820404FF00006D2
:1002B0004FF000074FF000084FF0000B21F007014E
:1002C000AC46ACE8C009ACE8C009ACE8C009ACE891
:1002D000C0098D4670472DE9F04106460024D6E955
:1002E0000170F5688046304603E04146B847641C1B
:1002F0003046A8470028F8D12046BDE8F0810446E2
:10030000AFF300802046FFF75AFF00000048704717
:100310003C01002000BFFEE72DE9F041074688467A
:1003200015460421052000F02DF80021012005F0DC
:100330003BFA80210A2004F0D4FF002405E0395D57
:10034000092005F031FA601CC4B24445F7DB0321F3
:10035000012005F029FAFF2400BF052004F00AFF60
:100360000646601EC4B21CB106F004000028F4D09A
:10037000222004F0FFFE2870212004F0FBFE6870AC
:10038000BDE8F08170B505460C460026284604F00D
:10039000F1FE064626EA0401284605F005FA70BD7E
:1003A0007047000051B18200A2F1C042126842F0D1
:1003B00001038200A2F1C042136009E08200A2F1B1
:1003C000C0421268034B1A408300A3F1C0431A6075
:1003D00070470000FEFF0F00D0E901121143C26810
:1003E0001143026911434269114382691143C26991
:1003F0001143026A1143426A1143826A1143C26A7D
:100400001143026B114302689200A2F1C0421160D5
:10041000816808290BD101688900A1F1C0410968F0
:1004200041F0400201688900A1F1C0410A60416BBE
:100430000968426B526841EA0211426B926841EAD4
:100440000221426B928941EA0241426B128A41EADF
:100450000251426B127D41EA0261426B9269114383
:100460000268521C9200A2F1C0421160C16AB1F54B
:10047000804F1BD1816B0968826B526841EA02117F
:10048000826B926841EA0221826B128A41EA025130
:10049000826B127D41EA0261826B926911430268AC
:1004A0009200A2F1C042C2F8041107E06FF070425E
:1004B00001688900A1F1C041C1F8042170472DE90C
:1004C000F0410246002500260020002300240027DA
:1004D00091F803C00CF00F0591F803C00CF0100C5C
:1004E000BCF1000F03D091F802C04CEA050591F869
:1004F00000C0BCF1000F31D0146800202BE04FF099
:10050000010C0CFA00F3B1F800C00CEA03069E429D
:1005100020D183004FF00F0C0CFA03F7BC4305FA0F
:1005200003FC4CEA040491F803C0BCF1280F06D187
:100530004FF0010C0CFA00FCC2F814C00AE091F86C
:1005400003C0BCF1480F05D14FF0010C0CFA00FCC0
:10055000C2F810C0401C0828D1D31460B1F800C004
:10056000BCF1FF0F34DD546800202EE000F1080CD0
:100570004FF0010808FA0CF3B1F800C00CEA0306CA
:100580009E4221D183004FF00F0C0CFA03F7BC43BD
:1005900005FA03FC4CEA040491F803C0BCF1280FEF
:1005A00005D100F1080C08FA0CF8C2F8148091F893
:1005B00003C0BCF1480F07D100F1080C4FF001084F
:1005C00008FA0CF8C2F81080401C0828CED35460FA
:1005D000BDE8F081416170470161704700BFFEE7EF
:1005E00010B504F0E1FD04F069FC04F0F9FA022012
:1005F00005F016F904F0FAFA412004F07DFA10BD76
:1006000070B50446002617480588408845431548BC
:10061000808846F60401884216D112488079012864
:1006200012D100200F4988712A2048812B2088810F
:100630000021084603F028FF01200A4988712B2079
:1006400048812A20888103E00021084603F01CFF2E
:1006500004F040FA002602E003480480761CAE4213
:10066000FAD370BD2C0100200008006C10B50446C0
:10067000002C66D16C498871F02008804FF4A0707E
:1006800048800846808849F2413188420BD066484C
:10069000808846F60401884205D06348808845F288
:1006A000103188421AD12C205F4908812A204881C4
:1006B0002B2088810846808846F60401884205D0B0
:1006C0005948808845F21031884206D14FF4A07015
:1006D000554908804FF4F0704880A1E05248808866
:1006E00045F21051884210D14FF430504E490881E4
:1006F0004FF4285048814FF42C5088814FF4F0700B
:1007000008804FF4487048808AE04748808841F666
:10071000631188420DD12C20434908812B20488148
:100720002A2088814FF4F07008804FF44870488088
:1007300076E022203C4908812020488121208881C0
:100740006EE00120384988714FF4A0700880F020D5
:1007500048800846808849F24131884205D03248B5
:10076000808845F21031884207D12C202E4908811B
:100770002A2048812B2088813FE02B48808846F63C
:100780000401884207D12C20274908812B20488169
:100790002A20888131E02448808845F2105188421F
:1007A00010D14FF43050204908814FF4285048812F
:1007B0004FF42C5088814FF4487008804FF4F0704B
:1007C00048801AE01848808841F6631188420DD1AC
:1007D0002C20154908812A2048812B2088814FF43C
:1007E000487008804FF4F070488006E022200E49DF
:1007F000088121204881202088810B48808846F686
:100800000401884205D00848808845F210318842AA
:1008100006D14FF4F070044908804FF4A07048806E
:10082000002003F0BBFC10BD2C01002030B50346B6
:100830000C4615465A48808849F24131884205D015
:100840005748808845F21031884214D1544948896C
:1008500004F03AF9181204F031F9D8B204F02EF984
:100860004F49888904F030F9201204F027F9E0B2EA
:1008700004F024F98CE04A48808845F210518842FF
:1008800020D14749488904F01FF9181204F016F9DD
:1008900043494989491C88B204F016F9D8B204F0DA
:1008A0000DF93F49888904F00FF9201204F006F988
:1008B0003B498989491C88B204F006F9E0B204F08A
:1008C000FDF865E03648808841F66311884228D1FA
:1008D0003348807920B932480088401EC01A83B25C
:1008E0002F49488904F0F0F8181204F0E7F8D8B25C
:1008F00004F0E4F8181204F0E1F8D8B204F0DEF8DD
:100900002749888904F0E0F8201204F0D7F8E0B213
:1009100004F0D4F8201204F0D1F8E0B204F0CEF8DC
:1009200036E01F48808846F6040188421DD11C48E5
:100930008079012804D11A480088401EC01A83B269
:100940001749488904F0C0F8181204F0B7F8D8B273
:1009500004F0B4F81249888904F0B6F8201204F0C3
:10096000ADF8E0B204F0AAF812E00D488079012851
:1009700004D10B480088401EC01A83B20849488938
:10098000194604F0B1F806498889214604F0ACF80C
:100990000348008903490880881C058030BD000099
:1009A0002C010020FE07006C00B59FB00121080259
:1009B00004F046FB01214FF4B47004F061FB012008
:1009C000ADF8780010208DF87B0003208DF87A00B8
:1009D0001EA9FE48FFF773FD4CF23370ADF87800A6
:1009E00018208DF87B0003208DF87A001EA9F848A6
:1009F000FFF765FD4FF68070ADF8780018208DF890
:100A00007B0003208DF87A001EA9F248FFF757FDFE
:100A100041F20100ADF8780018208DF87B0003202A
:100A20008DF87A001EA9EC48FFF749FD01200890D7
:100A3000002009900F200A9000200B900C900D9040
:100A40000E900190029003200390002004900590E6
:100A50000690079006200F90002010901190102013
:100A600012900020139015901490169017904FF448
:100A700080501890002019904FF480401A90002068
:100A80001B9008A81C9001A81D900FA8FFF7A4FCBC
:100A900001210620FFF786FC322004F0C1FE002071
:100AA00003F046FBCD49888008468088FF280ADB92
:100AB000084680884FF6FF71884204D0C748808876
:100AC000B0F5134F7ED1D32003F0FEFF03F026FBD9
:100AD000C249888003F022FBC049888003F01EFBD6
:100AE000BE498880084680884FF6FF7101EA0020E1
:100AF000BA49888003F012FBB84989880843B7498E
:100B000088800846808849F2413188425AD0BF2007
:100B100003F0DAFF03F002FBB049888003F0FEFA2D
:100B2000AE49888003F0FAFAAC49888003F0F6FAFF
:100B3000AA498880084680884FF6FF7101EA0020A4
:100B4000A649888003F0EAFAA44989880843A349A2
:100B500088800846808846F6040188427AD0D420EE
:100B600003F0B2FF03F0DAFA9C49888003F0D6FA6A
:100B70009A49888003F0D2FA98498880084680888C
:100B80004FF6FF7101EA00209449888003F0C6FA0D
:100B9000924989880843914988800846808845F2AF
:100BA0001031884256D04FF45A4003F08DFF03F0C5
:100BB000B5FA8A4988804FF45B4003F085FF03F063
:100BC000ADFA00E046E085498880084680884FF607
:100BD000FF7101EA0020814988804FF45C4003F0F6
:100BE00073FF03F09BFA7D49898808437B4988801D
:100BF00008468088B0F5004F02D145F21050888039
:100C00007648808845F21051884223D0A12003F015
:100C10005BFF03F083FA7149888003F07FFA6F4924
:100C20008880084680884FF6FF7101EA00206B49F2
:100C3000888003F073FA6949898808436749888086
:100C40000846808845F26171884203D141F66310FD
:100C5000624988806148808849F2413188427CD16C
:100C6000CF2003F031FF002003F028FFC12003F064
:100C700025FF302003F022FFED2003F025FF642044
:100C800003F01CFF032003F019FF122003F016FFEE
:100C9000812003F013FFE82003F016FF852003F006
:100CA0000DFF102003F00AFF7A2003F007FFCB208E
:100CB00003F00AFF392003F001FF2C2003F0FEFEB1
:100CC000002003F0FBFE342003F0F8FE022003F0C6
:100CD000F5FEF72003F0F8FE202003F0EFFEEA20F7
:100CE00003F0F2FE002003F0E9FE002003F0E6FE30
:100CF000C02003F0E9FE1B2003F0E0FEC12003F05A
:100D0000E3FE012003F0DAFEC52003F0DDFE302013
:100D100003F0D4FE302003F0D1FEC72003F0D4FE50
:100D2000B72003F0CBFE362003F0CEFE482003F0C0
:100D3000C5FE3A2003F0C8FE552003F0BFFEB120E7
:100D400003F0C2FE002003F0B9FE1A2003F0B6FE45
:100D5000B62003F0B9FE0A2000E0A5E003F0AEFEE5
:100D6000A22003F0ABFEF22003F0AEFE002003F061
:100D7000A5FE262003F0A8FE012003F09FFEE02040
:100D800003F0A2FE0F2003F099FE2A2003F096FE46
:100D9000282003F093FE082003F090FE0E2003F0BD
:100DA0008DFE082003F08AFE542003F087FEA92060
:100DB00003F084FE432003F081FE0A2003F07EFE50
:100DC0000F2003F07BFE00200AE00000000C014031
:100DD0000014014000180140002001402C010020B7
:100DE00003F06CFE002003F069FE002003F066FEB5
:100DF000002003F063FEE12003F066FE002003F014
:100E00005DFE152003F05AFE172003F057FE072061
:100E100003F054FE112003F051FE062003F04EFEB5
:100E20002B2003F04BFE562003F048FE3C2003F03D
:100E300045FE052003F042FE102003F03FFE0F2088
:100E400003F03CFE3F2003F039FE3F2003F036FE66
:100E50000F2003F033FE2B2003F036FE002003F0BA
:100E60002DFE002003F02AFE012003F027FE3F2084
:100E700003F024FE2A2003F027FE002003F01EFECC
:100E8000002003F01BFE002003F018FEEF2003F00B
:100E900015FE112003F018FE782004F0C1FC292073
:100EA00003F012FE03F01DB9FE48808846F60401E7
:100EB00088427CD1112003F007FE142004F0B0FC1E
:100EC000D02003F001FE072003F0F8FD422003F0DC
:100ED000F5FD1D2003F0F2FDD12003F0F5FD00200B
:100EE00003F0ECFD1A2003F0E9FD092003F0E6FD14
:100EF000D22003F0E9FD012003F0E0FD222003F001
:100F0000DDFDC02003F0E0FD102003F0D7FD3B2005
:100F100003F0D4FD002003F0D1FD022003F0CEFD4C
:100F2000112003F0CBFDC52003F0CEFD032003F01C
:100F3000C5FDC82003F0C8FD002003F0BFFD25203B
:100F400003F0BCFD212003F0B9FD052003F0B6FD40
:100F5000002003F0B3FD0A2003F0B0FD652003F08C
:100F6000ADFD252003F0AAFD772003F0A7FD50205A
:100F700003F0A4FD0F2003F0A1FD002003F09EFD6F
:100F8000F82003F0A1FD012003F098FDFE2003F0FE
:100F90009BFD002003F092FD022003F08FFD202036
:100FA00003F092FD362003F08FFD082000E02CE0D6
:100FB00003F084FD3A2003F087FD552003F07EFD09
:100FC0002B2003F081FD002003F078FD002003F0CA
:100FD00075FD012003F072FD3F2003F06FFD2A2014
:100FE00003F072FD002003F069FD002003F066FDB0
:100FF000012003F063FDDF2003F060FD782004F0A2
:101000000FFC292003F060FD4CE7A648808845F2DC
:101010001031884240F07C87ED2003F055FD01201F
:1010200003F04CFDFE2003F049FDEE2003F04CFDE3
:10103000DE2003F043FD212003F040FDF12003F00A
:1010400043FD012003F03AFDDF2003F03DFD1020B9
:1010500003F034FDC42003F037FD8F2003F02EFD94
:10106000C62003F031FD002003F028FDE22003F04C
:1010700025FDE22003F022FDE22003F01FFDBF204A
:1010800003F022FDAA2003F019FDB02003F01CFD9F
:101090000D2003F013FD002003F010FD0D2003F0E0
:1010A0000DFD002003F00AFD112003F007FD0020D4
:1010B00003F004FD192003F001FD002003F0FEFC05
:1010C000212003F0FBFC002003F0F8FC2D2003F0AE
:1010D000F5FC002003F0F2FC3D2003F0EFFC0020C3
:1010E00003F0ECFC5D2003F0E9FC002003F0E6FCDB
:1010F0005D2003F0E3FC002003F0E0FCB12003F0EE
:10110000E3FC802003F0DAFC002003F0D7FC8B2006
:1011100003F0D4FC002003F0D1FC962003F0CEFCB9
:10112000002003F0CBFCB22003F0CEFC002003F043
:10113000C5FC002003F0C2FC022003F0BFFC00202D
:1011400003F0BCFC032003F0B9FC002003F0B6FC64
:10115000B32003F0B9FC002003F0B0FC002003F042
:10116000ADFC002003F0AAFC002003F0A7FC002047
:1011700003F0A4FC002003F0A1FC002003F09EFC7F
:10118000002003F09BFC002003F098FC002003F0FB
:1011900095FC002003F092FC002003F08FFC00205F
:1011A00003F08CFC002003F089FC002003F086FC97
:1011B000002003F083FC002003F080FC002003F0FB
:1011C0007DFC002003F07AFC002003F077FC002077
:1011D00003F074FC002003F071FC002003F06EFCAF
:1011E000002003F06BFCB42003F06EFC8B2003F0B6
:1011F00065FC002003F062FC962003F05FFC0020F9
:1012000003F05CFCA12003F059FC002003F056FC25
:10121000B52003F059FC022003F050FC002003F03D
:101220004DFC032003F04AFC002003F047FC04209F
:1012300003F044FC002003F041FCB62003F044FC22
:10124000002003F03BFC002003F038FCB72003F043
:101250003BFC002003F032FC002003F02FFC3F2079
:1012600003F02CFC002003F029FC5E2003F026FC98
:10127000002003F023FC642003F020FC002003F096
:101280001DFC8C2003F01AFC002003F017FCAC209E
:1012900003F014FC002003F011FCDC2003F00EFC32
:1012A000002001E02C01002003F008FC702003F076
:1012B00005FC002003F002FC902003F0FFFB00205F
:1012C00003F0FCFBEB2003F0F9FB002003F0F6FB3E
:1012D000DC2003F0F3FB002003F0F0FBB82003F068
:1012E000F3FB002003F0EAFB002003F0E7FB002003
:1012F00003F0E4FB002003F0E1FB002003F0DEFB41
:10130000002003F0DBFB002003F0D8FB002003F0FB
:10131000D5FBBA2003F0D8FB242003F0CFFB00203C
:1013200003F0CCFB002003F0C9FB002003F0C6FB58
:10133000C12003F0C9FB202003F0C0FB002003F014
:10134000BDFB542003F0BAFB002003F0B7FBFF20E5
:1013500003F0B4FB002003F0B1FBC22003F0B4FBA8
:101360000A2003F0ABFB002003F0A8FB042003F0ED
:10137000A5FB002003F0A2FBC32003F0A5FB3C204B
:1013800003F09CFB002003F099FB3A2003F096FB4E
:10139000002003F093FB392003F090FB002003F0C2
:1013A0008DFB372003F08AFB002003F087FB3C20F5
:1013B00003F084FB002003F081FB362003F07EFB6A
:1013C000002003F07BFB322003F078FB002003F0C9
:1013D00075FB2F2003F072FB002003F06FFB2C2025
:1013E00003F06CFB002003F069FB292003F066FB8F
:1013F000002003F063FB262003F060FB002003F0D5
:101400005DFB242003F05AFB002003F057FB24204F
:1014100003F054FB002003F051FB232003F04EFBAC
:10142000002003F04BFB3C2003F048FB002003F0BE
:1014300045FB362003F042FB002003F03FFB322047
:1014400003F03CFB002003F039FB2F2003F036FBB8
:10145000002003F033FB2C2003F030FB002003F0CE
:101460002DFB292003F02AFB002003F027FB262078
:1014700003F024FB002003F021FB242003F01EFBDB
:10148000002003F01BFB242003F018FB002003F0D6
:1014900015FB232003F012FB002003F00FFBC420F8
:1014A00003F012FB622003F009FB002003F006FBAF
:1014B000052003F003FB002003F000FB842003F071
:1014C000FDFA002003F0FAFAF02003F0F7FA00200A
:1014D00003F0F4FA182003F0F1FA002003F0EEFA1A
:1014E000A42003F0EBFA002003F0E8FA182003F040
:1014F000E5FA002003F0E2FA502003F0DFFA0020C2
:1015000003F0DCFA0C2003F0D9FA002003F0D6FA3D
:10151000172003F0D3FA002003F0D0FA952003F04F
:10152000CDFA002003F0CAFAF32003F0C7FA002036
:1015300003F0C4FAE62003F0C1FA002003F0BEFA7B
:10154000C52003F0C1FA322003F0B8FA002003F0FE
:10155000B5FA442003F0B2FA002003F0AFFA652098
:1015600003F0ACFA002003F0A9FA762003F0A6FA03
:10157000002003F0A3FA882003F0A0FA002003F073
:101580009DFAC62003F0A0FA202003F097FA00206D
:1015900003F094FA172003F091FA002003F08EFA7A
:1015A000012003F08BFA002003F088FAC72003F033
:1015B0008BFA002003F082FA002003F07FFA00206B
:1015C00003F07CFA002003F079FAC82003F07CFADB
:1015D000002003F073FA002003F070FA002003F0FB
:1015E0006DFA002003F06AFAC92003F06DFA0020BA
:1015F00003F064FA002003F061FA002003F05EFAC1
:10160000002003F05BFA002003F058FA002003F0FA
:1016100055FA002003F052FA002003F04FFA0020A0
:1016200003F04CFA002003F049FA002003F046FAD8
:10163000002003F043FA002003F040FA002003F0FA
:101640003DFA002003F03AFA002003F037FAE020D8
:1016500003F03AFA162003F031FA002003F02EFAD4
:101660001C2003F02BFA002003F028FA212003F0BD
:1016700025FA002003F022FA362003F01FFA00209A
:1016800003F01CFA462003F019FA002003F016FAC2
:10169000522003F013FA002003F010FA642003F044
:1016A0000DFA002003F00AFA7A2003F007FA00206E
:1016B00003F004FA8B2003F001FA002003F0FEF996
:1016C000992003F0FBF9002003F0F8F9A82003F0BB
:1016D000F5F9002003F0F2F9B92003F0EFF900204A
:1016E00003F0ECF9C42003F0E9F9002003F0E6F977
:1016F000CA2003F0E3F9002003F0E0F9D22003F060
:10170000DDF9002003F0DAF9D92003F0D7F9002041
:1017100003F0D4F9E02003F0D1F9002003F0CEF972
:10172000F32003F0CBF9002003F0C8F9E12003F027
:10173000CBF9162003F0C2F9002003F0BFF91C20FA
:1017400003F0BCF9002003F0B9F9222003F0B6F948
:10175000002003F0B3F9362003F0B0F9002003F0C5
:10176000ADF9452003F0AAF9002003F0A7F95220B3
:1017700003F0A4F9002003F0A1F9642003F09EF91E
:10178000002003F09BF97A2003F098F9002003F081
:1017900095F98B2003F092F9002003F08FF999203E
:1017A00003F08CF9002003F089F9A82003F086F9F2
:1017B000002003F083F9B92003F080F9002003F042
:1017C0007DF9C42003F07AF9002003F077F9CA20EC
:1017D00003F074F9002003F071F9D22003F06EF9E0
:1017E000002003F06BF9D82003F068F9002003F023
:1017F00065F9E02003F062F9002003F05FF9F320BF
:1018000003F05CF9002003F059F9E22003F05CF9E1
:10181000052003F053F9002003F050F90B2003F0EA
:101820004DF9002003F04AF91B2003F047F900208E
:1018300003F044F9342003F041F9002003F03EF9AD
:10184000442003F03BF9002003F038F94F2003F067
:1018500035F9002003F032F9612003F02FF9002060
:1018600003F02CF9792003F029F9002003F026F980
:10187000882003F023F9002003F020F9972003F0DB
:101880001DF9002003F01AF9A62003F017F9002033
:1018900003F014F9B72003F011F9002003F00EF95A
:1018A000C22003F00BF9002003F008F9C72003F071
:1018B00005F9002003F002F9D12003F0FFF8002021
:1018C00003F0FCF8D62003F0F9F8002003F0F6F856
:1018D000DD2003F0F3F8002003F0F0F8F32003F02C
:1018E000EDF8002003F0EAF8E32003F0EDF805201E
:1018F00003F0E4F8002003F0E1F80A2003F0DEF83A
:10190000002003F0DBF81C2003F0D8F8002003F0DF
:10191000D5F8332003F0D2F8002003F0CFF84420AC
:1019200003F0CCF8002003F0C9F8502003F0C6F80B
:10193000002003F0C3F8622003F0C0F8002003F099
:10194000BDF8782003F0BAF8002003F0B7F888203B
:1019500003F0B4F8002003F0B1F8972003F0AEF8DC
:10196000002003F0ABF8A62003F0A8F8002003F055
:10197000A5F8B72003F0A2F8002003F09FF8C220DA
:1019800003F09CF8002003F099F8C72003F096F8C4
:10199000002003F093F8D12003F090F8002003F02A
:1019A0008DF8D52003F08AF8002003F087F8DD20B9
:1019B00003F084F8002003F081F8F32003F07EF8B0
:1019C000002003F07BF8E42003F07EF8012003F010
:1019D00075F8002003F072F8012003F06FF8002082
:1019E00003F06CF8022003F069F8002003F066F8B9
:1019F0002A2003F063F8002003F060F83C2003F095
:101A00005DF8002003F05AF84B2003F057F800204F
:101A100003F054F85D2003F051F8002003F04EF875
:101A2000742003F04BF8002003F048F8842003F002
:101A300045F8002003F042F8932003F03FF800201F
:101A400003F03CF8A22003F039F8002003F036F848
:101A5000B32003F033F8002003F030F8BE2003F089
:101A60002DF8002003F02AF8C42003F027F8002006
:101A700003F024F8CD2003F021F8002003F01EF835
:101A8000D32003F01BF8002003F018F8DD2003F04A
:101A900015F8002003F012F8F32003F00FF80020EF
:101AA00003F00CF8E52003F00FF8002003F006F82F
:101AB000002003F003F8002003F000F8002002F0FB
:101AC000FDFF022002F0FAFF002002F0F7FF2920BC
:101AD00002F0F4FF002002F0F1FF3C2002F0EEFFE4
:101AE000002002F0EBFF4B2002F0E8FF002002F0A4
:101AF000E5FF5D2002F0E2FF002002F0DFFF74202E
:101B000002F0DCFF002002F0D9FF842002F0D6FFB3
:101B1000002002F0D3FF932002F0D0FF002002F05B
:101B2000CDFFA22002F0CAFF002002F0C7FFB320C1
:101B300002F0C4FF002002F0C1FFBE2002F0BEFF91
:101B4000002002F0BBFFC42002F0B8FF002002F02A
:101B5000B5FFCD2002F0B2FF002002F0AFFFD3208E
:101B600002F0ACFF002002F0A9FFDC2002F0A6FF8B
:101B7000002002F0A3FFF32002F0A0FF002002F0FB
:101B80009DFFE62002F0A0FF112002F097FF002049
:101B900002F094FF342002F091FF002002F08EFF4B
:101BA000562002F08BFF002002F088FF762002F022
:101BB00085FF002002F082FF772002F07FFF0020E7
:101BC00002F07CFF662002F079FF002002F076FF31
:101BD000882002F073FF002002F070FF992002F0CD
:101BE0006DFF002002F06AFFBB2002F067FF0020BB
:101BF00002F064FF992002F061FF002002F05EFF16
:101C0000662002F05BFF002002F058FF552002F032
:101C100055FF002002F052FF552002F04FFF002038
:101C200002F04CFF452002F049FF002002F046FF81
:101C3000432002F043FF002002F040FF442002F066
:101C40003DFF002002F03AFFE72002F03DFF322086
:101C500002F034FF002002F031FF552002F02EFF89
:101C6000002002F02BFF762002F028FF002002F077
:101C700025FF662002F022FF002002F01FFF6720F0
:101C800002F01CFF002002F019FF672002F016FF8F
:101C9000002002F013FF872002F010FF002002F066
:101CA0000DFF992002F00AFF002002F007FFBB2081
:101CB00002F004FF002002F001FF992002F0FEFE76
:101CC000002002F0FBFE772002F0F8FE002002F078
:101CD000F5FE442002F0F2FE002002F0EFFE562056
:101CE00002F0ECFE002002F0E9FE232002F0E6FE06
:101CF000002002F0E3FE332002F0E0FE002002F0BC
:101D0000DDFE452002F0DAFE002002F0D7FEE820DA
:101D100002F0DAFE002002F0D1FE002002F0CEFE3A
:101D2000992002F0CBFE002002F0C8FE872002F0CE
:101D3000C5FE002002F0C2FE882002F0BFFE002097
:101D400002F0BCFE772002F0B9FE002002F0B6FEE1
:101D5000662002F0B3FE002002F0B0FE882002F000
:101D6000ADFE002002F0AAFEAA2002F0A7FE00208D
:101D700002F0A4FEBB2002F0A1FE002002F09EFEB5
:101D8000992002F09BFE002002F098FE662002F0EF
:101D900095FE002002F092FE552002F08FFE0020FA
:101DA00002F08CFE552002F089FE002002F086FE33
:101DB000442002F083FE002002F080FE442002F066
:101DC0007DFE002002F07AFE552002F077FE002012
:101DD00002F074FEE92002F077FEAA2002F06EFE07
:101DE000002002F06BFE002002F068FE002002F0EE
:101DF00065FE002002F068FEAA2002F05FFECF2000
:101E000002F062FE002002F059FE002002F056FEB1
:101E1000002002F053FE002002F050FE002002F0ED
:101E20004DFE002002F04AFE002002F047FE002096
:101E300002F044FE002002F041FE002002F03EFECF
:101E4000002002F03BFE002002F038FE002002F0ED
:101E500035FE002002F032FE002002F02FFE0020AE
:101E600002F02CFE002002F029FEF02002F02CFEF1
:101E7000002002F023FE502002F020FE002002F09D
:101E80001DFE002002F01AFE002002F017FEF320D3
:101E900002F01AFE002002F011FEF92002F014FEFA
:101EA000062002F00BFE102002F008FE292002F0AE
:101EB00005FE002002F002FE3A2002F005FE552049
:101EC00002F0FCFD112002F0FFFD642003F0A8FCED
:101ED000292002F0F9FD352002F0F6FD002002F085
:101EE000EDFD512002F0F0FDFF2002F0E7FD532050
:101EF00002F0EAFD2C2002F0E1FD552002F0E4FDA5
:101F0000822002F0DBFD2C2002F0DEFD02F0E9B8B9
:101F1000FE48808845F2105188427DD155214FF40A
:101F2000704002F0E1FDAA214FF2010002F0DCFD59
:101F300052214FF2020002F0D7FD08214FF20300B8
:101F400002F0D2FD01214FF2040002F0CDFD0D217F
:101F50004FF4304002F0C8FD0D214BF2010002F0B9
:101F6000C3FD0D214BF2020002F0BEFD34214FF4FF
:101F7000364002F0B9FD34214BF2016002F0B4FDAD
:101F800034214BF2026002F0AFFD0D214FF43140DD
:101F900002F0AAFD0D214BF2011002F0A5FD0D216A
:101FA0004BF2021002F0A0FD34214FF4374002F052
:101FB0009BFD34214BF2017002F096FD34214BF26F
:101FC000027002F091FD00214FF4324002F08CFDCE
:101FD00000214BF2012002F087FD00214BF202208C
:101FE00002F082FD24214FF4384002F07DFD2421CF
:101FF0004BF6010002F078FD24214BF6020002F0BE
:1020000073FD01214FF43F4002F06EFD0F214FF4AC
:10201000334002F069FD00E0FDE30F214BF2013097
:1020200002F062FD0F214BF2023002F05DFD34211F
:102030004FF4394002F058FD34214BF6011002F004
:1020400053FD34214BF6021002F04EFD08214FF4EF
:10205000354002F049FD08214BF2015002F044FDE9
:1020600008214BF2025002F03FFD03214FF44240A1
:1020700002F03AFD24214FF43A4002F035FD2421CC
:102080004BF6012002F030FD24214BF6022002F035
:102090002BFD00214FF43C4002F026FD78214BF649
:1020A000014002F021FD00214BF6024002F01CFD30
:1020B00000214FF43D4002F017FD78214BF601500E
:1020C00002F012FD00214BF6025002F00DFD00213E
:1020D0004FF43E4002F008FD64214BF6016002F02F
:1020E00003FD00214FF4514002F0FEFC33214DF27C
:1020F000011002F0F9FC00214DF2021002F0F4FC94
:1021000034214DF2031002F0EFFC00214DF20410D7
:1021100002F0EAFC3A214DF2051002F0E5FC002144
:102120004DF2061002F0E0FC4A214DF2071002F0D9
:10213000DBFC00214DF2081002F0D6FC5C214DF2D0
:10214000091002F0D1FC00214DF20A1002F0CCFC83
:1021500081214DF20B1002F0C7FC00214DF20C1052
:1021600002F0C2FCA6214DF20D1002F0BDFC0021D0
:102170004DF20E1002F0B8FCE5214DF20F1002F006
:10218000B3FC01214DF2101002F0AEFC13214DF210
:10219000111002F0A9FC01214DF2121002F0A4FC72
:1021A00054214DF2131002F09FFC01214DF2141046
:1021B00002F09AFC82214DF2151002F095FC0121EB
:1021C0004DF2161002F090FCCA214DF2171002F0E9
:1021D0008BFC02214DF2181002F086FC00214DF21A
:1021E000191002F081FC02214DF21A1002F07CFC61
:1021F00001214DF21B1002F077FC02214DF21C1060
:1022000002F072FC34214DF21D1002F06DFC02212F
:102210004DF21E1002F068FC67214DF21F1002F013
:1022200063FC02214DF2201002F05EFC84214DF28D
:10223000211002F059FC02214DF2221002F054FC50
:10224000A4214DF2231002F04FFC02214DF2241084
:1022500002F04AFCB7214DF2251002F045FC0221A4
:102260004DF2261002F040FCCF214DF2271002F073
:102270003BFC02214DF2281002F036FCDE214DF22B
:10228000291002F031FC02214DF22A1002F02CFC40
:10229000F2214DF22B1002F027FC02214DF22C10FE
:1022A00002F022FCFE214DF22D1002F01DFC032154
:1022B0004DF22E1002F018FC10214DF22F1002F0FA
:1022C00013FC03214DF2301002F00EFC33214DF2CD
:1022D000311002F009FC03214DF2321002F004FC2F
:1022E0006D214DF2331002F0FFFB00214FF45240FC
:1022F00002F0FAFB33214DF2012002F0F5FB002140
:102300004DF2022002F0F0FB342101E02C0100200C
:102310004DF2032002F0E8FB00214DF2042002F010
:10232000E3FB3A214DF2052002F0DEFB00214DF2E5
:10233000062002F0D9FB4A214DF2072002F0D4FB1F
:1023400000214DF2082002F0CFFB5C214DF2092064
:1023500002F0CAFB00214DF20A2002F0C5FB8121E8
:102360004DF20B2002F0C0FB00214DF20C2002F0D8
:10237000BBFBA6214DF20D2002F0B6FB00214DF271
:102380000E2002F0B1FBE5214DF20F2002F0ACFB74
:1023900001214DF2102002F0A7FB13214DF2112074
:1023A00002F0A2FB01214DF2122002F09DFB54210C
:1023B0004DF2132002F098FB01214DF2142002F09F
:1023C00093FB82214DF2152002F08EFB01214DF28C
:1023D000162002F089FBCA214DF2172002F084FB7F
:1023E00002214DF2182002F07FFB00214DF219204E
:1023F00002F07AFB02214DF21A2002F075FB012156
:102400004DF21B2002F070FB02214DF21C2002F065
:102410006BFB34214DF21D2002F066FB02214DF2D0
:102420001E2002F061FB67214DF21F2002F05CFBD1
:1024300002214DF2202002F057FB84214DF2212091
:1024400002F052FB02214DF2222002F04DFBA421AA
:102450004DF2232002F048FB02214DF2242002F02D
:1024600043FBB7214DF2252002F03EFB02214DF245
:10247000262002F039FBCF214DF2272002F034FB59
:1024800002214DF2282002F02FFBDE214DF22920FF
:1024900002F02AFB02214DF22A2002F025FBF22154
:1024A0004DF22B2002F020FB02214DF22C2002F0F5
:1024B0001BFBFE214DF22D2002F016FB03214DF2F5
:1024C0002E2002F011FB10214DF22F2002F00CFB08
:1024D00003214DF2302002F007FB33214DF2312071
:1024E00002F002FB03214DF2322002F0FDFA6D21D1
:1024F0004DF2332002F0F8FA00214FF4534002F07D
:10250000F3FA33214DF2013002F0EEFA00214DF2E0
:10251000023002F0E9FA34214DF2033002F0E4FA1D
:1025200000214DF2043002F0DFFA3A214DF205307D
:1025300002F0DAFA00214DF2063002F0D5FA4A2113
:102540004DF2073002F0D0FA00214DF2083002F0CF
:10255000CBFA5C214DF2093002F0C6FA00214DF2AF
:102560000A3002F0C1FA81214DF20B3002F0BCFAC0
:1025700000214DF20C3002F0B7FAA6214DF20D30D9
:1025800002F0B2FA00214DF20E3002F0ADFAE52170
:102590004DF20F3002F0A8FA01214DF2103002F096
:1025A000A3FA13214DF2113002F09EFA01214DF2EF
:1025B000123002F099FA54214DF2133002F094FADD
:1025C00001214DF2143002F08FFA82214DF21530C4
:1025D00002F08AFA01214DF2163002F085FACA2182
:1025E0004DF2173002F080FA02214DF2183002F05D
:1025F0007BFA00214DF2193002F076FA02214DF2F9
:102600001A3002F071FA01214DF21B3002F06CFA1F
:1026100002214DF21C3002F067FA34214DF21D30D8
:1026200002F062FA02214DF21E3002F05DFA6721DB
:102630004DF21F3002F058FA02214DF2203002F024
:1026400053FA84214DF2213002F04EFA02214DF26C
:10265000223002F049FAA4214DF2233002F044FA6C
:1026600002214DF2243002F03FFAB7214DF225301D
:1026700002F03AFA02214DF2263002F035FACF216B
:102680004DF2273002F030FA02214DF2283002F0EC
:102690002BFADE214DF2293002F026FA02214DF20A
:1026A0002A3002F021FAF2214DF22B3002F01CFA0E
:1026B00002214DF22C3002F017FAFE214DF22D309E
:1026C00002F012FA03214DF22E3002F00DFA102121
:1026D0004DF22F3002F008FA03214DF2303002F0B3
:1026E00003FA33214DF2313002F0FEF903214DF2AD
:1026F000323002F0F9F96D214DF2333002F0F4F985
:1027000000214FF4544002F0EFF933214DF2014023
:1027100002F0EAF900214DF2024002F0E5F934211D
:102720004DF2034002F0E0F900214DF2044002F0C6
:10273000DBF93A214DF2054002F0D6F900214DF2C5
:10274000064002F0D1F94A214DF2074002F0CCF9DF
:1027500000214DF2084002F0C7F95C214DF209401A
:1027600002F0C2F900214DF20A4002F0BDF98121C8
:102770004DF20B4002F0B8F900214DF20C4002F08E
:10278000B3F9A6214DF20D4002F0AEF900214DF251
:102790000E4002F0A9F9E5214DF20F4002F0A4F934
:1027A00001214DF2104002F09FF913214DF211402A
:1027B00002F09AF901214DF2124002F095F95421EC
:1027C0004DF2134002F090F901214DF2144002F055
:1027D0008BF982214DF2154002F086F901214DF26C
:1027E000164002F081F9CA214DF2174002F07CF93F
:1027F00002214DF2184002F077F900214DF2194004
:1028000002F072F902214DF21A4002F06DF9012135
:102810004DF21B4000E006E302F066F902214DF2A2
:102820001C4002F061F934214DF21D4002F05CF9C8
:1028300002214DF21E4002F057F967214DF21F4070
:1028400002F052F902214DF2204002F04DF98421AC
:102850004DF2214002F048F902214DF2224002F0EF
:1028600043F9A4214DF2234002F03EF902214DF23A
:10287000244002F039F9B7214DF2254002F034F935
:1028800002214DF2264002F02FF9CF214DF22740D0
:1028900002F02AF902214DF2284002F025F9DE214A
:1028A0004DF2294002F020F902214DF22A4002F0B7
:1028B0001BF9F2214DF22B4002F016F902214DF2E4
:1028C0002C4002F011F9FE214DF22D4002F00CF9DE
:1028D00003214DF22E4002F007F910214DF22F4056
:1028E00002F002F903214DF2304002F0FDF83321ED
:1028F0004DF2314002F0F8F803214DF2324002F07F
:10290000F3F86D214DF2334002F0EEF800214FF460
:10291000554002F0E9F833214DF2015002F0E4F89D
:1029200000214DF2025002F0DFF834214DF2035045
:1029300002F0DAF800214DF2045002F0D5F83A2105
:102940004DF2055002F0D0F800214DF2065002F091
:10295000CBF84A214DF2075002F0C6F800214DF2A3
:10296000085002F0C1F85C214DF2095002F0BCF8A9
:1029700000214DF20A5002F0B7F881214DF20B50C0
:1029800002F0B2F800214DF20C5002F0ADF8A62191
:102990004DF20D5002F0A8F800214DF20E5002F059
:1029A000A3F8E5214DF20F5002F09EF801214DF2FF
:1029B000105002F099F813214DF2115002F094F8E2
:1029C00001214DF2125002F08FF854214DF21350B4
:1029D00002F08AF801214DF2145002F085F88221AC
:1029E0004DF2155002F080F801214DF2165002F020
:1029F0007BF8CA214DF2175002F076F802214DF211
:102A0000185002F071F800214DF2195002F06CF8E4
:102A100002214DF21A5002F067F801214DF21B50CD
:102A200002F062F802214DF21C5002F05DF83421F0
:102A30004DF21D5002F058F802214DF21E5002F0E6
:102A400053F867214DF21F5002F04EF802214DF26B
:102A5000205002F049F884214DF2215002F044F850
:102A600002214DF2225002F03FF8A4214DF22350F2
:102A700002F03AF802214DF2245002F035F8B72165
:102A80004DF2255002F030F802214DF2265002F0AE
:102A90002BF8CF214DF2275002F026F802214DF2FB
:102AA000285002F021F8DE214DF2295002F01CF8E6
:102AB00002214DF22A5002F017F8F2214DF22B506C
:102AC00002F012F802214DF22C5002F00DF8FE2116
:102AD0004DF22D5002F008F803214DF22E5002F075
:102AE00003F810214DF22F5001F0FEFF03214DF2AB
:102AF000305001F0F9FF33214DF2315001F0F4FF75
:102B000003214DF2325001F0EFFF6D214DF23350B1
:102B100001F0EAFF00214FF4564001F0E5FF3321B8
:102B20004DF2016001F0E0FF00214DF2026001F082
:102B3000DBFF34214DF2036001F0D6FF00214DF29E
:102B4000046001F0D1FF3A214DF2056001F0CCFFA5
:102B500000214DF2066001F0C7FF4A214DF20760E7
:102B600001F0C2FF00214DF2086001F0BDFF5C21C1
:102B70004DF2096001F0B8FF00214DF20A6001F04A
:102B8000B3FF81214DF20B6001F0AEFF00214DF249
:102B90000C6001F0A9FFA6214DF20D6001F0A4FF29
:102BA00000214DF20E6001F09FFFE5214DF20F6014
:102BB00001F09AFF01214DF2106001F095FF132101
:102BC0004DF2116001F090FF01214DF2126001F011
:102BD0008BFF54214DF2136001F086FF01214DF26D
:102BE000146001F081FF82214DF2156001F07CFF3D
:102BF00001214DF2166001F077FFCA214DF21760F6
:102C000001F072FF02214DF2186001F06DFF00210A
:102C10004DF2196001F068FF02214DF21A6001F0D7
:102C200063FF01214DF21B6001F05EFF02214DF2B6
:102C30001C6001F059FF34214DF21D6001F054FF7A
:102C400002214DF21E6001F04FFF67214DF21F601F
:102C500001F04AFF02214DF2206001F045FF84217E
:102C60004DF2216001F040FF02214DF2226001F09F
:102C70003BFFA4214DF2236001F036FF02214DF20B
:102C8000246001F031FFB7214DF2256001F02CFFE7
:102C900002214DF2266001F027FFCF214DF227607F
:102CA00001F022FF02214DF2286001F01DFFDE211C
:102CB0004DF2296001F018FF02214DF22A6001F067
:102CC00013FFF2214DF22B6001F00EFF02214DF2B5
:102CD0002C6001F009FFFE214DF22D6001F004FF90
:102CE00003214DF22E6001F0FFFE10214DF22F6006
:102CF00001F0FAFE03214DF2306001F0F5FE3321C0
:102D00004DF2316001F0F0FE03214DF2326001F02E
:102D1000EBFE6D214DF2336001F0E6FE55214FF4DC
:102D2000704001F0E1FEAA214FF2010001F0DCFE4B
:102D300052214FF2020001F0D7FE08214FF20300AA
:102D400001F0D2FE00214FF2040001F0CDFECC21B3
:102D50004FF4314001F0C8FE00214BF2011001F0A8
:102D6000C3FE05214FF4364001F0BEFE70214FF442
:102D7000374001F0B9FE70214BF2017001F0B4FE52
:102D800001214FF4384001F0AFFE03214BF6010062
:102D900001F0AAFE03214BF6020001F0A5FE03217B
:102DA0004BF6030001F0A0FE02214FF43C4001F07D
:102DB0009BFE00214BF6014001F096FE00214BF6F0
:102DC000024001F091FED0214FF4494001F08CFE09
:102DD00002214CF6011001F087FE50214CF6021042
:102DE00001F082FE50214CF6031001F07DFE5021CF
:102DF0004CF6041001F078FE00214FF4545001F01D
:102E000073FE55214FF4685001F06EFE4FF4885068
:102E100001F05AFE782002F033FD4FF4245001F007
:102E200053FE01F05EB9FE48808849F225318842A0
:102E30007ED147F6F001E52001F056FE4FF4807197
:102E4000012001F051FE4FF4E061022001F04CFE40
:102E500041F23001032001F047FE0021042001F07F
:102E600043FE40F20221082001F03EFE002109202D
:102E700001F03AFE00210A2001F036FE00210C206C
:102E800001F032FE00210D2001F02EFE00210F2066
:102E900001F02AFE0021102001F026FE072111205A
:102EA00001F022FE0021122001F01EFE002113205D
:102EB00001F01AFE0021072001F016FE41F2906198
:102EC000102001F011FE40F22721112001F00CFE2C
:102ED0009D21122001F008FE4FF4C851132001F08B
:102EE00003FE2521292001F0FFFD0D212B2001F0FB
:102EF000FBFD0721302001F0F7FD40F203313120C6
:102F000001F0F2FD0321322001F0EEFD40F2062136
:102F1000352001F0E9FD0821362001F0E5FD40F201
:102F20000641372001F0E0FD4FF44171382000E008
:102F300057E001F0D9FD0721392001F0D5FD40F21D
:102F400002613C2001F0D0FD08213D2001F0CCFDC4
:102F50000021502001F0C8FDEF21512001F0C4FDF7
:102F60000021522001F0C0FD40F23F11532001F03A
:102F7000BBFD4FF42741602001F0B6FD0121612027
:102F800001F0B2FD00216A2001F0AEFD0021802099
:102F900001F0AAFD0021812001F0A6FD0021822080
:102FA00001F0A2FD0021832001F09EFD002184207C
:102FB00001F09AFD0021852001F096FD102190205E
:102FC00001F092FD4FF4C061922001F08DFD40F2BE
:102FD0003311072001F088FD2221002001F084FD3B
:102FE0001FE78F48808849F2283188427ED141F21C
:102FF0008F01EC2001F078FD41F23421EF2001F047
:1030000073FD4FF48071012001F06EFD4FF4E0611B
:10301000022001F069FD41F23001032001F064FD5E
:103020000021042001F060FD40F20221082001F09F
:103030005BFD0021092001F057FD00210A2001F06D
:1030400053FD01210C2001F04FFD00210D2001F066
:103050004BFD00210F2001F047FD0021102001F061
:1030600043FD0721112001F03FFD0021122001F056
:103070003BFD0021132001F037FD0121072001F065
:1030800033FD322002F0CCFB41F29041102001F0E0
:103090002BFD40F22721112001F026FD322002F005
:1030A000BFFB8A21122001F01FFD322002F0B8FB85
:1030B0004FF4D051132001F017FD0621292001F013
:1030C00013FD0D212B2001F00FFD322002F0A8FB93
:1030D0000021202001F008FD0021212001F004FD45
:1030E000322002F09DFB0021302000E074E001F06E
:1030F000FBFC40F20461312001F0F6FC40F20531A6
:10310000322001F0F1FC0021352001F0EDFC40F609
:103110000941362001F0E8FC4FF40171372001F03D
:10312000E3FC40F20131382001F0DEFC40F207718F
:10313000392001F0D9FC00213C2001F0D5FC40F6FB
:103140000A213D2001F0D0FC322002F069FB002171
:10315000502001F0C9FCEF21512001F0C5FC0021F5
:10316000522001F0C1FC40F23F11532001F0BCFCA1
:103170004FF42741602001F0B7FC0121612001F0EC
:10318000B3FC00216A2001F0AFFC0021802001F097
:10319000ABFC0021812001F0A7FC0021822001F07E
:1031A000A3FC0021832001F09FFC0021842001F07A
:1031B0009BFC0021852001F097FC1021902001F05C
:1031C00093FC4FF4C061922001F08EFC40F2331169
:1031D000072001F089FC24E61148808849F220315B
:1031E00088427DD10021084601F07EFC4FF48071B9
:1031F000012001F079FC4FF4E061022001F074FC41
:1032000041F23001032001F06FFC0021042001F0A5
:103210006BFC40F20221082001F066FC002101E075
:103220002C010020092001F05FFC00210A2001F0A0
:103230005BFC01210C2001F057FC00210D2001F066
:1032400053FC00210F2001F04FFC322002F0E8FA7D
:1032500040F20111072001F047FC322002F0E0FAB1
:103260004FF48651102001F03FFC0721112001F09E
:103270003BFC4FF48871122001F036FC4FF43061B2
:10328000132001F031FC0021292001F02DFC44F233
:1032900010012B2001F028FC0021502001F024FC1B
:1032A000EF21512001F020FC0021522001F01CFCF4
:1032B00040F23F11532001F017FC4FF41C516020E5
:1032C00001F012FC0121612001F00EFC00216A20B6
:1032D00001F00AFC0021802001F006FC002100E042
:1032E00031E0812001F000FC0021822001F0FCFB94
:1032F0000021832001F0F8FB0021842001F0F4FB81
:103300000021852001F0F0FB1021902001F0ECFB62
:103310000021922001F0E8FB0121932001F0E4FB61
:103320004FF48871952001F0DFFB0021972001F018
:10333000DBFB0021982001F0D7FB40F2731107203E
:1033400001F0D2FB6DE5FE48808849F231318842B8
:103350007DD141F21401E72001F0C6FB4FF48071EA
:10336000012001F0C1FB4FF40071022001F0BCFB11
:1033700041F23801032001F0B7FB40F2022108209E
:1033800001F0B2FB0021092001F0AEFB00210A2070
:1033900001F0AAFB00210C2001F0A6FB00210D206A
:1033A00001F0A2FB00210F2001F09EFB0021102064
:1033B00001F09AFB0721112001F096FB0021122059
:1033C00001F092FB0021132001F08EFBC82002F0D7
:1033D00027FA41F29061102001F086FB40F227218C
:1033E000112001F081FB322002F01AFA0C21122088
:1033F00001F07AFB322002F013FA4FF4006113203F
:1034000001F072FB1121292001F06EFB0B212B2012
:1034100001F06AFB322002F003FA0021202001F0C3
:1034200063FB40F23F11212001F05EFB00213020C0
:1034300001F05AFB4FF48371312001F055FB00215C
:10344000322001F051FB4FF40171352000E064E0BF
:1034500001F04AFB41F20A61362001F045FB40F2DF
:103460000771372001F040FB4FF48371382001F0E1
:103470003BFB40F20771392001F036FB40F202417C
:103480003C2001F031FB40F60F413D2001F02CFBC8
:103490000021502001F028FBEF21512001F024FBF6
:1034A0000021522001F020FB40F23F11532001F097
:1034B0001BFB4FF41C51602001F016FB0121612021
:1034C00001F012FB00216A2001F00EFB0021802098
:1034D00001F00AFB0021812001F006FB002182207F
:1034E00001F002FB0021832001F0FEFA002184207C
:1034F00001F0FAFA0021852001F0F6FA102190205F
:1035000001F0F2FA4FF4C061922001F0EDFA40F2BE
:103510003311072001F0E8FA83E48948808845F2F6
:10352000084188427ED14FF48071012001F0DCFA1D
:103530004FF4E061022001F0D7FA41F2300103209C
:1035400001F0D2FA0021042001F0CEFA40F2072166
:10355000082001F0C9FA0021092001F0C5FA002174
:103560000A2001F0C1FA00210C2001F0BDFA00216F
:103570000D2001F0B9FA00210F2001F0B5FA142056
:1035800002F04EF941F2B061102001F0ADFA0121D4
:10359000112001F0A9FA0121172001F0A5FA4FF43A
:1035A0009C71122001F0A0FA4FF40061132001F089
:1035B0009BFA0921292001F097FA09212A2001F01C
:1035C00093FA0021A42001F08FFA0021502001F08D
:1035D0008BFAEF21512001F087FA0021522001F0EF
:1035E00083FA40F23F11532001F07EFA4FF41C5150
:1035F000602001F079FA0121612001F075FA0021C3
:103600006A2001F071FA0021802001F06DFA00219A
:10361000812001F069FA0021822001F065FA002181
:10362000832000E023E001F05FFA0021842001F014
:103630005BFA0021852001F057FA1321902001F058
:1036400053FA0021922001F04FFA0321932001F058
:103650004BFA4FF48871952001F046FA40F273114D
:10366000072001F041FA322002F0DAF8B8E43448D9
:10367000808841F2055188427ED10021072001F067
:1036800033FA322002F0CCF84FF48E71122001F0A0
:103690002BFA0121A42001F027FA0F21082001F0C4
:1036A00023FA08210A2001F01FFA08210D2001F059
:1036B0001BFA40F20771302001F016FA0721312081
:1036C00001F012FA40F20361322001F00DFA4FF4DA
:1036D000E061332001F008FA40F20221342001F0C9
:1036E00003FA0221352001F0FFF941F60F7136206F
:1036F00001F0FAF940F20771372001F0F5F90021E5
:10370000382001F0F1F90021392001F0EDF940F203
:1037100007713A2001F0E8F900213B2001F0E4F9BB
:1037200007213C2001F0E0F900213D2001F0DCF907
:10373000322002F075F80121072001F0D5F901E0EF
:103740002C0100200121172001F0CEF9322002F0D7
:1037500067F84FF4BD51102001F0C6F940F217216F
:10376000112001F0C1F94FF48F71122001F0BCF962
:103770004FF47061132000E097E001F0B5F90021EB
:103780002A2001F0B1F90A21292001F0ADF94FF406
:103790009F71122001F0A8F90021502001F0A4F936
:1037A000EF21512001F0A0F90021522001F09CF9F5
:1037B00040F23F11532001F097F94FF41C51602063
:1037C00001F092F90121612001F08EF900216A20B7
:1037D00001F08AF90021802001F086F90021812082
:1037E00001F082F90021822001F07EF9002183207E
:1037F00001F07AF90021842001F076F9002185207A
:1038000001F072F91321902001F06EF94FF440712C
:10381000922001F069F90521932001F065F900215A
:10382000952001F061F90021972001F05DF9002158
:10383000982001F059F94FF48071012001F054F9FA
:103840004FF4E061022001F04FF941F2380103200A
:1038500001F04AF90021042001F046F900210C2072
:1038600001F042F900210F2001F03EF90021202053
:1038700001F03AF90021212001F036F92121072039
:1038800001F032F9142001F0CBFF6121072001F093
:103890002BF9142001F0C4FF40F27311072001F04E
:1038A00023F9142001F0BCFF95E4FE4880884BF218
:1038B000055188427ED10021084601F015F900210A
:1038C000084601F011F90021084601F00DF9002128
:1038D000084601F009F90121A42001F005F914209E
:1038E00001F09EFF4FF41C51602001F0FDF840F202
:1038F0000221082001F0F8F84FF40571302001F0A2
:10390000F3F843F21571312001F0EEF840F2046152
:10391000322001F0E9F840F61661332001F0E4F8B6
:1039200042F21121342001F0DFF84FF4A851352084
:1039300001F0DAF848F20751362001F0D5F841F2EB
:103940000741372001F0D0F841F20341382001F05F
:10395000CBF82021392001F0C7F81A21902001F07E
:10396000C3F80021102001F0BFF80721112001F059
:10397000BBF80021122001F0B7F80021132001F05C
:10398000B3F8142001F04CFF4FF4E661102001F071
:10399000ABF840F23711112001F0A6F8142001F025
:1039A0003FFF4FF4DC71122001F09EF8142001F06B
:1039B00037FF00E083E04FF47061132001F094F8CA
:1039C00080212A2001F090F84821292001F08CF86C
:1039D000142001F025FF4FF48071012001F084F8DC
:1039E0004FF4E061022001F07FF841F2380103203A
:1039F00001F07AF840F20221082001F075F8002168
:103A00000A2001F071F800210C2001F06DF800216E
:103A10000D2001F069F830210E2001F065F8002139
:103A2000502001F061F8EF21512001F05DF80021F4
:103A3000522001F059F840F23F11532001F054F8A0
:103A40004FF41C51602001F04FF80121612001F07A
:103A50004BF800216A2001F047F81121902001F075
:103A600043F84FF4C061922001F03EF840F2024169
:103A7000932001F039F80221942001F035F8142048
:103A800001F0CEFE0121072001F02EF8142001F0F4
:103A9000C7FE6121072001F027F840F273110720CB
:103AA00001F022F80021202001F01EF80021212041
:103AB00001F01AF82221002001F016F811E37948EC
:103AC00080884CF2055188427ED10021084601F0E1
:103AD0000BF80021084601F007F8142001F0A0FEC1
:103AE0000021084601F000F80021084600F0FCFF24
:103AF0000021084600F0F8FF0021084600F0F4FF1E
:103B00000121A42000F0F0FF142001F089FE4FF401
:103B10001C51602000F0E8FF40F60601082000F08C
:103B2000E3FF40F20371302000F0DEFF012131207D
:103B300000F0DAFF0421322000F0D6FF4FF481714B
:103B4000332000F0D1FF4FF44071342000F0CCFF5F
:103B500040F20311352000F0C7FF1F21362000F08E
:103B6000C3FF40F20371372000F0BEFF012138206F
:103B700000F0BAFF0421392000F0B6FF1521902093
:103B800000F0B2FF4FF48261102000F0ADFF40F270
:103B90004721112000F0A8FF4FF4DE71122000F041
:103BA000A3FF4FF46061132000F09EFF782001F026
:103BB00037FE4FF48071012000F096FF4FF4007142
:103BC000022000F091FF00E050E041F230010320BC
:103BD00000F08AFF08210A2000F086FF00210C2057
:103BE00000F082FF20210E2000F07EFF00210F2038
:103BF00000F07AFF0021202000F076FF0021212034
:103C000000F072FF3D212A2000F06EFF142001F029
:103C100007FE2D21292000F067FF0021502000F031
:103C200063FF4DF2EF01512000F05EFF00215220B2
:103C300000F05AFF40F23F11532000F055FF0021E1
:103C4000612000F051FF00216A2000F04DFF4FF489
:103C50004071922000F048FF0521932000F044FFBE
:103C60004FF48071072000F03FFF3AE20D48808852
:103C700044F2315188427CD10121002000F034FF10
:103C80000A2001F0CDFD41F22861102000F02CFF48
:103C90000E21122000F028FF40F63921132000F0F9
:103CA00023FF01E02C0100200A2001F0B9FD402192
:103CB000112000F019FF5021152000F015FF0A20F7
:103CC00001F0AEFD1E21122000F00EFF0A2001F0CF
:103CD000A7FD4FF4B151102000F006FF42F6392144
:103CE000132000F001FF0A2001F09AFD4FF48071CB
:103CF000012000F0F9FE4FF44071022000F0F4FEC4
:103D000041F23801032000F0EFFE40F202210820CA
:103D100000F0EAFE08210A2000F0E6FE0021302033
:103D200000F0E2FE40F20241312000F0DDFE4FF4EF
:103D30008371322000F0D8FE40F20351332000F0AE
:103D4000D3FE4FF48271342000F0CEFE40F20131F8
:103D5000352000F0C9FE40F20771362000F0C4FEA5
:103D600040F20531372000F0BFFE4FF402713820D9
:103D700000E040E000F0B8FE40F60B71392000F0A2
:103D8000B3FE0221412000F0AFFE4FF41C51602031
:103D900000F0AAFE0121612000F0A6FE4FF404719C
:103DA000902000F0A1FE4FF48571922000F09CFE5F
:103DB0000421932000F098FE4FF48071A02000F0C1
:103DC00093FE0121072000F08FFE2121072000F043
:103DD0008BFE2321072000F087FE3321072000F00F
:103DE00083FE40F23311072000F07EFE0021A02068
:103DF00000F07AFE75E1C148808844F2355188426E
:103E00007ED13021152000F06FFE10219A2000F0A5
:103E10006BFE2021112000F067FE43F228411020A4
:103E200000F062FE0221122000F05EFE41F2380135
:103E3000132000F059FE282001F0F2FC1221084660
:103E400000F052FE282001F0EBFC43F2204110204C
:103E500000F04AFE43F23801132000F045FE4620F0
:103E600001F0DEFC0021302000F03EFE40F2024175
:103E7000312000F039FE40F20731322000F034FEEC
:103E80004FF44171332000F02FFE0421342000F064
:103E90002BFE40F20141352000F026FE40F2077172
:103EA000362000F021FE40F20531372000F01CFEE4
:103EB0004FF4C261382000F017FE4FF4C261392080
:103EC00000F012FE4FF48071012000F00DFE4FF45F
:103ED0004071022000F008FE41F23001032000F0A2
:103EE00003FE40F60801082000F0FEFD08210A202C
:103EF00000F0FAFD4FF41C51602000F0F5FD00E0E9
:103F000031E00121612000F0EFFD4FF49F7190201E
:103F100000F0EAFD4FF48071922000F0E5FD4FF4CF
:103F20008071932000F0E0FD4FF44051A02000F09C
:103F3000DBFD1021A32000F0D7FD0121072000F0B8
:103F4000D3FD2121072000F0CFFD2321072000F021
:103F5000CBFD3321072000F0C7FD40F233110720CD
:103F600000F0C2FDBDE06548808841F663118842DB
:103F7000F8D1E22000F0A8FD1D2000F09FFD0220F6
:103F800000F09CFD042000F099FD642001F078FC15
:103F9000E02000F099FD012000F090FD0A2001F0E2
:103FA0003FFCE02000F090FD032000F087FD0C2096
:103FB00001F036FC012000F087FD0A2001F030FC02
:103FC000E62000F081FD2F2000F078FDFF2000F0BA
:103FD00075FDFF2000F072FDB02000F075FD20207F
:103FE00000F06CFD002000F069FD032000F066FD8C
:103FF00040F21F3000F062FD012000F05FFD40F252
:10400000DF1000F05BFD002000F058FDB42000F050
:104010005BFD042000F052FD40F21F4000F04EFD19
:10402000002000F04BFD2E2000F048FD002000F0A5
:1040300045FD002000F042FD002000F03FFD002083
:1040400000F03CFDB62000F03FFD022000F036FD00
:104050004FF4037000F032FD002000F02FFD172018
:1040600000F02CFD152000F029FD002000F026FDB9
:10407000002000F023FDF02000F026FD032000F0DA
:104080001DFD292000F020FDD02000F01DFD0020A6
:1040900000F014FDBE2000F017FD052000F00EFD1D
:1040A000FE2000F00BFD012000F008FD002000F0D4
:1040B00005FD002000F002FD002000F0FFFCB8200C
:1040C00000F002FD032000F0F9FC012000F0F6FCF6
:1040D000BA2000F0F9FC012000F0F0FC642000F0B0
:1040E00033F80020FCF7C2FA0120054908604FF6BA
:1040F000FF70FCF785FA1FB000BD00002C01002006
:104100008081214210B50246012000E050430B009F
:10411000A1F10104E1B2F9D110BD000008B50348D6
:1041200000880090BDF8000008BD00000008006C89
:1041300010B50446204600F0C7FC052001F0A0FBA6
:10414000FFF7ECFF10BD00002DE9F0470446BE204C
:1041500000F0BAFC052000F0B1FC204601F0EFFCB5
:1041600007464FF066320C4B01F0FCFC054601F0AF
:10417000B9FC1FFA80F9484600F0A0FC012000F0CD
:104180009DFCFF2000F09AFC002000F097FC00202E
:1041900000F094FCBDE8F0876666044070B5044604
:1041A00000230026B748807901280BD1B5488088C4
:1041B00046F60401884205D0B248808841F6631172
:1041C000884208D1AF488079F0B9AE48808841F67E
:1041D0006311884218D1082C15D2DFE804F00406D8
:1041E000080A0C0E101206240DE007240BE004242C
:1041F00009E0052407E0012405E0002403E003248E
:1042000001E0022400BF00BF9E48808849F241318E
:10421000884217D09B48808846F60401884211D016
:104220009848808845F2103188420BD095488088A4
:1042300045F21051884205D09248808841F66311BA
:1042400088427DD1082C1CD2DFE804F00406090C5A
:104250000F12151800BF14E043F0800311E043F083
:1042600040030EE043F0C0030BE043F0200308E0FE
:1042700043F0600305E043F0A00302E043F0E003F5
:1042800000BF00BF7F48808845F21051884202D1AC
:104290004FF4585600E036267A48808845F21031AF
:1042A00088420DD07748808845F21051884207D067
:1042B0007448808841F66311884201D043F00803B6
:1042C0007048808846F60401884201D143F0020319
:1042D0001946304600F008FC6A48808841F66311B0
:1042E00088421DD003F0200068B166480088654907
:1042F0004988884214DA6348058840886149088003
:10430000084645800CE05F4800885E49498888423D
:1043100006DD5C48058840885A4908800846458083
:104320005848808845F21051884254D155494889EF
:1043300000F0CAFB002000F0C1FB5249498900E0AF
:1043400078E0491C88B200F0BFFB002000F0B6FB0B
:104350004C494989891C88B200F0B6FB4949098853
:10436000491EC1F30F2000F0A9FB46494989C91C29
:1043700088B200F0A9FB43490978491EC8B200F091
:104380009DFB4049888900F09FFB002000F096FBD0
:104390003C498989491C88B200F096FB002000F056
:1043A0008DFB38498989891C88B200F08DFB35491D
:1043B0004988491EC1F30F2000F080FB31498989EB
:1043C000C91C88B200F080FB2E498978491EC8B20A
:1043D00000F074FB55E02B49488900F075FB002084
:1043E00000F06CFB002000F069FB26490988491E9B
:1043F000C1F30F2000F062FB22490978491EC8B2C0
:1044000000F05CFB1F49888900F05EFB002000F093
:1044100055FB002000F052FB1A494988491EC1F3A0
:104420000F2000F04BFB17498978491EC8B200F0F5
:1044300045FB26E0082C1CD2DFE804F004070A0D37
:104440000F12151843F0300313E043F0100310E08F
:1044500043F020030DE000BF0BE043F0380308E019
:1044600043F0280305E043F0180302E043F008039B
:1044700000BF00BF032643F480531946304600F0C6
:1044800033FB70BD2C01002010B503460C46674875
:10449000808849F24131884205D06448808845F2DD
:1044A0001031884214D16149488900F00DFB18127F
:1044B00000F004FBD8B200F001FB5C49888900F0F1
:1044C00003FB201200F0FAFAE0B200F0F7FAABE0DA
:1044D0005648808846F6040188421DD153488079A9
:1044E000012804D151480088401EC01A83B24F49A8
:1044F000488900F0E9FA181200F0E0FAD8B200F0AA
:10450000DDFA4A49888900F0DFFA201200F0D6FA75
:10451000E0B200F0D3FA87E04448808841F66311A6
:10452000884247D141488079A8B940480088401E58
:10453000C01A83B23D49488900F0C6FA002000F055
:10454000BDFA002000F0BAFA181200F0B7FAD8B29B
:1045500000F0B4FA16E03549488900F0B5FA1812AF
:1045600000F0ACFAD8B200F0A9FA30490988491E27
:10457000C1F30F2000F0A2FA2C490978491EC8B2F5
:1045800000F09CFA2949888900F09EFA201200F078
:1045900095FAE0B200F092FA24494988491EC1F325
:1045A0000F2000F08BFA21498978491EC8B200F02B
:1045B00085FA39E01D48808845F21051884220D1A3
:1045C0001A49488900F080FA181200F077FA174962
:1045D0004989491C88B200F077FAD8B200F06EFA27
:1045E0001249888900F070FA201200F067FA0F492A
:1045F0008989491C88B200F067FAE0B200F05EFADF
:1046000012E00A488079012804D108480088401E39
:10461000C01A83B205494889194600F065FA034972
:104620008889214600F060FA10BD00002C010020AE
:104630002DE9F84F80460E4617461C46B3462046E5
:10464000E31704EB5373DB1021464FEAE47C04EBE1
:104650005C7C4FEAEC0CA4EBCC0CBCF1000F02D05C
:104660004FF0010C01E04FF0000C6344224604EBD4
:10467000D27C4FEA6C0C03FB0CF3DBB20093A7F186
:104680002000C7B2002556E00C2C07D107EB4700ED
:104690002B4901EB800010F8059013E0102C05D198
:1046A000284800EB071010F805900BE0182C07D1F4
:1046B00007EBC700244901EB800010F8059001E0EA
:1046C000BDE8F88F4FF0000A2FE009F0800030B10C
:1046D0001E48028831464046FCF7A8F807E00A98D1
:1046E00028B91B48028831464046FCF79FF84FEA3C
:1046F00049604FEA1069701C86B216484088B04283
:1047000000DCDDE7A6EB0B00A0420AD15E4608F113
:1047100001001FFA80F80F480088404500DCCFE711
:1047200006E00AF1010000F0FF0ABAF1080FCCDB45
:1047300000BF681CC5B200988542A5DB00BFBFE77B
:10474000B86200082C6700081C6D00084E000020AD
:10475000500000202C0100202DE9FC4F82460F461E
:1047600016461D4601972846EA1705EB5272D210ED
:104770002946EB1705EB5373DB10A5EBC3030BB115
:10478000012300E000231A446A43D2B200924FF0A2
:10479000FF390C2D1DD1002418E0307804EB4401C2
:1047A00001EB0411614A52F82110097888420BD1BB
:1047B000707804EB440101EB041152F821104978A0
:1047C000884201D1A14603E0601CC4B2042CE4D3AA
:1047D00041E0102D1DD1002418E0307804EB440195
:1047E00001EB0411524A52F82110097888420BD18A
:1047F000707804EB440101EB041152F82110497860
:10480000884201D1A14603E0601CC4B2082CE4D365
:1048100021E0182D1DD1002418E0307804EB44016C
:1048200001EB0411434A52F82110097888420BD158
:10483000707804EB440101EB041152F8211049781F
:10484000884201D1A14603E0601CC4B2062CE4D327
:1048500001E0BDE8FC8F09F1010000B9F9E700248F
:104860005EE00C2D0AD109EB490000EB09102F493D
:1048700001EB8000001D10F8048018E0102D0AD113
:1048800009EB490000EB0910294901EB8000001DEC
:1048900010F804800BE0182D09D109EB490000EB5A
:1048A0000910244901EB8000001D10F804804FF02E
:1048B000000B2FE008F0800030B11F480288394615
:1048C0005046FBF7B3FF07E00B9828B91B48028856
:1048D00039465046FBF7AAFF4FEA48604FEA106896
:1048E000781C87B216484088B84200DCB1E70198CE
:1048F000381AA8420AD1019F0AF101001FFA80FA72
:104900000F480088504500DCA3E706E00BF10100EA
:1049100000F0FF0BBBF1080FCCDB00BF601CC4B282
:10492000009884429DDB00BF93E70000605D0008B3
:10493000905E0008F06000084E000020500000204B
:104940002C0100202DE9F84705460E469046994671
:10495000DDE9097405F0FF0A08EB05001FFA80F88D
:1049600009EB06001FFA80F922E0454502DB5546B7
:10497000F01986B24E4500DB20E020787F280BDD61
:1049800000203B462246314600902846FFF7E4FED1
:10499000E81985B2A41C0BE00020009022783B4669
:1049A00031462846FFF744FE05EB670085B2641CDC
:1049B00020787F2802D020782028D6DA00BFBDE8F2
:1049C000F8872DE9FF4F81B0074691461E460E9DA0
:1049D0004FF0000A002439E0301B401EC1B20A200B
:1049E000FFF790FBB9FBF0F00A21B0FBF1F201FBFD
:1049F0001208BAF1000F16D1701EA04213DDB8F1F3
:104A0000000F0ED10020AB4605EBDB71491001FB16
:104A10000471009088B22B4620220299FFF708FE0D
:104A200012E04FF0010A0020AB4605EBDB714910A4
:104A300001FB0471009088B208F13001CAB22B4624
:104A40000299FFF7F5FD00BF601CC4B2B442C3DB9E
:104A500005B0BDE8F08F2DE9F84704460D469046B5
:104A60009946DDE9096704F0FF0A08EB04001FFA24
:104A700080F809EB05001FFA80F916E0444502DBD7
:104A80005446A81985B24D4500DB14E00020009083
:104A90003A78334629462046FFF7CAFD304606EBF2
:104AA000D07104EB61018CB27F1C38787E2802DC67
:104AB00038782028E2DA00BFBDE8F887014908808D
:104AC000704700000008006C014908807047000032
:104AD000FE07006C02480089024908807047000008
:104AE0002C010020FE07006C024A1080921C1180ED
:104AF00070470000FE07006C10B50446412C26D11B
:104B000008210846FBF73EFC3D21112000F04CFE39
:104B10008621172000F048FE7F21262000F044FE69
:104B20001E212D2000F040FE00212C2000F03CFE34
:104B30008D212A2000F038FE3E212B2000F034FE8B
:104B40004FF47A7000F092FE00F050F801E001207E
:104B500010BD0020FCE700BFFEE7704770B50021E4
:104B600000230F22C47804B3154C246804F4E064D5
:104B7000C4F5E064210AC1F10403CA40447804FA90
:104B800003F184781440214309010E4C0678A155A5
:104B9000047804F01F050124AC4005786D11AD00C8
:104BA00005F1E025C5F8004109E0047804F01F058F
:104BB0000124AC40044D0678761145F8264070BDBE
:104BC0000CED00E000E400E080E100E00249014378
:104BD000024A1160704700000000FA050CED00E089
:104BE00000B503211420FBF7CDFB00BD10B5142048
:104BF00000F0C0FA044604F0030018B903211420A1
:104C000000F06FFB10BDF0B587B005460027082106
:104C10000846FBF7B7FB00210D2000F0C5FD802101
:104C20000E20FBF7AFFB93208DF8040020208DF8B9
:104C3000050006A801AB022201A900900C2000F09B
:104C400045F8064686B9002407E001A8005D28550E
:104C500001A8005D4740601CC4B2042CF5DB01A82C
:104C6000005DB84200D0022680210E2000F039FB02
:104C7000304607B0F0BD2DE9F04188B004460D463E
:104C800016461F468DF808408DF809503068CDF85B
:104C90000A00B088ADF80E003868049007A802AB8F
:104CA0000C2202A900900E2000F010F88046B8F106
:104CB000000F05D1082000F05DFA00F0080008B9E7
:104CC0004FF00208404608B0BDE8F0812DE9FE4FE4
:104CD0000646884691469A46DDF830B0022002909A
:104CE0000020019000900C2E06D00E2E09D112202B
:104CF00001901020009005E0772001903020009076
:104D000000E000BF00BF019840F08001022000F0E9
:104D10004BFD80210420FBF735FB0021012000F032
:104D200043FD80210A2000F0DCFA002406E018F898
:104D30000410092000F038FD601C84B24C45F6DBFD
:104D40003146012000F030FD0C2E03D180210D20D2
:104D500000F0C7FA3C2400BF042000F00BFA05461F
:104D6000601E84B2322000F05BFD34B105F001001A
:104D700018B9009828400028EED080210D20FBF7BC
:104D800001FB002C38D0062000F0F4F900F01B00E5
:104D900078BB002002900198284000F0010008B183
:104DA000012002900C2E27D10A2000F0E3F90546DD
:104DB0000C2000F0DFF900F007072FB1681E07EBA9
:104DC000C0008BF8000003E0E806000E8BF800003E
:104DD00005B90125122D00DD1225002406E0092069
:104DE00000F0C8F90AF80400601C84B2AC42F6DB9B
:104DF00002E0FFE70220029080210C2000F071FA0F
:104E00000021012000F0D0FC0298BDE8FE8FF0B533
:104E100087B005460E4630208DF804008DF8055009
:104E20000DF10602022101A8FBF776FA06A801ABF4
:104E3000042201A900900C20FFF748FF07466FB934
:104E40009DF81800902809D1002404E001A8005D15
:104E50003055601CC4B2102CF8DB00E00227384645
:104E600007B0F0BD70B588B005460C46082108466D
:104E7000FBF788FA07210D2000F096FC032114208F
:104E800000F02FFA8DF8085007A802AB012202A902
:104E900000900C20FFF71AFF064656B99DF81C003B
:104EA000102806D19DF8080020709DF80900607058
:104EB00000E00226304608B070BD000000B50220B8
:104EC0001B4908600A2000F0D1FC02201849091D86
:104ED00008600A2000F0CAFC0220154908600A2078
:104EE00000F0C4FC0F21012000F05EFC0F21012026
:104EF00000F05AFC0A2000F0B9FC3D21112000F01E
:104F000053FC1E212D2000F04FFC00212C2000F02E
:104F10004BFC8D212A2000F047FC3E212B2000F085
:104F200043FC4021152000F03FFC002000BD0000A4
:104F3000100C014070B588B0054693208DF808002C
:104F400070208DF8090000208DF80E0000240BE081
:104F5000295D02AAA01C11549DF80E00295D48404D
:104F60008DF80E00601CC4B2042CF1DB0DF10F02B1
:104F7000072102A8FBF7D0F908210846FBF702FA3F
:104F800007A802AB092202A900900C20FFF79EFEA1
:104F900006462EB99DF81C00182801D1002600E015
:104FA0000226304608B070BDF0B587B006460F4601
:104FB000A0208DF804008DF805600DF10602022195
:104FC00001A8FBF7A9F906A801AB042201A90090EA
:104FD0000C20FFF77BFE05464DB99DF8180004280C
:104FE00005D19DF8040000F00F000A2800D002252A
:104FF00015BB002404E0385D01A90855601CC4B24B
:10500000102CF8DB05AA102101A8FBF785F906A8EA
:1050100001AB122201A900900C20FFF757FE0546B4
:105020004DB99DF81800042805D19DF8040000F042
:105030000F000A2800D00225284607B0F0BD7047AF
:1050400029B1064A52690243044B5A6104E0034AFB
:1050500052698243014B5A617047000000100240C0
:1050600029B1064AD2690243044BDA6104E0034ADB
:10507000D2698243014BDA617047000000100240A0
:1050800029B1064A92690243044B9A6104E0034A3B
:1050900092698243014B9A61704700000010024000
:1050A00030B500210022002400232D4D6D6805F04D
:1050B0000C0121B1042905D0082923D105E0294D8F
:1050C000056022E0274D05601FE0254D6D6805F461
:1050D0007012234D6D6805F48034022505EB924271
:1050E0001CB9214D554305600BE01D4D6D6805F45D
:1050F00000351DB11C4D5543056002E0194D554367
:10510000056002E0174D056000BF00BF144D6D68DB
:1051100005F0F0010909154D6B5C0568DD4045603F
:105120000F4D6D6805F4E061090A104D6B5C456830
:10513000DD4085600A4D6D6805F46051C90A0B4D6C
:105140006B5C4568DD40C560054D6D6805F4404108
:10515000890B074D6B5CC568B5FBF3F5056130BD88
:105160000010024000127A0000093D0030000020CB
:105170004000002010B502460024012009490860C3
:105180007E2000EA420040F08003184600F064F8F8
:10519000002000F061F8044601200249091F086060
:1051A000204610BD140C014000B587B001218820B5
:1051B000FFF766FF01218803FFF752FF0320ADF8D8
:1051C000180010208DF81B0003208DF81A0006A986
:1051D0001F48FBF774F902211D48FBF7FBF94FF458
:1051E0006040ADF8180018208DF81B0003208DF8E2
:1051F0001A0006A91648FBF762F94FF460411448FB
:10520000FBF7EAF90020ADF804004FF48270ADF826
:1052100006000020ADF80800ADF80A00ADF80C005B
:105220004FF40070ADF80E003820ADF810000020EB
:10523000ADF812000720ADF8140001A9054800F0F0
:1052400031F80121034800F021F807B000BD00004B
:10525000000C014000380040014600BF0A480088A9
:1052600000F002000028F9D00748001D018000BFAF
:105270000548008800F001000028F9D00248001D10
:105280000088C0B2704700000838004021B1028891
:1052900042F04002028004E002884FF6BF731A40D9
:1052A0000280704710B50022028802F441520B8838
:1052B0004C8823438C882343CC8823430C89234385
:1052C0004C8923438C892343CC8923431A4302808E
:1052D000838B4FF2FF74234083830B8A038210BDBC
:1052E000704770B505460C4600262846FFF742FF7A
:1052F000064646EA0401284600F056FA70BD10B58D
:1053000000F002F810BD00000CB5002001900090E4
:105310003348006840F480303149086000BF3048AD
:10532000006800F4003000900198401C0190009843
:1053300018B90198B0F5A06FF1D12948006800F4C0
:10534000003010B10120009001E000200090009892
:10535000012843D12348006840F01000214908602B
:105360000846006820F0030008600846006840F026
:10537000020008601A4840681949486008464068B9
:1053800048600846406840F48060486008464068CD
:1053900020F47C1048600846406840F4E8104860FB
:1053A0000846006840F08070086000BF0C48006844
:1053B00000F000700028F9D00948406820F0030090
:1053C000074948600846406840F00200486000BF56
:1053D0000348406800F00C000828F9D10CBD00001B
:1053E00000100240002002402DE9FC4105460E4617
:1053F00017460FA01021CDE90010A6F1140081B2CC
:105400001023C8222846FFF726FB00240CE01020BA
:1054100000903A5D202101FB045188B203233146FC
:10542000FFF7CFFA601CC4B2042CF0DBBDE8FC81AE
:1054300054686520436172642049442061626F753D
:10544000742031362069733A00000000F8B5054633
:105450000F46164600240CE000200090325D0C211F
:1054600001FB045188B210233946FFF7E1F8601CB4
:10547000C4B2042CF0DB04240DE010200090325D57
:105480001C2101FB0451303988B203233946FFF750
:1054900098FA601CC4B2102CEFDBF8BD042808D1C8
:1054A0004FF0E021096941F004014FF0E022116161
:1054B00007E04FF0E021096921F004014FF0E022FC
:1054C000116170477047000010B51348006840F044
:1054D00001001149086008464068104908400E491B
:1054E0004860084600680E4908400B4908600846B5
:1054F000006820F4802008600846406820F4FE0020
:1055000048604FF41F008860FFF7F9FE4FF000601D
:105510000449086010BD0000001002400000FFF8C0
:10552000FFFFF6FE08ED00E010B50121084800F08D
:1055300016F858B10121064800F00EF80548006839
:1055400008B9012000E000200249086010BD0000F9
:105550000008004094012342CA430282704730B5DC
:105560000246002000230024158A05EA01039589DC
:1055700005EA010413B10CB1012000E0002030BDA8
:1055800010B540F225511D4800F04AF810B31B48F1
:1055900000F002F9C4B21A48008800F40040C8B90B
:1055A0001748008800F4804060B10A2C03D0002026
:1055B0001349088020E01248008840F40040104958
:1055C000088019E00D2C06D10D48008840F4804079
:1055D0000B49088010E00A480088C0F30D00094913
:1055E0000C5407480088401C05490880084600887C
:1055F000C72801DD0020088010BD000000380140F0
:105600004C0000206400002021B1828942F4005245
:10561000828104E082894DF6FF731A4082817047CF
:1056200070B50246002400230025002040F66A16CB
:10563000B14200D100BFC1F3421501F01F030126A2
:1056400006FA03F3012D02D19689334006E0022DBC
:1056500002D1168A334001E0968A33400C120126AB
:1056600006FA04F41688344013B10CB1012000E0AE
:10567000002070BDF0B50346002400260025002060
:1056800040F66A17B94200D100BF1846C1F3421470
:1056900001F01F06012707FA06F5012C01D10C3095
:1056A00004E0022C01D1103000E014301AB1076878
:1056B0002F43076002E00768AF430760F0BD0000BA
:1056C0002DE9F04786B005460E460024A24600BFED
:1056D000A1460027B08900B100BF2F462C8A4CF6A6
:1056E000FF700440F08804432C82AC894EF6F3101E
:1056F0000440B08831890843718908430443AC8170
:10570000AC8A4FF6FF400440B0890443AC8201A844
:10571000FFF7C6FC1F48874202D1DDF810A001E068
:10572000DDF80CA0A88900F4004040B10AEBCA00E3
:1057300000EB0A1031684900B0FBF1F807E00AEB12
:10574000CA0000EB0A1031688900B0FBF1F8642050
:10575000B8FBF0F004012009642101FB1089A8893D
:1057600000F4004040B1322000EBC900B0FBF1F082
:1057700000F00700044308E0322000EB0910642128
:10578000B0FBF1F000F00F0004432C8106B0BDE83F
:10579000F08700000038014001468888C0F3080007
:1057A000704700BFFEE7000010B502460B4601201F
:1057B000074908607E2000EA42042046FFF74CFDBE
:1057C0001846FFF749FD01200149091F086010BD77
:1057D000140C0140014600BF7047000010B56FF087
:1057E0000400FFF75BFE0A4800680A49B0FBF1F0CD
:1057F000094908700846007800EB4001C1EBC01071
:105800004FF6FF7101EAC0000449088010BD000096
:105810001C00002000127A004400002046000020F6
:105820000146114A12884A434FF0E0235A61002290
:105830009A611A46126942F001021A6100BF4FF0E4
:10584000E022106900F001021AB100F48032002A4F
:10585000F5D04FF0E022126922F001024FF0E02370
:105860001A6100229A61704746000020002103E07F
:1058700000BF00BF00BF491C8142F9D37047000040
:105880000146114A12784A434FF0E0235A61002240
:105890009A611A46126942F001021A6100BF4FF084
:1058A000E022106900F001021AB100F48032002AEF
:1058B000F5D04FF0E022126922F001024FF0E02310
:1058C0001A6100229A6170474400002000BF054A17
:1058D000128802F04002002AF9D0C2B2014B1B1D0F
:1058E0001A807047004400401CB5FFF777FF4FF463
:1058F000A060FFF76BF94FF4E13000F0A1F8FAF780
:105900006FFEFBF751F84FF47840344908804FF6AA
:10591000FF70FAF775FE32A018210B46C822CDE9B8
:1059200000101E215020FFF70DF855E02E4952209F
:10593000FFF798FA044624B902242C48FFF763F9CC
:1059400004464CB90224294AC8210A20FFF74CFD1D
:105950002648FFF7EFFA04468CB925A0102118233A
:10596000D222CDE900103C213220FFF774F8022446
:105970001E4B234A09216020FFF77DF90446A4B994
:1059800020A010211823D222CDE90010502132206E
:10599000FFF761F8022420490920FFF705FB0446C0
:1059A0001E490920FFF733FA044694B91CA01021C0
:1059B0001823D222CDE9001064213220FFF74BF8E2
:1059C0000224164AFA210A20FFF740FD17A0FAF731
:1059D0001FFCC820FFF724FFA8E700004E000020AE
:1059E000B7E7F3DD00000000000000200200002007
:1059F00050636453656C6563745F4D495F4F4B0042
:105A000016000020506364417574685374617465B6
:105A10005F4D495F4F4B00000600002054000020FE
:105A2000524541445F4D495F4F4B0000313435369C
:105A30003461736461647D7D6173640D0A000000EC
:105A400010B586B0044601214804FFF709FB012187
:105A50000420FFF715FB0420ADF8140003208DF897
:105A6000160018208DF8170005A91C48FAF727FD25
:105A70000820ADF8140004208DF8170005A9174878
:105A8000FAF71DFD25208DF8000003208DF8010098
:105A90008DF8020001208DF803006846FFF75EF8DC
:105AA00001940020ADF80800ADF80A00ADF80C0034
:105AB000ADF810000C20ADF80E0001A90848FFF762
:105AC000FFFD012240F225510548FFF7D3FD0121DA
:105AD0000348FFF799FD06B010BD00000008014023
