:0300000002186281
:0C186200787FE4F6D8FD75815C0218A9BF
:0A1B630002550000044100000000DC
:101CC600E4FD7F6B121E137D077F19121E137D061E
:101CD6007F1A121E137D187F1B121E137D017F1C97
:031CE600021E13C8
:021DC6008F0884
:101DC800121CE98F09E50804FF121CE9AD07E509B3
:091DD800FE7C00E42DFFEC3EFE50
:011DE10022DF
:100F7F007F3D121DC6AC06AD07EC120C1A90000C8B
:100F8F00120F4D7F3F121DC6AC06AD07EC120C1AA7
:100F9F00900010120F4D7F45121DC6AC06AD07EC29
:100FAF00120C1A900018120F4D7F47121DC6AC0677
:100FBF00AD07EC120C1A90001C120F4DE4FFFE7DD2
:100FCF00827C4290000CE0F8A3E0F9A3E0FAA3E0E2
:100FDF00FB120905E4FBFA79807846120AFF9000AC
:100FEF000C120F4D7F007EC07D287C45900010E0D5
:100FFF00F8A3E0F9A3E0FAA3E0FB120905E4FBFA7A
:10100F0079807846120AFF900010120F4D90001051
:10101F00E0F8A3E0F9A3E0FAA3E0FB90000CE0FCFA
:10102F00A3E0FDA3E0FEA3E0FF120AFF121460E4A9
:10103F00FBFA793478431209F67BDB7A0F7949781A
:10104F0040120AFF8F508E4F8D4E8C4D900018E03E
:10105F00FCA3E0FDA3E0FEA3E0FFE4FBFA79037835
:10106F0043120AFF900018120F4D90001CE0FCA3D2
:10107F00E0FDA3E0FEA3E0FFE4FBFA79037843125F
:10108F000AFF90001C120F4DE4855648855547F511
:10109F0046F545F555F556C3E5489544F540E54702
:1010AF009543F53FE5469542F53EE5459541F53DBE
:1010BF008548448547438546428545417FB77ED164
:1010CF007D507C3F900018E0F8A3E0F9A3E0FAA36D
:1010DF00E0FB120905C004C005C006C007AF40AE53
:1010EF003FAD3EAC3DEC120C15D003D002D001D079
:1010FF00001209F6E4FBFA797A7844120AFF90009D
:10110F0004120F4D900004E0FCA3E0FDA3E0FEA34A
:10111F00E0FFAB50AA4FA94EA84D1209057BCC7A20
:10112F00CC794C783E1209F6C004C005C006C00742
:10113F007FCD7ECC7D4C7C3FAB50AA4FA94EA84DA6
:10114F001209F6D003D002D001D0001209058F503A
:07115F008E4F8D4E8C4D22D6
:061F0900000000000022B0
:0F1E8100D2A2D2A3121F09C2A2121F09C2A3220A
:0C1EAB00C2A2D2A3121F09D2A2021F097A
:0E1E9000A20092A2D2A3121F09C2A3021F0930
:0D1E9E00D2A3121F09A2A2C2A3121F092283
:101DE200E4FEEF25E0FF92A2D2A3121F09C2A312C2
:091DF2001F090EBE08EC021E9E42
:101D4F00E4FFD2A2FEEF25E0FFD2A3121F09A2A249
:0D1D5F00E4334207C2A3121F090EBE08E8BC
:011D6C002254
:101E1300AC07121E817FD0121DE2AF04121DE2AF88
:071E230005121DE2021EABD7
:021CE900AD0745
:101CEB00121E817FD0121DE2AF05121DE2121E8162
:101CFB007FD1121DE2121D4FD200121E90121EAB8D
:011D0B0022B5
:101B6D00C1024100240041002500011CFF021A00A2
:011B7D000067
:101D2F00E4FDFCC3ED9FEC9E5015E4FBFA0BBB00EA
:0F1D3F00010AEB64794A70F50DBD00010C80E4D8
:011D4E002272
:1018EE00750B00750A1075090E750800E4FCFDAB4A
:1018FE000BAA0AA909A808120DD9E47BE87A03F904
:10190E00F8120E648F0B8E0A8D098C08C3E4950BAA
:10191E00F50BE4950AF50A74019509F509E49508A5
:10192E00F508E50B2411F50BE4350AF50AE4350943
:10193E00F509E43508F508AF0BAE0AAD09FC7808D9
:10194E00120F1A900024EFF0A3E50BF05389F04329
:10195E008901900024E0F58CA3E0F58AD2A9D28CFF
:01196E002256
:101D0C00C3E51B9402E51A94004017E4F51AF51B81
:101D1C001217CE8F19E519D3940F4003851C198522
:031D2C00191C225D
:101AD1001217357FF47E01121D2F7F011E1218EEA1
:101AE100121E2A121CC67F2C7E01121D2FD2AF128C
:101AF1001BDB121B1E120F7F8F508E4F8D4E8C4D94
:101B0100E4FBFA79B478421209058F508E4F8D4E5D
:0D1B11008C4D121166121D0C121A8080D826
:101A800020023AE519B40D0875170075182D802647
:101A9000E519B40E0875170075185A8019E519B4C0
:101AA0000B0F121E40121B9FD202E4900023F08005
:101AB0000CE519B40F07AF18AE171212FE30021062
:101AC00012166EE519B40F08C202121E40121B1E38
:011AD00022F3
:03000B00021C795B
:101C7900C0E0C083C082900024E0F58CA3E0F58A1F
:101C89000556E55670020555051BE51B7002051A38
:071C9900D082D083D0E032BD
:0A1B7E000257009B0459000000000C
:101E2A00E4F5D875D902F5E9F5F975EAFF75FAFF0F
:061E3A0075DA42D2DE223F
:07000300C2B6D2B7021E6C69
:071F0200D2B6C2B7021E6C4B
:101E6C00EFF4F5EAF5FAAC07E4120C1F8F5C8E5B0D
:051E7C008D5A8C592273
:1019D6008F118E108D0F8C0EE4FFFEFDFCAB11AA4D
:1019E60010A90FA80ED3120F044011E4851111F5AA
:1019F60010F50FF50EAE10AF11020003AF11AE10C9
:101A0600AD0FAC0EEC33501D121EB7EE3395E08FC2
:101A1600118E10F50FF50EE48F11F510F50FF50E7A
:061A2600AE10121F0222A7
:0412FE008E088F09BE
:10130200AC08AD09EC120C1A121EC37F607EE57D9B
:10131200A07C3F121EDE7F027E2B7D877C3D121E4B
:10132200D57F007E007D007C00121ECCAF50AE4FF8
:10133200AD4EAC4D121568EE3395E08F0D8E0CF567
:101342000BF50AAE57AF58EE3395E0FDFCAB0DAA94
:101352000CA90BA80AD3120F04400FAE57EE339517
:10136200E085580D8E0CF50BF50AE47F12FEFDFCAC
:10137200AB0DAA0CA90BA80AC3120F045017E47FE5
:1013820003FEFDFCA80A120F04400AE4750D12F5D3
:101392000CF50BF50AC3E49558FFE49557FE339517
:1013A200E0FDFCAB0DAA0CA90BA80AC3120F045056
:1013B20014C3E49558FFE49557FE3395E08F0D8EE4
:1013C2000CF50BF50A74FF7FEEFEFDFCAB0DAA0CCB
:1013D200A90BA80AD3120F04401974FF7FFDFEFD6A
:1013E200FCA80A120F04500B74FF750DEEF50CF5F4
:1013F2000BF50A74FF7FFEFEFDFCAB0DAA0CA90BD8
:10140200A80AC3120F04402BE47F02FEFDFCA80AC7
:10141200D3120F04501DAC08AD09EC120C1AAB50DC
:10142200AA4FA94EA84D120B9C7008F50DF50CF5AC
:0E1432000BF50AAF0DAE0CAD0BAC0A0219D6CD
:101BDB00E4F538F537F536F535F53CF53BF53AF5E3
:101BEB0039F52CF52BF52AF529F530F52FF52EF5D2
:101BFB002DF534F533F532F531F524F523F522F5D2
:0A1C0B0021F528F527F526F525221E
:091EC3008F248E238D228C212234
:091ECC008F348E338D328C3122EB
:091ED5008F308E2F8D2E8C2D22F2
:091EDE008F2C8E2B8D2A8C2922F9
:10156800AB07AA06A905A804AF24AE23AD22AC2177
:101578001209018F118E108D0F8C0EAF28AE27AD7A
:1015880026AC25AB11AA10A90FA80E1209058F28A1
:101598008E278D268C257F007E807DBB7C45AB28E1
:1015A800AA27A926A825120B9C6010400E752800B2
:1015B8007527807526BB75254580217F007E807D37
:1015C800BB7CC5AB28AA27A926A825120B9C500CC2
:1015D8007528007527807526BB7525C5AB38AA37D1
:1015E800A936A835AF11AE10AD0FAC0E1209018F98
:1015F800158E148D138C12851138851037850F368A
:10160800850E35AF28AE27AD26AC25AB30AA2FA95D
:101618002EA82D1209F6C004C005C006C007AF11D8
:10162800AE10AD0FAC0EAB2CAA2BA92AA829120913
:10163800F6D003D002D001D000120905C004C005BD
:10164800C006C007AF15AE14AD13AC12AB34AA3345
:10165800A932A8311209F6D003D002D001D0001265
:051668000905120C53FE
:01166D00225A
:10000E000000808CB88080FEFE8080B0988C00004E
:10001E0000002424242424242424242424FF000047
:10002E000008C8484A4E4CC808C8CC0A08E8080060
:10003E000000FF090949497F001F1FC0407F0000D3
:10004E0000000000000000FE101010101010100034
:10005E0000007F7F21212121212121217F7F00008E
:10006E000000B8884868080E0E086848C8B8B8007E
:10007E00004041424242427E7E4242424241400064
:10008E000000FC4040404000FEC0406020300000B8
:10009E0000207F20301018003F604040407030003C
:1000AE000000000000000000000000000000000042
:1000BE000000000000000000000000000000000032
:1000CE000000000000000000000000000000000022
:1000DE000000000000000000000000000000000012
:1000EE000000000000000000000000000000000002
:1000FE0000000000000000000000000000000000F2
:10010E00000000C0E03C9CB02020E0E004FCFC00BD
:10011E000000010F3F312F2F39380707607F3F0056
:10012E0000808080F0F2FE7C48F0F098CC44404095
:10013E0000001E1E123F3F051D1F033F3F00000023
:10014E000000C0C060ACACA4E4F8BE2672702020E3
:10015E0000000404040444457F3E02020202020031
:10016E000000F8F8F8F8C8E0A4BCDC50101000004D
:10017E0000003F3F0021331A0E1E3F212130302058
:10018E0000008484848484848484848484848400AD
:10019E000020202020202020202020202020202071
:1001AE0000FCFCC4FC3C1C3C2424262624243C1CC1
:1001BE00007F7F101F4F61311F0F013F3F21393DDF
:1001CE0000001010F8F8000000F8F8888888080879
:1001DE00000020203F3F20200019392020311F0E23
:1001EE00006070CEC0301404FC0404E4BC80000037
:1001FE00002436155672301C43472C102C43C00079
:10020E006C7C10FFFF103034DEFA38F8F8F8F80086
:10021E000002027F7F0B0D27331C0F43407F3F00F0
:10022E000004FCFC24FCFC14121EFCF81C1612101C
:10023E0000001F1F117F7F4161391F0F1D3161416A
:10024E0000FCFC1474E4E47434E4C4F43404FCFCE4
:10025E00007F7F0C0E0303060C0F43474C487F3F75
:10026E002010E824272424E424342C20E00000006D
:10027E0080601F090909097F090949897F0000006B
:10028E000000FC242424FC252624FC242424040021
:10029E0040308F80844C55252525554C808080001C
:1002AE000000000000000000000000000000000040
:1002BE000000000000000000000000000000000030
:1002CE000000000000000000000000000000000020
:1002DE000000000000000000000000000000000010
:1002EE000000000000000000000000000000000000
:1002FE0000000000000000000000000000000000F0
:10030E0000000000000000000000000000000000DF
:10031E00000060600000000000000000000000000F
:10032E0000000000000000000000000000000000BF
:10033E0000000000000000000000000000000000AF
:10034E000000FC242424FC252624FC242424040060
:10035E0040308F80844C55252525554C808080005B
:10036E004042CC0000445454547F545454444000F2
:10037E0000007F201000FF15151555957F00000019
:10038E00404042CC0040A09E8282829EA02020004F
:10039E000000003F908840432C102846418080008A
:1003AE00001715D55557557D555755D515170000BE
:1003BE004040407F555555555555557F404040005E
:1003CE002010E824272424E424342C20E00000000C
:1003DE0080601F090909097F090949897F0000000A
:1003EE000000FC242424FC252624FC2424240400C0
:1003FE0040308F80844C55252525554C80808000BB
:10040E0000E010080810E0000000000000000000EE
:10041E00000F102020100F00000000000000000050
:10042E0000001010F80000000000000000000000A6
:10043E00000020203F2020000000000000000000EF
:10044E00007008080808F00000000000000000001E
:10045E00003028242221300000000000000000009F
:10046E00003008080888700000000000000000003E
:10047E000018202121221C000000000000000000B6
:10048E000000804030F80000000000000000000076
:10049E0000060524243F2424000000000000000074
:1004AE0000F888888808080000000000000000009E
:1004BE000019202020110E00000000000000000096
:1004CE0000E010888890000000000000000000008E
:1004DE00000F112020201F0000000000000000006F
:1004EE0000180808886818000000000000000000CE
:1004FE000000003E010000000000000000000000AF
:10050E0000708808088870000000000000000000DD
:10051E00001C222121221C0000000000000000000F
:10052E0000F008080810E0000000000000000000C5
:10053E000001122222110F00000000000000000036
:10054E00000000000000000000000000000000009D
:10055E00000000F800000000000000333000000032
:10056E0000100C06100C0600000000000000000039
:10057E0040C07840C0784000043F04043F040400AB
:10058E00007088FC08300000001820FF211E0000BB
:10059E00F008F000E018000000211C031E211E00D0
:1005AE0000F00888700000001E2123241927211056
:1005BE0010160E00000000000000000000000000F9
:1005CE00000000E0180402000000000718204000A0
:1005DE0000020418E0000000004020180700000090
:1005EE00404080F0804040000202010F01020200F4
:1005FE00000000F0000000000101011F01010100D8
:10060E00000000000000000080B07000000000003C
:10061E0000000000000000000001010101010101C5
:10062E00000000000000000000303000000000005C
:10063E000000000080601804006018060100000031
:10064E0000E010080810E000000F102020100F002E
:10065E00001010F8000000000020203F20200000B5
:10066E00007008080888700000302824222130000D
:10067E0000300888884830000018202020110E0015
:10068E000000C02010F8000000070424243F2400BE
:10069E0000F80888880808000019212020110E0093
:1006AE0000E0108888180000000F112020110E00A5
:1006BE0000380808C83808000000003F000000009D
:1006CE000070880808887000001C222121221C005E
:1006DE0000E010080810E0000000312222110F0087
:1006EE00000000C0C000000000000030300000001C
:1006FE00000000800000000000008060000000008C
:10070E0000008040201008000001020408102000A4
:10071E0040404040404040000404040404040400EF
:10072E000008102040800000002010080402010084
:10073E00007048080808F000000000303601000084
:10074E00C030C828E810E0000718272423140B0037
:10075E000000C038E0000000203C230202273820B1
:10076E0008F8888888700000203F202020110E0095
:10077E00C03008080808380007182020201008008C
:10078E0008F808080810E000203F202020100F0075
:10079E0008F88888E8081000203F20202320180041
:1007AE0008F88888E8081000203F200003000000A9
:1007BE00C03008080838000007182020221E02004A
:1007CE0008F808000008F808203F210101213F2009
:1007DE00000808F8080800000020203F2020000034
:1007EE0000000808F8080800C08080807F00000024
:1007FE0008F888C028180800203F2001263820005D
:10080E0008F8080000000000203F202020203000C3
:10081E0008F8F800F8F80800203F003F003F2000DD
:10082E0008F830C00008F808203F200007183F00E5
:10083E00E01008080810E0000F10202020100F0014
:10084E0008F808080808F000203F21010101000007
:10085E00E01008080810E0000F18242438504F004C
:10086E0008F8888888887000203F2000030C30200C
:10087E0000708808080838000038202121221C004A
:10088E00180808F8080818000000203F2000000093
:10089E0008F808000008F808001F202020201F007C
:1008AE000878880000C83808000007380E010000DC
:1008BE00F80800F80008F800033C0700073C0300A6
:1008CE00081868808068180820302C03032C30200C
:1008DE000838C800C83808000000203F200000007B
:1008EE0010080808C83808002038262120201800D3
:101D6D00D3EF9400EE940040147D6E7C00ED1D7059
:0D1D7D00011CED4C70F7EF1F70E61E80E3B7
:011D8A002236
:091EE700D2A0D2A1C2A1C2A02226
:091EF000C2A0C2A1D2A0D2A1221D
:071CA000AD07121EE77F787B
:101CA700E4FEEF30E704D2A18002C2A1D2A0C2A015
:0E1CB700EF25E0FF0EBE08EAD2A1D2A0C2A027
:011CC50022FC
:101C4C0075F010E515A42CF582E435F0F583E582EA
:0D1C5C00244EF582E5833405F583E493FF03
:101C6900121CA07F40121CA7AF05121CA7021EF070
:0D1DA90024B0FF121DB67F01121DB67F1081
:101DB600121CA0E4FF121CA7AF05121CA7021EF0FE
:101D8B00AC07ED24B0FF121DB6EC54F0C4540F4455
:0E1D9B0010FF121DB6EC540F4401FF021DB6DE
:021DFB00AC0733
:101DFD00E4FBEB121DA9E4FAAF04121C690ABA80C8
:051E0D00F70BBB08ED1E
:011E120022AD
:101E4000E4FCEC121DA9E4FBE4FF121C690BBB804F
:051E5000F70CBC08EDD9
:011E5500226A
:101735007FF47E01121D6D7FAE121DB6E4FF121DF2
:10174500B17F40121DB67F81121DB67FCF121DB627
:101755007FA1121DB67FC8121DB67FA6121DB67FCA
:10176500A8121DB67F3F121DB67FD3121DB6E4FF2A
:10177500121DB67FD5121DB67F80121DB67FD912F8
:101785001DB67FF1121DB67FDA121DB67F12121D2E
:10179500B67FDB121DB67F40121DB67F20121DB627
:1017A5007F02121DB67F8D121DB67F14121DB67FE6
:1017B500A4121DB67FA6121DB67FAF121DB6E4FF9B
:0917C500121DFBE4FDFF021D8B67
:0C196F008F0F8C108D118B128A138914BD
:10197B00E4F515FCF516AB12AA13A914851682759E
:10198B008300120D21604324E0F515E50FD3947805
:10199B00400BE4F50F0511E51170020510AD11AF09
:1019AB000F121D8BE4FC121C4C0CBC08F9E5110446
:1019BB00FDAF0F121D8B7C08121C4C0CBC10F97464
:0A19CB0008250FF50F05160219811B
:0119D50022EF
:061A2C008C0F8D10A907CC
:101A3200E4FCEBAE027805C333CE33CED8F9FBAA71
:101A420006AF01AD10121D8BE4FC740E2BF58274EF
:101A5200003A121C640BBB00010A0CBC10ECAF0173
:101A6200E51004FD121D8BE4FC740E2BF58274004C
:0D1A72003A121C640BBB00010A0CBC10EC06
:011A7F002244
:061B8800011D00011E001A
:101E56007580F0AF80E58054F0FF75800FAE80E5A9
:051E660080540F4FFF46
:011E6B002254
:101C15007FFF7DFF121E56E51D14601214601D2402
:101C2500027021EFF4601D751D018F1E8016EFB542
:101C35001E05751D02800DE4F51D8008BFFF05E436
:061C4500F51DAD1EAF0508
:011C4B002276
:1017CE00121C15EF120F59184877184D7B18527DC1
:1017DE0018577E1834B71839BB183EBD1843BE18BB
:1017EE0020D71825DB182ADD182FDE180CE7181164
:1017FE00EB1816ED181BEE185CFF0000185FE4F5F1
:10180E0008804E75080180497508028044750803EA
:10181E00803F750804803A75080580357508068086
:10182E0030750807802B75080880267508098021F9
:10183E0075080A801C75080B801775080C801275C8
:10184E00080D800D75080E800875080F8003750849
:03185E00FFAF08D1
:011861002264
:091EF90025005345542D4F4B0008
:101B8E0041002300410022644100210A410020014E
:101B1E00E4F508E50875F014A42414FFE50824087C
:101B2E00FBE433FAE4FDFC121A2C0508E508C39415
:101B3E000440E0E4F508E508C454F0FFE508240C81
:101B4E00FBE433FA7D027C00121A2C0508E508C36B
:041B5E00940740E2C6
:011B62002260
:081166008F0B8E0A8D098C0825
:10116E00E4FBFA7D04FC7F02121A2C7B017A007DCF
:10117E00047C007F11121A2C7B027A007D047C0005
:10118E007F20121A2C7B037A007D047C007F2F12A5
:10119E001A2C7B047A007D047C007F3E121A2C7B75
:1011AE00FF7A1E79F97D047C007F6B12196FE4FFC4
:1011BE00FE7DC87C42AB5CAA5BA95AA8591209F6FF
:1011CE00E4FBFA797F7843120AFF120C537C007D00
:1011DE000A120DA3EF2420FBE43EFA7D047C007F6F
:1011EE004D121A2CE4FFFE7DC87C42AB5CAA5BA9B3
:1011FE005AA8591209F6E4FBFA797F7843120AFFCE
:10120E00120C537C007D0A120DA3ED2420FBE43C4E
:10121E00FA7D047C007F5C121A2CE4F50CE50CC4FC
:10122E0054F0FFE50C2413FBE433FA7D067C001228
:10123E001A2C050CE50CC3940840E2E4FFFE7D2059
:10124E007C41AB0BAA0AA909A8081209F6120C5385
:10125E008E0D8F0E7C037DE8120D4EEF2420FBE4E5
:10126E003EFA7D067C007F20121A2CC3E50E94E810
:10127E00E50D9403400FAE0DAF0E7C037DE8120D0D
:10128E004E8C0D8D0EAE0DAF0E7C007D64120D4E8C
:10129E00EF2420FBE43EFA7D067C007F30121A2CF0
:1012AE00C3E50E9464E50D9400400FAE0DAF0E7CB9
:1012BE00007D64120D4E8C0D8D0EAE0DAF0E7C00AA
:1012CE007D0A120D4EEF2420FBE43EFA7D067C00D3
:1012DE007F40121A2CAE0DAF0E7C007D0A120D4E01
:1012EE00ED2420FBE43CFA7D067C007F60021A2C84
:101B9F007B1B7A00E4FDFC7F02121A2C7B1C7A005F
:101BAF00E4FDFC7F11121A2C7B1D7A00E4FDFC7FF3
:101BBF0020121A2C7B1E7A00E4FDFC7F2F121A2CA8
:0C1BCF007B1F7A00E4FDFC7F3E021A2C14
:10166E00900023E0702DE5196007640160030217F6
:10167E0008E5192420FBE433FA7D027C007F20125A
:10168E001A2C9000237401F0E51975F064A49000F3
:10169E00228063900023E064017030E519C394004A
:1016AE004058E519D394095051E5192420FBE43331
:1016BE00FA7D027C007F30121A2C9000237402F007
:1016CE00E51975F00AA4900021802B900023E0B458
:1016DE000228E519C394004021E519D39409501A44
:1016EE00E5192420FBE433FA7D027C007F40121AB8
:1016FE002C900020E519F0751CFFE519640C70267E
:10170E00900021E0FFA3E02FFFE433FE900020E0E5
:10171E007C002FF518EC3EF5177BFF7A1E79FB7DCA
:07172E00027F5012196F2227
:1008FE00020CBFE86480F8E933E83360110460F05D
:10090E00ED33EC337009E8FCE9FDEAFEEBFF22045F
:10091E0060DED3EB9FEA9EE99DE8C2E78CF0C2F75A
:10092E0095F0400CE8CCF8E9CDF9EACEFAEBCFFB26
:10093E00120C8A85D0F05804700320D5B3E80470E9
:10094E00075002B2D5020CC992D5EC0460F7E4CC84
:10095E00C0E0C398F8603B94186008400DD0E0FBEF
:10096E00020CA1E4FBFAC9FC8028E830E406E4C9D5
:10097E00FBE4CAFCE830E305E4C9CACBFCE8540743
:10098E006010F8C3E913F9EA13FAEB13FBEC13FC4E
:10099E00D8F130F52FC3E49CFCEF9BFFEE9AFEEDF1
:1009AE0099FDD0E0FBEF4E4D4C701222DB03020C92
:1009BE00C6EC2CFCEF33FFEE33FEED33FDED30E7EE
:1009CE00EB020CA1EF2BFFEE3AFEED39FDD0E0FB72
:1009DE0050130BBB0003020CC9ED13FDEE13FEEF1B
:0809EE0013FFEC13FC020CA145
:1009F600EC4D6011E8497017ED33EC3304600DE4FB
:100A0600FCFFFEFD22E933E8330470F8020CBF1246
:100A16000C8A58046009E4CC248150062850090247
:100A26000CC9284003020CC6C0E0EB4A7044B980EA
:100A360006D0E0FB020CB5EF4E701CBD8008EBFF44
:100A4600EAFEE9FD80EBE98DF0A4FEE5F0020ADF9F
:100A5600E9CDF9EAFEEBFFEF89F0A4FCE5F0CE89DB
:100A6600F0A42EFFE435F0CD89F0A42DFEE435F098
:100A76008067EF4E7005BD80D780C3EF8BF0A4ACC6
:100A8600F0EE8BF0A42CFCE435F0F8EF8AF0A42C01
:100A9600E5F038FCE433CB8DF0A42CFCE5F03BF814
:100AA600EE8AF0A42CFCE5F038F8E433CF89F0A404
:100AB6002CFCE5F038CF3400CE89F0A42FFFE5F00A
:100AC6003EFEE433C98DF0A42EFEE5F039CD8AF062
:100AD600A42FFFE5F03EFEE43DFD33D0E0FB5007DA
:100AE6000BBB000F020CC9EC2CFCEF33FFEE33FE00
:060AF600ED33FD020CA12E
:100AFC00020CC9EC5D046005E859047003020CBFDC
:100B0C00120C8A580460F6EC4860F2EC7004FDFE9E
:100B1C00FF22C860DB2481C85009C39860025006CC
:100B2C00020CC69850CAF582E9294B4A7005AB8273
:100B3C00020CB575F0007C1A7880C3EF9BEE9AED31
:100B4C0099400DC3EF9BFFEE9AFEED99FDE842F044
:100B5C00DC23ACF0D0E0FFD0E0FED0E0FDAB822097
:100B6C00E7101BEB60BAEC2CFCEF33FFEE33FEED21
:100B7C0033FD020CA1E803F830E705C0F075F00076
:100B8C00EF2FFFEE33FEED33FD40B830E7C280AA05
:100B9C0074F8CC6480CCC86480C8F58204604FC300
:100BAC00EB9FF5F0EA9E42F0E99D42F0E89C45F09F
:100BBC00603C501DE5825FFFE582D313CB5BCBF429
:100BCC002B5582FB50280ABA002409B90020088052
:100BDC001DE5825BFBE582D313CF5FCFF4C3132FEC
:100BEC005582FF50090EBE00050DBD00010CC3EB74
:100BFC009FF5F0EA9E42F0E99D42F0E89C45F060DA
:090C0C0007CC4820E701B3EC22FB
:100C150075F020800E75F010800575F0087D007E5A
:100C2500007F003392D530D503120EF6EC33401019
:100C3500EF33FFEE33FEED33FDEC33FCD5F0ED2263
:0E0C4500E5F0247EA2D513CC92E7CDCEFF229F
:100C5300EDD2E7CD33EC3392D524814006E4FFFE99
:100C6300FDFC22FCE4CFCECDCC24E0501174FF80F8
:100C7300EDC3CC13CCCD13CDCE13CECF13CF047095
:070C8300F030D5DE020EF691
:10144000BE1249253E4CCCCDBEAAAAAB3F800000BF
:101450003E7ADBB03EED63383F24BC7D3F490FDB75
:10146000ED33ECC2E7CC339200B4FF13ED547F6050
:1014700003020CBF7FDB7E0F7DC97C3F02155BC280
:1014800001C3947F401E7007EDD2E794904015EFA2
:10149000FBEEFAEDF9ECF87F007E007D807C3F12D8
:1014A0000AFFD201ED33EC33248430E705E4C0E0D9
:1014B000806D04FAEDD2E754F0C333DAFD540734FB
:1014C000002323C0E0CCC0E0F8EDC0E0F9EEC0E0BE
:1014D000FAEFC0E0FBE4120C1FEC24FEFC8C088D3C
:1014E000098E0A8F0B1209F67B007A007980783F0B
:1014F000120905ECC508B2E7FCEDC509FDEEC50A09
:10150000FEEFC50BFFD0E0FBD0E0FAD0E0F9D0E071
:10151000F8120905A808A909AA0AAB0B120AFF8C40
:10152000088D098E0A8F0B9014407403120CD4A8F6
:1015300008A909AA0AAB0B1209F6D0E0600F244CE7
:10154000F582E43414F583120F3D12090530010BC6
:101550007BDB7A0F79C978BF120905ED33EC336074
:0815600006ECA20092E7FC2258
:100C8A00E9D2E7C933E833F892D5EDD2E7CD33ECB0
:070C9A0033FC5002B2D52229
:100CA100EC30E7100FBF000C0EBE00080DBD0004B4
:100CB1000BEB6014A2D5EB13FCED92E7FD2274FF60
:100CC100FCFDFEFF22E480F8A2D574FF13FC7D80B9
:030CD100E480EFCD
:100CD400C0E0EFFBEEFAEDF9ECF81209F6D0E0F51E
:100CE400F0EFFBEEFAEDF9ECF8120F2DA3A3A3A39A
:100CF400E8C0E0E9C0E0EAC0E0EBC0E0C0F01209FF
:100D0400F6120F3DA3A3A3A3120905D0F0D0E0FB74
:0D0D1400D0E0FAD0E0F9D0E0F8D5F0D4221C
:10186E00021AD1E493A3F8E493A34003F68001F2A5
:10187E0008DFF48029E493A3F85407240CC8C3337B
:10188E00C4540F4420C8834004F456800146F6DF4A
:10189E00E4800B0102040810204080901B63E47E5C
:1018AE00019360BCA3FF543F30E509541FFEE4933F
:1018BE00A360010ECF54C025E060A840B8E493A306
:1018CE00FAE493A3F8E493A3C8C582C8CAC583CA31
:1018DE00F0A3C8C582C8CAC583CADFE9DEE780BEE9
:011B9E000046
:100D2100BB010CE58229F582E5833AF583E0225087
:100D310006E92582F8E622BBFE06E92582F8E222D1
:0D0D4100E58229F582E5833AF583E49322EB
:100D4E00BC000BBE0029EF8DF084FFADF022E4CC89
:100D5E00F875F008EF2FFFEE33FEEC33FCEE9DEC52
:100D6E00984005FCEE9DFE0FD5F0E9E4CEFD22ED98
:100D7E00F8F5F0EE8420D21CFEADF075F008EF2FE2
:100D8E00FFED33FD4007985006D5F0F222C398FDD3
:050D9E000FD5F0EA2270
:100DA300C2D5EC30E709B2D5E4C39DFDE49CFCEE6B
:100DB30030E715B2D5E4C39FFFE49EFE120D4EC388
:100DC300E49DFDE49CFC8003120D4E30D507C3E483
:060DD3009FFFE49EFE22DA
:100DD900E88FF0A4CC8BF0A42CFCE98EF0A42CFCB9
:100DE9008AF0EDA42CFCEA8EF0A4CDA8F08BF0A437
:100DF9002DCC3825F0FDE98FF0A42CCD35F0FCEB96
:100E09008EF0A4FEA9F0EB8FF0A4CFC5F02ECD395A
:0F0E1900FEE43CFCEAA42DCE35F0FDE43CFC22C7
:100E280075F008758200EF2FFFEE33FECD33CDCC81
:100E380033CCC58233C5829BED9AEC99E582984004
:100E48000CF582EE9BFEED9AFDEC99FC0FD5F0D6E1
:100E5800E4CEFBE4CDFAE4CCF9A88222B800C1B90B
:100E68000059BA002DEC8BF084CFCECDFCE5F0CB49
:100E7800F97818EF2FFFEE33FEED33FDEC33FCEB82
:100E880033FB10D703994004EB99FB0FD8E5E4F93D
:100E9800FA227818EF2FFFEE33FEED33FDEC33FC2A
:100EA800C933C910D7059BE99A4007EC9BFCE99A1E
:100EB800F90FD8E0E4C9FAE4CCFB2275F010EF2F63
:100EC800FFEE33FEED33FDCC33CCC833C810D70763
:100ED8009BEC9AE899400AED9BFDEC9AFCE899F89E
:0E0EE8000FD5F0DAE4CDFBE4CCFAE4C8F92231
:0E0EF600C3E49FFFE49EFEE49DFDE49CFC220D
:100F0400EB9FF5F0EA9E42F0E99D42F0EC6480C864
:060F140064809845F02204
:100F1A00E8600FECC313FCED13FDEE13FEEF13FFB5
:030F2A00D8F122D9
:100F2D00E493FC740193FD740293FE740393FF220A
:100F3D00E493F8740193F9740293FA740393FB220A
:0C0F4D00ECF0A3EDF0A3EEF0A3EFF02217
:100F5900D083D082F8E4937012740193700DA3A327
:100F690093F8740193F5828883E47374029368603B
:060F7900EFA3A3A380DF3B
:0C1EB700EE30E707C3E49FFFE49EFE222C
:00000001FF
