:020000040800F2
:1000000088070020CD0100085904000805040008F5
:100010005504000875020008AB0900080000000044
:10002000000000000000000000000000F5060008CD
:100030007902000800000000D10600080908000845
:10004000E7010008E7010008E7010008E7010008F0
:10005000E7010008E7010008E7010008E7010008E0
:10006000E7010008E7010008E7010008E7010008D0
:10007000E7010008E7010008E7010008E7010008C0
:10008000E7010008E7010008E7010008E7010008B0
:10009000E7010008E7010008E7010008E7010008A0
:1000A000E7010008E7010008E7010008E701000890
:1000B000E7010008E70100086D080008E7010008F3
:1000C000E7010008E7010008E7010008E701000870
:1000D000E7010008C5080008E7010008E70100087B
:1000E000E7010008E7010008E7010008E701000850
:1000F000E7010008E7010008E7010008E701000840
:10010000E7010008E7010008E7010008E70100082F
:10011000E7010008E7010008E7010008E70100081F
:10012000E7010008E7010008E7010008E70100080F
:1001300000F002F800F03AF80AA090E8000C8244BF
:100140008344AAF10107DA4501D100F02FF8AFF29C
:10015000090EBAE80F0013F0010F18BFFB1A43F0A5
:10016000010318472409000044090000103A24BF85
:1001700078C878C1FAD8520724BF30C830C144BF0C
:1001800004680C607047000000230024002500264E
:10019000103A28BF78C1FBD8520728BF30C148BFEA
:1001A0000B6070471FB51FBD10B510BD00F033F8D0
:1001B0001146FFF7F7FF00F045FC00F051F803B4DB
:1001C000FFF7F2FF03BC00F0F2FB00000948804794
:1001D00009480047FEE7FEE7FEE7FEE7FEE7FEE729
:1001E000FEE7FEE7FEE7FEE704480549054A064B41
:1001F000704700000D080008310100088801002048
:10020000880700208803002088030020704770477B
:10021000704770477047754600F028F8AE460500F5
:100220006946534620F00700854618B020B5FFF711
:10023000DBFFBDE820404FF000064FF000074FF015
:1002400000084FF0000B21F00701AC46ACE8C009F4
:10025000ACE8C009ACE8C009ACE8C0098D467047FD
:100260000446AFF300802046FFF7A9FF004870471F
:100270002801002000BFFEE770472DE9F04102464B
:1002800000250026002000230024002791F803C049
:100290000CF00F0591F803C00CF0100CBCF1000F2E
:1002A00003D091F802C04CEA050591F800C0BCF1FA
:1002B000000F31D0146800202BE04FF0010C0CFA35
:1002C00000F3B1F800C00CEA03069E4220D183007F
:1002D0004FF00F0C0CFA03F7BC4305FA03FC4CEA91
:1002E000040491F803C0BCF1280F06D14FF0010CB3
:1002F0000CFA00FCC2F814C00AE091F803C0BCF18B
:10030000480F05D14FF0010C0CFA00FCC2F810C0E8
:10031000401C0828D1D31460B1F800C0BCF1FF0F15
:1003200034DD546800202EE000F1080C4FF0010885
:1003300008FA0CF3B1F800C00CEA03069E4221D182
:1003400083004FF00F0C0CFA03F7BC4305FA03FCD3
:100350004CEA040491F803C0BCF1280F05D100F168
:10036000080C08FA0CF8C2F8148091F803C0BCF12C
:10037000480F07D100F1080C4FF0010808FA0CF8FB
:10038000C2F81080401C0828CED35460BDE8F0812C
:100390000246002093680B400BB1012000E00020D2
:1003A000704701617047000010B5072000F0CEF8DB
:1003B000104908700846007800F04000C8B10020DD
:1003C0000D49086005220D49612000F0D5F8FF2194
:1003D000272000F047F900200949C1F89C01E220DC
:1003E00000F0E8F801200449091F086000200149D5
:1003F000087010BD5F000020A00124425A000020B8
:100400000000244200BFFEE708B50121482000F0AB
:1004100061F92020ADF8000010208DF803000320C2
:100420008DF8020069460948FFF727FF2021074899
:10043000FFF7B7FF2020ADF8000069460448FFF73A
:100440001CFF20210248FFF7ACFF08BD000C014053
:100450000018014000BFFEE77047000010B5022001
:1004600000F0CAFA00200749086001200649C1F8D7
:100470009C0100200549086001200349C1F898014A
:1004800010BD0000A001244200002442B48121429A
:1004900008B501214FF4847000F01CF94FF480403E
:1004A000ADF8000014208DF8030003208DF8020041
:1004B00069462448FFF7E1FE4FF480412148FFF7E9
:1004C00070FF10208DF803004020ADF80000694651
:1004D0001D48FFF7D2FE40211B48FFF762FF4FF493
:1004E0000040ADF8000069461648FFF7C6FE4FF41D
:1004F00000411448FFF755FF4FF40050ADF80000DD
:1005000069461048FFF7B9FE4FF400510D48FFF758
:1005100048FF8020ADF8000069460B48FFF7ADFEAC
:1005200080210948FFF73DFF4FF48070ADF80000CF
:1005300069460548FFF7A1FE4FF480710248FFF7B6
:1005400030FF08BD000C01400020014070B504469A
:10055000002007490860204600F02CF8002000F039
:1005600029F8054601200349C1F89C01284670BDC1
:100570009C012442000024422DE9F04107460D462B
:10058000164600200A490860384600F013F88046F5
:10059000002405E0002000F00DF82855601CC4B2CE
:1005A000B442F7DB0120024908604046BDE8F08113
:1005B0009C01244270B5044600251CE004F0800034
:1005C00018B101200E49086002E000200C490860C3
:1005D0006006040E01200A490839086081030948B1
:1005E000FFF7D6FE08B144F00104002004490839A1
:1005F0000860681CC5B2082DE0DB204670BD000015
:10060000BC812142000C014010B504460020134972
:100610000860052221462A2000F03CF83F212120D5
:1006200000F020F83F21222000F01CF84021252076
:1006300000F018F80521312000F014F80F212620D1
:1006400000F010F80F21202000F00CF801200449E0
:10065000C1F8A001022000F0CFF910BDA001244292
:100660000000244270B505460C460020074908608A
:100670002846FFF79FFF06462046FFF79BFF012015
:100680000349C1F89C01304670BD00009C01244222
:10069000000024422DE9F04107460C461546002093
:1006A0000A4908603846FFF785FF8046002605E0C6
:1006B00014F8010BFFF77EFF701CC6B2AE42F7DBE9
:1006C0000120024908604046BDE8F0819C012442B7
:1006D0007047000029B1064A92690243044B9A61AF
:1006E00004E0034A92698243014B9A61704700001B
:1006F00000100240704710B500F002F810BD000075
:100700000CB50020019000903348006840F4803020
:100710003149086000BF3048006800F400300090A4
:100720000198401C0190009818B90198B0F5A06F8D
:10073000F1D12948006800F4003010B10120009088
:1007400001E0002000900098012843D12348006870
:1007500040F01000214908600846006820F00300BE
:1007600008600846006840F0020008601A484068C7
:10077000194948600846406848600846406840F4A7
:10078000806048600846406820F47C104860084655
:10079000406840F4E81048600846006840F0807007
:1007A000086000BF0C48006800F000700028F9D015
:1007B0000948406820F0030007494860084640683F
:1007C00040F00200486000BF0348406800F00C00A1
:1007D0000828F9D10CBD00000010024000200240A2
:1007E000042808D14FF0E021096941F004014FF0DD
:1007F000E022116107E04FF0E021096921F00401D6
:100800004FF0E022116170477047000010B51348A7
:10081000006840F00100114908600846406810492E
:1008200008400E494860084600680E4908400B49D8
:1008300008600846006820F4802008600846406888
:1008400020F4FE0048604FF41F008860FFF753FF5C
:100850004FF000600449086010BD00000010024025
:100860000000FFF8FFFFF6FE08ED00E010B50121E3
:10087000084800F016F858B10121064800F00EF8BB
:100880000548006808B9012000E00020024908601E
:1008900010BD00000008004094012342CA430282B8
:1008A000704730B50246002000230024158A05EA6F
:1008B0000103958905EA010413B10CB1012000E0A0
:1008C000002030BD10B540F225511D4800F03EF823
:1008D00010B31B4800F064F8C4B21A48008800F452
:1008E0000040C8B91748008800F4804060B10A2C65
:1008F00003D000201349088020E01248008840F40B
:1009000000401049088019E00D2C06D10D480088E0
:1009100040F480400B49088010E00A480088C0F38A
:100920000D0009490C5407480088401C05490880FF
:1009300008460088C72801DD0020088010BD00009F
:1009400000380140580000206000002070B50246C9
:10095000002400230025002040F66A16B14200D191
:1009600000BFC1F3421501F01F03012606FA03F38D
:10097000012D02D19689334006E0022D02D1168A5C
:10098000334001E0968A33400C12012606FA04F443
:100990001688344013B10CB1012000E0002070BD76
:1009A00001468888C0F30800704700BFFEE7014693
:1009B00000BF704710B56FF00400FFF711FF0A4841
:1009C00000680A49B0FBF1F0094908700846007850
:1009D00000EB4001C1EBC0104FF6FF7101EAC0000F
:1009E0000449088010BD00003C00002000127A007D
:1009F00050000020520000200146114A12884A434C
:100A00004FF0E0235A6100229A611A46126942F0BF
:100A100001021A6100BF4FF0E022106900F00102EC
:100A20001AB100F48032002AF5D04FF0E0221269AA
:100A300022F001024FF0E0231A6100229A61704710
:100A400052000020FFF7E0FCFFF7B4FFFFF720FDA6
:100A5000FFF704FD0848FFF7D7FD0BE0FFF7A4FC04
:100A600006480078612805D100200549086005493D
:100A7000C1F89401F2E700001E0000205A00002097
:100A80009481214200002342A80A000800000020AF
:100A9000600000006C010008080B000860000020E6
:100AA0002807000088010008344211130235431062
:100AB0001001364310100137431010013843101055
:100AC0000139431010013442111302354310100153
:100AD000364310100137431010013843101001390C
:100AE0004310100100A24A040000000000000000B2
:100AF00001020304060708090000000000000000CE
:080B00000000000000000000ED
:0400000508000131BD
:00000001FF
