:020000040800F2
:1000000060070020CD010008014B0008B104000882
:10001000FD4A000875020008134E000800000000A9
:100020000000000000000000000000005D4B000820
:100030007902000800000000194B0008714C00080C
:10004000E7010008E7010008E7010008E7010008F0
:10005000E7010008E7010008E7010008E7010008E0
:10006000E7010008E7010008E7010008E7010008D0
:10007000E7010008E7010008E7010008E7010008C0
:10008000E7010008E7010008E7010008E7010008B0
:10009000E7010008E7010008E7010008E7010008A0
:1000A000E7010008E7010008E7010008E701000890
:1000B000E7010008E7010008D54C0008E701000847
:1000C000E7010008E7010008E7010008E701000870
:1000D000E70100082D4D0008E7010008E7010008CE
:1000E000E7010008E7010008E7010008E701000850
:1000F000E7010008E7010008E7010008E701000840
:10010000E7010008E7010008E7010008E70100082F
:10011000E7010008E7010008E7010008E70100081F
:10012000E7010008E7010008E7010008E70100080F
:1001300000F002F800F03AF80AA090E8000C8244BF
:100140008344AAF10107DA4501D100F02FF8AFF29C
:10015000090EBAE80F0013F0010F18BFFB1A43F0A5
:100160000103184754A7010074A70100103A24BFE7
:1001700078C878C1FAD8520724BF30C830C144BF0C
:1001800004680C607047000000230024002500264E
:10019000103A28BF78C1FBD8520728BF30C148BFEA
:1001A0000B6070471FB51FBD10B510BD00F033F8D0
:1001B0001146FFF7F7FF04F009FF00F051F803B410
:1001C000FFF7F2FF03BC04F026FE00000948804759
:1001D00009480047FEE7FEE7FEE7FEE7FEE7FEE729
:1001E000FEE7FEE7FEE7FEE704480549054A064B41
:1001F00070470000754C00083101000860010020C4
:1002000060070020600300206003002070477047F3
:10021000704770477047754600F028F8AE460500F5
:100220006946534620F00700854618B020B5FFF711
:10023000DBFFBDE820404FF000064FF000074FF015
:1002400000084FF0000B21F00701AC46ACE8C009F4
:10025000ACE8C009ACE8C009ACE8C0098D467047FD
:100260000446AFF300802046FFF7A9FF004870471F
:10027000FC00002000BFFEE77047000051B1820083
:10028000A2F1C042126842F001038200A2F1C04212
:10029000136009E08200A2F1C0421268034B1A40C9
:1002A0008300A3F1C0431A6070470000FEFF0F00F7
:1002B000D0E901121143C268114302691143426936
:1002C000114382691143C2691143026A1143426AB0
:1002D0001143826A1143C26A1143026B11430268DF
:1002E0009200A2F1C0421160816808290BD1016817
:1002F0008900A1F1C041096841F04002016889000C
:10030000A1F1C0410A60416B0968426B526841EA41
:100310000211426B926841EA0221426B928941EAE2
:100320000241426B128A41EA0251426B127D41EA5C
:100330000261426B926911430268521C9200A2F161
:10034000C0421160C16AB1F5804F1BD1816B096851
:10035000826B526841EA0211826B926841EA022183
:10036000826B128A41EA0251826B127D41EA02617C
:10037000826B9269114302689200A2F1C042C2F8F6
:10038000041107E06FF0704201688900A1F1C041DB
:10039000C1F8042170472DE9F041024600250026EE
:1003A000002000230024002791F803C00CF00F0563
:1003B00091F803C00CF0100CBCF1000F03D091F8C1
:1003C00002C04CEA050591F800C0BCF1000F31D025
:1003D000146800202BE04FF0010C0CFA00F3B1F888
:1003E00000C00CEA03069E4220D183004FF00F0CA0
:1003F0000CFA03F7BC4305FA03FC4CEA040491F839
:1004000003C0BCF1280F06D14FF0010C0CFA00FC20
:10041000C2F814C00AE091F803C0BCF1480F05D13E
:100420004FF0010C0CFA00FCC2F810C0401C082868
:10043000D1D31460B1F800C0BCF1FF0F34DD5468B3
:1004400000202EE000F1080C4FF0010808FA0CF330
:10045000B1F800C00CEA03069E4221D183004FF0A0
:100460000F0C0CFA03F7BC4305FA03FC4CEA040436
:1004700091F803C0BCF1280F05D100F1080C08FA6F
:100480000CF8C2F8148091F803C0BCF1480F07D1F2
:1004900000F1080C4FF0010808FA0CF8C2F81080BF
:1004A000401C0828CED35460BDE8F081016170473C
:1004B00000BFFEE770B5044600261748058840884F
:1004C00045431548808846F60401884216D11248F3
:1004D0008079012812D100200F4988712A20488193
:1004E0002B2088810021084603F01CFF01200A49C7
:1004F00088712B2048812A20888103E0002108464A
:1005000003F010FF04F0C2FA002602E00348048062
:10051000761CAE42FAD370BDEC0000200008006CDF
:1005200010B50446002C66D16C498871F020088013
:100530004FF4A07048800846808849F241318842D3
:100540000BD06648808846F60401884205D063488F
:10055000808845F2103188421AD12C205F490881E9
:100560002A2048812B2088810846808846F604018D
:10057000884205D05948808845F21031884206D11A
:100580004FF4A070554908804FF4F0704880A1E006
:100590005248808845F21051884210D14FF43050B3
:1005A0004E4908814FF4285048814FF42C508881DF
:1005B0004FF4F07008804FF4487048808AE0474854
:1005C000808841F6631188420DD12C20434908816F
:1005D0002B2048812A2088814FF4F07008804FF446
:1005E0004870488076E022203C49088120204881DC
:1005F000212088816EE00120384988714FF4A07075
:100600000880F02048800846808849F241318842BD
:1006100005D03248808845F21031884207D12C201D
:100620002E4908812A2048812B2088813FE02B48D1
:10063000808846F60401884207D12C20274908818A
:100640002B2048812A20888131E02448808845F287
:100650001051884210D14FF43050204908814FF496
:10066000285048814FF42C5088814FF448700880FE
:100670004FF4F07048801AE01848808841F6631102
:1006800088420DD12C20154908812A2048812B2031
:1006900088814FF4487008804FF4F070488006E07D
:1006A00022200E49088121204881202088810B4882
:1006B000808846F60401884205D00848808845F2C3
:1006C0001031884206D14FF4F070044908804FF48D
:1006D000A0704880002003F0AFFC10BDEC000020AB
:1006E00030B503460C4615465A48808849F24131D8
:1006F000884205D05748808845F21031884214D18D
:100700005449488904F0BCF9181204F0B3F9D8B27E
:1007100004F0B0F94F49888904F0B2F9201204F0CE
:10072000A9F9E0B204F0A6F98CE04A48808845F2C5
:100730001051884220D14749488904F0A1F9181284
:1007400004F098F943494989491C88B204F098F9A2
:10075000D8B204F08FF93F49888904F091F920124A
:1007600004F088F93B498989491C88B204F088F96A
:10077000E0B204F07FF965E03648808841F6631105
:10078000884228D13348807920B932480088401EF9
:10079000C01A83B22F49488904F072F9181204F084
:1007A00069F9D8B204F066F9181204F063F9D8B206
:1007B00004F060F92749888904F062F9201204F0F6
:1007C00059F9E0B204F056F9201204F053F9E0B2FE
:1007D00004F050F936E01F48808846F6040188424C
:1007E0001DD11C488079012804D11A480088401E78
:1007F000C01A83B21749488904F042F9181204F06C
:1008000039F9D8B204F036F91249888904F038F978
:10081000201204F02FF9E0B204F02CF912E00D4898
:100820008079012804D10B480088401EC01A83B289
:1008300008494889194604F033F906498889214650
:1008400004F02EF90348008903490880881C0580BC
:1008500030BD0000EC000020FE07006C00B59FB02A
:100860000121080204F05AF901214FF4B47004F098
:1008700065F90120ADF8780010208DF87B00032089
:100880008DF87A001EA9FE48FFF785FD4CF2337003
:10089000ADF8780018208DF87B0003208DF87A00E1
:1008A0001EA9F848FFF777FD4FF68070ADF8780085
:1008B00018208DF87B0003208DF87A001EA9F248DD
:1008C000FFF769FD41F20100ADF8780018208DF8BE
:1008D0007B0003208DF87A001EA9EC48FFF75BFD32
:1008E00001200890002009900F200A9000200B9012
:1008F0000C900D900E900190029003200390002028
:10090000049005900690079006200F90002010900C
:1009100011901020129000201390159014901690B2
:1009200017904FF480501890002019904FF4804099
:100930001A9000201B9008A81C9001A81D900FA8D9
:10094000FFF7B6FC01210620FFF798FC322004F0E7
:1009500087FA002003F03AFBCD498880084680885A
:10096000FF280ADB084680884FF6FF71884204D0D2
:10097000C7488088B0F5134F7ED1D32004F080F8AB
:1009800003F01AFBC249888003F016FBC049888037
:1009900003F012FBBE498880084680884FF6FF713D
:1009A00001EA0020BA49888003F006FBB84989882B
:1009B0000843B74988800846808849F24131884217
:1009C0005AD0BF2004F05CF803F0F6FAB0498880F2
:1009D00003F0F2FAAE49888003F0EEFAAC49888061
:1009E00003F0EAFAAA498880084680884FF6FF712A
:1009F00001EA0020A649888003F0DEFAA44989882C
:100A00000843A34988800846808846F60401884246
:100A10007AD0D42004F034F803F0CEFA9C498880D0
:100A200003F0CAFA9A49888003F0C6FA9849888088
:100A3000084680884FF6FF7101EA002094498880BB
:100A400003F0BAFA92498988084391498880084698
:100A5000808845F21031884256D04FF45A4004F055
:100A60000FF803F0A9FA8A4988804FF45B4004F03C
:100A700007F803F0A1FA00E046E0854988800846BF
:100A800080884FF6FF7101EA0020814988804FF489
:100A90005C4003F0F5FF03F08FFA7D498988084335
:100AA0007B49888008468088B0F5004F02D145F226
:100AB000105088807648808845F21051884223D0B3
:100AC000A12003F0DDFF03F077FA7149888003F07D
:100AD00073FA6F498880084680884FF6FF7101EAF3
:100AE00000206B49888003F067FA694989880843C8
:100AF000674988800846808845F26171884203D141
:100B000041F66310624988806148808849F241312A
:100B100088427CD1CF2003F0B3FF002003F0AAFF6E
:100B2000C12003F0A7FF302003F0A4FFED2003F065
:100B3000A7FF642003F09EFF032003F09BFF122019
:100B400003F098FF812003F095FFE82003F098FF61
:100B5000852003F08FFF102003F08CFF7A2003F034
:100B600089FFCB2003F08CFF392003F083FF2C207A
:100B700003F080FF002003F07DFF342003F07AFFB4
:100B8000022003F077FFF72003F07AFF202003F024
:100B900071FFEA2003F074FF002003F06BFF0020D8
:100BA00003F068FFC02003F06BFF1B2003F062FF1F
:100BB000C12003F065FF012003F05CFFC52003F0B6
:100BC0005FFF302003F056FF302003F053FFC720B3
:100BD00003F056FFB72003F04DFF362003F050FF1F
:100BE000482003F047FF3A2003F04AFF552003F066
:100BF00041FFB12003F044FF002003F03BFF1A2027
:100C000003F038FFB62003F03BFF0A2000E0A5E028
:100C100003F030FFA22003F02DFFF22003F030FF9D
:100C2000002003F027FF262003F02AFF012003F015
:100C300021FFE02003F024FF0F2003F01BFF2A20F8
:100C400003F018FF282003F015FF082003F012FF1F
:100C50000E2003F00FFF082003F00CFF542003F0D8
:100C600009FFA92003F006FF432003F003FF0A2039
:100C700003F000FF0F2003F0FDFE00200AE000005B
:100C8000000C014000140140001801400020014008
:100C9000EC00002003F0EEFE002003F0EBFE00204D
:100CA00003F0E8FE002003F0E5FEE12003F0E8FE9B
:100CB000002003F0DFFE152003F0DCFE172003F018
:100CC000D9FE072003F0D6FE112003F0D3FE062044
:100CD00003F0D0FE2B2003F0CDFE562003F0CAFE19
:100CE0003C2003F0C7FE052003F0C4FE102003F0F3
:100CF000C1FE0F2003F0BEFE3F2003F0BBFE3F20ED
:100D000003F0B8FE0F2003F0B5FE2B2003F0B8FE71
:100D1000002003F0AFFE002003F0ACFE012003F042
:100D2000A9FE3F2003F0A6FE2A2003F0A9FE002022
:100D300003F0A0FE002003F09DFE002003F09AFEC9
:100D4000EF2003F097FE112003F09AFE782004F0C4
:100D500087F8292003F094FE03F01DB9FE4880882F
:100D600046F6040188427CD1112003F089FE14204C
:100D700004F076F8D02003F083FE072003F07AFE1B
:100D8000422003F077FE1D2003F074FED12003F013
:100D900077FE002003F06EFE1A2003F06BFE0920A0
:100DA00003F068FED22003F06BFE012003F062FE28
:100DB000222003F05FFEC02003F062FE102003F04B
:100DC00059FE3B2003F056FE002003F053FE0220A4
:100DD00003F050FE112003F04DFEC52003F050FE3D
:100DE000032003F047FEC82003F04AFE002003F072
:100DF00041FE252003F03EFE212003F03BFE0520AE
:100E000003F038FE002003F035FE0A2003F032FE26
:100E1000652003F02FFE252003F02CFE772003F041
:100E200029FE502003F026FE0F2003F023FE0020B1
:100E300003F020FEF82003F023FE012003F01AFE49
:100E4000FE2003F01DFE002003F014FE022003F03C
:100E500011FE202003F014FE362003F011FE0820BE
:100E600000E02CE003F006FE3A2003F009FE5520D6
:100E700003F000FE2B2003F003FE002003F0FAFD38
:100E8000002003F0F7FD012003F0F4FD3F2003F004
:100E9000F1FD2A2003F0F4FD002003F0EBFD00201B
:100EA00003F0E8FD012003F0E5FDDF2003F0E2FDA3
:100EB000782003F0D5FF292003F0E2FD4CE7A64897
:100EC000808845F21031884240F07C87ED2003F0A5
:100ED000D7FD012003F0CEFDFE2003F0CBFDEE2078
:100EE00003F0CEFDDE2003F0C5FD212003F0C2FD9E
:100EF000F12003F0C5FD012003F0BCFDDF2003F06D
:100F0000BFFD102003F0B6FDC42003F0B9FD8F2013
:100F100003F0B0FDC62003F0B3FD002003F0AAFDEE
:100F2000E22003F0A7FDE22003F0A4FDE22003F09D
:100F3000A1FDBF2003F0A4FDAA2003F09BFDB0207B
:100F400003F09EFD0D2003F095FD002003F092FDBF
:100F50000D2003F08FFD002003F08CFD112003F025
:100F600089FD002003F086FD192003F083FD002099
:100F700003F080FD212003F07DFD002003F07AFDC9
:100F80002D2003F077FD002003F074FD3D2003F0D9
:100F900071FD002003F06EFD5D2003F06BFD00206D
:100FA00003F068FD5D2003F065FD002003F062FDA5
:100FB000B12003F065FD802003F05CFD002003F00C
:100FC00059FD8B2003F056FD002003F053FD9620C1
:100FD00003F050FD002003F04DFDB22003F050FD62
:100FE000002003F047FD002003F044FD022003F041
:100FF00041FD002003F03EFD032003F03BFD0020F7
:1010000003F038FDB32003F03BFD002003F032FD78
:10101000002003F02FFD002003F02CFD002003F042
:1010200029FD002003F026FD002003F023FD002011
:1010300003F020FD002003F01DFD002003F01AFD49
:10104000002003F017FD002003F014FD002003F042
:1010500011FD002003F00EFD002003F00BFD002029
:1010600003F008FD002003F005FD002003F002FD61
:10107000002003F0FFFC002003F0FCFC002003F044
:10108000F9FC002003F0F6FC002003F0F3FC002044
:1010900003F0F0FC002003F0EDFCB42003F0F0FCC2
:1010A0008B2003F0E7FC002003F0E4FC962003F023
:1010B000E1FC002003F0DEFCA12003F0DBFC0020BB
:1010C00003F0D8FCB52003F0DBFC022003F0D2FCD7
:1010D000002003F0CFFC032003F0CCFC002003F041
:1010E000C9FC042003F0C6FC002003F0C3FCB620BA
:1010F00003F0C6FC002003F0BDFC002003F0BAFCA6
:10110000B72003F0BDFC002003F0B4FC002003F086
:10111000B1FC3F2003F0AEFC002003F0ABFC5E20EE
:1011200003F0A8FC002003F0A5FC642003F0A2FC5F
:10113000002003F09FFC8C2003F09CFC002003F0B7
:1011400099FCAC2003F096FC002003F093FCDC201B
:1011500003F090FC002001E0EC00002003F08AFC8A
:10116000702003F087FC002003F084FC902003F043
:1011700081FC002003F07EFCEB2003F07BFC0020D0
:1011800003F078FCDC2003F075FC002003F072FC17
:10119000B82003F075FC002003F06CFC002003F085
:1011A00069FC002003F066FC002003F063FC0020D3
:1011B00003F060FC002003F05DFC002003F05AFC0B
:1011C000002003F057FCBA2003F05AFC242003F05F
:1011D00051FC002003F04EFC002003F04BFC0020EB
:1011E00003F048FCC12003F04BFC202003F042FC3C
:1011F000002003F03FFC542003F03CFC002003F0EF
:1012000039FCFF2003F036FC002003F033FCC22041
:1012100003F036FC0A2003F02DFC002003F02AFC2A
:10122000042003F027FC002003F024FCC32003F07B
:1012300027FC3C2003F01EFC002003F01BFC3A209E
:1012400003F018FC002003F015FC392003F012FC19
:10125000002003F00FFC372003F00CFC002003F00B
:1012600009FC3C2003F006FC002003F003FC3620C0
:1012700003F000FC002003F0FDFB322003F0FAFB3A
:10128000002003F0F7FB2F2003F0F4FB002003F015
:10129000F1FB2C2003F0EEFB002003F0EBFB2920F8
:1012A00003F0E8FB002003F0E5FB262003F0E2FB5F
:1012B000002003F0DFFB242003F0DCFB002003F020
:1012C000D9FB242003F0D6FB002003F0D3FB23201E
:1012D00003F0D0FB002003F0CDFB3C2003F0CAFB61
:1012E000002003F0C7FB362003F0C4FB002003F00E
:1012F000C1FB322003F0BEFB002003F0BBFB2F201C
:1013000003F0B8FB002003F0B5FB2C2003F0B2FB88
:10131000002003F0AFFB292003F0ACFB002003F01A
:10132000A9FB262003F0A6FB002003F0A3FB24204A
:1013300003F0A0FB002003F09DFB242003F09AFBA8
:10134000002003F097FB232003F094FB002003F020
:1013500091FBC42003F094FB622003F08BFB002080
:1013600003F088FB052003F085FB002003F082FBDF
:10137000842003F07FFB002003F07CFBF02003F0CF
:1013800079FB002003F076FB182003F073FB0020AC
:1013900003F070FBA42003F06DFB002003F06AFB58
:1013A000182003F067FB002003F064FB502003F0DB
:1013B00061FB002003F05EFB0C2003F05BFB0020D0
:1013C00003F058FB172003F055FB002003F052FBFD
:1013D000952003F04FFB002003F04CFBF32003F0BB
:1013E00049FB002003F046FBE62003F043FB00200E
:1013F00003F040FBC52003F043FB322003F03AFB2F
:10140000002003F037FB442003F034FB002003F0FE
:1014100031FB652003F02EFB002003F02BFB762030
:1014200003F028FB002003F025FB882003F022FBBB
:10143000002003F01FFBC62003F022FB202003F056
:1014400019FB002003F016FB172003F013FB00200C
:1014500003F010FB012003F00DFB002003F00AFB5A
:10146000C72003F00DFB002003F004FB002003F075
:1014700001FB002003F0FEFA002003F0FBFAC82075
:1014800003F0FEFA002003F0F5FA002003F0F2FA70
:10149000002003F0EFFA002003F0ECFAC92003F07B
:1014A000EFFA002003F0E6FA002003F0E3FA002050
:1014B00003F0E0FA002003F0DDFA002003F0DAFA8E
:1014C000002003F0D7FA002003F0D4FA002003F044
:1014D000D1FA002003F0CEFA002003F0CBFA00206E
:1014E00003F0C8FA002003F0C5FA002003F0C2FAA6
:1014F000002003F0BFFA002003F0BCFA002003F044
:10150000B9FAE02003F0BCFA162003F0B3FA002089
:1015100003F0B0FA1C2003F0ADFA002003F0AAFAA1
:10152000212003F0A7FA002003F0A4FA362003F0EC
:10153000A1FA002003F09EFA462003F09BFA002057
:1015400003F098FA522003F095FA002003F092FA83
:10155000642003F08FFA002003F08CFA7A2003F065
:1015600089FA002003F086FA8B2003F083FA00202A
:1015700003F080FA992003F07DFA002003F07AFA54
:10158000A82003F077FA002003F074FAB92003F0E2
:1015900071FA002003F06EFAC42003F06BFA002009
:1015A00003F068FACA2003F065FA002003F062FA3B
:1015B000D22003F05FFA002003F05CFAD92003F098
:1015C00059FA002003F056FAE02003F053FA002005
:1015D00003F050FAF32003F04DFA002003F04AFA2A
:1015E000E12003F04DFA162003F044FA002003F046
:1015F00041FA1C2003F03EFA002003F03BFA2220BF
:1016000003F038FA002003F035FA362003F032FAFE
:10161000002003F02FFA452003F02CFA002003F0FD
:1016200029FA522003F026FA002003F023FA64205E
:1016300003F020FA002003F01DFA7A2003F01AFAD2
:10164000002003F017FA8B2003F014FA002003F0B7
:1016500011FA992003F00EFA002003F00BFAA820EB
:1016600003F008FA002003F005FAB92003F002FAAB
:10167000002003F0FFF9C42003F0FCF9002003F080
:10168000F9F9CA2003F0F6F9002003F0F3F9D220AB
:1016900003F0F0F9002003F0EDF9D82003F0EAF9A7
:1016A000002003F0E7F9E02003F0E4F9002003F064
:1016B000E1F9F32003F0DEF9002003F0DBF9E2208A
:1016C00003F0DEF9052003F0D5F9002003F0D2F98C
:1016D0000B2003F0CFF9002003F0CCF91B2003F01E
:1016E000C9F9002003F0C6F9342003F0C3F9002043
:1016F00003F0C0F9442003F0BDF9002003F0BAF96B
:101700004F2003F0B7F9002003F0B4F9612003F093
:10171000B1F9002003F0AEF9792003F0ABF9002015
:1017200003F0A8F9882003F0A5F9002003F0A2F93E
:10173000972003F09FF9002003F09CF9A62003F006
:1017400099F9002003F096F9B72003F093F90020EF
:1017500003F090F9C22003F08DF9002003F08AF91C
:10176000C72003F087F9002003F084F9D12003F0AB
:1017700081F9002003F07EF9D62003F07BF90020E8
:1017800003F078F9DD2003F075F9002003F072F919
:10179000F32003F06FF9002003F06CF9E32003F06D
:1017A0006FF9052003F066F9002003F063F90A20C1
:1017B00003F060F9002003F05DF91C2003F05AF9F2
:1017C000002003F057F9332003F054F9002003F010
:1017D00051F9442003F04EF9002003F04BF950205A
:1017E00003F048F9002003F045F9622003F042F9C4
:1017F000002003F03FF9782003F03CF9002003F0CB
:1018000039F9882003F036F9002003F033F99720E6
:1018100003F030F9002003F02DF9A62003F02AF997
:10182000002003F027F9B72003F024F9002003F08B
:1018300021F9C22003F01EF9002003F01BF9C72094
:1018400003F018F9002003F015F9D12003F012F984
:10185000002003F00FF9D52003F00CF9002003F06D
:1018600009F9DD2003F006F9002003F003F9F32065
:1018700003F000F9002003F0FDF8E42003F000F984
:10188000012003F0F7F8002003F0F4F8012003F042
:10189000F1F8002003F0EEF8022003F0EBF800204E
:1018A00003F0E8F82A2003F0E5F8002003F0E2F85E
:1018B0003C2003F0DFF8002003F0DCF84B2003F0BD
:1018C000D9F8002003F0D6F85D2003F0D3F800200B
:1018D00003F0D0F8742003F0CDF8002003F0CAF82C
:1018E000842003F0C7F8002003F0C4F8932003F02D
:1018F000C1F8002003F0BEF8A22003F0BBF80020DE
:1019000003F0B8F8B32003F0B5F8002003F0B2F804
:10191000BE2003F0AFF8002003F0ACF8C42003F0C1
:10192000A9F8002003F0A6F8CD2003F0A3F80020CA
:1019300003F0A0F8D32003F09DF8002003F09AF8FC
:10194000DD2003F097F8002003F094F8F32003F073
:1019500091F8002003F08EF8E52003F091F80020C4
:1019600003F088F8002003F085F8002003F082F8E7
:10197000002003F07FF8022003F07CF8002003F041
:1019800079F8292003F076F8002003F073F83C2062
:1019900003F070F8002003F06DF84B2003F06AF8B4
:1019A000002003F067F85D2003F064F8002003F0E6
:1019B00061F8742003F05EF8002003F05BF88420E7
:1019C00003F058F8002003F055F8932003F052F884
:1019D000002003F04FF8A22003F04CF8002003F0A1
:1019E00049F8B32003F046F8002003F043F8BE2086
:1019F00003F040F8002003F03DF8C42003F03AF86B
:101A0000002003F037F8CD2003F034F8002003F075
:101A100031F8D32003F02EF8002003F02BF8DC205F
:101A200003F028F8002003F025F8F32003F022F853
:101A3000002003F01FF8E62003F022F8112003F045
:101A400019F8002003F016F8342003F013F80020F2
:101A500003F010F8562003F00DF8002003F00AF808
:101A6000762003F007F8002003F004F8772003F055
:101A700001F8002002F0FEFF662002F0FBFF0020CC
:101A800002F0F8FF882002F0F5FF002002F0F2FFDC
:101A9000992002F0EFFF002002F0ECFFBB2002F0E3
:101AA000E9FF002002F0E6FF992002F0E3FF0020AA
:101AB00002F0E0FF662002F0DDFF002002F0DAFF16
:101AC000552002F0D7FF002002F0D4FF552002F08D
:101AD000D1FF002002F0CEFF452002F0CBFF002016
:101AE00002F0C8FF432002F0C5FF002002F0C2FF51
:101AF000442002F0BFFF002002F0BCFFE72002F00C
:101B0000BFFF322002F0B6FF002002F0B3FF5520E5
:101B100002F0B0FF002002F0ADFF762002F0AAFF35
:101B2000002002F0A7FF662002F0A4FF002002F0D0
:101B3000A1FF672002F09EFF002002F09BFF6720BC
:101B400002F098FF002002F095FF872002F092FF3C
:101B5000002002F08FFF992002F08CFF002002F09D
:101B600089FFBB2002F086FF002002F083FF99204E
:101B700002F080FF002002F07DFF772002F07AFF64
:101B8000002002F077FF442002F074FF002002F0F2
:101B900071FF562002F06EFF002002F06BFF232041
:101BA00002F068FF002002F065FF332002F062FFC0
:101BB000002002F05FFF452002F05CFF002002F0F1
:101BC00059FFE82002F05CFF002002F053FF0020E4
:101BD00002F050FF992002F04DFF002002F04AFF72
:101BE000872002F047FF002002F044FF882002F027
:101BF00041FF002002F03EFF772002F03BFF002073
:101C000002F038FF662002F035FF002002F032FFBC
:101C1000882002F02FFF002002F02CFFAA2002F003
:101C200029FF002002F026FFBB2002F023FF002046
:101C300002F020FF992002F01DFF002002F01AFFA1
:101C4000662002F017FF002002F014FF552002F07A
:101C500011FF002002F00EFF552002F00BFF0020C4
:101C600002F008FF442002F005FF002002F002FF0E
:101C7000442002F0FFFE002002F0FCFE552002F09E
:101C8000F9FE002002F0F6FEE92002F0F9FEAA209B
:101C900002F0F0FE002002F0EDFE002002F0EAFE6D
:101CA000002002F0E7FE002002F0EAFEAA2002F087
:101CB000E1FECF2002F0E4FE002002F0DBFE002077
:101CC00002F0D8FE002002F0D5FE002002F0D2FE85
:101CD000002002F0CFFE002002F0CCFE002002F037
:101CE000C9FE002002F0C6FE002002F0C3FE002064
:101CF00002F0C0FE002002F0BDFE002002F0BAFE9D
:101D0000002002F0B7FE002002F0B4FE002002F036
:101D1000B1FE002002F0AEFE002002F0ABFEF0208B
:101D200002F0AEFE002002F0A5FE502002F0A2FE5E
:101D3000002002F09FFE002002F09CFE002002F036
:101D400099FEF32002F09CFE002002F093FEF920A1
:101D500002F096FE062002F08DFE102002F08AFEB0
:101D6000292002F087FE002002F084FE3A2002F0D3
:101D700087FE552002F07EFE112002F081FE6420D5
:101D800003F06EF8292002F07BFE352002F078FE89
:101D9000002002F06FFE512002F072FEFF2002F0E0
:101DA00069FE532002F06CFE2C2002F063FE5520E9
:101DB00002F066FE822002F05DFE2C2002F060FE42
:101DC00002F0E9B8FE48808845F2105188427DD182
:101DD00055214FF4704002F063FEAA214FF201003A
:101DE00002F05EFE52214FF2020002F059FE08217D
:101DF0004FF2030002F054FE01214FF2040002F002
:101E00004FFE0D214FF4304002F04AFE0D214BF2FF
:101E1000010002F045FE0D214BF2020002F040FEEF
:101E200034214FF4364002F03BFE34214BF2016086
:101E300002F036FE34214BF2026002F031FE0D2139
:101E40004FF4314002F02CFE0D214BF2011002F054
:101E500027FE0D214BF2021002F022FE34214FF436
:101E6000374002F01DFE34214BF2017002F018FEE3
:101E700034214BF2027002F013FE00214FF4324085
:101E800002F00EFE00214BF2012002F009FE0021BB
:101E90004BF2022002F004FE24214FF4384002F0FD
:101EA000FFFD24214BF6010002F0FAFD24214BF640
:101EB000020002F0F5FD01214FF43F4002F0F0FD79
:101EC0000F214FF4334002F0EBFD00E0FDE30F2162
:101ED0004BF2013002F0E4FD0F214BF2023002F030
:101EE000DFFD34214FF4394002F0DAFD34214BF6A6
:101EF000011002F0D5FD34214BF6021002F0D0FDA6
:101F000008214FF4354002F0CBFD08214BF201507F
:101F100002F0C6FD08214BF2025002F0C1FD032180
:101F20004FF4424002F0BCFD24214FF43A4002F04D
:101F3000B7FD24214BF6012002F0B2FD24214BF61F
:101F4000022002F0ADFD00214FF43C4002F0A8FD5C
:101F500078214BF6014002F0A3FD00214BF6024030
:101F600002F09EFD00214FF43D4002F099FD7821E2
:101F70004BF6015002F094FD00214BF6025002F0A6
:101F80008FFD00214FF43E4002F08AFD64214BF6A4
:101F9000016002F085FD00214FF4514002F080FD08
:101FA00033214DF2011002F07BFD00214DF20210B1
:101FB00002F076FD34214DF2031002F071FD002194
:101FC0004DF2041002F06CFD3A214DF2051002F0C2
:101FD00067FD00214DF2061002F062FD4A214DF22C
:101FE000071002F05DFD00214DF2081002F058FDCF
:101FF0005C214DF2091002F053FD00214DF20A1050
:1020000002F04EFD81214DF20B1002F049FD00213E
:102010004DF20C1002F044FDA6214DF20D1002F01D
:102020003FFD00214DF20E1002F03AFDE5214DF288
:102030000F1002F035FD01214DF2101002F030FDBD
:1020400013214DF2111002F02BFD01214DF212105F
:1020500002F026FD54214DF2131002F021FD012162
:102060004DF2141002F01CFD82214DF2151002F009
:1020700017FD01214DF2161002F012FDCA214DF29A
:10208000171002F00DFD02214DF2181002F008FDAC
:1020900000214DF2191002F003FD02214DF21A1039
:1020A00002F0FEFC01214DF21B1002F0F9FC0221AE
:1020B0004DF21C1002F0F4FC34214DF21D1002F020
:1020C000EFFC02214DF21E1002F0EAFC67214DF2F6
:1020D0001F1002F0E5FC02214DF2201002F0E0FC9E
:1020E00084214DF2211002F0DBFC02214DF222107E
:1020F00002F0D6FCA4214DF2231002F0D1FC022103
:102100004DF2241002F0CCFCB7214DF2251002F064
:10211000C7FC02214DF2261002F0C2FCCF214DF285
:10212000271002F0BDFC02214DF2281002F0B8FC8D
:10213000DE214DF2291002F0B3FC02214DF22A10EB
:1021400002F0AEFCF2214DF22B1002F0A9FC0221AC
:102150004DF22C1002F0A4FCFE214DF22D1002F0E5
:102160009FFC03214DF22E1002F09AFC10214DF23B
:102170002F1002F095FC03214DF2301002F090FC7C
:1021800033214DF2311002F08BFC03214DF232105D
:1021900002F086FC6D214DF2331002F081FC00212B
:1021A0004FF4524002F07CFC33214DF2012002F04A
:1021B00077FC00214DF2022002F072FC342101E094
:1021C000EC0000204DF2032002F06AFC00214DF2E9
:1021D000042002F065FC3A214DF2052002F060FC7B
:1021E00000214DF2062002F05BFC4A214DF207204F
:1021F00002F056FC00214DF2082002F051FC5C2157
:102200004DF2092002F04CFC00214DF20A2002F0B0
:1022100047FC81214DF20B2002F042FC00214DF2DF
:102220000C2002F03DFCA6214DF20D2002F038FCFE
:1022300000214DF20E2002F033FCE5214DF20F207B
:1022400002F02EFC01214DF2102002F029FC132196
:102250004DF2112002F024FC01214DF2122002F077
:102260001FFC54214DF2132002F01AFC01214DF203
:10227000142002F015FC82214DF2152002F010FC12
:1022800001214DF2162002F00BFCCA214DF217205D
:1022900002F006FC02214DF2182002F001FC0021A0
:1022A0004DF2192002F0FCFB02214DF21A2002F03F
:1022B000F7FB01214DF21B2002F0F2FB02214DF24F
:1022C0001C2002F0EDFB34214DF21D2002F0E8FB52
:1022D00002214DF21E2002F0E3FB67214DF21F2088
:1022E00002F0DEFB02214DF2202002F0D9FB842116
:1022F0004DF2212002F0D4FB02214DF2222002F007
:10230000CFFBA4214DF2232002F0CAFB02214DF2A3
:10231000242002F0C5FBB7214DF2252002F0C0FBBE
:1023200002214DF2262002F0BBFBCF214DF22720E7
:1023300002F0B6FB02214DF2282002F0B1FBDE21B3
:102340004DF2292002F0ACFB02214DF22A2002F0CE
:10235000A7FBF2214DF22B2002F0A2FB02214DF24D
:102360002C2002F09DFBFE214DF22D2002F098FB67
:1023700003214DF22E2002F093FB10214DF22F206D
:1023800002F08EFB03214DF2302002F089FB332155
:102390004DF2312002F084FB03214DF2322002F095
:1023A0007FFB6D214DF2332002F07AFB00214FF4C8
:1023B000534002F075FB33214DF2013002F070FB07
:1023C00000214DF2023002F06BFB34214DF203305C
:1023D00002F066FB00214DF2043002F061FB3A216D
:1023E0004DF2053002F05CFB00214DF2063002F0A8
:1023F00057FB4A214DF2073002F052FB00214DF20B
:10240000083002F04DFB5C214DF2093002F048FB30
:1024100000214DF20A3002F043FB81214DF20B30D6
:1024200002F03EFB00214DF20C3002F039FBA621F8
:102430004DF20D3002F034FB00214DF20E3002F06F
:102440002FFBE5214DF20F3002F02AFB01214DF266
:10245000103002F025FB13214DF2113002F020FB69
:1024600001214DF2123002F01BFB54214DF21330CA
:1024700002F016FB01214DF2143002F011FB822113
:102480004DF2153002F00CFB01214DF2163002F036
:1024900007FBCA214DF2173002F002FB02214DF278
:1024A000183002F0FDFA00214DF2193002F0F8FA6E
:1024B00002214DF21A3002F0F3FA01214DF21B30E5
:1024C00002F0EEFA02214DF21C3002F0E9FA34215A
:1024D0004DF21D3002F0E4FA02214DF21E3002F0FE
:1024E000DFFA67214DF21F3002F0DAFA02214DF2D5
:1024F000203002F0D5FA84214DF2213002F0D0FADA
:1025000002214DF2223002F0CBFAA4214DF2233009
:1025100002F0C6FA02214DF2243002F0C1FAB721CE
:102520004DF2253002F0BCFA02214DF2263002F0C5
:10253000B7FACF214DF2273002F0B2FA02214DF264
:10254000283002F0ADFADE214DF2293002F0A8FA6F
:1025500002214DF22A3002F0A3FAF2214DF22B3083
:1025600002F09EFA02214DF22C3002F099FAFE217F
:102570004DF22D3002F094FA03214DF22E3002F08C
:102580008FFA10214DF22F3002F08AFA03214DF21A
:10259000303002F085FA33214DF2313002F080FA0A
:1025A00003214DF2323002F07BFA6D214DF23330CF
:1025B00002F076FA00214FF4544002F071FA332110
:1025C0004DF2014002F06CFA00214DF2024002F09F
:1025D00067FA34214DF2034002F062FA00214DF215
:1025E000044002F05DFA3A214DF2054002F058FA3B
:1025F00000214DF2064002F053FA4A214DF2074005
:1026000002F04EFA00214DF2084002F049FA5C2136
:102610004DF2094002F044FA00214DF20A4002F066
:102620003FFA81214DF20B4002F03AFA00214DF2BF
:102630000C4002F035FAA6214DF20D4002F030FABE
:1026400000214DF20E4002F02BFAE5214DF20F4031
:1026500002F026FA01214DF2104002F021FA132176
:102660004DF2114002F01CFA01214DF2124002F02D
:1026700017FA54214DF2134002F012FA01214DF2E3
:10268000144002F00DFA82214DF2154002F008FAD2
:1026900001214DF2164002F003FACA214DF2174013
:1026A00002F0FEF902214DF2184002F0F9F9002182
:1026B0004DF2194002F0F4F902214DF21A4002F0F5
:1026C000EFF901214DF21B4000E006E302F0E8F9CA
:1026D00002214DF21C4002F0E3F934214DF21D407D
:1026E00002F0DEF902214DF21E4002F0D9F9672115
:1026F0004DF21F4002F0D4F902214DF2204002F0C9
:10270000CFF984214DF2214002F0CAF902214DF2A5
:10271000224002F0C5F9A4214DF2234002F0C0F995
:1027200002214DF2244002F0BBF9B7214DF22540C1
:1027300002F0B6F902214DF2264002F0B1F9CF21A4
:102740004DF2274002F0ACF902214DF2284002F090
:10275000A7F9DE214DF2294002F0A2F902214DF243
:102760002A4002F09DF9F2214DF22B4002F098F937
:1027700002214DF22C4002F093F9FE214DF22D4042
:1027800002F08EF903214DF22E4002F089F910215A
:102790004DF22F4002F084F903214DF2304002F057
:1027A0007FF933214DF2314002F07AF903214DF2E5
:1027B000324002F075F96D214DF2334002F070F9AC
:1027C00000214FF4554002F06BF933214DF20150D6
:1027D00002F066F900214DF2025002F061F9342155
:1027E0004DF2035002F05CF900214DF2045002F06A
:1027F00057F93A214DF2055002F052F900214DF2FD
:10280000065002F04DF94A214DF2075002F048F906
:1028100000214DF2085002F043F95C214DF20950BD
:1028200002F03EF900214DF20A5002F039F98121FF
:102830004DF20B5002F034F900214DF20C5002F031
:102840002FF9A6214DF20D5002F02AF900214DF288
:102850000E5002F025F9E5214DF20F5002F020F95B
:1028600001214DF2105002F01BF913214DF21150CD
:1028700002F016F901214DF2125002F011F9542123
:102880004DF2135002F00CF901214DF2145002F0F8
:1028900007F982214DF2155002F002F901214DF2A3
:1028A000165002F0FDF8CA214DF2175002F0F8F868
:1028B00002214DF2185002F0F3F800214DF21950A8
:1028C00002F0EEF802214DF21A5002F0E9F801216F
:1028D0004DF21B5002F0E4F802214DF21C5002F0C0
:1028E000DFF834214DF21D5002F0DAF802214DF2EA
:1028F0001E5002F0D5F867214DF21F5002F0D0F8BB
:1029000002214DF2205002F0CBF884214DF22150EB
:1029100002F0C6F802214DF2225002F0C1F8A421C3
:102920004DF2235002F0BCF802214DF2245002F087
:10293000B7F8B7214DF2255002F0B2F802214DF25E
:10294000265002F0ADF8CF214DF2275002F0A8F842
:1029500002214DF2285002F0A3F8DE214DF2295059
:1029600002F09EF802214DF22A5002F099F8F2216D
:102970004DF22B5002F094F802214DF22C5002F04F
:102980008FF8FE214DF22D5002F08AF803214DF20E
:102990002E5002F085F810214DF22F5002F080F8F1
:1029A00003214DF2305002F07BF833214DF23150CB
:1029B00002F076F803214DF2325002F071F86D21E9
:1029C0004DF2335002F06CF800214FF4564002F003
:1029D00067F833214DF2016002F062F800214DF2F8
:1029E000026002F05DF834214DF2036002F058F805
:1029F00000214DF2046002F053F83A214DF20560D7
:102A000002F04EF800214DF2066002F049F84A212A
:102A10004DF2076002F044F800214DF2086002F028
:102A20003FF85C214DF2096002F03AF800214DF2C6
:102A30000A6002F035F881214DF20B6002F030F8A7
:102A400000214DF20C6002F02BF8A6214DF20D6032
:102A500002F026F800214DF20E6002F021F8E52187
:102A60004DF20F6002F01CF801214DF2106002F0EF
:102A700017F813214DF2116002F012F801214DF206
:102A8000126002F00DF854214DF2136002F008F8C4
:102A900001214DF2146002F003F882214DF215601D
:102AA00001F0FEFF01214DF2166001F0F9FFCA218D
:102AB0004DF2176001F0F4FF02214DF2186001F0B1
:102AC000EFFF00214DF2196001F0EAFF02214DF203
:102AD0001A6001F0E5FF01214DF21B6001F0E0FFFB
:102AE00002214DF21C6001F0DBFF34214DF21D602C
:102AF00001F0D6FF02214DF21E6001F0D1FF6721E7
:102B00004DF21F6001F0CCFF02214DF2206001F078
:102B1000C7FF84214DF2216001F0C2FF02214DF276
:102B2000226001F0BDFFA4214DF2236001F0B8FF47
:102B300002214DF2246001F0B3FFB7214DF2256070
:102B400001F0AEFF02214DF2266001F0A9FFCF2176
:102B50004DF2276001F0A4FF02214DF2286001F040
:102B60009FFFDE214DF2296001F09AFF02214DF214
:102B70002A6001F095FFF2214DF22B6001F090FFE9
:102B800002214DF22C6001F08BFFFE214DF22D60F1
:102B900001F086FF03214DF22E6001F081FF10212C
:102BA0004DF22F6001F07CFF03214DF2306001F007
:102BB00077FF33214DF2316001F072FF03214DF2B6
:102BC000326001F06DFF6D214DF2336001F068FF5E
:102BD00055214FF4704001F063FFAA214FF201002C
:102BE00001F05EFF52214FF2020001F059FF08216F
:102BF0004FF2030001F054FF00214FF2040001F0F6
:102C00004FFFCC214FF4314001F04AFF00214BF23D
:102C1000011001F045FF05214FF4364001F040FF5F
:102C200070214FF4374001F03BFF70214BF20170EF
:102C300001F036FF01214FF4384001F031FF03214C
:102C40004BF6010001F02CFF03214BF6020001F0CE
:102C500027FF03214BF6030001F022FF02214FF46E
:102C60003C4001F01DFF00214BF6014001F018FF30
:102C700000214BF6024001F013FFD0214FF44940F0
:102C800001F00EFF02214CF6011001F009FF502166
:102C90004CF6021001F004FF50214CF6031001F035
:102CA000FFFE50214CF6041001F0FAFE00214FF413
:102CB000545001F0F5FE55214FF4685001F0F0FE3C
:102CC0004FF4885001F0DCFE782002F0EFF84FF46A
:102CD000245001F0D5FE01F05EB9FE48808849F22B
:102CE000253188427ED147F6F001E52001F0D8FE7B
:102CF0004FF48071012001F0D3FE4FF4E061022017
:102D000001F0CEFE41F23001032001F0C9FE0021A6
:102D1000042001F0C5FE40F20221082001F0C0FEAF
:102D20000021092001F0BCFE00210A2001F0B8FEBC
:102D300000210C2001F0B4FE00210D2001F0B0FEB6
:102D400000210F2001F0ACFE0021102001F0A8FEB0
:102D50000721112001F0A4FE0021122001F0A0FEA5
:102D60000021132001F09CFE0021072001F098FEB5
:102D700041F29061102001F093FE40F227211120D2
:102D800001F08EFE9D21122001F08AFE4FF4C85101
:102D9000132001F085FE2521292001F081FE0D215F
:102DA0002B2001F07DFE0721302001F079FE40F25A
:102DB0000331312001F074FE0321322001F070FE56
:102DC00040F20621352001F06BFE0821362001F08B
:102DD00067FE40F20641372001F062FE4FF4417178
:102DE000382000E057E001F05BFE0721392001F0B8
:102DF00057FE40F202613C2001F052FE08213D20C6
:102E000001F04EFE0021502001F04AFEEF2151203A
:102E100001F046FE0021522001F042FE40F23F1137
:102E2000532001F03DFE4FF42741602001F038FEB1
:102E30000121612001F034FE00216A2001F030FE02
:102E40000021802001F02CFE0021812001F028FECD
:102E50000021822001F024FE0021832001F020FEC9
:102E60000021842001F01CFE0021852001F018FEC5
:102E70001021902001F014FE4FF4C061922001F067
:102E80000FFE40F23311072001F00AFE222100203C
:102E900001F006FE1FE78F48808849F228318842FA
:102EA0007ED141F28F01EC2001F0FAFD41F2342194
:102EB000EF2001F0F5FD4FF48071012001F0F0FDED
:102EC0004FF4E061022001F0EBFD41F230010320FC
:102ED00001F0E6FD0021042001F0E2FD40F20221B4
:102EE000082001F0DDFD0021092001F0D9FD0021BD
:102EF0000A2001F0D5FD01210C2001F0D1FD0021B7
:102F00000D2001F0CDFD00210F2001F0C9FD0021B1
:102F1000102001F0C5FD0721112001F0C1FD0021A5
:102F2000122001F0BDFD0021132001F0B9FD0121A7
:102F3000072001F0B5FD322001F092FF41F29041EF
:102F4000102001F0ADFD40F22721112001F0A8FD75
:102F5000322001F085FF8A21122001F0A1FD3220EC
:102F600001F07EFF4FF4D051132001F099FD0621AE
:102F7000292001F095FD0D212B2001F091FD32203B
:102F800001F06EFF0021202001F08AFD00212120A8
:102F900001F086FD322001F063FF0021302000E0C7
:102FA00074E001F07DFD40F20461312001F078FD14
:102FB00040F20531322001F073FD0021352001F08F
:102FC0006FFD40F60941362001F06AFD4FF40171B2
:102FD000372001F065FD40F20131382001F060FD3D
:102FE00040F20771392001F05BFD00213C2001F027
:102FF00057FD40F60A213D2001F052FD322001F03C
:103000002FFF0021502001F04BFDEF21512001F056
:1030100047FD0021522001F043FD40F23F115320B3
:1030200001F03EFD4FF42741602001F039FD012100
:10303000612001F035FD00216A2001F031FD002101
:10304000802001F02DFD0021812001F029FD0021CB
:10305000822001F025FD0021832001F021FD0021C7
:10306000842001F01DFD0021852001F019FD1021B3
:10307000902001F015FD4FF4C061922001F010FD89
:1030800040F23311072001F00BFD24E6114880883F
:1030900049F2203188427DD10021084601F000FD2F
:1030A0004FF48071012001F0FBFC4FF4E06102203D
:1030B00001F0F6FC41F23001032001F0F1FC0021A7
:1030C000042001F0EDFC40F20221082001F0E8FCB0
:1030D000002101E0EC000020092001F0E1FC0021CA
:1030E0000A2001F0DDFC01210C2001F0D9FC0021B7
:1030F0000D2001F0D5FC00210F2001F0D1FC322081
:1031000001F0AEFE40F20111072001F0C9FC3220AF
:1031100001F0A6FE4FF48651102001F0C1FC0721FA
:10312000112001F0BDFC4FF48871122001F0B8FCB1
:103130004FF43061132001F0B3FC0021292001F08D
:10314000AFFC44F210012B2001F0AAFC002150201A
:1031500001F0A6FCEF21512001F0A2FC0021522039
:1031600001F09EFC40F23F11532001F099FC4FF416
:103170001C51602001F094FC0121612001F090FCC1
:1031800000216A2001F08CFC0021802001F088FCE5
:10319000002100E031E0812001F082FC002182204A
:1031A00001F07EFC0021832001F07AFC00218420C4
:1031B00001F076FC0021852001F072FC10219020A6
:1031C00001F06EFC0021922001F06AFC01219320A5
:1031D00001F066FC4FF48871952001F061FC00213C
:1031E000972001F05DFC0021982001F059FC40F28D
:1031F0007311072001F054FC6DE5FE48808849F208
:10320000313188427DD141F21401E72001F048FCC0
:103210004FF48071012001F043FC4FF40071022053
:1032200001F03EFC41F23801032001F039FC40F28C
:103230000221082001F034FC0021092001F030FCBB
:1032400000210A2001F02CFC00210C2001F028FCB8
:1032500000210D2001F024FC00210F2001F020FCB2
:103260000021102001F01CFC0721112001F018FCA6
:103270000021122001F014FC0021132001F010FCA9
:10328000C82001F0EDFD41F29061102001F008FC32
:1032900040F22721112001F003FC322001F0E0FD73
:1032A0000C21122001F0FCFB322001F0D9FD4FF47B
:1032B0000061132001F0F4FB1121292001F0F0FB43
:1032C0000B212B2001F0ECFB322001F0C9FD002185
:1032D000202001F0E5FB40F23F11212001F0E0FB4E
:1032E0000021302001F0DCFB4FF48371312001F02C
:1032F000D7FB0021322001F0D3FB4FF401713520C0
:1033000000E064E001F0CCFB41F20A61362001F0FC
:10331000C7FB40F20771372001F0C2FB4FF4837105
:10332000382001F0BDFB40F20771392001F0B8FBF5
:1033300040F202413C2001F0B3FB40F60F413D203A
:1033400001F0AEFB0021502001F0AAFBEF2151203B
:1033500001F0A6FB0021522001F0A2FB40F23F1138
:10336000532001F09DFB4FF41C51602001F098FBAD
:103370000121612001F094FB00216A2001F090FB03
:103380000021802001F08CFB0021812001F088FBCE
:103390000021822001F084FB0021832001F080FBCA
:1033A0000021842001F07CFB0021852001F078FBC6
:1033B0001021902001F074FB4FF4C061922001F0C5
:1033C0006FFB40F23311072001F06AFB83E4894868
:1033D000808845F2084188427ED14FF480710120F7
:1033E00001F05EFB4FF4E061022001F059FB41F275
:1033F0003001032001F054FB0021042001F050FBB8
:1034000040F20721082001F04BFB0021092001F0C8
:1034100047FB00210A2001F043FB00210C2001F0B2
:103420003FFB00210D2001F03BFB00210F2001F0AC
:1034300037FB142001F014FD41F2B061102001F0BF
:103440002FFB0121112001F02BFB0121172001F09E
:1034500027FB4FF49C71122001F022FB4FF4006116
:10346000132001F01DFB0921292001F019FB09217E
:103470002A2001F015FB0021A42001F011FB0021FE
:10348000502001F00DFBEF21512001F009FB00213C
:10349000522001F005FB40F23F11532001F000FBE8
:1034A0004FF41C51602001F0FBFA0121612001F072
:1034B000F7FA00216A2001F0F3FA0021802001F0E0
:1034C000EFFA0021812001F0EBFA0021822001F0C7
:1034D000E7FA0021832000E023E001F0E1FA002177
:1034E000842001F0DDFA0021852001F0D9FA1321B2
:1034F000902001F0D5FA0021922001F0D1FA0321A9
:10350000932001F0CDFA4FF48871952001F0C8FAAC
:1035100040F27311072001F0C3FA322001F0A0FC41
:10352000B8E43448808841F2055188427ED10021B8
:10353000072001F0B5FA322001F092FC4FF48E71B1
:10354000122001F0ADFA0121A42001F0A9FA0F2107
:10355000082001F0A5FA08210A2001F0A1FA0821AB
:103560000D2001F09DFA40F20771302001F098FA29
:103570000721312001F094FA40F20361322001F07A
:103580008FFA4FF4E061332001F08AFA40F2022111
:10359000342001F085FA0221352001F081FA41F64C
:1035A0000F71362001F07CFA40F20771372001F0EC
:1035B00077FA0021382001F073FA0021392001F058
:1035C0006FFA40F207713A2001F06AFA00213B20BD
:1035D00001F066FA07213C2001F062FA00213D204B
:1035E00001F05EFA322001F03BFC0121072001F0DE
:1035F00057FA01E0EC0000200121172001F050FAF9
:10360000322001F02DFC4FF4BD51102001F048FA9A
:1036100040F21721112001F043FA4FF48F7112206C
:1036200001F03EFA4FF47061132000E097E001F0E2
:1036300037FA00212A2001F033FA0A21292001F06B
:103640002FFA4FF49F71122001F02AFA0021502026
:1036500001F026FAEF21512001F022FA0021522038
:1036600001F01EFA40F23F11532001F019FA4FF415
:103670001C51602001F014FA0121612001F010FAC0
:1036800000216A2001F00CFA0021802001F008FAE4
:103690000021812001F004FA0021822001F000FACB
:1036A0000021832001F0FCF90021842001F0F8F9C9
:1036B0000021852001F0F4F91321902001F0F0F9A8
:1036C0004FF44071922001F0EBF90521932001F0B5
:1036D000E7F90021952001F0E3F90021972001F09E
:1036E000DFF90021982001F0DBF94FF4807101200F
:1036F00001F0D6F94FF4E061022001F0D1F941F276
:103700003801032001F0CCF90021042001F0C8F9B0
:1037100000210C2001F0C4F900210F2001F0C0F9B4
:103720000021202001F0BCF90021212001F0B8F98E
:103730002121072001F0B4F9142001F091FB61214F
:10374000072001F0ADF9142001F08AFB40F273115B
:10375000072001F0A5F9142001F082FB95E4FE4852
:1037600080884BF2055188427ED10021084601F045
:1037700097F90021084601F093F90021084601F06D
:103780008FF90021084601F08BF90121A42001F0F6
:1037900087F9142001F064FB4FF41C51602001F004
:1037A0007FF940F20221082001F07AF94FF4057107
:1037B000302001F075F943F21571312001F070F9F4
:1037C00040F20461322001F06BF940F616613320BB
:1037D00001F066F942F21121342001F061F94FF451
:1037E000A851352001F05CF948F20751362001F06C
:1037F00057F941F20741372001F052F941F20341F4
:10380000382001F04DF92021392001F049F91A2121
:10381000902001F045F90021102001F041F9072125
:10382000112001F03DF90021122001F039F90021A9
:10383000132001F035F9142001F012FB4FF4E6617A
:10384000102001F02DF940F23711112001F028F974
:10385000142001F005FB4FF4DC71122001F020F977
:10386000142001F0FDFA00E083E04FF470611320B2
:1038700001F016F980212A2001F012F948212920AF
:1038800001F00EF9142001F0EBFA4FF480710120E1
:1038900001F006F94FF4E061022001F001F941F274
:1038A0003801032001F0FCF840F20221082001F069
:1038B000F7F800210A2001F0F3F800210C2001F0B4
:1038C000EFF800210D2001F0EBF830210E2001F07F
:1038D000E7F80021502001F0E3F8EF21512001F03A
:1038E000DFF80021522001F0DBF840F23F115320B5
:1038F00001F0D6F84FF41C51602001F0D1F80121FD
:10390000612001F0CDF800216A2001F0C9F81121F1
:10391000902001F0C5F84FF4C061922001F0C0F88A
:1039200040F20241932001F0BBF80221942001F003
:10393000B7F8142001F094FA0121072001F0B0F843
:10394000142001F08DFA6121072001F0A9F840F25E
:103950007311072001F0A4F80021202001F0A0F845
:103960000021212001F09CF82221002001F098F88C
:1039700011E3794880884CF2055188427ED10021BC
:10398000084601F08DF80021084601F089F814205E
:1039900001F066FA0021084601F082F8002108468D
:1039A00001F07EF80021084601F07AF8002108466F
:1039B00001F076F80121A42001F072F8142001F042
:1039C0004FFA4FF41C51602001F06AF840F60601EE
:1039D000082001F065F840F20371302001F060F832
:1039E0000121312001F05CF80421322001F058F867
:1039F0004FF48171332001F053F84FF440713420BB
:103A000001F04EF840F20311352001F049F81F2172
:103A1000362001F045F840F20371372001F040F8FC
:103A20000121382001F03CF80421392001F038F858
:103A30001521902001F034F84FF48261102001F03C
:103A40002FF840F24721112001F02AF84FF4DE71DF
:103A5000122001F025F84FF46061132001F020F8E6
:103A6000782001F0FDF94FF48071012001F018F881
:103A70004FF40071022001F013F800E050E041F231
:103A80003001032001F00CF808210A2001F008F8A9
:103A900000210C2001F004F820210E2001F000F894
:103AA00000210F2000F0FCFF0021202000F0F8FF93
:103AB0000021212000F0F4FF3D212A2000F0F0FF3A
:103AC000142001F0CDF92D21292000F0E9FF00217B
:103AD000502000F0E5FF4DF2EF01512000F0E0FF33
:103AE0000021522000F0DCFF40F23F11532000F093
:103AF000D7FF0021612000F0D3FF00216A2000F0F1
:103B0000CFFF4FF44071922000F0CAFF05219320AF
:103B100000F0C6FF4FF48071072000F0C1FF3AE2C9
:103B20000D48808844F2315188427CD10121002027
:103B300000F0B6FF0A2001F093F941F2286110204D
:103B400000F0AEFF0E21122000F0AAFF40F639214E
:103B5000132000F0A5FF01E0EC0000200A2001F096
:103B60007FF94021112000F09BFF5021152000F02B
:103B700097FF0A2001F074F91E21122000F090FF37
:103B80000A2001F06DF94FF4B151102000F088FFC8
:103B900042F63921132000F083FF0A2001F060F97A
:103BA0004FF48071012000F07BFF4FF44071022040
:103BB00000F076FF41F23801032000F071FF40F27F
:103BC0000221082000F06CFF08210A2000F068FFA5
:103BD0000021302000F064FF40F20241312000F06B
:103BE0005FFF4FF48371322000F05AFF40F203511F
:103BF000332000F055FF4FF48271342000F050FF65
:103C000040F20131352000F04BFF40F207713620C1
:103C100000F046FF40F20531372000F041FF4FF43D
:103C20000271382000E040E000F03AFF40F60B71EE
:103C3000392000F035FF0221412000F031FF4FF420
:103C40001C51602000F02CFF0121612000F028FFB2
:103C50004FF40471902000F023FF4FF485719220FF
:103C600000F01EFF0421932000F01AFF4FF4807132
:103C7000A02000F015FF0121072000F011FF2121F5
:103C8000072000F00DFF2321072000F009FF33215A
:103C9000072000F005FF40F23311072000F000FF7D
:103CA0000021A02000F0FCFE75E1C148808844F2AC
:103CB000355188427ED13021152000F0F1FE1021CF
:103CC0009A2000F0EDFE2021112000F0E9FE43F2E1
:103CD0002841102000F0E4FE0221122000F0E0FE56
:103CE00041F23801132000F0DBFE282001F0B8F883
:103CF0001221084600F0D4FE282001F0B1F843F26A
:103D00002041102000F0CCFE43F23801132000F0D7
:103D1000C7FE462001F0A4F80021302000F0C0FECC
:103D200040F20241312000F0BBFE40F20731322068
:103D300000F0B6FE4FF44171332000F0B1FE0421D3
:103D4000342000F0ADFE40F20141352000F0A8FE25
:103D500040F20771362000F0A3FE40F20531372013
:103D600000F09EFE4FF4C261382000F099FE4FF43F
:103D7000C261392000F094FE4FF48071012000F000
:103D80008FFE4FF44071022000F08AFE41F23001B4
:103D9000032000F085FE40F60801082000F080FEB8
:103DA00008210A2000F07CFE4FF41C51602000F036
:103DB00077FE00E031E00121612000F071FE4FF458
:103DC0009F71902000F06CFE4FF48071922000F003
:103DD00067FE4FF48071932000F062FE4FF4405173
:103DE000A02000F05DFE1021A32000F059FE01216B
:103DF000072000F055FE2121072000F051FE23216D
:103E0000072000F04DFE3321072000F049FE40F26C
:103E10003311072000F044FEBDE06548808841F67C
:103E200063118842F8D1E22000F02AFE1D2000F044
:103E300021FE022000F01EFE042000F01BFE642084
:103E400001F034F8E02000F01BFE012000F012FE2B
:103E50000A2001F005F8E02000F012FE032000F037
:103E600009FE0C2000F0FCFF012000F009FE0A20F2
:103E700000F0F6FFE62000F003FE2F2000F0FAFD30
:103E8000FF2000F0F7FDFF2000F0F4FDB02000F06F
:103E9000F7FD202000F0EEFD002000F0EBFD0320F8
:103EA00000F0E8FD40F21F3000F0E4FD012000F0DA
:103EB000E1FD40F2DF1000F0DDFD002000F0DAFD52
:103EC000B42000F0DDFD042000F0D4FD40F21F40DE
:103ED00000F0D0FD002000F0CDFD2E2000F0CAFD46
:103EE000002000F0C7FD002000F0C4FD002000F01D
:103EF000C1FD002000F0BEFDB62000F0C1FD022093
:103F000000F0B8FD4FF4037000F0B4FD002000F0A5
:103F1000B1FD172000F0AEFD152000F0ABFD002034
:103F200000F0A8FD002000F0A5FDF02000F0A8FDA5
:103F3000032000F09FFD292000F0A2FDD02000F01A
:103F40009FFD002000F096FDBE2000F099FD0520A9
:103F500000F090FDFE2000F08DFD012000F08AFDB4
:103F6000002000F087FD002000F084FD002000F01C
:103F700081FDB82000F084FD032000F07BFD0120CE
:103F800000F078FDBA2000F07BFD012000F072FD0A
:103F9000642000F027F80020FCF7C2FA0120054950
:103FA00008604FF6FF70FCF785FA1FB000BD0000F7
:103FB000EC0000208081214208B503480088009071
:103FC000BDF8000008BD00000008006C10B50446F4
:103FD000204600F055FD052000F068FFFFF7ECFFDC
:103FE00010BD00002DE9F0470446BE2000F048FD5A
:103FF000052000F03FFD204601F05DF807464FF038
:1040000066320C4B01F06AF8054601F027F81FFAFA
:1040100080F9484600F02EFD012000F02BFDFF2026
:1040200000F028FD002000F025FD002000F022FD1A
:10403000BDE8F0876666044070B50446002300269C
:10404000B748807901280BD1B548808846F604012D
:10405000884205D0B248808841F66311884208D171
:10406000AF488079F0B9AE48808841F66311884244
:1040700018D1082C15D2DFE804F00406080A0C0E4B
:10408000101206240DE007240BE0042409E00524A7
:1040900007E0012405E0002403E0032401E00224FA
:1040A00000BF00BF9E48808849F24131884217D046
:1040B0009B48808846F60401884211D09848808841
:1040C00045F2103188420BD09548808845F2105156
:1040D000884205D09248808841F6631188427DD19C
:1040E000082C1CD2DFE804F00406090C0F12151886
:1040F00000BF14E043F0800311E043F040030EE002
:1041000043F0C0030BE043F0200308E043F06003FA
:1041100005E043F0A00302E043F0E00300BF00BF6E
:104120007F48808845F21051884202D14FF458569A
:1041300000E036267A48808845F2103188420DD05A
:104140007748808845F21051884207D074488088AB
:1041500041F66311884201D043F00803704880881B
:1041600046F60401884201D143F002031946304665
:1041700000F096FC6A48808841F6631188421DD0A1
:1041800003F0200068B16648008865494988884284
:1041900014DA6348058840886149088008464580EC
:1041A0000CE05F4800885E494988884206DD5C482B
:1041B000058840885A4908800846458058488088C4
:1041C00045F21051884254D15549488900F058FCB5
:1041D000002000F04FFC5249498900E078E0491C7A
:1041E00088B200F04DFC002000F044FC4C494989A5
:1041F000891C88B200F044FC49490988491EC1F372
:104200000F2000F037FC46494989C91C88B200F0EC
:1042100037FC43490978491EC8B200F02BFC4049DD
:10422000888900F02DFC002000F024FC3C4989899D
:10423000491C88B200F024FC002000F01BFC384927
:104240008989891C88B200F01BFC35494988491EC0
:10425000C1F30F2000F00EFC31498989C91C88B2D6
:1042600000F00EFC2E498978491EC8B200F002FC0D
:1042700055E02B49488900F003FC002000F0FAFBD0
:10428000002000F0F7FB26490988491EC1F30F20E2
:1042900000F0F0FB22490978491EC8B200F0EAFBA1
:1042A0001F49888900F0ECFB002000F0E3FB0020B0
:1042B00000F0E0FB1A494988491EC1F30F2000F0C5
:1042C000D9FB17498978491EC8B200F0D3FB26E014
:1042D000082C1CD2DFE804F004070A0D0F12151891
:1042E00043F0300313E043F0100310E043F02003E9
:1042F0000DE000BF0BE043F0380308E043F0280373
:1043000005E043F0180302E043F0080300BF00BFDC
:10431000032643F480531946304600F0C1FB70BDBC
:10432000EC00002010B503460C466748808849F22F
:104330004131884205D06448808845F21031884276
:1043400014D16149488900F09BFB181200F092FBE0
:10435000D8B200F08FFB5C49888900F091FB2012F5
:1043600000F088FBE0B200F085FBABE056488088A7
:1043700046F6040188421DD153488079012804D1B2
:1043800051480088401EC01A83B24F49488900F046
:1043900077FB181200F06EFBD8B200F06BFB4A49B5
:1043A000888900F06DFB201200F064FBE0B200F0A1
:1043B00061FB87E04448808841F66311884247D119
:1043C00041488079A8B940480088401EC01A83B28D
:1043D0003D49488900F054FB002000F04BFB0020D1
:1043E00000F048FB181200F045FBD8B200F042FB89
:1043F00016E03549488900F043FB181200F03AFBFB
:10440000D8B200F037FB30490988491EC1F30F20AC
:1044100000F030FB2C490978491EC8B200F02AFB95
:104420002949888900F02CFB201200F023FBE0B220
:1044300000F020FB24494988491EC1F30F2000F0F9
:1044400019FB21498978491EC8B200F013FB39E0F5
:104450001D48808845F21051884220D11A49488968
:1044600000F00EFB181200F005FB17494989491CA2
:1044700088B200F005FBD8B200F0FCFA1249888936
:1044800000F0FEFA201200F0F5FA0F498989491C64
:1044900088B200F0F5FAE0B200F0ECFA12E00A4857
:1044A0008079012804D108480088401EC01A83B2D0
:1044B00005494889194600F0F3FA034988892146DD
:1044C00000F0EEFA10BD0000EC0000202DE9F04FE6
:1044D00086B004460D469046994604EB0800401EFF
:1044E00086B205EB0900401E87B27C48808849F2FD
:1044F0004131884215D07948808845F21031884290
:104500000FD07648808846F60401884209D0734867
:104510008079012826D17148808841F6631188424C
:1045200020D16E49488900F0ABFA201200F0A2FABF
:10453000E0B200F09FFA301200F09CFAF0B200F006
:1045400099FA6649888900F09BFA281200F092FADD
:10455000E8B200F08FFA381200F08CFAF8B200F0EE
:1045600089FAB8E05D48808841F66311884234D109
:104570005A480088A0EB0800001B84B205EB090034
:10458000401E1FFA80F95549488900F079FA201237
:1045900000F070FAE0B200F06DFA04EB0801491E79
:1045A000C1F30F2000F066FA04EB0801491EC8B2FF
:1045B00000F060FA4949888900F062FA281200F098
:1045C00059FAE8B200F056FA4FEA292000F052FA00
:1045D00009F0FF0000F04EFA7DE04048808845F287
:1045E0001051884244D13D49488900F049FA2012CF
:1045F00000F040FA39494989491C88B200F040FA74
:10460000E0B200F037FA35494989891C88B200F0D8
:1046100037FA301200F02EFA30494989C91C88B2A5
:1046200000F02EFAF0B200F025FA2C49888900F04B
:1046300027FA281200F01EFA28498989491C88B2F5
:1046400000F01EFAE8B200F015FA24498989891CA5
:1046500088B200F015FA381200F00CFA1F49898967
:10466000C91C88B200F00CFAF8B200F003FA32E08C
:104670001A48807901280ED1AA46BB4617480088FF
:10468000801B401E80B2019014480088001B401E11
:1046900080B2009003E0A246B346019500975020F7
:1046A00005905120049052200390532002905146CF
:1046B000059800F0F5F95946049800F0F1F90199D0
:1046C000039800F0EDF90099029800F0E9F9294605
:1046D0002046FFF727FE06B0BDE8F08FEC00002073
:1046E0002DE9F84F80460E4617461C46B346204635
:1046F000E31704EB5373DB1021464FEAE47C04EB31
:104700005C7C4FEAEC0CA4EBCC0CBCF1000F02D0AB
:104710004FF0010C01E04FF0000C6344224604EB23
:10472000D27C4FEA6C0C03FB0CF3DBB20093A7F1D5
:104730002000C7B2002556E00C2C07D107EB47003C
:104740002B4901EB800010F8059013E0102C05D1E7
:10475000284800EB071010F805900BE0182C07D143
:1047600007EBC700244901EB800010F8059001E039
:10477000BDE8F88F4FF0000A2FE009F0800030B15B
:104780001E48028831464046FBF7AAFF07E00A9818
:1047900028B91B48028831464046FBF7A1FF4FEA83
:1047A00049604FEA1069701C86B216484088B042D2
:1047B00000DCDDE7A6EB0B00A0420AD15E4608F163
:1047C00001001FFA80F80F480088404500DCCFE761
:1047D00006E00AF1010000F0FF0ABAF1080FCCDB95
:1047E00000BF681CC5B200988542A5DB00BFBFE7CB
:1047F00030580008A45C0008946200081E000020E5
:1048000020000020EC0000202DE9FC4F82460F46DE
:1048100016461D4601972846EA1705EB5272D2103C
:104820002946EB1705EB5373DB10A5EBC3030BB164
:10483000012300E000231A446A43D2B200924FF0F1
:10484000FF390C2D1DD1002418E0307804EB440111
:1048500001EB0411614A52F82110097888420BD10A
:10486000707804EB440101EB041152F821104978EF
:10487000884201D1A14603E0601CC4B2042CE4D3F9
:1048800041E0102D1DD1002418E0307804EB4401E4
:1048900001EB0411524A52F82110097888420BD1D9
:1048A000707804EB440101EB041152F821104978AF
:1048B000884201D1A14603E0601CC4B2082CE4D3B5
:1048C00021E0182D1DD1002418E0307804EB4401BC
:1048D00001EB0411434A52F82110097888420BD1A8
:1048E000707804EB440101EB041152F8211049786F
:1048F000884201D1A14603E0601CC4B2062CE4D377
:1049000001E0BDE8FC8F09F1010000B9F9E70024DE
:104910005EE00C2D0AD109EB490000EB09102F498C
:1049200001EB8000001D10F8048018E0102D0AD162
:1049300009EB490000EB0910294901EB8000001D3B
:1049400010F804800BE0182D09D109EB490000EBA9
:104950000910244901EB8000001D10F804804FF07D
:10496000000B2FE008F0800030B11F480288394664
:104970005046FBF7B5FE07E00B9828B91B480288A4
:1049800039465046FBF7ACFE4FEA48604FEA1068E4
:10499000781C87B216484088B84200DCB1E701981D
:1049A000381AA8420AD1019F0AF101001FFA80FAC1
:1049B0000F480088504500DCA3E706E00BF101003A
:1049C00000F0FF0BBBF1080FCCDB00BF601CC4B2D2
:1049D000009884429DDB00BF93E70000D852000896
:1049E00008540008685600081E000020200000201F
:1049F000EC0000202DE9F84705460E469046994602
:104A0000DDE9097405F0FF0A08EB05001FFA80F8DC
:104A100009EB06001FFA80F922E0454502DB554606
:104A2000F01986B24E4500DB20E020787F280BDDB0
:104A300000203B462246314600902846FFF7E4FE20
:104A4000E81985B2A41C0BE00020009022783B46B8
:104A500031462846FFF744FE05EB670085B2641C2B
:104A600020787F2802D020782028D6DA00BFBDE841
:104A7000F887000001490880704700000008006CBA
:104A80000149088070470000FE07006C0248008959
:104A90000249088070470000EC000020FE07006C0F
:104AA000024A1080921C118070470000FE07006CC3
:104AB00008B50121482000F041F82020ADF80000A1
:104AC00010208DF8030003208DF802006946094884
:104AD000FBF761FC20210748FBF7E8FC2020ADF83C
:104AE000000069460448FBF756FC20210248FBF70A
:104AF000DDFC08BD000C01400018014000BFFEE7CE
:104B00007047000002490143024A116070470000EB
:104B10000000FA050CED00E07047000029B1064ADC
:104B200052690243044B5A6104E0034A52698243CA
:104B3000014B5A61704700000010024029B1064A3B
:104B400092690243044B9A6104E0034A92698243EA
:104B5000014B9A617047000000100240704710B589
:104B600000F002F810BD00000CB50020019000908C
:104B70003348006840F480303149086000BF304855
:104B8000006800F4003000900198401C01900098EB
:104B900018B90198B0F5A06FF1D12948006800F468
:104BA000003010B10120009001E00020009000983A
:104BB000012843D12348006840F0100021490860D3
:104BC0000846006820F0030008600846006840F0CE
:104BD000020008601A484068194948600846406861
:104BE00048600846406840F4806048600846406875
:104BF00020F47C1048600846406840F4E8104860A3
:104C00000846006840F08070086000BF0C480068EB
:104C100000F000700028F9D00948406820F0030037
:104C2000074948600846406840F00200486000BFFD
:104C30000348406800F00C000828F9D10CBD0000C2
:104C40000010024000200240042808D14FF0E0216B
:104C5000096941F004014FF0E022116107E04FF0D3
:104C6000E021096921F004014FF0E0221161704751
:104C70007047000010B51348006840F0010011496A
:104C8000086008464068104908400E4948600846D8
:104C900000680E4908400B4908600846006820F487
:104CA000802008600846406820F4FE0048604FF409
:104CB0001F008860FFF753FF4FF000600449086051
:104CC00010BD0000001002400000FFF8FFFFF6FEDC
:104CD00008ED00E010B50121084800F016F858B1C1
:104CE0000121064800F00EF80548006808B90120C7
:104CF00000E000200249086010BD000000080040EC
:104D000094012342CA430282704730B50246002014
:104D100000230024158A05EA0103958905EA0104A8
:104D200013B10CB1012000E0002030BD10B540F2FD
:104D300025511D4800F03EF810B31B4800F064F800
:104D4000C4B21A48008800F40040C8B91748008867
:104D500000F4804060B10A2C03D000201349088081
:104D600020E01248008840F400401049088019E013
:104D70000D2C06D10D48008840F480400B49088076
:104D800010E00A480088C0F30D0009490C54074898
:104D90000088401C0549088008460088C72801DDB6
:104DA0000020088010BD0000003801401C000020D9
:104DB0002400002070B502460024002300250020B6
:104DC00040F66A16B14200D100BFC1F3421501F0AE
:104DD0001F03012606FA03F3012D02D19689334001
:104DE00006E0022D02D1168A334001E0968A334054
:104DF0000C12012606FA04F41688344013B10CB1E3
:104E0000012000E0002070BD01468888C0F3080042
:104E1000704700BFFEE7014600BF704710B56FF056
:104E20000400FFF711FF0A4800680A49B0FBF1F0DF
:104E3000094908700846007800EB4001C1EBC0103A
:104E40004FF6FF7101EAC0000449088010BD000060
:104E50000000002000127A0014000020160000203C
:104E60000146114A12884A434FF0E0235A6100225A
:104E70009A611A46126942F001021A6100BF4FF0AE
:104E8000E022106900F001021AB100F48032002A19
:104E9000F5D04FF0E022126922F001024FF0E0233A
:104EA0001A6100229A617047160000200146114ADB
:104EB00012784A434FF0E0235A6100229A611A4661
:104EC000126942F001021A6100BF4FF0E02210693E
:104ED00000F001021AB100F48032002AF5D04FF040
:104EE000E022126922F001024FF0E0231A61002251
:104EF0009A617047140000202DE9FC4106460F46D8
:104F000014464FF00808254604EB08002978CDE93F
:104F10000010AB886A883946304600F011F8BDE8C9
:104F2000FC8110B502462AB111F8014B20020B7822
:104F3000184304E011F8010B0B7840EA032010BD80
:104F40002DE9F84F81468A4615461E46DDE90A7866
:104F50004FF0000B07F0030068B90020FFF76CF872
:104F600033462A4651464846FFF7B0FA514648466E
:104F7000FFF7D8F90CE00420FFF75EF833462A4625
:104F800051464846FFF7A2FA51464846FFF7CAF98C
:104F9000FFF77CFD05FB06FB00240AE007F010008C
:104FA0004146FFF7BEFF0090FFF764FD08F10208DD
:104FB000641C5C45F2D304484388028800210846FB
:104FC000FFF784FABDE8F88FEC0000201CB500BFA5
:104FD000FFF724FF4FF4A060FFF794FDFBF73EFCC2
:104FE000FFF766FD4FF47840144908804FF6FF70D4
:104FF000FBF760FA12A018210B46C822CDE9001079
:1050000028215020FFF7F6FC114A64213220FFF7D7
:1050100073FF11E000200F4908600F49C1F89401A7
:10502000C820FFF71DFF01200A4908600A49C1F89E
:105030009401C820FFF714FFECE700001E000020D9
:10504000B4B4D0C2D1A7D4BA20B7E7F3DD000000D2
:10505000F06F000894812142000023424FEA11536F
:10506000A3F58063D3F11E03A8BFD3F1200C08DBA6
:105070004FF0004242EAC12252EA505232FA03F0A3
:10508000704709420BD4102BC4BF0020704703F5B2
:10509000787CBCF1FF3F05D04FF0FF3070474FF0F8
:1050A0000000704770B500F0C3F800BF499224803B
:1050B00000207047F0E7B0FA80F310FA03F10AD04D
:1050C000C3F11D0303F580634FEA41504FEA0352D9
:1050D00002EBD12170474FF000007047DFF848C164
:1050E00070B51CEA111E1EBF1CEA13159EEA0C0FB8
:1050F00095EA0C0F00F06F8081EA030423EA4C1359
:105100004EEAD47E21EA4C1141F4801143F480131D
:10511000AE44A1FB024CA0FB0365AEF17F7E3619C5
:1051200055EB0C05A1FB034C4CF10003A0FB021C4A
:1051300016EB0C06654153F10003094218BF46F017
:10514000010613F4007F0BD14FEA03314FEA05301B
:10515000340341EA155140EA16506FF003020AE0A9
:105160004FEAC3214FEAC520F40241EA555140EA13
:1051700056506FF0020202EB2E4201EB025585EA17
:10518000CE710AD05FEA440C18BF24F0004450F1FD
:10519000000041F1000120EAD47040F2FE7C62453B
:1051A00000D270BDA84214BF4FF080444FF040447D
:1051B000002E08BF0024BEF1806FA8BFA1F1C0413E
:1051C000BDE8704080F282804FF0000001F1C041E4
:1051D00001F0004170479EEA0C0F0CEA131518BF4E
:1051E00095EA0C0F06D04FF0000081EA030E0EF096
:1051F000004170BD00F01CF88900013E00F007B8C6
:1052000000F009B84FEA430C5FEA5C5C08D081EA21
:10521000030100F05BB84FEA410C5FEA5C5CF6D139
:105220004FF00000014970470000FF070000F87FC1
:105230000EF1020E2EF0030E5EF8046B364205D41A
:10524000012A43EB030515F5001F12D8012841EB95
:10525000010C1CF5001F0CD80ED14FEAD17C15F5BE
:10526000001F0CEB4C0C0CF1020C08BF4CEBD37C78
:1052700004E04FF0080C01E04FEAD37C0CEB4C0546
:1052800026FA05F606F00706B6F1040C06D20EEB78
:10529000860CBDE870404CF0010C6047DFE80CF074
:1052A000090B02024FF000414FF00000A1F5002170
:1052B00070BD19461046012851EB010418BFD4F502
:1052C000001484BF002001F0004170BD0808A0F563
:1052D00000114FEA31017047B4A8010800104010D6
:1052E00047F0401040107FF0421042104210421030
:1052F000001000000000000000000000000000009E
:10530000000000000000000000000000000000009D
:10531000000000000000000000000000000000008D
:1053200000000000A0A8010800100FA0088008A03D
:105330000890F88048A0489048804FA04010000096
:10534000000000000000000000000000000000005D
:10535000000000000000000000000000000000004D
:10536000000000000000000000000000000000003D
:105370007CA8010800107FE040105F2055407510A8
:1053800055F0550055405F2040100000000000001F
:10539000000000000000000000000000000000000D
:1053A00000000000000000000000000000000000FD
:1053B00000000000000000000000000094A80108A8
:1053C000020002004200421042104FF05200620000
:1053D0004200020002000000000000000000000087
:1053E00000000000000000000000000000000000BD
:1053F00000000000000000000000000000000000AD
:105400000000000000000000ACA80108082008C04F
:105410000B00FFFF090008C00202222222222222E2
:10542000FEFE2222222222220202000000000000B0
:10543000000000000000000000000000000000006C
:10544000000000000000000000000000000000005C
:105450000000000098A80108082008C00B00FFFF0A
:10546000090008880010082008C00B00FFFF0B008F
:1054700008C0082008100000000000000000000024
:10548000000000000000000000000000000000001C
:10549000000000000000000000000000000000000C
:1054A000A4A80108000000001FF81110111011102D
:1054B0001110FFFE11111111111111111FF900012D
:1054C000000F0000000000000000000000000000CD
:1054D00000000000000000000000000000000000CC
:1054E00000000000000000000000000094A8010877
:1054F000010041004100410041004102410147FEDD
:105500004500490051006100410001000100000018
:10551000000000000000000000000000000000008B
:10552000000000000000000000000000000000007B
:10553000000000000000000090A801082410246072
:1055400025807FFFC50044800020442033200020B8
:105550000020FFFF0040004000400000000000006D
:10556000000000000000000000000000000000003B
:10557000000000000000000000000000000000002B
:105580000000000088A80108082008220841FFFE4A
:10559000088009011001110211C21134FF08111411
:1055A00011621181100100000000000000000000E5
:1055B00000000000000000000000000000000000EB
:1055C00000000000000000000000000000000000DB
:1055D000B0A8010804010401040204040408043012
:1055E00004C0FF0004C004300408040404020401E1
:1055F00004010000000000000000000000000000A6
:10560000000000000000000000000000000000009A
:1056100000000000000000000000000078A8010861
:1056200002200C2088206920092009228921697E16
:10563000096009A019202820C8200A200C20000099
:10564000000000000000000000000000000000005A
:10565000000000000000000000000000000000004A
:10566000000000000000000080A801080000000009
:10567000100000200000C000017FF806400C3840F8
:1056800004704104104184084184087F04064004EA
:1056900007007C00000800000002008003FF0000FB
:1056A00000040000040000063FFFFC3FFFF800007C
:1056B000000000008CA8010800000000200804245D
:1056C000100424600725C805E4843424061C3FFC2C
:1056D00004640007A5000424C2042C64002408000C
:1056E00020700FFFC0082000082000082000083F9D
:1056F000FE103FFC10200000200000000000000011
:1057000078A8010800000000010000210001E1006C
:105710000101002121001921000F210001210801B0
:1057200021046121043D210E1D23FC0125000129D6
:10573000000331001D3100712100210100014100F1
:1057400001830001810000000000000084A801081E
:105750000000000000000000001FFFFC100080108F
:10576000C0801320C21C19821007040108040F080E
:10577000080448300449E0044F003448001C480045
:10578000044FFC0448040448040508040608040403
:10579000003C000000000000A8A801080000000074
:1057A00000020000040000180FFFE00FFE100800C8
:1057B00020080040084080082100081200080C0062
:1057C000083E0008E3000981C00800C00800001F6F
:1057D000FF800801E000003800000C00001C000001
:1057E000E60000009CA80108000000008000010203
:1057F00000020A000C12403832402872402FD2407A
:105800000992400B9244189244089FFE039FF804AB
:10581000B24038D2406892402812400E12400B1F0E
:10582000E008120008020008060000000000000066
:105830000000000000000000000000000000000068
:105840003F40000000000000000030004000300039
:105850004000000009000BC03D000BC03D000900E6
:1058600018C024407FE0224031800000180024C08E
:105870001B000D803240018003801C4027401C80AB
:105880000740004010006000000000000000000021
:105890000000000000001F80204040200000402049
:1058A00020401F8000000000090006001F80060045
:1058B00009000000040004003F8004000400000010
:1058C0000010006000000000000000000400040060
:1058D000040004000400000000000040000000007C
:1058E00000000000002001C0060038004000000059
:1058F0001F802040204020401F80000000001040FA
:105900003FC000400000000018C021402240244059
:105910001840000010802040244024401B800000DC
:1059200002000D0011003FC0014000003C802440F7
:1059300024402440238000001F8024402440344021
:10594000038000003000200027C038002000000045
:105950001B802440244024401B8000001C0022C0E7
:10596000224022401F80000000000000084000008C
:1059700000000000000000000460000000000000C3
:10598000000004000A0011002080404009000900C6
:1059900009000900090000000000404020801100BB
:1059A0000A00040018002000234024001800000012
:1059B0001F802040274029401F400000004007C0B2
:1059C00039000F0001C0004020403FC02440244067
:1059D0001B8000001F8020402040204030800000BD
:1059E00020403FC0204020401F80000020403FC09A
:1059F00024402E4030C0000020403FC024402E00F4
:105A0000300000000F001080204022403380020050
:105A100020403FC0040004003FC020402040204000
:105A20003FC02040204000000060202020203FC0D8
:105A30002000200020403FC024400B0030C0204008
:105A400020403FC020400040004000C03FC03C001C
:105A500003C03C003FC0000020403FC00C4023007A
:105A60003FC020001F802040204020401F800000B9
:105A700020403FC024402400180000001F80214027
:105A8000214020E01FA0000020403FC0244026000D
:105A900019C0004018C0244024402240318000003A
:105AA000300020403FC020403000000020003F80F8
:105AB000004000403F80200020003E0001C0070061
:105AC00038002000380007C03C0007C03800000044
:105AD000204039C0060039C0204000002000384076
